{
  "contractName": "BasketManager",
  "abi": [
    {
      "anonymous": false,
      "inputs": [],
      "name": "BasketStatusChanged",
      "type": "event"
    },
    {
      "anonymous": false,
      "inputs": [
        {
          "indexed": false,
          "internalType": "address[]",
          "name": "bAssets",
          "type": "address[]"
        },
        {
          "indexed": false,
          "internalType": "uint256[]",
          "name": "maxWeights",
          "type": "uint256[]"
        }
      ],
      "name": "BasketWeightsUpdated",
      "type": "event"
    },
    {
      "anonymous": false,
      "inputs": [
        {
          "indexed": true,
          "internalType": "address",
          "name": "bAsset",
          "type": "address"
        },
        {
          "indexed": false,
          "internalType": "address",
          "name": "integrator",
          "type": "address"
        }
      ],
      "name": "BassetAdded",
      "type": "event"
    },
    {
      "anonymous": false,
      "inputs": [
        {
          "indexed": true,
          "internalType": "address",
          "name": "bAsset",
          "type": "address"
        }
      ],
      "name": "BassetRemoved",
      "type": "event"
    },
    {
      "anonymous": false,
      "inputs": [
        {
          "indexed": true,
          "internalType": "address",
          "name": "bAsset",
          "type": "address"
        },
        {
          "indexed": false,
          "internalType": "enum MassetStructs.BassetStatus",
          "name": "status",
          "type": "uint8"
        }
      ],
      "name": "BassetStatusChanged",
      "type": "event"
    },
    {
      "anonymous": false,
      "inputs": [
        {
          "indexed": true,
          "internalType": "address",
          "name": "bAsset",
          "type": "address"
        },
        {
          "indexed": false,
          "internalType": "bool",
          "name": "enabled",
          "type": "bool"
        }
      ],
      "name": "TransferFeeEnabled",
      "type": "event"
    },
    {
      "inputs": [],
      "name": "basket",
      "outputs": [
        {
          "internalType": "uint8",
          "name": "maxBassets",
          "type": "uint8"
        },
        {
          "internalType": "bool",
          "name": "undergoingRecol",
          "type": "bool"
        },
        {
          "internalType": "bool",
          "name": "failed",
          "type": "bool"
        },
        {
          "internalType": "uint256",
          "name": "collateralisationRatio",
          "type": "uint256"
        }
      ],
      "stateMutability": "view",
      "type": "function"
    },
    {
      "inputs": [
        {
          "internalType": "uint256",
          "name": "",
          "type": "uint256"
        }
      ],
      "name": "integrations",
      "outputs": [
        {
          "internalType": "address",
          "name": "",
          "type": "address"
        }
      ],
      "stateMutability": "view",
      "type": "function"
    },
    {
      "inputs": [],
      "name": "mAsset",
      "outputs": [
        {
          "internalType": "address",
          "name": "",
          "type": "address"
        }
      ],
      "stateMutability": "view",
      "type": "function"
    },
    {
      "inputs": [
        {
          "internalType": "address",
          "name": "_mAsset",
          "type": "address"
        },
        {
          "internalType": "address[]",
          "name": "_bAssets",
          "type": "address[]"
        },
        {
          "internalType": "address[]",
          "name": "_integrators",
          "type": "address[]"
        },
        {
          "internalType": "uint256[]",
          "name": "_weights",
          "type": "uint256[]"
        },
        {
          "internalType": "bool[]",
          "name": "_hasTransferFees",
          "type": "bool[]"
        }
      ],
      "name": "initialize",
      "outputs": [],
      "stateMutability": "nonpayable",
      "type": "function"
    },
    {
      "inputs": [
        {
          "internalType": "uint8",
          "name": "_bAssetIndex",
          "type": "uint8"
        },
        {
          "internalType": "address",
          "name": "",
          "type": "address"
        },
        {
          "internalType": "uint256",
          "name": "_increaseAmount",
          "type": "uint256"
        }
      ],
      "name": "increaseVaultBalance",
      "outputs": [],
      "stateMutability": "nonpayable",
      "type": "function"
    },
    {
      "inputs": [
        {
          "internalType": "uint8[]",
          "name": "_bAssetIndices",
          "type": "uint8[]"
        },
        {
          "internalType": "address[]",
          "name": "",
          "type": "address[]"
        },
        {
          "internalType": "uint256[]",
          "name": "_increaseAmount",
          "type": "uint256[]"
        }
      ],
      "name": "increaseVaultBalances",
      "outputs": [],
      "stateMutability": "nonpayable",
      "type": "function"
    },
    {
      "inputs": [
        {
          "internalType": "uint8",
          "name": "_bAssetIndex",
          "type": "uint8"
        },
        {
          "internalType": "address",
          "name": "",
          "type": "address"
        },
        {
          "internalType": "uint256",
          "name": "_decreaseAmount",
          "type": "uint256"
        }
      ],
      "name": "decreaseVaultBalance",
      "outputs": [],
      "stateMutability": "nonpayable",
      "type": "function"
    },
    {
      "inputs": [
        {
          "internalType": "uint8[]",
          "name": "_bAssetIndices",
          "type": "uint8[]"
        },
        {
          "internalType": "address[]",
          "name": "",
          "type": "address[]"
        },
        {
          "internalType": "uint256[]",
          "name": "_decreaseAmount",
          "type": "uint256[]"
        }
      ],
      "name": "decreaseVaultBalances",
      "outputs": [],
      "stateMutability": "nonpayable",
      "type": "function"
    },
    {
      "inputs": [],
      "name": "collectInterest",
      "outputs": [
        {
          "internalType": "uint256",
          "name": "interestCollected",
          "type": "uint256"
        },
        {
          "internalType": "uint256[]",
          "name": "gains",
          "type": "uint256[]"
        }
      ],
      "stateMutability": "nonpayable",
      "type": "function"
    },
    {
      "inputs": [
        {
          "internalType": "address",
          "name": "_bAsset",
          "type": "address"
        },
        {
          "internalType": "address",
          "name": "_integration",
          "type": "address"
        },
        {
          "internalType": "bool",
          "name": "_isTransferFeeCharged",
          "type": "bool"
        }
      ],
      "name": "addBasset",
      "outputs": [
        {
          "internalType": "uint8",
          "name": "index",
          "type": "uint8"
        }
      ],
      "stateMutability": "nonpayable",
      "type": "function"
    },
    {
      "inputs": [
        {
          "internalType": "address[]",
          "name": "_bAssets",
          "type": "address[]"
        },
        {
          "internalType": "uint256[]",
          "name": "_weights",
          "type": "uint256[]"
        }
      ],
      "name": "setBasketWeights",
      "outputs": [],
      "stateMutability": "nonpayable",
      "type": "function"
    },
    {
      "inputs": [
        {
          "internalType": "address",
          "name": "_bAsset",
          "type": "address"
        },
        {
          "internalType": "bool",
          "name": "_flag",
          "type": "bool"
        }
      ],
      "name": "setTransferFeesFlag",
      "outputs": [],
      "stateMutability": "nonpayable",
      "type": "function"
    },
    {
      "inputs": [
        {
          "internalType": "address",
          "name": "_assetToRemove",
          "type": "address"
        }
      ],
      "name": "removeBasset",
      "outputs": [],
      "stateMutability": "nonpayable",
      "type": "function"
    },
    {
      "inputs": [],
      "name": "getBasket",
      "outputs": [
        {
          "components": [
            {
              "components": [
                {
                  "internalType": "address",
                  "name": "addr",
                  "type": "address"
                },
                {
                  "internalType": "enum MassetStructs.BassetStatus",
                  "name": "status",
                  "type": "uint8"
                },
                {
                  "internalType": "bool",
                  "name": "isTransferFeeCharged",
                  "type": "bool"
                },
                {
                  "internalType": "uint256",
                  "name": "ratio",
                  "type": "uint256"
                },
                {
                  "internalType": "uint256",
                  "name": "maxWeight",
                  "type": "uint256"
                },
                {
                  "internalType": "uint256",
                  "name": "vaultBalance",
                  "type": "uint256"
                }
              ],
              "internalType": "struct MassetStructs.Basset[]",
              "name": "bassets",
              "type": "tuple[]"
            },
            {
              "internalType": "uint8",
              "name": "maxBassets",
              "type": "uint8"
            },
            {
              "internalType": "bool",
              "name": "undergoingRecol",
              "type": "bool"
            },
            {
              "internalType": "bool",
              "name": "failed",
              "type": "bool"
            },
            {
              "internalType": "uint256",
              "name": "collateralisationRatio",
              "type": "uint256"
            }
          ],
          "internalType": "struct MassetStructs.Basket",
          "name": "b",
          "type": "tuple"
        }
      ],
      "stateMutability": "view",
      "type": "function"
    },
    {
      "inputs": [
        {
          "internalType": "address",
          "name": "_bAsset",
          "type": "address"
        },
        {
          "internalType": "uint256",
          "name": "",
          "type": "uint256"
        },
        {
          "internalType": "bool",
          "name": "",
          "type": "bool"
        }
      ],
      "name": "prepareForgeBasset",
      "outputs": [
        {
          "internalType": "bool",
          "name": "isValid",
          "type": "bool"
        },
        {
          "components": [
            {
              "components": [
                {
                  "internalType": "address",
                  "name": "addr",
                  "type": "address"
                },
                {
                  "internalType": "enum MassetStructs.BassetStatus",
                  "name": "status",
                  "type": "uint8"
                },
                {
                  "internalType": "bool",
                  "name": "isTransferFeeCharged",
                  "type": "bool"
                },
                {
                  "internalType": "uint256",
                  "name": "ratio",
                  "type": "uint256"
                },
                {
                  "internalType": "uint256",
                  "name": "maxWeight",
                  "type": "uint256"
                },
                {
                  "internalType": "uint256",
                  "name": "vaultBalance",
                  "type": "uint256"
                }
              ],
              "internalType": "struct MassetStructs.Basset",
              "name": "bAsset",
              "type": "tuple"
            },
            {
              "internalType": "address",
              "name": "integrator",
              "type": "address"
            },
            {
              "internalType": "uint8",
              "name": "index",
              "type": "uint8"
            }
          ],
          "internalType": "struct MassetStructs.BassetDetails",
          "name": "bInfo",
          "type": "tuple"
        }
      ],
      "stateMutability": "nonpayable",
      "type": "function"
    },
    {
      "inputs": [
        {
          "internalType": "address",
          "name": "_input",
          "type": "address"
        },
        {
          "internalType": "address",
          "name": "_output",
          "type": "address"
        },
        {
          "internalType": "bool",
          "name": "_isMint",
          "type": "bool"
        }
      ],
      "name": "prepareSwapBassets",
      "outputs": [
        {
          "internalType": "bool",
          "name": "",
          "type": "bool"
        },
        {
          "internalType": "string",
          "name": "",
          "type": "string"
        },
        {
          "components": [
            {
              "components": [
                {
                  "internalType": "address",
                  "name": "addr",
                  "type": "address"
                },
                {
                  "internalType": "enum MassetStructs.BassetStatus",
                  "name": "status",
                  "type": "uint8"
                },
                {
                  "internalType": "bool",
                  "name": "isTransferFeeCharged",
                  "type": "bool"
                },
                {
                  "internalType": "uint256",
                  "name": "ratio",
                  "type": "uint256"
                },
                {
                  "internalType": "uint256",
                  "name": "maxWeight",
                  "type": "uint256"
                },
                {
                  "internalType": "uint256",
                  "name": "vaultBalance",
                  "type": "uint256"
                }
              ],
              "internalType": "struct MassetStructs.Basset",
              "name": "bAsset",
              "type": "tuple"
            },
            {
              "internalType": "address",
              "name": "integrator",
              "type": "address"
            },
            {
              "internalType": "uint8",
              "name": "index",
              "type": "uint8"
            }
          ],
          "internalType": "struct MassetStructs.BassetDetails",
          "name": "",
          "type": "tuple"
        },
        {
          "components": [
            {
              "components": [
                {
                  "internalType": "address",
                  "name": "addr",
                  "type": "address"
                },
                {
                  "internalType": "enum MassetStructs.BassetStatus",
                  "name": "status",
                  "type": "uint8"
                },
                {
                  "internalType": "bool",
                  "name": "isTransferFeeCharged",
                  "type": "bool"
                },
                {
                  "internalType": "uint256",
                  "name": "ratio",
                  "type": "uint256"
                },
                {
                  "internalType": "uint256",
                  "name": "maxWeight",
                  "type": "uint256"
                },
                {
                  "internalType": "uint256",
                  "name": "vaultBalance",
                  "type": "uint256"
                }
              ],
              "internalType": "struct MassetStructs.Basset",
              "name": "bAsset",
              "type": "tuple"
            },
            {
              "internalType": "address",
              "name": "integrator",
              "type": "address"
            },
            {
              "internalType": "uint8",
              "name": "index",
              "type": "uint8"
            }
          ],
          "internalType": "struct MassetStructs.BassetDetails",
          "name": "",
          "type": "tuple"
        }
      ],
      "stateMutability": "view",
      "type": "function"
    },
    {
      "inputs": [
        {
          "internalType": "address[]",
          "name": "_bAssets",
          "type": "address[]"
        },
        {
          "internalType": "uint256[]",
          "name": "",
          "type": "uint256[]"
        },
        {
          "internalType": "bool",
          "name": "",
          "type": "bool"
        }
      ],
      "name": "prepareForgeBassets",
      "outputs": [
        {
          "components": [
            {
              "internalType": "bool",
              "name": "isValid",
              "type": "bool"
            },
            {
              "components": [
                {
                  "internalType": "address",
                  "name": "addr",
                  "type": "address"
                },
                {
                  "internalType": "enum MassetStructs.BassetStatus",
                  "name": "status",
                  "type": "uint8"
                },
                {
                  "internalType": "bool",
                  "name": "isTransferFeeCharged",
                  "type": "bool"
                },
                {
                  "internalType": "uint256",
                  "name": "ratio",
                  "type": "uint256"
                },
                {
                  "internalType": "uint256",
                  "name": "maxWeight",
                  "type": "uint256"
                },
                {
                  "internalType": "uint256",
                  "name": "vaultBalance",
                  "type": "uint256"
                }
              ],
              "internalType": "struct MassetStructs.Basset[]",
              "name": "bAssets",
              "type": "tuple[]"
            },
            {
              "internalType": "address[]",
              "name": "integrators",
              "type": "address[]"
            },
            {
              "internalType": "uint8[]",
              "name": "indexes",
              "type": "uint8[]"
            }
          ],
          "internalType": "struct MassetStructs.ForgePropsMulti",
          "name": "props",
          "type": "tuple"
        }
      ],
      "stateMutability": "nonpayable",
      "type": "function"
    },
    {
      "inputs": [],
      "name": "prepareRedeemMulti",
      "outputs": [
        {
          "components": [
            {
              "internalType": "uint256",
              "name": "colRatio",
              "type": "uint256"
            },
            {
              "components": [
                {
                  "internalType": "address",
                  "name": "addr",
                  "type": "address"
                },
                {
                  "internalType": "enum MassetStructs.BassetStatus",
                  "name": "status",
                  "type": "uint8"
                },
                {
                  "internalType": "bool",
                  "name": "isTransferFeeCharged",
                  "type": "bool"
                },
                {
                  "internalType": "uint256",
                  "name": "ratio",
                  "type": "uint256"
                },
                {
                  "internalType": "uint256",
                  "name": "maxWeight",
                  "type": "uint256"
                },
                {
                  "internalType": "uint256",
                  "name": "vaultBalance",
                  "type": "uint256"
                }
              ],
              "internalType": "struct MassetStructs.Basset[]",
              "name": "bAssets",
              "type": "tuple[]"
            },
            {
              "internalType": "address[]",
              "name": "integrators",
              "type": "address[]"
            },
            {
              "internalType": "uint8[]",
              "name": "indexes",
              "type": "uint8[]"
            }
          ],
          "internalType": "struct MassetStructs.RedeemPropsMulti",
          "name": "props",
          "type": "tuple"
        }
      ],
      "stateMutability": "view",
      "type": "function"
    },
    {
      "inputs": [],
      "name": "getBassets",
      "outputs": [
        {
          "components": [
            {
              "internalType": "address",
              "name": "addr",
              "type": "address"
            },
            {
              "internalType": "enum MassetStructs.BassetStatus",
              "name": "status",
              "type": "uint8"
            },
            {
              "internalType": "bool",
              "name": "isTransferFeeCharged",
              "type": "bool"
            },
            {
              "internalType": "uint256",
              "name": "ratio",
              "type": "uint256"
            },
            {
              "internalType": "uint256",
              "name": "maxWeight",
              "type": "uint256"
            },
            {
              "internalType": "uint256",
              "name": "vaultBalance",
              "type": "uint256"
            }
          ],
          "internalType": "struct MassetStructs.Basset[]",
          "name": "bAssets",
          "type": "tuple[]"
        },
        {
          "internalType": "uint256",
          "name": "len",
          "type": "uint256"
        }
      ],
      "stateMutability": "view",
      "type": "function"
    },
    {
      "inputs": [
        {
          "internalType": "address",
          "name": "_bAsset",
          "type": "address"
        }
      ],
      "name": "getBasset",
      "outputs": [
        {
          "components": [
            {
              "internalType": "address",
              "name": "addr",
              "type": "address"
            },
            {
              "internalType": "enum MassetStructs.BassetStatus",
              "name": "status",
              "type": "uint8"
            },
            {
              "internalType": "bool",
              "name": "isTransferFeeCharged",
              "type": "bool"
            },
            {
              "internalType": "uint256",
              "name": "ratio",
              "type": "uint256"
            },
            {
              "internalType": "uint256",
              "name": "maxWeight",
              "type": "uint256"
            },
            {
              "internalType": "uint256",
              "name": "vaultBalance",
              "type": "uint256"
            }
          ],
          "internalType": "struct MassetStructs.Basset",
          "name": "bAsset",
          "type": "tuple"
        }
      ],
      "stateMutability": "view",
      "type": "function"
    },
    {
      "inputs": [
        {
          "internalType": "address",
          "name": "_bAsset",
          "type": "address"
        }
      ],
      "name": "getBassetIntegrator",
      "outputs": [
        {
          "internalType": "address",
          "name": "integrator",
          "type": "address"
        }
      ],
      "stateMutability": "view",
      "type": "function"
    },
    {
      "inputs": [
        {
          "internalType": "address",
          "name": "_bAsset",
          "type": "address"
        },
        {
          "internalType": "bool",
          "name": "_belowPeg",
          "type": "bool"
        }
      ],
      "name": "handlePegLoss",
      "outputs": [
        {
          "internalType": "bool",
          "name": "alreadyActioned",
          "type": "bool"
        }
      ],
      "stateMutability": "nonpayable",
      "type": "function"
    },
    {
      "inputs": [
        {
          "internalType": "address",
          "name": "_bAsset",
          "type": "address"
        }
      ],
      "name": "negateIsolation",
      "outputs": [],
      "stateMutability": "nonpayable",
      "type": "function"
    },
    {
      "inputs": [
        {
          "internalType": "address",
          "name": "_bAsset",
          "type": "address"
        }
      ],
      "name": "failBasset",
      "outputs": [],
      "stateMutability": "nonpayable",
      "type": "function"
    },
    {
      "inputs": [],
      "name": "paused",
      "outputs": [
        {
          "internalType": "bool",
          "name": "",
          "type": "bool"
        }
      ],
      "stateMutability": "view",
      "type": "function"
    }
  ],
  "bytecode": "0x608060405234801561001057600080fd5b50615bd980620000216000396000f3fe608060405234801561001057600080fd5b50600436106101725760003560e01c8063790bde32116100de578063bdfbe29c11610097578063cd6ef2b011610071578063cd6ef2b014610473578063d5e1d27914610491578063dc686c8c146104ad578063edc832b3146104c957610172565b8063bdfbe29c146103f6578063bf9ca02d14610412578063c4a80a2a1461044357610172565b8063790bde321461031257806388a90f5114610342578063905e89141461035e578063969642b91461038e5780639d01cd35146103aa578063a59824c5146103da57610172565b80632bf596cf116101305780632bf596cf1461023b5780633e37bcbc1461026e57806343ae78be1461029e578063482a2fa3146102bc5780635c975abb146102d85780635d16cf42146102f657610172565b80629e328b1461017757806309f2a983146101a75780630b2d8501146101c3578063178d341f146101df5780631d3ce398146101fd5780632a2fab221461021c575b600080fd5b610191600480360381019061018c91906141e2565b6104ea565b60405161019e91906158fa565b60405180910390f35b6101c160048036038101906101bc91906141b9565b6105ac565b005b6101dd60048036038101906101d891906143a4565b61065c565b005b6101e7610742565b6040516101f491906153b7565b60405180910390f35b610205610766565b604051610213929190615409565b60405180910390f35b61022461077a565b6040516102329291906158ca565b60405180910390f35b610255600480360381019061025091906141e2565b6109ef565b6040516102659493929190615454565b60405180910390f35b610288600480360381019061028391906141b9565b610f7d565b604051610295919061586b565b60405180910390f35b6102a6610fe7565b6040516102b391906158a8565b60405180910390f35b6102d660048036038101906102d19190614231565b6111da565b005b6102e0611429565b6040516102ed9190615439565b60405180910390f35b610310600480360381019061030b91906145ea565b61142e565b005b61032c6004803603810190610327919061456f565b611520565b60405161033991906153b7565b60405180910390f35b61035c600480360381019061035791906144a2565b61155c565b005b61037860048036038101906103739190614319565b6116c5565b6040516103859190615439565b60405180910390f35b6103a860048036038101906103a391906141b9565b61188c565b005b6103c460048036038101906103bf9190614419565b611a0b565b6040516103d19190615886565b60405180910390f35b6103f460048036038101906103ef91906141b9565b611aec565b005b610410600480360381019061040b9190614319565b611c0f565b005b61042c60048036038101906104279190614355565b611cef565b60405161043a9291906154a2565b60405180910390f35b61045d600480360381019061045891906141b9565b611f00565b60405161046a91906153b7565b60405180910390f35b61047b611f96565b6040516104889190615849565b60405180910390f35b6104ab60048036038101906104a691906144a2565b612128565b005b6104c760048036038101906104c291906145ea565b6122e3565b005b6104d1612427565b6040516104e19493929190615915565b60405180910390f35b60006001800160029054906101000a900460ff161561053e576040517f08c379a000000000000000000000000000000000000000000000000000000000815260040161053590615749565b60405180910390fd5b6001800160019054906101000a900460ff1615610590576040517f08c379a0000000000000000000000000000000000000000000000000000000008152600401610587906155a9565b60405180910390fd5b6105a3848461059d61246c565b85612478565b90509392505050565b6001800160029054906101000a900460ff16156105fe576040517f08c379a00000000000000000000000000000000000000000000000000000000081526004016105f590615749565b60405180910390fd5b6001800160019054906101000a900460ff1615610650576040517f08c379a0000000000000000000000000000000000000000000000000000000008152600401610647906155a9565b60405180910390fd5b610659816128ee565b50565b6001800160029054906101000a900460ff16156106ae576040517f08c379a00000000000000000000000000000000000000000000000000000000081526004016106a590615749565b60405180910390fd5b61073c848480806020026020016040519081016040528093929190818152602001838360200280828437600081840152601f19601f82011690508083019250505050505050838380806020026020016040519081016040528093929190818152602001838360200280828437600081840152601f19601f820116905080830192505050505050506000613101565b50505050565b60008054906101000a900473ffffffffffffffffffffffffffffffffffffffff1681565b60606000610772613388565b915091509091565b600060603373ffffffffffffffffffffffffffffffffffffffff1660008054906101000a900473ffffffffffffffffffffffffffffffffffffffff1673ffffffffffffffffffffffffffffffffffffffff161461080c576040517f08c379a000000000000000000000000000000000000000000000000000000000815260040161080390615829565b60405180910390fd5b6001800160029054906101000a900460ff161561085e576040517f08c379a000000000000000000000000000000000000000000000000000000000815260040161085590615749565b60405180910390fd5b6060600061086a613388565b915091508067ffffffffffffffff8111801561088557600080fd5b506040519080825280602002602001820160405280156108b45781602001602082028036833780820191505090505b5092506000935060005b818160ff1610156109e8576108d1613f07565b838260ff16815181106108e057fe5b6020026020010151905060006064905060008260a001519050808211801561092257506001600781111561091057fe5b8360200151600781111561092057fe5b145b156109ba578160016000018560ff168154811061093b57fe5b906000526020600020906004020160030181905550600061096582846134b490919063ffffffff16565b905080888660ff168151811061097757fe5b602002602001018181525050600061099c8560600151836134fe90919063ffffffff16565b90506109b1818b61351790919063ffffffff16565b995050506109d8565b6000878560ff16815181106109cb57fe5b6020026020010181815250505b50505080806001019150506108be565b5050509091565b600060606109fb613f60565b610a03613f60565b610a0b613f60565b60405180606001604052806001600001600081548110610a2757fe5b90600052602060002090600402016040518060c00160405290816000820160009054906101000a900473ffffffffffffffffffffffffffffffffffffffff1673ffffffffffffffffffffffffffffffffffffffff1673ffffffffffffffffffffffffffffffffffffffff1681526020016000820160149054906101000a900460ff166007811115610ab457fe5b6007811115610abf57fe5b81526020016000820160159054906101000a900460ff1615151515815260200160018201548152602001600282015481526020016003820154815250508152602001600073ffffffffffffffffffffffffffffffffffffffff168152602001600060ff168152509050610b30613f60565b8190506001800160029054906101000a900460ff1680610b5e57506001800160019054906101000a900460ff165b15610bae57600082826040518060400160405280601b81526020017f4261736b657420697320756e646572676f696e67206368616e67650000000000815250919095509550955095505050610f74565b600080610bba8b61356c565b9150915081610c1057600084846040518060400160405280601a81526020017f496e70757420617373657420646f6573206e6f742065786973740000000000008152509190975097509750975050505050610f74565b604051806060016040528060016000018360ff1681548110610c2e57fe5b90600052602060002090600402016040518060c00160405290816000820160009054906101000a900473ffffffffffffffffffffffffffffffffffffffff1673ffffffffffffffffffffffffffffffffffffffff1673ffffffffffffffffffffffffffffffffffffffff1681526020016000820160149054906101000a900460ff166007811115610cbb57fe5b6007811115610cc657fe5b81526020016000820160159054906101000a900460ff161515151581526020016001820154815260200160028201548152602001600382015481525050815260200160058360ff1681548110610d1857fe5b9060005260206000200160009054906101000a900473ffffffffffffffffffffffffffffffffffffffff1673ffffffffffffffffffffffffffffffffffffffff1681526020018260ff1681525093508815610d945760018484604051806020016040528060008152509190975097509750975050505050610f74565b600080610da08c61356c565b9150915081610df857600086866040518060400160405280601b81526020017f4f757470757420617373657420646f6573206e6f74206578697374000000000081525091909950995099509950505050505050610f74565b604051806060016040528060016000018360ff1681548110610e1657fe5b90600052602060002090600402016040518060c00160405290816000820160009054906101000a900473ffffffffffffffffffffffffffffffffffffffff1673ffffffffffffffffffffffffffffffffffffffff1673ffffffffffffffffffffffffffffffffffffffff1681526020016000820160149054906101000a900460ff166007811115610ea357fe5b6007811115610eae57fe5b81526020016000820160159054906101000a900460ff161515151581526020016001820154815260200160028201548152602001600382015481525050815260200160058360ff1681548110610f0057fe5b9060005260206000200160009054906101000a900473ffffffffffffffffffffffffffffffffffffffff1673ffffffffffffffffffffffffffffffffffffffff1681526020018260ff1681525094506001868660405180602001604052806000815250919099509950995099505050505050505b93509350935093565b610f85613f07565b600080610f918461356c565b9150915081610fd5576040517f08c379a0000000000000000000000000000000000000000000000000000000008152600401610fcc906156c9565b60405180910390fd5b610fde8161366d565b92505050919050565b610fef613fa0565b6001800160019054906101000a900460ff1615611041576040517f08c379a0000000000000000000000000000000000000000000000000000000008152600401611038906155a9565b60405180910390fd5b6060600061104d613388565b9150915060608167ffffffffffffffff8111801561106a57600080fd5b506040519080825280602002602001820160405280156110995781602001602082028036833780820191505090505b50905060608267ffffffffffffffff811180156110b557600080fd5b506040519080825280602002602001820160405280156110e45781602001602082028036833780820191505090505b50905060005b838160ff1610156111aa5760058160ff168154811061110557fe5b9060005260206000200160009054906101000a900473ffffffffffffffffffffffffffffffffffffffff16838260ff168151811061113f57fe5b602002602001019073ffffffffffffffffffffffffffffffffffffffff16908173ffffffffffffffffffffffffffffffffffffffff168152505080828260ff168151811061118957fe5b602002602001019060ff16908160ff168152505080806001019150506110ea565b50604051806080016040528060016002015481526020018581526020018381526020018281525094505050505090565b600073ffffffffffffffffffffffffffffffffffffffff168973ffffffffffffffffffffffffffffffffffffffff16141561124a576040517f08c379a000000000000000000000000000000000000000000000000000000000815260040161124190615509565b60405180910390fd5b60008888905011611290576040517f08c379a000000000000000000000000000000000000000000000000000000000815260040161128790615789565b60405180910390fd5b886000806101000a81548173ffffffffffffffffffffffffffffffffffffffff021916908373ffffffffffffffffffffffffffffffffffffffff160217905550600a6001800160006101000a81548160ff021916908360ff160217905550670de0b6b3a764000060016002018190555060005b8888905081101561138f5761138189898381811061131d57fe5b905060200201602081019061133291906141b9565b88888481811061133e57fe5b905060200201602081019061135391906141b9565b61135b61246c565b86868681811061136757fe5b905060200201602081019061137c9190614546565b612478565b508080600101915050611303565b5061141e888880806020026020016040519081016040528093929190818152602001838360200280828437600081840152601f19601f82011690508083019250505050505050858580806020026020016040519081016040528093929190818152602001838360200280828437600081840152601f19601f820116905080830192505050505050506001613101565b505050505050505050565b600090565b3373ffffffffffffffffffffffffffffffffffffffff1660008054906101000a900473ffffffffffffffffffffffffffffffffffffffff1673ffffffffffffffffffffffffffffffffffffffff16146114bc576040517f08c379a00000000000000000000000000000000000000000000000000000000081526004016114b390615829565b60405180910390fd5b6114f38160016000018560ff16815481106114d357fe5b9060005260206000209060040201600301546134b490919063ffffffff16565b60016000018460ff168154811061150657fe5b906000526020600020906004020160030181905550505050565b6005818154811061152d57fe5b906000526020600020016000915054906101000a900473ffffffffffffffffffffffffffffffffffffffff1681565b3373ffffffffffffffffffffffffffffffffffffffff1660008054906101000a900473ffffffffffffffffffffffffffffffffffffffff1673ffffffffffffffffffffffffffffffffffffffff16146115ea576040517f08c379a00000000000000000000000000000000000000000000000000000000081526004016115e190615829565b60405180910390fd5b600086869050905060005b818110156116bb5761166684848381811061160c57fe5b9050602002013560016000018a8a8581811061162457fe5b90506020020160208101906116399190614598565b60ff168154811061164657fe5b9060005260206000209060040201600301546134b490919063ffffffff16565b600160000189898481811061167757fe5b905060200201602081019061168c9190614598565b60ff168154811061169957fe5b90600052602060002090600402016003018190555080806001019150506115f5565b5050505050505050565b60006001800160029054906101000a900460ff1615611719576040517f08c379a000000000000000000000000000000000000000000000000000000000815260040161171090615749565b60405180910390fd5b6000806117258561356c565b60ff16915091508161176c576040517f08c379a000000000000000000000000000000000000000000000000000000000815260040161176390615629565b60405180910390fd5b60006001600001828154811061177e57fe5b906000526020600020906004020160000160149054906101000a900460ff1690506000856117ad5760036117b0565b60025b90508060078111156117be57fe5b8260078111156117ca57fe5b14806117db57506117da82613764565b5b156117ed576001945050505050611886565b80600160000184815481106117fe57fe5b906000526020600020906004020160000160146101000a81548160ff0219169083600781111561182a57fe5b02179055508673ffffffffffffffffffffffffffffffffffffffff167f4fd6d64c6e0a8165ba76233d6e3d0cdc923400a6a06842cd8852e04892fc9e4e8260405161187591906154cc565b60405180910390a260009450505050505b92915050565b6000806118988361356c565b60ff1691509150816118df576040517f08c379a00000000000000000000000000000000000000000000000000000000081526004016118d6906156c9565b60405180910390fd5b6000600160000182815481106118f157fe5b906000526020600020906004020160000160149054906101000a900460ff1690506002600781111561191f57fe5b81600781111561192b57fe5b148061194d57506003600781111561193f57fe5b81600781111561194b57fe5b145b8061196e57506004600781111561196057fe5b81600781111561196c57fe5b145b15611a0557600180600001838154811061198457fe5b906000526020600020906004020160000160146101000a81548160ff021916908360078111156119b057fe5b02179055508373ffffffffffffffffffffffffffffffffffffffff167f4fd6d64c6e0a8165ba76233d6e3d0cdc923400a6a06842cd8852e04892fc9e4e60016040516119fc91906154cc565b60405180910390a25b50505050565b611a13613fc8565b6001800160019054906101000a900460ff1615611a65576040517f08c379a0000000000000000000000000000000000000000000000000000000008152600401611a5c906155a9565b60405180910390fd5b6060806060611ab4898980806020026020016040519081016040528093929190818152602001838360200280828437600081840152601f19601f820116905080830192505050505050506137d9565b925092509250604051806080016040528060011515815260200184815260200182815260200183815250935050505095945050505050565b600080611af88361356c565b60ff169150915081611b3f576040517f08c379a0000000000000000000000000000000000000000000000000000000008152600401611b36906156c9565b60405180910390fd5b600060016000018281548110611b5157fe5b906000526020600020906004020160000160149054906101000a900460ff16905060026007811115611b7f57fe5b816007811115611b8b57fe5b1480611bad575060036007811115611b9f57fe5b816007811115611bab57fe5b145b611bec576040517f08c379a0000000000000000000000000000000000000000000000000000000008152600401611be390615609565b60405180910390fd5b60018060010160026101000a81548160ff02191690831515021790555050505050565b600080611c1b8461356c565b9150915081611c5f576040517f08c379a0000000000000000000000000000000000000000000000000000000008152600401611c56906157a9565b60405180910390fd5b8260016000018260ff1681548110611c7357fe5b906000526020600020906004020160000160156101000a81548160ff0219169083151502179055508373ffffffffffffffffffffffffffffffffffffffff167ff1d30c51cc85d5f31324e582df608abdbb328479127c2d9c7e70666cbc611c7c84604051611ce19190615439565b60405180910390a250505050565b6000611cf9613f60565b6001800160019054906101000a900460ff1615611d4b576040517f08c379a0000000000000000000000000000000000000000000000000000000008152600401611d42906155a9565b60405180910390fd5b600080611d578761356c565b9150915081611d9b576040517f08c379a0000000000000000000000000000000000000000000000000000000008152600401611d92906157a9565b60405180910390fd5b60019350604051806060016040528060016000018360ff1681548110611dbd57fe5b90600052602060002090600402016040518060c00160405290816000820160009054906101000a900473ffffffffffffffffffffffffffffffffffffffff1673ffffffffffffffffffffffffffffffffffffffff1673ffffffffffffffffffffffffffffffffffffffff1681526020016000820160149054906101000a900460ff166007811115611e4a57fe5b6007811115611e5557fe5b81526020016000820160159054906101000a900460ff161515151581526020016001820154815260200160028201548152602001600382015481525050815260200160058360ff1681548110611ea757fe5b9060005260206000200160009054906101000a900473ffffffffffffffffffffffffffffffffffffffff1673ffffffffffffffffffffffffffffffffffffffff1681526020018260ff1681525092505050935093915050565b6000806000611f0e8461356c565b9150915081611f52576040517f08c379a0000000000000000000000000000000000000000000000000000000008152600401611f49906156c9565b60405180910390fd5b60058160ff1681548110611f6257fe5b9060005260206000200160009054906101000a900473ffffffffffffffffffffffffffffffffffffffff1692505050919050565b611f9e613ff2565b60016040518060a001604052908160008201805480602002602001604051908101604052809291908181526020016000905b828210156120be57838290600052602060002090600402016040518060c00160405290816000820160009054906101000a900473ffffffffffffffffffffffffffffffffffffffff1673ffffffffffffffffffffffffffffffffffffffff1673ffffffffffffffffffffffffffffffffffffffff1681526020016000820160149054906101000a900460ff16600781111561206757fe5b600781111561207257fe5b81526020016000820160159054906101000a900460ff16151515158152602001600182015481526020016002820154815260200160038201548152505081526020019060010190611fd0565b5050505081526020016001820160009054906101000a900460ff1660ff1660ff1681526020016001820160019054906101000a900460ff161515151581526020016001820160029054906101000a900460ff16151515158152602001600282015481525050905090565b3373ffffffffffffffffffffffffffffffffffffffff1660008054906101000a900473ffffffffffffffffffffffffffffffffffffffff1673ffffffffffffffffffffffffffffffffffffffff16146121b6576040517f08c379a00000000000000000000000000000000000000000000000000000000081526004016121ad90615829565b60405180910390fd5b6001800160029054906101000a900460ff1615612208576040517f08c379a00000000000000000000000000000000000000000000000000000000081526004016121ff90615749565b60405180910390fd5b600086869050905060005b818110156122d95761228484848381811061222a57fe5b9050602002013560016000018a8a8581811061224257fe5b90506020020160208101906122579190614598565b60ff168154811061226457fe5b90600052602060002090600402016003015461351790919063ffffffff16565b600160000189898481811061229557fe5b90506020020160208101906122aa9190614598565b60ff16815481106122b757fe5b9060005260206000209060040201600301819055508080600101915050612213565b5050505050505050565b3373ffffffffffffffffffffffffffffffffffffffff1660008054906101000a900473ffffffffffffffffffffffffffffffffffffffff1673ffffffffffffffffffffffffffffffffffffffff1614612371576040517f08c379a000000000000000000000000000000000000000000000000000000000815260040161236890615829565b60405180910390fd5b6001800160029054906101000a900460ff16156123c3576040517f08c379a00000000000000000000000000000000000000000000000000000000081526004016123ba90615749565b60405180910390fd5b6123fa8160016000018560ff16815481106123da57fe5b90600052602060002090600402016003015461351790919063ffffffff16565b60016000018460ff168154811061240d57fe5b906000526020600020906004020160030181905550505050565b60018060010160009054906101000a900460ff16908060010160019054906101000a900460ff16908060010160029054906101000a900460ff16908060020154905084565b60006305f5e100905090565b60008073ffffffffffffffffffffffffffffffffffffffff168573ffffffffffffffffffffffffffffffffffffffff1614156124e9576040517f08c379a00000000000000000000000000000000000000000000000000000000081526004016124e0906156e9565b60405180910390fd5b600073ffffffffffffffffffffffffffffffffffffffff168473ffffffffffffffffffffffffffffffffffffffff161415612559576040517f08c379a0000000000000000000000000000000000000000000000000000000008152600401612550906157c9565b60405180910390fd5b620f4240831015801561257157506402540be4008311155b6125b0576040517f08c379a00000000000000000000000000000000000000000000000000000000081526004016125a7906155e9565b60405180910390fd5b60006125bb8661356c565b50905080156125ff576040517f08c379a00000000000000000000000000000000000000000000000000000000081526004016125f690615689565b60405180910390fd5b600061260a87613bbc565b905060006126228260126134b490919063ffffffff16565b9050600061263c82600a0a88613c9c90919063ffffffff16565b9050600060016000018054905090506001800160009054906101000a900460ff1660ff168160ff16106126a4576040517f08c379a000000000000000000000000000000000000000000000000000000000815260040161269b90615649565b60405180910390fd5b80600460008c73ffffffffffffffffffffffffffffffffffffffff1673ffffffffffffffffffffffffffffffffffffffff16815260200190815260200160002060006101000a81548160ff021916908360ff1602179055506005899080600181540180825580915050600190039060005260206000200160009091909190916101000a81548173ffffffffffffffffffffffffffffffffffffffff021916908373ffffffffffffffffffffffffffffffffffffffff16021790555060016000016040518060c001604052808c73ffffffffffffffffffffffffffffffffffffffff1681526020016001600781111561279857fe5b81526020018915158152602001848152602001600081526020016000815250908060018154018082558091505060019003906000526020600020906004020160009091909190915060008201518160000160006101000a81548173ffffffffffffffffffffffffffffffffffffffff021916908373ffffffffffffffffffffffffffffffffffffffff16021790555060208201518160000160146101000a81548160ff0219169083600781111561284b57fe5b021790555060408201518160000160156101000a81548160ff021916908315150217905550606082015181600101556080820151816002015560a0820151816003015550508973ffffffffffffffffffffffffffffffffffffffff167fc5841a71c957e4395ad5f2efb03673e584498cce9790cce25bf59e92094dbd308a6040516128d691906153b7565b60405180910390a28095505050505050949350505050565b6000806128fa8361356c565b915091508161293e576040517f08c379a0000000000000000000000000000000000000000000000000000000008152600401612935906157a9565b60405180910390fd5b60006001600001805490509050612953613f07565b60016000018360ff168154811061296657fe5b90600052602060002090600402016040518060c00160405290816000820160009054906101000a900473ffffffffffffffffffffffffffffffffffffffff1673ffffffffffffffffffffffffffffffffffffffff1673ffffffffffffffffffffffffffffffffffffffff1681526020016000820160149054906101000a900460ff1660078111156129f357fe5b60078111156129fe57fe5b81526020016000820160159054906101000a900460ff16151515158152602001600182015481526020016002820154815260200160038201548152505090506000816080015114612a84576040517f08c379a0000000000000000000000000000000000000000000000000000000008152600401612a7b90615809565b60405180910390fd5b60008160a0015114612acb576040517f08c379a0000000000000000000000000000000000000000000000000000000008152600401612ac2906155c9565b60405180910390fd5b60056007811115612ad857fe5b81602001516007811115612ae857fe5b1415612b29576040517f08c379a0000000000000000000000000000000000000000000000000000000008152600401612b2090615589565b60405180910390fd5b6000612b3f6001846134b490919063ffffffff16565b90508060ff168460ff161415612c7b576001600001805480612b5d57fe5b6001900381819060005260206000209060040201600080820160006101000a81549073ffffffffffffffffffffffffffffffffffffffff02191690556000820160146101000a81549060ff02191690556000820160156101000a81549060ff0219169055600182016000905560028201600090556003820160009055505090556000600460008873ffffffffffffffffffffffffffffffffffffffff1673ffffffffffffffffffffffffffffffffffffffff16815260200190815260200160002060006101000a81548160ff021916908360ff1602179055506005805480612c4157fe5b6001900381819060005260206000200160006101000a81549073ffffffffffffffffffffffffffffffffffffffff021916905590556130b2565b60016000018160ff1681548110612c8e57fe5b906000526020600020906004020160016000018560ff1681548110612caf57fe5b90600052602060002090600402016000820160009054906101000a900473ffffffffffffffffffffffffffffffffffffffff168160000160006101000a81548173ffffffffffffffffffffffffffffffffffffffff021916908373ffffffffffffffffffffffffffffffffffffffff1602179055506000820160149054906101000a900460ff168160000160146101000a81548160ff02191690836007811115612d5557fe5b02179055506000820160159054906101000a900460ff168160000160156101000a81548160ff0219169083151502179055506001820154816001015560028201548160020155600382015481600301559050506001600001805480612db657fe5b6001900381819060005260206000209060040201600080820160006101000a81549073ffffffffffffffffffffffffffffffffffffffff02191690556000820160146101000a81549060ff02191690556000820160156101000a81549060ff021916905560018201600090556002820160009055600382016000905550509055612e3e613f07565b60016000018560ff1681548110612e5157fe5b90600052602060002090600402016040518060c00160405290816000820160009054906101000a900473ffffffffffffffffffffffffffffffffffffffff1673ffffffffffffffffffffffffffffffffffffffff1673ffffffffffffffffffffffffffffffffffffffff1681526020016000820160149054906101000a900460ff166007811115612ede57fe5b6007811115612ee957fe5b81526020016000820160159054906101000a900460ff16151515158152602001600182015481526020016002820154815260200160038201548152505090506000600460008973ffffffffffffffffffffffffffffffffffffffff1673ffffffffffffffffffffffffffffffffffffffff16815260200190815260200160002060006101000a81548160ff021916908360ff1602179055508460046000836000015173ffffffffffffffffffffffffffffffffffffffff1673ffffffffffffffffffffffffffffffffffffffff16815260200190815260200160002060006101000a81548160ff021916908360ff16021790555060058260ff1681548110612fed57fe5b9060005260206000200160009054906101000a900473ffffffffffffffffffffffffffffffffffffffff1660058660ff168154811061302857fe5b9060005260206000200160006101000a81548173ffffffffffffffffffffffffffffffffffffffff021916908373ffffffffffffffffffffffffffffffffffffffff160217905550600580548061307b57fe5b6001900381819060005260206000200160006101000a81549073ffffffffffffffffffffffffffffffffffffffff02191690559055505b816000015173ffffffffffffffffffffffffffffffffffffffff167f1e5281bbecf5c15104f9e35265dbe738c1cd2597613cbf4a0a51713448bc13b960405160405180910390a2505050505050565b6000835190506000811161314a576040517f08c379a000000000000000000000000000000000000000000000000000000000815260040161314190615529565b60405180910390fd5b8251811461318d576040517f08c379a000000000000000000000000000000000000000000000000000000000815260040161318490615769565b60405180910390fd5b60005b8181101561333a576000806131b78784815181106131aa57fe5b602002602001015161356c565b91509150816131fb576040517f08c379a00000000000000000000000000000000000000000000000000000000081526004016131f2906156c9565b60405180910390fd5b613203613f07565b61320c8261366d565b9050600087858151811061321c57fe5b602002602001015190506001600781111561323357fe5b8260200151600781111561324357fe5b14156132c257670de0b6b3a7640000811115613294576040517f08c379a000000000000000000000000000000000000000000000000000000000815260040161328b90615569565b60405180910390fd5b8060016000018460ff16815481106132a857fe5b906000526020600020906004020160020181905550613329565b60016000018360ff16815481106132d557fe5b9060005260206000209060040201600201548114613328576040517f08c379a000000000000000000000000000000000000000000000000000000000815260040161331f90615709565b60405180910390fd5b5b505050508080600101915050613190565b508161334957613348613d0c565b5b7fbe2adf2902216365c5c656d48909da65fad401f809e4351cdbcfcac406745669848460405161337a9291906153d2565b60405180910390a150505050565b606060006001600001805480602002602001604051908101604052809291908181526020016000905b8282101561349f57838290600052602060002090600402016040518060c00160405290816000820160009054906101000a900473ffffffffffffffffffffffffffffffffffffffff1673ffffffffffffffffffffffffffffffffffffffff1673ffffffffffffffffffffffffffffffffffffffff1681526020016000820160149054906101000a900460ff16600781111561344857fe5b600781111561345357fe5b81526020016000820160159054906101000a900460ff161515151581526020016001820154815260200160028201548152602001600382015481525050815260200190600101906133b1565b50505050915060016000018054905090509091565b60006134f683836040518060400160405280601e81526020017f536166654d6174683a207375627472616374696f6e206f766572666c6f770000815250613dcc565b905092915050565b600061350f83836305f5e100613e27565b905092915050565b600080828401905083811015613562576040517f08c379a000000000000000000000000000000000000000000000000000000000815260040161355990615549565b60405180910390fd5b8091505092915050565b600080600460008473ffffffffffffffffffffffffffffffffffffffff1673ffffffffffffffffffffffffffffffffffffffff16815260200190815260200160002060009054906101000a900460ff16905060008160ff16141561366357600060016000018054905014156135e75760008091509150613668565b8273ffffffffffffffffffffffffffffffffffffffff16600160000160008154811061360f57fe5b906000526020600020906004020160000160009054906101000a900473ffffffffffffffffffffffffffffffffffffffff1673ffffffffffffffffffffffffffffffffffffffff1614600091509150613668565b600191505b915091565b613675613f07565b60016000018260ff168154811061368857fe5b90600052602060002090600402016040518060c00160405290816000820160009054906101000a900473ffffffffffffffffffffffffffffffffffffffff1673ffffffffffffffffffffffffffffffffffffffff1673ffffffffffffffffffffffffffffffffffffffff1681526020016000820160149054906101000a900460ff16600781111561371557fe5b600781111561372057fe5b81526020016000820160159054906101000a900460ff1615151515815260200160018201548152602001600282015481526020016003820154815250509050919050565b60006005600781111561377357fe5b82600781111561377f57fe5b14806137a157506006600781111561379357fe5b82600781111561379f57fe5b145b806137c157506007808111156137b357fe5b8260078111156137bf57fe5b145b156137cf57600190506137d4565b600090505b919050565b60608060606000845190508060ff1667ffffffffffffffff811180156137fe57600080fd5b5060405190808252806020026020018201604052801561383857816020015b613825613f07565b81526020019060019003908161381d5790505b5093508060ff1667ffffffffffffffff8111801561385557600080fd5b506040519080825280602002602001820160405280156138845781602001602082028036833780820191505090505b5091508060ff1667ffffffffffffffff811180156138a157600080fd5b506040519080825280602002602001820160405280156138d05781602001602082028036833780820191505090505b50925060005b8160ff168160ff161015613bb3576000868260ff16815181106138f557fe5b6020026020010151905060006001830190505b8360ff168160ff1610156139a857878160ff168151811061392557fe5b602002602001015173ffffffffffffffffffffffffffffffffffffffff168273ffffffffffffffffffffffffffffffffffffffff16141561399b576040517f08c379a000000000000000000000000000000000000000000000000000000000815260040161399290615729565b60405180910390fd5b8080600101915050613908565b506000806139b58361356c565b91509150816139f9576040517f08c379a00000000000000000000000000000000000000000000000000000000081526004016139f0906156c9565b60405180910390fd5b80878560ff1681518110613a0957fe5b602002602001019060ff16908160ff168152505060016000018160ff1681548110613a3057fe5b90600052602060002090600402016040518060c00160405290816000820160009054906101000a900473ffffffffffffffffffffffffffffffffffffffff1673ffffffffffffffffffffffffffffffffffffffff1673ffffffffffffffffffffffffffffffffffffffff1681526020016000820160149054906101000a900460ff166007811115613abd57fe5b6007811115613ac857fe5b81526020016000820160159054906101000a900460ff161515151581526020016001820154815260200160028201548152602001600382015481525050888560ff1681518110613b1457fe5b602002602001018190525060058160ff1681548110613b2f57fe5b9060005260206000200160009054906101000a900473ffffffffffffffffffffffffffffffffffffffff16868560ff1681518110613b6957fe5b602002602001019073ffffffffffffffffffffffffffffffffffffffff16908173ffffffffffffffffffffffffffffffffffffffff168152505050505080806001019150506138d6565b50509193909250565b6000808273ffffffffffffffffffffffffffffffffffffffff1663313ce5676040518163ffffffff1660e01b815260040160206040518083038186803b158015613c0557600080fd5b505afa158015613c19573d6000803e3d6000fd5b505050506040513d601f19601f82011682018060405250810190613c3d91906145c1565b60ff16905060048110158015613c54575060128111155b613c93576040517f08c379a0000000000000000000000000000000000000000000000000000000008152600401613c8a90615669565b60405180910390fd5b80915050919050565b600080831415613caf5760009050613d06565b6000828402905082848281613cc057fe5b0414613d01576040517f08c379a0000000000000000000000000000000000000000000000000000000008152600401613cf8906156a9565b60405180910390fd5b809150505b92915050565b600060016000018054905090506000805b82811015613d6857613d5960016000018281548110613d3857fe5b9060005260206000209060040201600201548361351790919063ffffffff16565b91508080600101915050613d1d565b50670de0b6b3a76400008110158015613d895750673782dace9d9000008111155b613dc8576040517f08c379a0000000000000000000000000000000000000000000000000000000008152600401613dbf906157e9565b60405180910390fd5b5050565b6000838311158290613e14576040517f08c379a0000000000000000000000000000000000000000000000000000000008152600401613e0b91906154e7565b60405180910390fd5b5060008385039050809150509392505050565b600080613e3d8486613c9c90919063ffffffff16565b9050613e528382613e5c90919063ffffffff16565b9150509392505050565b6000613e9e83836040518060400160405280601a81526020017f536166654d6174683a206469766973696f6e206279207a65726f000000000000815250613ea6565b905092915050565b60008083118290613eed576040517f08c379a0000000000000000000000000000000000000000000000000000000008152600401613ee491906154e7565b60405180910390fd5b506000838581613ef957fe5b049050809150509392505050565b6040518060c00160405280600073ffffffffffffffffffffffffffffffffffffffff16815260200160006007811115613f3c57fe5b81526020016000151581526020016000815260200160008152602001600081525090565b6040518060600160405280613f73613f07565b8152602001600073ffffffffffffffffffffffffffffffffffffffff168152602001600060ff1681525090565b6040518060800160405280600081526020016060815260200160608152602001606081525090565b60405180608001604052806000151581526020016060815260200160608152602001606081525090565b6040518060a0016040528060608152602001600060ff168152602001600015158152602001600015158152602001600081525090565b60008135905061403781615b47565b92915050565b60008083601f84011261404f57600080fd5b8235905067ffffffffffffffff81111561406857600080fd5b60208301915083602082028301111561408057600080fd5b9250929050565b60008083601f84011261409957600080fd5b8235905067ffffffffffffffff8111156140b257600080fd5b6020830191508360208202830111156140ca57600080fd5b9250929050565b60008083601f8401126140e357600080fd5b8235905067ffffffffffffffff8111156140fc57600080fd5b60208301915083602082028301111561411457600080fd5b9250929050565b60008083601f84011261412d57600080fd5b8235905067ffffffffffffffff81111561414657600080fd5b60208301915083602082028301111561415e57600080fd5b9250929050565b60008135905061417481615b5e565b92915050565b60008135905061418981615b75565b92915050565b60008135905061419e81615b8c565b92915050565b6000815190506141b381615b8c565b92915050565b6000602082840312156141cb57600080fd5b60006141d984828501614028565b91505092915050565b6000806000606084860312156141f757600080fd5b600061420586828701614028565b935050602061421686828701614028565b925050604061422786828701614165565b9150509250925092565b600080600080600080600080600060a08a8c03121561424f57600080fd5b600061425d8c828d01614028565b99505060208a013567ffffffffffffffff81111561427a57600080fd5b6142868c828d0161403d565b985098505060408a013567ffffffffffffffff8111156142a557600080fd5b6142b18c828d0161403d565b965096505060608a013567ffffffffffffffff8111156142d057600080fd5b6142dc8c828d016140d1565b945094505060808a013567ffffffffffffffff8111156142fb57600080fd5b6143078c828d01614087565b92509250509295985092959850929598565b6000806040838503121561432c57600080fd5b600061433a85828601614028565b925050602061434b85828601614165565b9150509250929050565b60008060006060848603121561436a57600080fd5b600061437886828701614028565b93505060206143898682870161417a565b925050604061439a86828701614165565b9150509250925092565b600080600080604085870312156143ba57600080fd5b600085013567ffffffffffffffff8111156143d457600080fd5b6143e08782880161403d565b9450945050602085013567ffffffffffffffff8111156143ff57600080fd5b61440b878288016140d1565b925092505092959194509250565b60008060008060006060868803121561443157600080fd5b600086013567ffffffffffffffff81111561444b57600080fd5b6144578882890161403d565b9550955050602086013567ffffffffffffffff81111561447657600080fd5b614482888289016140d1565b9350935050604061449588828901614165565b9150509295509295909350565b600080600080600080606087890312156144bb57600080fd5b600087013567ffffffffffffffff8111156144d557600080fd5b6144e189828a0161411b565b9650965050602087013567ffffffffffffffff81111561450057600080fd5b61450c89828a0161403d565b9450945050604087013567ffffffffffffffff81111561452b57600080fd5b61453789828a016140d1565b92509250509295509295509295565b60006020828403121561455857600080fd5b600061456684828501614165565b91505092915050565b60006020828403121561458157600080fd5b600061458f8482850161417a565b91505092915050565b6000602082840312156145aa57600080fd5b60006145b88482850161418f565b91505092915050565b6000602082840312156145d357600080fd5b60006145e1848285016141a4565b91505092915050565b6000806000606084860312156145ff57600080fd5b600061460d8682870161418f565b935050602061461e86828701614028565b925050604061462f8682870161417a565b9150509250925092565b60006146458383614699565b60208301905092915050565b600061465d83836151a3565b60c08301905092915050565b6000614675838361537b565b60208301905092915050565b600061468d8383615399565b60208301905092915050565b6146a281615a7c565b82525050565b6146b181615a7c565b82525050565b60006146c28261599a565b6146cc8185615a05565b93506146d78361595a565b8060005b838110156147085781516146ef8882614639565b97506146fa836159d1565b9250506001810190506146db565b5085935050505092915050565b60006147208261599a565b61472a8185615a16565b93506147358361595a565b8060005b8381101561476657815161474d8882614639565b9750614758836159d1565b925050600181019050614739565b5085935050505092915050565b600061477e826159a5565b6147888185615a27565b93506147938361596a565b8060005b838110156147c45781516147ab8882614651565b97506147b6836159de565b925050600181019050614797565b5085935050505092915050565b60006147dc826159a5565b6147e68185615a38565b93506147f18361596a565b8060005b838110156148225781516148098882614651565b9750614814836159de565b9250506001810190506147f5565b5085935050505092915050565b600061483a826159b0565b6148448185615a49565b935061484f8361597a565b8060005b838110156148805781516148678882614669565b9750614872836159eb565b925050600181019050614853565b5085935050505092915050565b6000614898826159bb565b6148a28185615a5a565b93506148ad8361598a565b8060005b838110156148de5781516148c58882614681565b97506148d0836159f8565b9250506001810190506148b1565b5085935050505092915050565b6148f481615a8e565b82525050565b61490381615a8e565b82525050565b61491281615ae4565b82525050565b61492181615ae4565b82525050565b6000614932826159c6565b61493c8185615a6b565b935061494c818560208601615af6565b61495581615b29565b840191505092915050565b600061496d601683615a6b565b91507f6d41737365742061646472657373206973207a65726f000000000000000000006000830152602082019050919050565b60006149ad601a83615a6b565b91507f456d7074792062417373657473206172726179207061737365640000000000006000830152602082019050919050565b60006149ed601b83615a6b565b91507f536166654d6174683a206164646974696f6e206f766572666c6f7700000000006000830152602082019050919050565b6000614a2d601c83615a6b565b91507f417373657420776569676874206d757374206265203c3d2031303025000000006000830152602082019050919050565b6000614a6d601583615a6b565b91507f624173736574206d7573742062652061637469766500000000000000000000006000830152602082019050919050565b6000614aad602283615a6b565b91507f4e6f20624173736574732063616e20626520756e646572676f696e672072656360008301527f6f6c0000000000000000000000000000000000000000000000000000000000006020830152604082019050919050565b6000614b13601a83615a6b565b91507f624173736574207661756c74206d75737420626520656d7074790000000000006000830152602082019050919050565b6000614b53600f83615a6b565b91507f4d4d206f7574206f662072616e676500000000000000000000000000000000006000830152602082019050919050565b6000614b93601783615a6b565b91507f624173736574206d7573742062652061666665637465640000000000000000006000830152602082019050919050565b6000614bd3601b83615a6b565b91507f624173736574206d75737420657869737420696e204261736b657400000000006000830152602082019050919050565b6000614c13601583615a6b565b91507f4d6178206241737365747320696e204261736b657400000000000000000000006000830152602082019050919050565b6000614c53602983615a6b565b91507f546f6b656e206d75737420686176652073756666696369656e7420646563696d60008301527f616c20706c6163657300000000000000000000000000000000000000000000006020830152604082019050919050565b6000614cb9601f83615a6b565b91507f62417373657420616c72656164792065786973747320696e204261736b6574006000830152602082019050919050565b6000614cf9602183615a6b565b91507f536166654d6174683a206d756c7469706c69636174696f6e206f766572666c6f60008301527f77000000000000000000000000000000000000000000000000000000000000006020830152604082019050919050565b6000614d5f601183615a6b565b91507f624173736574206d7573742065786973740000000000000000000000000000006000830152602082019050919050565b6000614d9f601c83615a6b565b91507f6241737365742061646472657373206d7573742062652076616c6964000000006000830152602082019050919050565b6000614ddf601f83615a6b565b91507f41666665637465642062417373657473206d75737420626520737461746963006000830152602082019050919050565b6000614e1f601783615a6b565b91507f4d7573742068617665206e6f206475706c6963617465730000000000000000006000830152602082019050919050565b6000614e5f601483615a6b565b91507f4261736b6574206d75737420626520616c6976650000000000000000000000006000830152602082019050919050565b6000614e9f601e83615a6b565b91507f4d757374206265206d61746368696e67206241737365742061727261797300006000830152602082019050919050565b6000614edf602183615a6b565b91507f4d75737420696e697469616c697365207769746820736f6d652062417373657460008301527f73000000000000000000000000000000000000000000000000000000000000006020830152604082019050919050565b6000614f45601583615a6b565b91507f62417373657420646f6573206e6f7420657869737400000000000000000000006000830152602082019050919050565b6000614f85602183615a6b565b91507f496e746567726174696f6e2061646472657373206d7573742062652076616c6960008301527f64000000000000000000000000000000000000000000000000000000000000006020830152604082019050919050565b6000614feb602783615a6b565b91507f4261736b657420776569676874206d757374206265203e3d203130302026262060008301527f3c3d2034303025000000000000000000000000000000000000000000000000006020830152604082019050919050565b6000615051602583615a6b565b91507f624173736574206d75737420686176652061207461726765742077656967687460008301527f206f6620300000000000000000000000000000000000000000000000000000006020830152604082019050919050565b60006150b7601883615a6b565b91507f4d7573742062652063616c6c6564206279206d417373657400000000000000006000830152602082019050919050565b600060a08301600083015184820360008601526151078282614773565b915050602083015161511c6020860182615399565b50604083015161512f60408601826148eb565b50606083015161514260608601826148eb565b506080830151615155608086018261537b565b508091505092915050565b6101008201600082015161517760008501826151a3565b50602082015161518a60c0850182614699565b50604082015161519d60e0850182615399565b50505050565b60c0820160008201516151b96000850182614699565b5060208201516151cc6020850182614909565b5060408201516151df60408501826148eb565b5060608201516151f2606085018261537b565b506080820151615205608085018261537b565b5060a082015161521860a085018261537b565b50505050565b60c0820160008201516152346000850182614699565b5060208201516152476020850182614909565b50604082015161525a60408501826148eb565b50606082015161526d606085018261537b565b506080820151615280608085018261537b565b5060a082015161529360a085018261537b565b50505050565b60006080830160008301516152b160008601826148eb565b50602083015184820360208601526152c98282614773565b915050604083015184820360408601526152e382826146b7565b915050606083015184820360608601526152fd828261488d565b9150508091505092915050565b6000608083016000830151615322600086018261537b565b506020830151848203602086015261533a8282614773565b9150506040830151848203604086015261535482826146b7565b9150506060830151848203606086015261536e828261488d565b9150508091505092915050565b61538481615acd565b82525050565b61539381615acd565b82525050565b6153a281615ad7565b82525050565b6153b181615ad7565b82525050565b60006020820190506153cc60008301846146a8565b92915050565b600060408201905081810360008301526153ec8185614715565b90508181036020830152615400818461482f565b90509392505050565b6000604082019050818103600083015261542381856147d1565b9050615432602083018461538a565b9392505050565b600060208201905061544e60008301846148fa565b92915050565b60006102408201905061546a60008301876148fa565b818103602083015261547c8186614927565b905061548b6040830185615160565b615499610140830184615160565b95945050505050565b6000610120820190506154b860008301856148fa565b6154c56020830184615160565b9392505050565b60006020820190506154e16000830184614918565b92915050565b600060208201905081810360008301526155018184614927565b905092915050565b6000602082019050818103600083015261552281614960565b9050919050565b60006020820190508181036000830152615542816149a0565b9050919050565b60006020820190508181036000830152615562816149e0565b9050919050565b6000602082019050818103600083015261558281614a20565b9050919050565b600060208201905081810360008301526155a281614a60565b9050919050565b600060208201905081810360008301526155c281614aa0565b9050919050565b600060208201905081810360008301526155e281614b06565b9050919050565b6000602082019050818103600083015261560281614b46565b9050919050565b6000602082019050818103600083015261562281614b86565b9050919050565b6000602082019050818103600083015261564281614bc6565b9050919050565b6000602082019050818103600083015261566281614c06565b9050919050565b6000602082019050818103600083015261568281614c46565b9050919050565b600060208201905081810360008301526156a281614cac565b9050919050565b600060208201905081810360008301526156c281614cec565b9050919050565b600060208201905081810360008301526156e281614d52565b9050919050565b6000602082019050818103600083015261570281614d92565b9050919050565b6000602082019050818103600083015261572281614dd2565b9050919050565b6000602082019050818103600083015261574281614e12565b9050919050565b6000602082019050818103600083015261576281614e52565b9050919050565b6000602082019050818103600083015261578281614e92565b9050919050565b600060208201905081810360008301526157a281614ed2565b9050919050565b600060208201905081810360008301526157c281614f38565b9050919050565b600060208201905081810360008301526157e281614f78565b9050919050565b6000602082019050818103600083015261580281614fde565b9050919050565b6000602082019050818103600083015261582281615044565b9050919050565b60006020820190508181036000830152615842816150aa565b9050919050565b6000602082019050818103600083015261586381846150ea565b905092915050565b600060c082019050615880600083018461521e565b92915050565b600060208201905081810360008301526158a08184615299565b905092915050565b600060208201905081810360008301526158c2818461530a565b905092915050565b60006040820190506158df600083018561538a565b81810360208301526158f1818461482f565b90509392505050565b600060208201905061590f60008301846153a8565b92915050565b600060808201905061592a60008301876153a8565b61593760208301866148fa565b61594460408301856148fa565b615951606083018461538a565b95945050505050565b6000819050602082019050919050565b6000819050602082019050919050565b6000819050602082019050919050565b6000819050602082019050919050565b600081519050919050565b600081519050919050565b600081519050919050565b600081519050919050565b600081519050919050565b6000602082019050919050565b6000602082019050919050565b6000602082019050919050565b6000602082019050919050565b600082825260208201905092915050565b600082825260208201905092915050565b600082825260208201905092915050565b600082825260208201905092915050565b600082825260208201905092915050565b600082825260208201905092915050565b600082825260208201905092915050565b6000615a8782615aad565b9050919050565b60008115159050919050565b6000819050615aa882615b3a565b919050565b600073ffffffffffffffffffffffffffffffffffffffff82169050919050565b6000819050919050565b600060ff82169050919050565b6000615aef82615a9a565b9050919050565b60005b83811015615b14578082015181840152602081019050615af9565b83811115615b23576000848401525b50505050565b6000601f19601f8301169050919050565b60088110615b4457fe5b50565b615b5081615a7c565b8114615b5b57600080fd5b50565b615b6781615a8e565b8114615b7257600080fd5b50565b615b7e81615acd565b8114615b8957600080fd5b50565b615b9581615ad7565b8114615ba057600080fd5b5056fea264697066735822122076d722c46eaab3055cfdfde347b59e4ed47427dc030d9aaf612d4b287584168464736f6c634300060c0033",
  "immutableReferences": {},
  "source": "// SPDX-License-Identifier: SimPL-2.0\npragma solidity 0.6.12;\npragma experimental ABIEncoderV2;\n\n// External\n// import { IPlatformIntegration } from \"../interfaces/IPlatformIntegration.sol\";\nimport { IERC20 } from \"@openzeppelin/contracts/token/ERC20/IERC20.sol\";\n\n// Internal\n// import { InitializablePausableModule } from \"../shared/InitializablePausableModule.sol\";\nimport { IBasketManager } from \"./interfaces/IBasketManager.sol\";\n// import { Initializable } from \"@openzeppelin/upgrades/contracts/Initializable.sol\";\n\n// Libs\nimport { CommonHelpers } from \"./shared/CommonHelpers.sol\";\nimport { SafeERC20 } from \"@openzeppelin/contracts/token/ERC20/SafeERC20.sol\";\nimport { SafeMath } from \"@openzeppelin/contracts/math/SafeMath.sol\";\nimport { StableMath } from \"./shared/StableMath.sol\";\n// import { InitializableReentrancyGuard } from \"../shared/InitializableReentrancyGuard.sol\";\n\n/**\n * @title   BasketManager\n * @notice  Manages the Basket composition for a particular mAsset. Feeds all required\n *          basket data to the mAsset and is responsible for keeping accurate records.\n *          BasketManager can also optimise lending pool integrations and perform\n *          re-collateralisation on failed bAssets.\n * @dev     VERSION: 1.0\n *          DATE:    2020-05-05\n */\ncontract BasketManager is IBasketManager{\n    using SafeMath for uint256;\n    using StableMath for uint256;\n    using SafeERC20 for IERC20;\n\n    // Events for Basket composition changes\n    event BassetAdded(address indexed bAsset, address integrator);\n    event BassetRemoved(address indexed bAsset);\n    event BasketWeightsUpdated(address[] bAssets, uint256[] maxWeights);\n    event BassetStatusChanged(address indexed bAsset, BassetStatus status);\n    event BasketStatusChanged();\n    event TransferFeeEnabled(address indexed bAsset, bool enabled);\n\n    // mAsset linked to the manager (const)\n    address public mAsset;\n\n    // Struct holding Basket details\n    Basket public basket;\n    // Mapping holds bAsset token address => array index\n    mapping(address => uint8) private bAssetsMap;\n    // Holds relative addresses of the integration platforms\n    address[] public integrations;\n\n    /**\n     * @dev Initialization function for upgradable proxy contract.\n     *      This function should be called via Proxy just after contract deployment.\n     * @param _mAsset           Address of the mAsset whose Basket to manage\n     * @param _bAssets          Array of erc20 bAsset addresses\n     * @param _integrators      Matching array of the platform intergations for bAssets\n     * @param _weights          Weightings of each bAsset, summing to 1e18\n     * @param _hasTransferFees  Bool signifying if this bAsset has xfer fees\n     */\n    function initialize(\n        address _mAsset,\n        address[] calldata _bAssets,\n        address[] calldata _integrators,\n        uint256[] calldata _weights,\n        bool[] calldata _hasTransferFees\n    )\n        external\n    {\n        // InitializableReentrancyGuard._initialize();\n        // InitializablePausableModule._initialize(_nexus);\n\n        require(_mAsset != address(0), \"mAsset address is zero\");\n        require(_bAssets.length > 0, \"Must initialise with some bAssets\");\n        mAsset = _mAsset;\n\n        // Defaults\n        basket.maxBassets = 10;               // 10\n        basket.collateralisationRatio = 1e18; // 100%\n\n        for (uint256 i = 0; i < _bAssets.length; i++) {\n            _addBasset(\n                _bAssets[i],\n                _integrators[i],\n                StableMath.getRatioScale(),\n                _hasTransferFees[i]\n            );\n        }\n        _setBasketWeights(_bAssets, _weights, true);\n    }\n\n    /**\n     * @dev Requires the overall basket composition to be healthy\n     */\n    modifier whenBasketIsHealthy() {\n        require(!basket.failed, \"Basket must be alive\");\n        _;\n    }\n\n    /**\n     * @dev Requires the overall basket composition to be healthy\n     */\n    modifier whenNotRecolling() {\n        require(!basket.undergoingRecol, \"No bAssets can be undergoing recol\");\n        _;\n    }\n\n    /**\n     * @dev Verifies that the caller either Manager or Gov\n     */\n    // modifier managerOrGovernor() {\n    //     require(\n    //         _manager() == msg.sender || _governor() == msg.sender,\n    //         \"Must be manager or governor\");\n    //     _;\n    // }\n\n    /**\n     * @dev Verifies that the caller is governed mAsset\n     */\n    modifier onlyMasset() {\n        require(mAsset == msg.sender, \"Must be called by mAsset\");\n        _;\n    }\n\n    /***************************************\n                VAULT BALANCE\n    ****************************************/\n\n    /**\n     * @dev Called by only mAsset, and only when the basket is healthy, to add units to\n     *      storage after they have been deposited into the vault\n     * @param _bAssetIndex      Index of the bAsset\n     * @param _increaseAmount   Units deposited\n     */\n    function increaseVaultBalance(\n        uint8 _bAssetIndex,\n        address /* _integrator */,\n        uint256 _increaseAmount\n    )\n        override\n        external\n        onlyMasset\n        whenBasketIsHealthy\n    {\n        basket.bassets[_bAssetIndex].vaultBalance =\n            basket.bassets[_bAssetIndex].vaultBalance.add(_increaseAmount);\n    }\n\n    /**\n     * @dev Called by only mAsset, and only when the basket is healthy, to add units to\n     *      storage after they have been deposited into the vault\n     * @param _bAssetIndices    Array of bAsset indexes\n     * @param _increaseAmount   Units deposited\n     */\n    function increaseVaultBalances(\n        uint8[] calldata _bAssetIndices,\n        address[] calldata /* _integrator */,\n        uint256[] calldata _increaseAmount\n    )   \n        override\n        external\n        onlyMasset\n        whenBasketIsHealthy\n    {\n        uint256 len = _bAssetIndices.length;\n        for(uint i = 0; i < len; i++) {\n            basket.bassets[_bAssetIndices[i]].vaultBalance =\n                basket.bassets[_bAssetIndices[i]].vaultBalance.add(_increaseAmount[i]);\n        }\n    }\n\n    /**\n     * @dev Called by mAsset after redeeming tokens. Simply reduce the balance in the vault\n     * @param _bAssetIndex      Index of the bAsset\n     * @param _decreaseAmount   Units withdrawn\n     */\n    function decreaseVaultBalance(\n        uint8 _bAssetIndex,\n        address /* _integrator */,\n        uint256 _decreaseAmount\n    )\n        override\n        external\n        onlyMasset\n    {\n        basket.bassets[_bAssetIndex].vaultBalance =\n            basket.bassets[_bAssetIndex].vaultBalance.sub(_decreaseAmount);\n    }\n\n    /**\n     * @dev Called by mAsset after redeeming tokens. Simply reduce the balance in the vault\n     * @param _bAssetIndices    Array of bAsset indexes\n     * @param _decreaseAmount   Units withdrawn\n     */\n    function decreaseVaultBalances(\n        uint8[] calldata _bAssetIndices,\n        address[] calldata /* _integrator */,\n        uint256[] calldata _decreaseAmount\n    )\n        override\n        external\n        onlyMasset\n    {\n        uint256 len = _bAssetIndices.length;\n        for(uint i = 0; i < len; i++) {\n            basket.bassets[_bAssetIndices[i]].vaultBalance =\n                basket.bassets[_bAssetIndices[i]].vaultBalance.sub(_decreaseAmount[i]);\n        }\n    }\n\n    /**\n     * @dev Called by mAsset to calculate how much interest has been generated in the basket\n     *      and withdraw it. Cycles through the connected platforms to check the balances.\n     * @return interestCollected   Total amount of interest collected, in mAsset terms\n     * @return gains               Array of bAsset units gained\n     */\n    function collectInterest()\n        override\n        external\n        onlyMasset\n        whenBasketIsHealthy\n        returns (uint256 interestCollected, uint256[] memory gains)\n    {\n        // Get basket details\n        (Basset[] memory allBassets, uint256 count) = _getBassets();\n        gains = new uint256[](count);\n        interestCollected = 0;\n\n        // foreach bAsset\n        for(uint8 i = 0; i < count; i++) {\n            Basset memory b = allBassets[i];\n            // call each integration to `checkBalance`\n            // uint256 balance = IPlatformIntegration(integrations[i]).checkBalance(b.addr);\n            uint256 balance = 100;\n            uint256 oldVaultBalance = b.vaultBalance;\n\n            // accumulate interest (ratioed bAsset)\n            if(balance > oldVaultBalance && b.status == BassetStatus.Normal) {\n                // Update balance\n                basket.bassets[i].vaultBalance = balance;\n\n                uint256 interestDelta = balance.sub(oldVaultBalance);\n                gains[i] = interestDelta;\n\n                // Calc MassetQ\n                uint256 ratioedDelta = interestDelta.mulRatioTruncate(b.ratio);\n                interestCollected = interestCollected.add(ratioedDelta);\n            } else {\n                gains[i] = 0;\n            }\n        }\n    }\n\n\n    /***************************************\n                BASKET MANAGEMENT\n    ****************************************/\n\n    /**\n     * @dev External func to allow the Governor to conduct add operations on the Basket\n     * @param _bAsset               Address of the ERC20 token to add to the Basket\n     * @param _integration          Address of the vault integration to deposit and withdraw\n     * @param _isTransferFeeCharged Bool - are transfer fees charged on this bAsset\n     * @return index                Position of the bAsset in the Basket\n     */\n    function addBasset(address _bAsset, address _integration, bool _isTransferFeeCharged)\n        override\n        external\n        whenBasketIsHealthy\n        whenNotRecolling\n        returns (uint8 index)\n    {\n        index = _addBasset(\n            _bAsset,\n            _integration,\n            StableMath.getRatioScale(),\n            _isTransferFeeCharged\n        );\n    }\n\n    /**\n     * @dev Adds a bAsset to the Basket, fetching its decimals and calculating the Ratios\n     * @param _bAsset               Address of the ERC20 token to add to the Basket\n     * @param _integration          Address of the Platform Integration\n     * @param _measurementMultiple  Base 1e8 var to determine measurement ratio\n     *                              between bAsset:mAsset\n     * @param _isTransferFeeCharged Bool - are transfer fees charged on this bAsset\n     * @return index                Position of the bAsset in the Basket\n     */\n    function _addBasset(\n        address _bAsset,\n        address _integration,\n        uint256 _measurementMultiple,\n        bool _isTransferFeeCharged\n    )\n        internal\n        returns (uint8 index)\n    {\n        require(_bAsset != address(0), \"bAsset address must be valid\");\n        require(_integration != address(0), \"Integration address must be valid\");\n        require(_measurementMultiple >= 1e6 && _measurementMultiple <= 1e10, \"MM out of range\");\n\n        (bool alreadyInBasket, ) = _isAssetInBasket(_bAsset);\n        require(!alreadyInBasket, \"bAsset already exists in Basket\");\n\n        // Should fail if bAsset is not added to integration\n        // Programmatic enforcement of bAsset validity should service through decentralised feed\n        // IPlatformIntegration(_integration).checkBalance(_bAsset);\n\n        uint256 bAsset_decimals = CommonHelpers.getDecimals(_bAsset);\n        uint256 delta = uint256(18).sub(bAsset_decimals);\n\n        uint256 ratio = _measurementMultiple.mul(10 ** delta);\n\n        uint8 numberOfBassetsInBasket = uint8(basket.bassets.length);\n        require(numberOfBassetsInBasket < basket.maxBassets, \"Max bAssets in Basket\");\n\n        bAssetsMap[_bAsset] = numberOfBassetsInBasket;\n\n        integrations.push(_integration);\n        basket.bassets.push(Basset({\n            addr: _bAsset,\n            ratio: ratio,\n            maxWeight: 0,\n            vaultBalance: 0,\n            status: BassetStatus.Normal,\n            isTransferFeeCharged: _isTransferFeeCharged\n        }));\n\n        emit BassetAdded(_bAsset, _integration);\n\n        index = numberOfBassetsInBasket;\n    }\n\n\n    /**\n     * @dev External call for the governor to set weightings of all bAssets\n     * @param _bAssets Array of bAsset addresses\n     * @param _weights Array of bAsset weights - summing 100% where 100% == 1e18\n     */\n    function setBasketWeights(\n        address[] calldata _bAssets,\n        uint256[] calldata _weights\n    )   \n        override\n        external\n        whenBasketIsHealthy\n    {\n        _setBasketWeights(_bAssets, _weights, false);\n    }\n\n    /**\n     * @notice Sets new Basket weightings\n     * @dev Requires the modified bAssets to be in a Normal state\n     * @param _bAssets Array of bAsset addresses\n     * @param _weights Array of bAsset weights - summing 100% where 100% == 1e18\n     * @param _isBootstrap True only on the first occurence of weight setting\n     */\n    function _setBasketWeights(\n        address[] memory _bAssets,\n        uint256[] memory _weights,\n        bool _isBootstrap\n    )\n        internal\n    {\n        uint256 bAssetCount = _bAssets.length;\n        require(bAssetCount > 0, \"Empty bAssets array passed\");\n        require(bAssetCount == _weights.length, \"Must be matching bAsset arrays\");\n\n        for (uint256 i = 0; i < bAssetCount; i++) {\n            (bool exists, uint8 index) = _isAssetInBasket(_bAssets[i]);\n            require(exists, \"bAsset must exist\");\n\n            Basset memory bAsset = _getBasset(index);\n\n            uint256 bAssetWeight = _weights[i];\n\n            if(bAsset.status == BassetStatus.Normal) {\n                require(\n                    bAssetWeight <= 1e18,\n                    \"Asset weight must be <= 100%\"\n                );\n                basket.bassets[index].maxWeight = bAssetWeight;\n            } else {\n                require(\n                    bAssetWeight == basket.bassets[index].maxWeight,\n                    \"Affected bAssets must be static\"\n                );\n            }\n        }\n\n        if(!_isBootstrap){\n            _validateBasketWeight();\n        }\n\n        emit BasketWeightsUpdated(_bAssets, _weights);\n    }\n\n    /**\n     * @dev Throws if the sum of all bAsset maxWeights is not in range 100-400%\n     */\n    function _validateBasketWeight() internal view {\n        uint256 len = basket.bassets.length;\n        uint256 weightSum = 0;\n        for(uint256 i = 0; i < len; i++) {\n            weightSum = weightSum.add(basket.bassets[i].maxWeight);\n        }\n        require(weightSum >= 1e18 && weightSum <= 4e18, \"Basket weight must be >= 100 && <= 400%\");\n    }\n\n    /**\n     * @dev Update transfer fee flag for a given bAsset, should it change its fee practice\n     * @param _bAsset   bAsset address\n     * @param _flag         Charge transfer fee when its set to 'true', otherwise 'false'\n     */\n    function setTransferFeesFlag(address _bAsset, bool _flag)\n        override\n        external\n    {\n        (bool exist, uint8 index) = _isAssetInBasket(_bAsset);\n        require(exist, \"bAsset does not exist\");\n        basket.bassets[index].isTransferFeeCharged = _flag;\n\n        emit TransferFeeEnabled(_bAsset, _flag);\n    }\n\n\n    /**\n     * @dev Removes a specific Asset from the Basket, given that its target/collateral\n     *      level is already 0, throws if invalid.\n     * @param _assetToRemove The asset to remove from the basket\n     */\n    function removeBasset(address _assetToRemove)\n        external\n        whenBasketIsHealthy\n        whenNotRecolling\n    {\n        _removeBasset(_assetToRemove);\n    }\n\n    /**\n     * @dev Removes a specific Asset from the Basket, given that its target/collateral\n     *      level is already 0, throws if invalid.\n     * @param _assetToRemove The asset to remove from the basket\n     */\n    function _removeBasset(address _assetToRemove) internal {\n        (bool exists, uint8 index) = _isAssetInBasket(_assetToRemove);\n        require(exists, \"bAsset does not exist\");\n\n        uint256 len = basket.bassets.length;\n        Basset memory bAsset = basket.bassets[index];\n\n        require(bAsset.maxWeight == 0, \"bAsset must have a target weight of 0\");\n        require(bAsset.vaultBalance == 0, \"bAsset vault must be empty\");\n        require(bAsset.status != BassetStatus.Liquidating, \"bAsset must be active\");\n\n        uint8 lastIndex = uint8(len.sub(1));\n        if(index == lastIndex) {\n            basket.bassets.pop();\n            bAssetsMap[_assetToRemove] = 0;\n            integrations.pop();\n        } else {\n            // Swap the bassets\n            basket.bassets[index] = basket.bassets[lastIndex];\n            basket.bassets.pop();\n            Basset memory swappedBasset = basket.bassets[index];\n            // Update bassetsMap\n            bAssetsMap[_assetToRemove] = 0;\n            bAssetsMap[swappedBasset.addr] = index;\n            // Update integrations\n            integrations[index] = integrations[lastIndex];\n            integrations.pop();\n        }\n\n        emit BassetRemoved(bAsset.addr);\n    }\n\n\n    /***************************************\n                    GETTERS\n    ****************************************/\n\n    /**\n     * @dev Get basket details for `MassetStructs.Basket`\n     * @return b   Basket struct\n     */\n    function getBasket()\n        override\n        external\n        view\n        returns (Basket memory b)\n    {\n        b = basket;\n    }\n\n    /**\n     * Prepare given bAsset for Forging. Currently returns integrator\n     *      and essential minting info.\n     * _bAsset    Address of the bAsset\n     * props     Struct of all relevant Forge information\n     */\n    function prepareForgeBasset(address _bAsset, uint256 /*_amt*/, bool /*_mint*/)\n        override\n        external\n        whenNotRecolling\n        returns (bool isValid, BassetDetails memory bInfo)\n    {\n        (bool exists, uint8 idx) = _isAssetInBasket(_bAsset);\n        require(exists, \"bAsset does not exist\");\n        isValid = true;\n        bInfo = BassetDetails({\n            bAsset: basket.bassets[idx],\n            integrator: integrations[idx],\n            index: idx\n        });\n    }\n\n    /**\n     * @dev Prepare given bAssets for swapping\n     * @param _input     Address of the input bAsset\n     * @param _output    Address of the output bAsset\n     * @param _isMint    Is this swap actually a mint? i.e. output == address(mAsset)\n     * @return props     Struct of all relevant Forge information\n     */\n    function prepareSwapBassets(address _input, address _output, bool _isMint)\n        override\n        external\n        view\n        returns (bool, string memory, BassetDetails memory, BassetDetails memory)\n    {\n        BassetDetails memory input = BassetDetails({\n            bAsset: basket.bassets[0],\n            integrator: address(0),\n            index: 0\n        });\n        BassetDetails memory output = input;\n        // Check that basket state is healthy\n        if(basket.failed || basket.undergoingRecol){\n            return (false, \"Basket is undergoing change\", input, output);\n        }\n\n        // Fetch input bAsset\n        (bool inputExists, uint8 inputIdx) = _isAssetInBasket(_input);\n        if(!inputExists) {\n            return (false, \"Input asset does not exist\", input, output);\n        }\n        input = BassetDetails({\n            bAsset: basket.bassets[inputIdx],\n            integrator: integrations[inputIdx],\n            index: inputIdx\n        });\n\n        // If this is a mint, we don't need output bAsset\n        if(_isMint) {\n            return (true, \"\", input, output);\n        }\n\n        // Fetch output bAsset\n        (bool outputExists, uint8 outputIdx) = _isAssetInBasket(_output);\n        if(!outputExists) {\n            return (false, \"Output asset does not exist\", input, output);\n        }\n        output = BassetDetails({\n            bAsset: basket.bassets[outputIdx],\n            integrator: integrations[outputIdx],\n            index: outputIdx\n        });\n        return (true, \"\", input, output);\n    }\n\n    /**\n     * @dev Prepare given bAsset addresses for Forging. Currently returns integrator\n     *      and essential minting info for each bAsset\n     * @param _bAssets   Array of bAsset addresses with which to forge\n     * @return props     Struct of all relevant Forge information\n     */\n    function prepareForgeBassets(\n        address[] calldata _bAssets,\n        uint256[] calldata /*_amts*/,\n        bool /* _isMint */\n    )\n        override\n        external\n        whenNotRecolling\n        returns (ForgePropsMulti memory props)\n    {\n        // Pass the fetching logic to the internal view func to reduce SLOAD cost\n        (Basset[] memory bAssets, uint8[] memory indexes, address[] memory integrators) = _fetchForgeBassets(_bAssets);\n        props = ForgePropsMulti({\n            isValid: true,\n            bAssets: bAssets,\n            integrators: integrators,\n            indexes: indexes\n        });\n    }\n\n    /**\n     * @dev Prepare given bAsset addresses for RedeemMulti. Currently returns integrator\n     *      and essential minting info for each bAsset\n     * @return props     Struct of all relevant Forge information\n     */\n    function prepareRedeemMulti()\n        override\n        external\n        view\n        whenNotRecolling\n        returns (RedeemPropsMulti memory props)\n    {\n        (Basset[] memory bAssets, uint256 len) = _getBassets();\n        address[] memory orderedIntegrators = new address[](len);\n        uint8[] memory indexes = new uint8[](len);\n        for(uint8 i = 0; i < len; i++){\n            orderedIntegrators[i] = integrations[i];\n            indexes[i] = i;\n        }\n        props = RedeemPropsMulti({\n            colRatio: basket.collateralisationRatio,\n            bAssets: bAssets,\n            integrators: orderedIntegrators,\n            indexes: indexes\n        });\n    }\n\n    /**\n     * @dev Internal func to fetch an array of bAssets and their integrators from storage\n     * @param _bAssets       Array of non-duplicate bAsset addresses with which to forge\n     * @return bAssets       Array of bAsset structs for the given addresses\n     * @return indexes       Array of indexes for the given addresses\n     * @return integrators   Array of integrators for the given addresses\n     */\n    function _fetchForgeBassets(address[] memory _bAssets)\n        internal\n        view\n        returns (\n            Basset[] memory bAssets,\n            uint8[] memory indexes,\n            address[] memory integrators\n        )\n    {\n        uint8 len = uint8(_bAssets.length);\n\n        bAssets = new Basset[](len);\n        integrators = new address[](len);\n        indexes = new uint8[](len);\n\n        // Iterate through the input\n        for(uint8 i = 0; i < len; i++) {\n            address current = _bAssets[i];\n\n            // If there is a duplicate here, throw\n            // Gas costs do not incur SLOAD\n            for(uint8 j = i+1; j < len; j++){\n                require(current != _bAssets[j], \"Must have no duplicates\");\n            }\n\n            // Fetch and log all the relevant data\n            (bool exists, uint8 index) = _isAssetInBasket(current);\n            require(exists, \"bAsset must exist\");\n            indexes[i] = index;\n            bAssets[i] = basket.bassets[index];\n            integrators[i] = integrations[index];\n        }\n    }\n\n    /**\n     * @dev Get data for a all bAssets in basket\n     * @return bAssets  Struct[] with full bAsset data\n     * @return len      Number of bAssets in the Basket\n     */\n    function getBassets()\n        override\n        external\n        view\n        returns (\n            Basset[] memory bAssets,\n            uint256 len\n        )\n    {\n        return _getBassets();\n    }\n\n    /**\n     * @dev Get data for a specific bAsset, if it exists\n     * @param _bAsset   Address of bAsset\n     * @return bAsset  Struct with full bAsset data\n     */\n    function getBasset(address _bAsset)\n        override\n        external\n        view\n        returns (Basset memory bAsset)\n    {\n        (bool exists, uint8 index) = _isAssetInBasket(_bAsset);\n        require(exists, \"bAsset must exist\");\n        bAsset = _getBasset(index);\n    }\n\n    /**\n     * @dev Get current integrator for a specific bAsset, if it exists\n     * @param _bAsset      Address of bAsset\n     * @return integrator  Address of current integrator\n     */\n    function getBassetIntegrator(address _bAsset)\n        external\n        view\n        returns (address integrator)\n    {\n        (bool exists, uint8 index) = _isAssetInBasket(_bAsset);\n        require(exists, \"bAsset must exist\");\n        integrator = integrations[index];\n    }\n\n    function _getBassets()\n        internal\n        view\n        returns (\n            Basset[] memory bAssets,\n            uint256 len\n        )\n    {\n        bAssets = basket.bassets;\n        len = basket.bassets.length;\n    }\n\n    function _getBasset(uint8 _bAssetIndex)\n        internal\n        view\n        returns (Basset memory bAsset)\n    {\n        bAsset = basket.bassets[_bAssetIndex];\n    }\n\n\n    /***************************************\n                    HELPERS\n    ****************************************/\n\n    /**\n     * @dev Checks if a particular asset is in the basket\n     * @param _asset   Address of bAsset to look for\n     * @return exists  bool to signal that the asset is in basket\n     * @return index   uint256 Index of the bAsset\n     */\n    function _isAssetInBasket(address _asset)\n        internal\n        view\n        returns (bool exists, uint8 index)\n    {\n        index = bAssetsMap[_asset];\n        if(index == 0) {\n            if(basket.bassets.length == 0) {\n                return (false, 0);\n            }\n            return (basket.bassets[0].addr == _asset, 0);\n        }\n        return (true, index);\n    }\n\n    /**\n     * @notice Determine whether or not a bAsset has already undergone re-collateralisation\n     * @param _status   Status of the bAsset\n     * @return          Bool to determine if undergone re-collateralisation\n     */\n    function _bAssetHasRecolled(BassetStatus _status)\n        internal\n        pure\n        returns (bool)\n    {\n        if(_status == BassetStatus.Liquidating ||\n            _status == BassetStatus.Liquidated ||\n            _status == BassetStatus.Failed) {\n            return true;\n        }\n        return false;\n    }\n\n\n    /***************************************\n                RE-COLLATERALISATION\n    ****************************************/\n\n    /**\n     * @dev Executes the Auto Redistribution event by isolating the bAsset from the Basket\n     * @param _bAsset          Address of the ERC20 token to isolate\n     * @param _belowPeg        Bool to describe whether the bAsset deviated below peg (t)\n     *                         or above (f)\n     * @return alreadyActioned Bool to show whether a bAsset had already been actioned\n     */\n    function handlePegLoss(address _bAsset, bool _belowPeg)\n        override\n        external\n        whenBasketIsHealthy\n        returns (bool alreadyActioned)\n    {\n        (bool exists, uint256 i) = _isAssetInBasket(_bAsset);\n        require(exists, \"bAsset must exist in Basket\");\n\n        BassetStatus oldStatus = basket.bassets[i].status;\n        BassetStatus newStatus =\n            _belowPeg ? BassetStatus.BrokenBelowPeg : BassetStatus.BrokenAbovePeg;\n\n        if(oldStatus == newStatus || _bAssetHasRecolled(oldStatus)) {\n            return true;\n        }\n\n        // If we need to update the status.. then do it\n        basket.bassets[i].status = newStatus;\n        emit BassetStatusChanged(_bAsset, newStatus);\n        return false;\n    }\n\n    /**\n     * @dev Negates the isolation of a given bAsset\n     * @param _bAsset Address of the bAsset\n     */\n    function negateIsolation(address _bAsset)\n        override\n        external\n    {\n        (bool exists, uint256 i) = _isAssetInBasket(_bAsset);\n        require(exists, \"bAsset must exist\");\n\n        BassetStatus currentStatus = basket.bassets[i].status;\n        if(currentStatus == BassetStatus.BrokenBelowPeg ||\n            currentStatus == BassetStatus.BrokenAbovePeg ||\n            currentStatus == BassetStatus.Blacklisted) {\n            basket.bassets[i].status = BassetStatus.Normal;\n            emit BassetStatusChanged(_bAsset, BassetStatus.Normal);\n        }\n    }\n\n    /**\n     * @dev Marks a bAsset as permanently deviated from peg\n     * @param _bAsset Address of the bAsset\n     */\n    function failBasset(address _bAsset)\n        external\n    {\n        (bool exists, uint256 i) = _isAssetInBasket(_bAsset);\n        require(exists, \"bAsset must exist\");\n\n        BassetStatus currentStatus = basket.bassets[i].status;\n        require(\n            currentStatus == BassetStatus.BrokenBelowPeg ||\n            currentStatus == BassetStatus.BrokenAbovePeg,\n            \"bAsset must be affected\"\n        );\n        basket.failed = true;\n    }\n\n    function paused() override external view returns (bool) {\n        return false;\n    }\n}\n",
  "sourcePath": "/Users/flora/workspace/eth/stable-coin/XStableDollar/XStableDollar-contracts/stabledollar/contracts/BasketManager.sol",
  "compiler": {
    "name": "solc",
    "version": "0.6.12+commit.27d51765.Emscripten.clang"
  },
  "schemaVersion": "3.3.1",
  "updatedAt": "2020-11-12T15:16:16.083Z",
  "devdoc": {
    "details": "VERSION: 1.0          DATE:    2020-05-05",
    "kind": "dev",
    "methods": {
      "addBasset(address,address,bool)": {
        "details": "External func to allow the Governor to conduct add operations on the Basket",
        "params": {
          "_bAsset": "Address of the ERC20 token to add to the Basket",
          "_integration": "Address of the vault integration to deposit and withdraw",
          "_isTransferFeeCharged": "Bool - are transfer fees charged on this bAsset"
        },
        "returns": {
          "index": "               Position of the bAsset in the Basket"
        }
      },
      "collectInterest()": {
        "details": "Called by mAsset to calculate how much interest has been generated in the basket      and withdraw it. Cycles through the connected platforms to check the balances.",
        "returns": {
          "gains": "              Array of bAsset units gained",
          "interestCollected": "  Total amount of interest collected, in mAsset terms"
        }
      },
      "decreaseVaultBalance(uint8,address,uint256)": {
        "details": "Called by mAsset after redeeming tokens. Simply reduce the balance in the vault",
        "params": {
          "_bAssetIndex": "Index of the bAsset",
          "_decreaseAmount": "Units withdrawn"
        }
      },
      "decreaseVaultBalances(uint8[],address[],uint256[])": {
        "details": "Called by mAsset after redeeming tokens. Simply reduce the balance in the vault",
        "params": {
          "_bAssetIndices": "Array of bAsset indexes",
          "_decreaseAmount": "Units withdrawn"
        }
      },
      "failBasset(address)": {
        "details": "Marks a bAsset as permanently deviated from peg",
        "params": {
          "_bAsset": "Address of the bAsset"
        }
      },
      "getBasket()": {
        "details": "Get basket details for `MassetStructs.Basket`",
        "returns": {
          "b": "  Basket struct"
        }
      },
      "getBasset(address)": {
        "details": "Get data for a specific bAsset, if it exists",
        "params": {
          "_bAsset": "Address of bAsset"
        },
        "returns": {
          "bAsset": " Struct with full bAsset data"
        }
      },
      "getBassetIntegrator(address)": {
        "details": "Get current integrator for a specific bAsset, if it exists",
        "params": {
          "_bAsset": "Address of bAsset"
        },
        "returns": {
          "integrator": " Address of current integrator"
        }
      },
      "getBassets()": {
        "details": "Get data for a all bAssets in basket",
        "returns": {
          "bAssets": " Struct[] with full bAsset data",
          "len": "     Number of bAssets in the Basket"
        }
      },
      "handlePegLoss(address,bool)": {
        "details": "Executes the Auto Redistribution event by isolating the bAsset from the Basket",
        "params": {
          "_bAsset": "Address of the ERC20 token to isolate",
          "_belowPeg": "Bool to describe whether the bAsset deviated below peg (t)                         or above (f)"
        },
        "returns": {
          "alreadyActioned": "Bool to show whether a bAsset had already been actioned"
        }
      },
      "increaseVaultBalance(uint8,address,uint256)": {
        "details": "Called by only mAsset, and only when the basket is healthy, to add units to      storage after they have been deposited into the vault",
        "params": {
          "_bAssetIndex": "Index of the bAsset",
          "_increaseAmount": "Units deposited"
        }
      },
      "increaseVaultBalances(uint8[],address[],uint256[])": {
        "details": "Called by only mAsset, and only when the basket is healthy, to add units to      storage after they have been deposited into the vault",
        "params": {
          "_bAssetIndices": "Array of bAsset indexes",
          "_increaseAmount": "Units deposited"
        }
      },
      "initialize(address,address[],address[],uint256[],bool[])": {
        "details": "Initialization function for upgradable proxy contract.      This function should be called via Proxy just after contract deployment.",
        "params": {
          "_bAssets": "Array of erc20 bAsset addresses",
          "_hasTransferFees": "Bool signifying if this bAsset has xfer fees",
          "_integrators": "Matching array of the platform intergations for bAssets",
          "_mAsset": "Address of the mAsset whose Basket to manage",
          "_weights": "Weightings of each bAsset, summing to 1e18"
        }
      },
      "negateIsolation(address)": {
        "details": "Negates the isolation of a given bAsset",
        "params": {
          "_bAsset": "Address of the bAsset"
        }
      },
      "prepareForgeBassets(address[],uint256[],bool)": {
        "details": "Prepare given bAsset addresses for Forging. Currently returns integrator      and essential minting info for each bAsset",
        "params": {
          "_bAssets": "Array of bAsset addresses with which to forge"
        },
        "returns": {
          "props": "    Struct of all relevant Forge information"
        }
      },
      "prepareRedeemMulti()": {
        "details": "Prepare given bAsset addresses for RedeemMulti. Currently returns integrator      and essential minting info for each bAsset",
        "returns": {
          "props": "    Struct of all relevant Forge information"
        }
      },
      "prepareSwapBassets(address,address,bool)": {
        "details": "Prepare given bAssets for swapping",
        "params": {
          "_input": "Address of the input bAsset",
          "_isMint": "Is this swap actually a mint? i.e. output == address(mAsset)",
          "_output": "Address of the output bAsset"
        },
        "returns": {
          "_0": "props     Struct of all relevant Forge information"
        }
      },
      "removeBasset(address)": {
        "details": "Removes a specific Asset from the Basket, given that its target/collateral      level is already 0, throws if invalid.",
        "params": {
          "_assetToRemove": "The asset to remove from the basket"
        }
      },
      "setBasketWeights(address[],uint256[])": {
        "details": "External call for the governor to set weightings of all bAssets",
        "params": {
          "_bAssets": "Array of bAsset addresses",
          "_weights": "Array of bAsset weights - summing 100% where 100% == 1e18"
        }
      },
      "setTransferFeesFlag(address,bool)": {
        "details": "Update transfer fee flag for a given bAsset, should it change its fee practice",
        "params": {
          "_bAsset": "bAsset address",
          "_flag": "Charge transfer fee when its set to 'true', otherwise 'false'"
        }
      }
    },
    "title": "BasketManager",
    "version": 1
  },
  "userdoc": {
    "kind": "user",
    "methods": {
      "prepareForgeBasset(address,uint256,bool)": {
        "notice": "Prepare given bAsset for Forging. Currently returns integrator      and essential minting info. _bAsset    Address of the bAsset props     Struct of all relevant Forge information"
      }
    },
    "notice": "Manages the Basket composition for a particular mAsset. Feeds all required          basket data to the mAsset and is responsible for keeping accurate records.          BasketManager can also optimise lending pool integrations and perform          re-collateralisation on failed bAssets.",
    "version": 1
  }
}