{
  "contractName": "CustomToken",
  "abi": [
    {
      "inputs": [
        {
          "internalType": "string",
          "name": "name",
          "type": "string"
        },
        {
          "internalType": "string",
          "name": "symbol",
          "type": "string"
        }
      ],
      "stateMutability": "nonpayable",
      "type": "constructor"
    },
    {
      "anonymous": false,
      "inputs": [
        {
          "indexed": true,
          "internalType": "address",
          "name": "owner",
          "type": "address"
        },
        {
          "indexed": true,
          "internalType": "address",
          "name": "spender",
          "type": "address"
        },
        {
          "indexed": false,
          "internalType": "uint256",
          "name": "value",
          "type": "uint256"
        }
      ],
      "name": "Approval",
      "type": "event"
    },
    {
      "anonymous": false,
      "inputs": [
        {
          "indexed": true,
          "internalType": "address",
          "name": "minter",
          "type": "address"
        },
        {
          "indexed": false,
          "internalType": "address",
          "name": "recipient",
          "type": "address"
        },
        {
          "indexed": false,
          "internalType": "uint256",
          "name": "mAssetQuantity",
          "type": "uint256"
        },
        {
          "indexed": false,
          "internalType": "address",
          "name": "bAsset",
          "type": "address"
        },
        {
          "indexed": false,
          "internalType": "uint256",
          "name": "bAssetQuantity",
          "type": "uint256"
        }
      ],
      "name": "Minted",
      "type": "event"
    },
    {
      "anonymous": false,
      "inputs": [
        {
          "indexed": true,
          "internalType": "address",
          "name": "minter",
          "type": "address"
        },
        {
          "indexed": false,
          "internalType": "address",
          "name": "recipient",
          "type": "address"
        },
        {
          "indexed": false,
          "internalType": "uint256",
          "name": "mAssetQuantity",
          "type": "uint256"
        },
        {
          "indexed": false,
          "internalType": "address[]",
          "name": "bAssets",
          "type": "address[]"
        },
        {
          "indexed": false,
          "internalType": "uint256[]",
          "name": "bAssetQuantities",
          "type": "uint256[]"
        }
      ],
      "name": "MintedMulti",
      "type": "event"
    },
    {
      "anonymous": false,
      "inputs": [
        {
          "indexed": true,
          "internalType": "address",
          "name": "payer",
          "type": "address"
        },
        {
          "indexed": false,
          "internalType": "address",
          "name": "asset",
          "type": "address"
        },
        {
          "indexed": false,
          "internalType": "uint256",
          "name": "feeQuantity",
          "type": "uint256"
        }
      ],
      "name": "PaidFee",
      "type": "event"
    },
    {
      "anonymous": false,
      "inputs": [
        {
          "indexed": true,
          "internalType": "address",
          "name": "redeemer",
          "type": "address"
        },
        {
          "indexed": false,
          "internalType": "address",
          "name": "recipient",
          "type": "address"
        },
        {
          "indexed": false,
          "internalType": "uint256",
          "name": "mAssetQuantity",
          "type": "uint256"
        },
        {
          "indexed": false,
          "internalType": "address[]",
          "name": "bAssets",
          "type": "address[]"
        },
        {
          "indexed": false,
          "internalType": "uint256[]",
          "name": "bAssetQuantities",
          "type": "uint256[]"
        }
      ],
      "name": "Redeemed",
      "type": "event"
    },
    {
      "anonymous": false,
      "inputs": [
        {
          "indexed": true,
          "internalType": "address",
          "name": "redeemer",
          "type": "address"
        },
        {
          "indexed": false,
          "internalType": "address",
          "name": "recipient",
          "type": "address"
        },
        {
          "indexed": false,
          "internalType": "uint256",
          "name": "mAssetQuantity",
          "type": "uint256"
        }
      ],
      "name": "RedeemedMasset",
      "type": "event"
    },
    {
      "anonymous": false,
      "inputs": [
        {
          "indexed": true,
          "internalType": "address",
          "name": "from",
          "type": "address"
        },
        {
          "indexed": true,
          "internalType": "address",
          "name": "to",
          "type": "address"
        },
        {
          "indexed": false,
          "internalType": "uint256",
          "name": "value",
          "type": "uint256"
        }
      ],
      "name": "Transfer",
      "type": "event"
    },
    {
      "inputs": [
        {
          "internalType": "address",
          "name": "owner",
          "type": "address"
        },
        {
          "internalType": "address",
          "name": "spender",
          "type": "address"
        }
      ],
      "name": "allowance",
      "outputs": [
        {
          "internalType": "uint256",
          "name": "",
          "type": "uint256"
        }
      ],
      "stateMutability": "view",
      "type": "function"
    },
    {
      "inputs": [
        {
          "internalType": "address",
          "name": "spender",
          "type": "address"
        },
        {
          "internalType": "uint256",
          "name": "amount",
          "type": "uint256"
        }
      ],
      "name": "approve",
      "outputs": [
        {
          "internalType": "bool",
          "name": "",
          "type": "bool"
        }
      ],
      "stateMutability": "nonpayable",
      "type": "function"
    },
    {
      "inputs": [
        {
          "internalType": "address",
          "name": "account",
          "type": "address"
        }
      ],
      "name": "balanceOf",
      "outputs": [
        {
          "internalType": "uint256",
          "name": "",
          "type": "uint256"
        }
      ],
      "stateMutability": "view",
      "type": "function"
    },
    {
      "inputs": [],
      "name": "decimals",
      "outputs": [
        {
          "internalType": "uint8",
          "name": "",
          "type": "uint8"
        }
      ],
      "stateMutability": "view",
      "type": "function"
    },
    {
      "inputs": [
        {
          "internalType": "address",
          "name": "spender",
          "type": "address"
        },
        {
          "internalType": "uint256",
          "name": "subtractedValue",
          "type": "uint256"
        }
      ],
      "name": "decreaseAllowance",
      "outputs": [
        {
          "internalType": "bool",
          "name": "",
          "type": "bool"
        }
      ],
      "stateMutability": "nonpayable",
      "type": "function"
    },
    {
      "inputs": [],
      "name": "forgeValidator",
      "outputs": [
        {
          "internalType": "contract IForgeValidator",
          "name": "",
          "type": "address"
        }
      ],
      "stateMutability": "view",
      "type": "function"
    },
    {
      "inputs": [
        {
          "internalType": "address",
          "name": "spender",
          "type": "address"
        },
        {
          "internalType": "uint256",
          "name": "addedValue",
          "type": "uint256"
        }
      ],
      "name": "increaseAllowance",
      "outputs": [
        {
          "internalType": "bool",
          "name": "",
          "type": "bool"
        }
      ],
      "stateMutability": "nonpayable",
      "type": "function"
    },
    {
      "inputs": [],
      "name": "name",
      "outputs": [
        {
          "internalType": "string",
          "name": "",
          "type": "string"
        }
      ],
      "stateMutability": "view",
      "type": "function"
    },
    {
      "inputs": [],
      "name": "symbol",
      "outputs": [
        {
          "internalType": "string",
          "name": "",
          "type": "string"
        }
      ],
      "stateMutability": "view",
      "type": "function"
    },
    {
      "inputs": [],
      "name": "totalSupply",
      "outputs": [
        {
          "internalType": "uint256",
          "name": "",
          "type": "uint256"
        }
      ],
      "stateMutability": "view",
      "type": "function"
    },
    {
      "inputs": [
        {
          "internalType": "address",
          "name": "recipient",
          "type": "address"
        },
        {
          "internalType": "uint256",
          "name": "amount",
          "type": "uint256"
        }
      ],
      "name": "transfer",
      "outputs": [
        {
          "internalType": "bool",
          "name": "",
          "type": "bool"
        }
      ],
      "stateMutability": "nonpayable",
      "type": "function"
    },
    {
      "inputs": [
        {
          "internalType": "address",
          "name": "sender",
          "type": "address"
        },
        {
          "internalType": "address",
          "name": "recipient",
          "type": "address"
        },
        {
          "internalType": "uint256",
          "name": "amount",
          "type": "uint256"
        }
      ],
      "name": "transferFrom",
      "outputs": [
        {
          "internalType": "bool",
          "name": "",
          "type": "bool"
        }
      ],
      "stateMutability": "nonpayable",
      "type": "function"
    },
    {
      "inputs": [
        {
          "internalType": "address",
          "name": "_basketManager",
          "type": "address"
        },
        {
          "internalType": "address",
          "name": "_forgeValidator",
          "type": "address"
        }
      ],
      "name": "initialize",
      "outputs": [],
      "stateMutability": "nonpayable",
      "type": "function"
    },
    {
      "inputs": [
        {
          "internalType": "address",
          "name": "_bAsset",
          "type": "address"
        },
        {
          "internalType": "uint256",
          "name": "_bAssetAmount",
          "type": "uint256"
        }
      ],
      "name": "mint",
      "outputs": [
        {
          "internalType": "uint256",
          "name": "massetMinted",
          "type": "uint256"
        }
      ],
      "stateMutability": "nonpayable",
      "type": "function"
    },
    {
      "inputs": [
        {
          "internalType": "address[]",
          "name": "_preToken",
          "type": "address[]"
        },
        {
          "internalType": "uint256[]",
          "name": "_bassetAmount",
          "type": "uint256[]"
        }
      ],
      "name": "mintMulti",
      "outputs": [
        {
          "internalType": "uint256",
          "name": "massetMinted",
          "type": "uint256"
        }
      ],
      "stateMutability": "nonpayable",
      "type": "function"
    },
    {
      "inputs": [
        {
          "internalType": "address[]",
          "name": "_bAssets",
          "type": "address[]"
        },
        {
          "internalType": "uint256[]",
          "name": "_bAssetQuantity",
          "type": "uint256[]"
        },
        {
          "internalType": "address",
          "name": "_recipient",
          "type": "address"
        }
      ],
      "name": "mintMulti",
      "outputs": [
        {
          "internalType": "uint256",
          "name": "massetMinted",
          "type": "uint256"
        }
      ],
      "stateMutability": "nonpayable",
      "type": "function"
    },
    {
      "inputs": [
        {
          "internalType": "address",
          "name": "_bAsset",
          "type": "address"
        },
        {
          "internalType": "uint256",
          "name": "_bAssetQuantity",
          "type": "uint256"
        }
      ],
      "name": "redeem",
      "outputs": [
        {
          "internalType": "uint256",
          "name": "massetRedeemed",
          "type": "uint256"
        }
      ],
      "stateMutability": "nonpayable",
      "type": "function"
    },
    {
      "inputs": [
        {
          "internalType": "address[]",
          "name": "_bAssets",
          "type": "address[]"
        },
        {
          "internalType": "uint256[]",
          "name": "_bAssetQuantities",
          "type": "uint256[]"
        },
        {
          "internalType": "address",
          "name": "_recipient",
          "type": "address"
        }
      ],
      "name": "redeemMulti",
      "outputs": [
        {
          "internalType": "uint256",
          "name": "massetRedeemed",
          "type": "uint256"
        }
      ],
      "stateMutability": "nonpayable",
      "type": "function"
    },
    {
      "inputs": [
        {
          "internalType": "uint256",
          "name": "_mAssetQuantity",
          "type": "uint256"
        },
        {
          "internalType": "address",
          "name": "_recipient",
          "type": "address"
        }
      ],
      "name": "redeemMasset",
      "outputs": [],
      "stateMutability": "nonpayable",
      "type": "function"
    }
  ],
  "bytecode": "0x60806040523480156200001157600080fd5b506040516200516638038062005166833981810160405281019062000037919062000193565b818181600390805190602001906200005192919062000091565b5080600490805190602001906200006a92919062000091565b506012600560006101000a81548160ff021916908360ff1602179055505050505062000297565b828054600181600116156101000203166002900490600052602060002090601f016020900481019282601f10620000d457805160ff191683800117855562000105565b8280016001018555821562000105579182015b8281111562000104578251825591602001919060010190620000e7565b5b50905062000114919062000118565b5090565b5b808211156200013357600081600090555060010162000119565b5090565b600082601f8301126200014957600080fd5b8151620001606200015a8262000234565b62000206565b915080825260208301602083018583830111156200017d57600080fd5b6200018a83828462000261565b50505092915050565b60008060408385031215620001a757600080fd5b600083015167ffffffffffffffff811115620001c257600080fd5b620001d08582860162000137565b925050602083015167ffffffffffffffff811115620001ee57600080fd5b620001fc8582860162000137565b9150509250929050565b6000604051905081810181811067ffffffffffffffff821117156200022a57600080fd5b8060405250919050565b600067ffffffffffffffff8211156200024c57600080fd5b601f19601f8301169050602081019050919050565b60005b838110156200028157808201518184015260208101905062000264565b8381111562000291576000848401525b50505050565b614ebf80620002a76000396000f3fe608060405234801561001057600080fd5b50600436106101215760003560e01c8063485cc955116100ad578063a9059cbb11610071578063a9059cbb1461036a578063aa3053b01461039a578063abe743ff146103ca578063d7d52266146103e6578063dd62ed3e1461040457610121565b8063485cc955146102a057806370a08231146102bc57806384f9378a146102ec57806395d89b411461031c578063a457c2d71461033a57610121565b806323b872dd116100f457806323b872dd146101c2578063313ce567146101f2578063395093511461021057806340c10f191461024057806346e4959d1461027057610121565b806306fdde0314610126578063095ea7b31461014457806318160ddd146101745780631e9a695014610192575b600080fd5b61012e610434565b60405161013b9190614773565b60405180910390f35b61015e6004803603810190610159919061377e565b6104d6565b60405161016b919061469e565b60405180910390f35b61017c6104f4565b6040516101899190614995565b60405180910390f35b6101ac60048036038101906101a7919061377e565b6104fe565b6040516101b99190614995565b60405180910390f35b6101dc60048036038101906101d7919061372f565b610513565b6040516101e9919061469e565b60405180910390f35b6101fa6105ec565b6040516102079190614a5d565b60405180910390f35b61022a6004803603810190610225919061377e565b610603565b604051610237919061469e565b60405180910390f35b61025a6004803603810190610255919061377e565b6106b6565b6040516102679190614995565b60405180910390f35b61028a600480360381019061028591906137ba565b6106cb565b6040516102979190614995565b60405180910390f35b6102ba60048036038101906102b591906136f3565b6106d9565b005b6102d660048036038101906102d191906136ca565b61075f565b6040516102e39190614995565b60405180910390f35b6103066004803603810190610301919061382f565b6107a7565b6040516103139190614995565b60405180910390f35b610324610841565b6040516103319190614773565b60405180910390f35b610354600480360381019061034f919061377e565b6108e3565b604051610361919061469e565b60405180910390f35b610384600480360381019061037f919061377e565b6109b0565b604051610391919061469e565b60405180910390f35b6103b460048036038101906103af919061382f565b6109ce565b6040516103c19190614995565b60405180910390f35b6103e460048036038101906103df9190613b44565b610a68565b005b6103ee610a76565b6040516103fb9190614721565b60405180910390f35b61041e600480360381019061041991906136f3565b610a9c565b60405161042b9190614995565b60405180910390f35b606060038054600181600116156101000203166002900480601f0160208091040260200160405190810160405280929190818152602001828054600181600116156101000203166002900480156104cc5780601f106104a1576101008083540402835291602001916104cc565b820191906000526020600020905b8154815290600101906020018083116104af57829003601f168201915b5050505050905090565b60006104ea6104e3610b23565b8484610b2b565b6001905092915050565b6000600254905090565b600061050b838333610cf6565b905092915050565b6000610520848484610e08565b6105e18461052c610b23565b6105dc85604051806060016040528060288152602001614e3d60289139600160008b73ffffffffffffffffffffffffffffffffffffffff1673ffffffffffffffffffffffffffffffffffffffff1681526020019081526020016000206000610592610b23565b73ffffffffffffffffffffffffffffffffffffffff1673ffffffffffffffffffffffffffffffffffffffff1681526020019081526020016000205461109d9092919063ffffffff16565b610b2b565b600190509392505050565b6000600560009054906101000a900460ff16905090565b60006106ac610610610b23565b846106a78560016000610621610b23565b73ffffffffffffffffffffffffffffffffffffffff1673ffffffffffffffffffffffffffffffffffffffff16815260200190815260200160002060008973ffffffffffffffffffffffffffffffffffffffff1673ffffffffffffffffffffffffffffffffffffffff168152602001908152602001600020546110f890919063ffffffff16565b610b2b565b6001905092915050565b60006106c383833361114d565b905092915050565b600060019050949350505050565b81600560016101000a81548173ffffffffffffffffffffffffffffffffffffffff021916908373ffffffffffffffffffffffffffffffffffffffff16021790555080600660006101000a81548173ffffffffffffffffffffffffffffffffffffffff021916908373ffffffffffffffffffffffffffffffffffffffff1602179055505050565b60008060008373ffffffffffffffffffffffffffffffffffffffff1673ffffffffffffffffffffffffffffffffffffffff168152602001908152602001600020549050919050565b6000610836868680806020026020016040519081016040528093929190818152602001838360200280828437600081840152601f19601f82011690508083019250505050505050858580806020026020016040519081016040528093929190818152602001838360200280828437600081840152601f19601f820116905080830192505050505050508461150c565b905095945050505050565b606060048054600181600116156101000203166002900480601f0160208091040260200160405190810160405280929190818152602001828054600181600116156101000203166002900480156108d95780601f106108ae576101008083540402835291602001916108d9565b820191906000526020600020905b8154815290600101906020018083116108bc57829003601f168201915b5050505050905090565b60006109a66108f0610b23565b846109a185604051806060016040528060258152602001614e65602591396001600061091a610b23565b73ffffffffffffffffffffffffffffffffffffffff1673ffffffffffffffffffffffffffffffffffffffff16815260200190815260200160002060008a73ffffffffffffffffffffffffffffffffffffffff1673ffffffffffffffffffffffffffffffffffffffff1681526020019081526020016000205461109d9092919063ffffffff16565b610b2b565b6001905092915050565b60006109c46109bd610b23565b8484610e08565b6001905092915050565b6000610a5d868680806020026020016040519081016040528093929190818152602001838360200280828437600081840152601f19601f82011690508083019250505050505050858580806020026020016040519081016040528093929190818152602001838360200280828437600081840152601f19601f8201169050808301925050505050505084611a14565b905095945050505050565b610a728282611ec4565b5050565b600660009054906101000a900473ffffffffffffffffffffffffffffffffffffffff1681565b6000600160008473ffffffffffffffffffffffffffffffffffffffff1673ffffffffffffffffffffffffffffffffffffffff16815260200190815260200160002060008373ffffffffffffffffffffffffffffffffffffffff1673ffffffffffffffffffffffffffffffffffffffff16815260200190815260200160002054905092915050565b600033905090565b600073ffffffffffffffffffffffffffffffffffffffff168373ffffffffffffffffffffffffffffffffffffffff161415610b9b576040517f08c379a0000000000000000000000000000000000000000000000000000000008152600401610b92906148d5565b60405180910390fd5b600073ffffffffffffffffffffffffffffffffffffffff168273ffffffffffffffffffffffffffffffffffffffff161415610c0b576040517f08c379a0000000000000000000000000000000000000000000000000000000008152600401610c02906147b5565b60405180910390fd5b80600160008573ffffffffffffffffffffffffffffffffffffffff1673ffffffffffffffffffffffffffffffffffffffff16815260200190815260200160002060008473ffffffffffffffffffffffffffffffffffffffff1673ffffffffffffffffffffffffffffffffffffffff168152602001908152602001600020819055508173ffffffffffffffffffffffffffffffffffffffff168373ffffffffffffffffffffffffffffffffffffffff167f8c5be1e5ebec7d5bd14f71427d1e84f3dd0314c0f7b2291e5b200ac8c7c3b92583604051610ce99190614995565b60405180910390a3505050565b60006060600167ffffffffffffffff81118015610d1257600080fd5b50604051908082528060200260200182016040528015610d415781602001602082028036833780820191505090505b5090506060600167ffffffffffffffff81118015610d5e57600080fd5b50604051908082528060200260200182016040528015610d8d5781602001602082028036833780820191505090505b5090508582600081518110610d9e57fe5b602002602001019073ffffffffffffffffffffffffffffffffffffffff16908173ffffffffffffffffffffffffffffffffffffffff16815250508481600081518110610de657fe5b602002602001018181525050610dfd828286611a14565b925050509392505050565b600073ffffffffffffffffffffffffffffffffffffffff168373ffffffffffffffffffffffffffffffffffffffff161415610e78576040517f08c379a0000000000000000000000000000000000000000000000000000000008152600401610e6f906148b5565b60405180910390fd5b600073ffffffffffffffffffffffffffffffffffffffff168273ffffffffffffffffffffffffffffffffffffffff161415610ee8576040517f08c379a0000000000000000000000000000000000000000000000000000000008152600401610edf90614795565b60405180910390fd5b610ef38383836121d3565b610f5e81604051806060016040528060268152602001614e17602691396000808773ffffffffffffffffffffffffffffffffffffffff1673ffffffffffffffffffffffffffffffffffffffff1681526020019081526020016000205461109d9092919063ffffffff16565b6000808573ffffffffffffffffffffffffffffffffffffffff1673ffffffffffffffffffffffffffffffffffffffff16815260200190815260200160002081905550610ff1816000808573ffffffffffffffffffffffffffffffffffffffff1673ffffffffffffffffffffffffffffffffffffffff168152602001908152602001600020546110f890919063ffffffff16565b6000808473ffffffffffffffffffffffffffffffffffffffff1673ffffffffffffffffffffffffffffffffffffffff168152602001908152602001600020819055508173ffffffffffffffffffffffffffffffffffffffff168373ffffffffffffffffffffffffffffffffffffffff167fddf252ad1be2c89b69c2b068fc378daa952ba7f163c4a11628f55a4df523b3ef836040516110909190614995565b60405180910390a3505050565b60008383111582906110e5576040517f08c379a00000000000000000000000000000000000000000000000000000000081526004016110dc9190614773565b60405180910390fd5b5060008385039050809150509392505050565b600080828401905083811015611143576040517f08c379a000000000000000000000000000000000000000000000000000000000815260040161113a906147d5565b60405180910390fd5b8091505092915050565b60008073ffffffffffffffffffffffffffffffffffffffff168273ffffffffffffffffffffffffffffffffffffffff1614156111be576040517f08c379a00000000000000000000000000000000000000000000000000000000081526004016111b590614955565b60405180910390fd5b60008311611201576040517f08c379a00000000000000000000000000000000000000000000000000000000081526004016111f890614855565b60405180910390fd5b600061120b612f0d565b600560019054906101000a900473ffffffffffffffffffffffffffffffffffffffff1673ffffffffffffffffffffffffffffffffffffffff1663bf9ca02d878760016040518463ffffffff1660e01b815260040161126b939291906145d6565b61012060405180830381600087803b15801561128657600080fd5b505af115801561129a573d6000803e3d6000fd5b505050506040513d601f19601f820116820180604052508101906112be9190613a1b565b91509150816112d257600092505050611505565b6000816020015190506000806112fb89856000015160600151858760000151604001518c6121d8565b9150915060006060600660009054906101000a900473ffffffffffffffffffffffffffffffffffffffff1673ffffffffffffffffffffffffffffffffffffffff1663df9563356113496104f4565b8860000151876040518463ffffffff1660e01b815260040161136d93929190614a25565b60006040518083038186803b15801561138557600080fd5b505afa158015611399573d6000803e3d6000fd5b505050506040513d6000823e3d601f19601f820116820180604052508101906113c291906138e1565b91509150818190611409576040517f08c379a00000000000000000000000000000000000000000000000000000000081526004016114009190614773565b60405180910390fd5b50600560019054906101000a900473ffffffffffffffffffffffffffffffffffffffff1673ffffffffffffffffffffffffffffffffffffffff1663dc686c8c600087876040518463ffffffff1660e01b815260040161146a9392919061473c565b600060405180830381600087803b15801561148457600080fd5b505af1158015611498573d6000803e3d6000fd5b505050506114a68984612208565b3373ffffffffffffffffffffffffffffffffffffffff167f30873c596f54a2e2e09894670d7e1a48b2433c00204f81fbedf557353c36e7c78a858e886040516114f2949392919061453e565b60405180910390a2829750505050505050505b9392505050565b60008073ffffffffffffffffffffffffffffffffffffffff168273ffffffffffffffffffffffffffffffffffffffff16141561157d576040517f08c379a000000000000000000000000000000000000000000000000000000000815260040161157490614955565b60405180910390fd5b6000835190506000811180156115935750845181145b6115d2576040517f08c379a00000000000000000000000000000000000000000000000000000000081526004016115c9906147f5565b60405180910390fd5b6115da612f4d565b600560019054906101000a900473ffffffffffffffffffffffffffffffffffffffff1673ffffffffffffffffffffffffffffffffffffffff16639d01cd35878760016040518463ffffffff1660e01b815260040161163a9392919061460d565b600060405180830381600087803b15801561165457600080fd5b505af1158015611668573d6000803e3d6000fd5b505050506040513d6000823e3d601f19601f820116820180604052508101906116919190613a99565b905080600001516116a757600092505050611a0d565b60006002905060608367ffffffffffffffff811180156116c657600080fd5b506040519080825280602002602001820160405280156116f55781602001602082028036833780820191505090505b50905060005b848110156117bd57600088828151811061171157fe5b6020026020010151905060008111156117af5761172c612f77565b8560200151838151811061173c57fe5b60200260200101519050600080611779836000015184606001518a60400151888151811061176657fe5b60200260200101518660400151886121d8565b915091508186868151811061178a57fe5b6020026020010181815250506117a981886110f890919063ffffffff16565b96505050505b5080806001019150506116fb565b5060008211611801576040517f08c379a00000000000000000000000000000000000000000000000000000000081526004016117f890614815565b60405180910390fd5b600560019054906101000a900473ffffffffffffffffffffffffffffffffffffffff1673ffffffffffffffffffffffffffffffffffffffff1663d5e1d27984606001518560400151846040518463ffffffff1660e01b815260040161186893929190614652565b600060405180830381600087803b15801561188257600080fd5b505af1158015611896573d6000803e3d6000fd5b5050505060006060600660009054906101000a900473ffffffffffffffffffffffffffffffffffffffff1673ffffffffffffffffffffffffffffffffffffffff16634566eb096118e46104f4565b8760200151866040518463ffffffff1660e01b8152600401611908939291906149e0565b60006040518083038186803b15801561192057600080fd5b505afa158015611934573d6000803e3d6000fd5b505050506040513d6000823e3d601f19601f8201168201806040525081019061195d91906138e1565b915091508181906119a4576040517f08c379a000000000000000000000000000000000000000000000000000000000815260040161199b9190614773565b60405180910390fd5b506119af8885612208565b3373ffffffffffffffffffffffffffffffffffffffff167f7d3ff197e9071095bd36b627028ef523ecf46fcbf17cbde745a4b65aec88b6bc89868d8d6040516119fb9493929190614583565b60405180910390a28396505050505050505b9392505050565b60008073ffffffffffffffffffffffffffffffffffffffff168273ffffffffffffffffffffffffffffffffffffffff161415611a85576040517f08c379a0000000000000000000000000000000000000000000000000000000008152600401611a7c90614955565b60405180910390fd5b600083519050600081118015611a9b5750845181145b611ada576040517f08c379a0000000000000000000000000000000000000000000000000000000008152600401611ad1906147f5565b60405180910390fd5b611ae2612fd0565b600560019054906101000a900473ffffffffffffffffffffffffffffffffffffffff1673ffffffffffffffffffffffffffffffffffffffff1663cd6ef2b06040518163ffffffff1660e01b815260040160006040518083038186803b158015611b4a57600080fd5b505afa158015611b5e573d6000803e3d6000fd5b505050506040513d6000823e3d601f19601f82011682018060405250810190611b879190613a58565b9050611b91612f4d565b600560019054906101000a900473ffffffffffffffffffffffffffffffffffffffff1673ffffffffffffffffffffffffffffffffffffffff16639d01cd35888860006040518463ffffffff1660e01b8152600401611bf19392919061460d565b600060405180830381600087803b158015611c0b57600080fd5b505af1158015611c1f573d6000803e3d6000fd5b505050506040513d6000823e3d601f19601f82011682018060405250810190611c489190613a99565b90508060000151611c5f5760009350505050611ebd565b600060606000600660009054906101000a900473ffffffffffffffffffffffffffffffffffffffff1673ffffffffffffffffffffffffffffffffffffffff16638fb1860b8660600151611cb06104f4565b886000015188606001518e6040518663ffffffff1660e01b8152600401611cdb9594939291906146b9565b60006040518083038186803b158015611cf357600080fd5b505afa158015611d07573d6000803e3d6000fd5b505050506040513d6000823e3d601f19601f82011682018060405250810190611d3091906139b4565b925092509250828290611d79576040517f08c379a0000000000000000000000000000000000000000000000000000000008152600401611d709190614773565b60405180910390fd5b5060005b86811015611dfd5760008a8281518110611d9357fe5b602002602001015190506000811115611def576000611dd687602001518481518110611dbb57fe5b6020026020010151606001518361239c90919063ffffffff16565b9050611deb818a6110f890919063ffffffff16565b9850505b508080600101915050611d7d565b5060008611611e41576040517f08c379a0000000000000000000000000000000000000000000000000000000008152600401611e3890614835565b60405180910390fd5b6000611e5e898887602001518d89606001518a6040015187612403565b3373ffffffffffffffffffffffffffffffffffffffff167f93fc955b3f6c5e7b37fbb64f39e6f4d9050f82ed17cec724743f95a50da7df1c8a898e8e604051611eaa9493929190614583565b60405180910390a2869750505050505050505b9392505050565b600073ffffffffffffffffffffffffffffffffffffffff168173ffffffffffffffffffffffffffffffffffffffff161415611f34576040517f08c379a0000000000000000000000000000000000000000000000000000000008152600401611f2b90614955565b60405180910390fd5b60008211611f77576040517f08c379a0000000000000000000000000000000000000000000000000000000008152600401611f6e90614935565b60405180910390fd5b611f7f613006565b600560019054906101000a900473ffffffffffffffffffffffffffffffffffffffff1673ffffffffffffffffffffffffffffffffffffffff166343ae78be6040518163ffffffff1660e01b815260040160006040518083038186803b158015611fe757600080fd5b505afa158015611ffb573d6000803e3d6000fd5b505050506040513d6000823e3d601f19601f820116820180604052508101906120249190613ada565b9050600061203d82600001516120386125af565b6125bf565b9050600061205482866125d890919063ffffffff16565b90506000606080600660009054906101000a900473ffffffffffffffffffffffffffffffffffffffff1673ffffffffffffffffffffffffffffffffffffffff16630201e2d08588602001516040518363ffffffff1660e01b81526004016120bc9291906149b0565b60006040518083038186803b1580156120d457600080fd5b505afa1580156120e8573d6000803e3d6000fd5b505050506040513d6000823e3d601f19601f820116820180604052508101906121119190613935565b92509250925082829061215a576040517f08c379a00000000000000000000000000000000000000000000000000000000081526004016121519190614773565b60405180910390fd5b506000612178888a8960200151858b606001518c6040015187612403565b3373ffffffffffffffffffffffffffffffffffffffff167f6e8e3f900293b89801cb29bf5dc5c402c685e66d588bed50a3d83ffbf0bb9034898b6040516121c0929190614515565b60405180910390a2505050505050505050565b505050565b6000806121e7878686866125f5565b91506121fc86836126b090919063ffffffff16565b90509550959350505050565b600073ffffffffffffffffffffffffffffffffffffffff168273ffffffffffffffffffffffffffffffffffffffff161415612278576040517f08c379a000000000000000000000000000000000000000000000000000000000815260040161226f90614975565b60405180910390fd5b612284600083836121d3565b612299816002546110f890919063ffffffff16565b6002819055506122f0816000808573ffffffffffffffffffffffffffffffffffffffff1673ffffffffffffffffffffffffffffffffffffffff168152602001908152602001600020546110f890919063ffffffff16565b6000808473ffffffffffffffffffffffffffffffffffffffff1673ffffffffffffffffffffffffffffffffffffffff168152602001908152602001600020819055508173ffffffffffffffffffffffffffffffffffffffff16600073ffffffffffffffffffffffffffffffffffffffff167fddf252ad1be2c89b69c2b068fc378daa952ba7f163c4a11628f55a4df523b3ef836040516123909190614995565b60405180910390a35050565b6000806123b283856126c990919063ffffffff16565b905060006123e06123d160016305f5e10061273990919063ffffffff16565b836110f890919063ffffffff16565b90506123f96305f5e1008261278390919063ffffffff16565b9250505092915050565b61240d33876127cd565b600560019054906101000a900473ffffffffffffffffffffffffffffffffffffffff1673ffffffffffffffffffffffffffffffffffffffff166388a90f518484876040518463ffffffff1660e01b815260040161246c93929190614652565b600060405180830381600087803b15801561248657600080fd5b505af115801561249a573d6000803e3d6000fd5b5050505060008551905060005b818110156125a45760008782815181106124bd57fe5b602002602001015160000151905060008783815181106124d957fe5b602002602001015190506000811115612595576124f782828761297b565b905085838151811061250557fe5b602002602001015173ffffffffffffffffffffffffffffffffffffffff1663934785b78c84848d888151811061253757fe5b6020026020010151604001516040518563ffffffff1660e01b815260040161256294939291906144d0565b600060405180830381600087803b15801561257c57600080fd5b505af1158015612590573d6000803e3d6000fd5b505050505b505080806001019150506124a7565b505050505050505050565b6000670de0b6b3a7640000905090565b60008183116125ce57826125d0565b815b905092915050565b60006125ed8383670de0b6b3a76400006129f7565b905092915050565b6000806126053386888787612a2c565b905060008573ffffffffffffffffffffffffffffffffffffffff16633edd11288884886040518463ffffffff1660e01b8152600401612646939291906145d6565b602060405180830381600087803b15801561266057600080fd5b505af1158015612674573d6000803e3d6000fd5b505050506040513d601f19601f820116820180604052508101906126989190613b1b565b90506126a481856125bf565b92505050949350505050565b60006126c183836305f5e1006129f7565b905092915050565b6000808314156126dc5760009050612733565b60008284029050828482816126ed57fe5b041461272e576040517f08c379a000000000000000000000000000000000000000000000000000000000815260040161272590614875565b60405180910390fd5b809150505b92915050565b600061277b83836040518060400160405280601e81526020017f536166654d6174683a207375627472616374696f6e206f766572666c6f77000081525061109d565b905092915050565b60006127c583836040518060400160405280601a81526020017f536166654d6174683a206469766973696f6e206279207a65726f000000000000815250612bda565b905092915050565b600073ffffffffffffffffffffffffffffffffffffffff168273ffffffffffffffffffffffffffffffffffffffff16141561283d576040517f08c379a000000000000000000000000000000000000000000000000000000000815260040161283490614895565b60405180910390fd5b612849826000836121d3565b6128b481604051806060016040528060228152602001614df5602291396000808673ffffffffffffffffffffffffffffffffffffffff1673ffffffffffffffffffffffffffffffffffffffff1681526020019081526020016000205461109d9092919063ffffffff16565b6000808473ffffffffffffffffffffffffffffffffffffffff1673ffffffffffffffffffffffffffffffffffffffff1681526020019081526020016000208190555061290b8160025461273990919063ffffffff16565b600281905550600073ffffffffffffffffffffffffffffffffffffffff168273ffffffffffffffffffffffffffffffffffffffff167fddf252ad1be2c89b69c2b068fc378daa952ba7f163c4a11628f55a4df523b3ef8360405161296f9190614995565b60405180910390a35050565b600082905060008211156129f0576000806129968585612c3b565b915091508092503373ffffffffffffffffffffffffffffffffffffffff167f02f19ecb5bbcd7b0f0cb034005563f7ad115132d0beb073b5d32697ca94bbaa187846040516129e5929190614515565b60405180910390a250505b9392505050565b600080612a0d84866126c990919063ffffffff16565b9050612a22838261278390919063ffffffff16565b9150509392505050565b60008190508215612ba35760008473ffffffffffffffffffffffffffffffffffffffff166370a08231876040518263ffffffff1660e01b8152600401612a72919061447e565b60206040518083038186803b158015612a8a57600080fd5b505afa158015612a9e573d6000803e3d6000fd5b505050506040513d601f19601f82011682018060405250810190612ac29190613b1b565b9050612af18787858873ffffffffffffffffffffffffffffffffffffffff16612c6f909392919063ffffffff16565b60008573ffffffffffffffffffffffffffffffffffffffff166370a08231886040518263ffffffff1660e01b8152600401612b2c919061447e565b60206040518083038186803b158015612b4457600080fd5b505afa158015612b58573d6000803e3d6000fd5b505050506040513d601f19601f82011682018060405250810190612b7c9190613b1b565b9050612b9a84612b95848461273990919063ffffffff16565b6125bf565b92505050612bd1565b612bd08686848773ffffffffffffffffffffffffffffffffffffffff16612c6f909392919063ffffffff16565b5b95945050505050565b60008083118290612c21576040517f08c379a0000000000000000000000000000000000000000000000000000000008152600401612c189190614773565b60405180910390fd5b506000838581612c2d57fe5b049050809150509392505050565b600080612c5183856125d890919063ffffffff16565b9150612c66828561273990919063ffffffff16565b90509250929050565b612cf2846323b872dd60e01b858585604051602401612c9093929190614499565b604051602081830303815290604052907bffffffffffffffffffffffffffffffffffffffffffffffffffffffff19166020820180517bffffffffffffffffffffffffffffffffffffffffffffffffffffffff8381831617835250505050612cf8565b50505050565b6060612d5a826040518060400160405280602081526020017f5361666545524332303a206c6f772d6c6576656c2063616c6c206661696c65648152508573ffffffffffffffffffffffffffffffffffffffff16612dbf9092919063ffffffff16565b9050600081511115612dba5780806020019051810190612d7a91906138b8565b612db9576040517f08c379a0000000000000000000000000000000000000000000000000000000008152600401612db090614915565b60405180910390fd5b5b505050565b6060612dce8484600085612dd7565b90509392505050565b6060612de285612efa565b612e21576040517f08c379a0000000000000000000000000000000000000000000000000000000008152600401612e18906148f5565b60405180910390fd5b600060608673ffffffffffffffffffffffffffffffffffffffff168587604051612e4b9190614467565b60006040518083038185875af1925050503d8060008114612e88576040519150601f19603f3d011682016040523d82523d6000602084013e612e8d565b606091505b50915091508115612ea2578092505050612ef2565b600081511115612eb55780518082602001fd5b836040517f08c379a0000000000000000000000000000000000000000000000000000000008152600401612ee99190614773565b60405180910390fd5b949350505050565b600080823b905060008111915050919050565b6040518060600160405280612f20612f77565b8152602001600073ffffffffffffffffffffffffffffffffffffffff168152602001600060ff1681525090565b60405180608001604052806000151581526020016060815260200160608152602001606081525090565b6040518060c00160405280600073ffffffffffffffffffffffffffffffffffffffff16815260200160006007811115612fac57fe5b81526020016000151581526020016000815260200160008152602001600081525090565b6040518060a0016040528060608152602001600060ff168152602001600015158152602001600015158152602001600081525090565b6040518060800160405280600081526020016060815260200160608152602001606081525090565b60008135905061303d81614d88565b92915050565b60008151905061305281614d88565b92915050565b60008083601f84011261306a57600080fd5b8235905067ffffffffffffffff81111561308357600080fd5b60208301915083602082028301111561309b57600080fd5b9250929050565b600082601f8301126130b357600080fd5b81516130c66130c182614aa5565b614a78565b915081818352602084019350602081019050838560208402820111156130eb57600080fd5b60005b8381101561311b57816131018882613043565b8452602084019350602083019250506001810190506130ee565b5050505092915050565b600082601f83011261313657600080fd5b815161314961314482614acd565b614a78565b915081818352602084019350602081019050838560c084028201111561316e57600080fd5b60005b8381101561319e57816131848882613477565b845260208401935060c08301925050600181019050613171565b5050505092915050565b60008083601f8401126131ba57600080fd5b8235905067ffffffffffffffff8111156131d357600080fd5b6020830191508360208202830111156131eb57600080fd5b9250929050565b600082601f83011261320357600080fd5b815161321661321182614af5565b614a78565b9150818183526020840193506020810190508385602084028201111561323b57600080fd5b60005b8381101561326b578161325188826136a0565b84526020840193506020830192505060018101905061323e565b5050505092915050565b600082601f83011261328657600080fd5b815161329961329482614b1d565b614a78565b915081818352602084019350602081019050838560208402820111156132be57600080fd5b60005b838110156132ee57816132d488826136b5565b8452602084019350602083019250506001810190506132c1565b5050505092915050565b60008151905061330781614d9f565b92915050565b60008151905061331c81614db6565b92915050565b600082601f83011261333357600080fd5b815161334661334182614b45565b614a78565b9150808252602083016020830185838301111561336257600080fd5b61336d838284614d37565b50505092915050565b600060a0828403121561338857600080fd5b61339260a0614a78565b9050600082015167ffffffffffffffff8111156133ae57600080fd5b6133ba84828501613125565b60008301525060206133ce848285016136b5565b60208301525060406133e2848285016132f8565b60408301525060606133f6848285016132f8565b606083015250608061340a848285016136a0565b60808301525092915050565b6000610100828403121561342957600080fd5b6134336060614a78565b9050600061344384828501613477565b60008301525060c061345784828501613043565b60208301525060e061346b848285016136b5565b60408301525092915050565b600060c0828403121561348957600080fd5b61349360c0614a78565b905060006134a384828501613043565b60008301525060206134b78482850161330d565b60208301525060406134cb848285016132f8565b60408301525060606134df848285016136a0565b60608301525060806134f3848285016136a0565b60808301525060a0613507848285016136a0565b60a08301525092915050565b60006080828403121561352557600080fd5b61352f6080614a78565b9050600061353f848285016132f8565b600083015250602082015167ffffffffffffffff81111561355f57600080fd5b61356b84828501613125565b602083015250604082015167ffffffffffffffff81111561358b57600080fd5b613597848285016130a2565b604083015250606082015167ffffffffffffffff8111156135b757600080fd5b6135c384828501613275565b60608301525092915050565b6000608082840312156135e157600080fd5b6135eb6080614a78565b905060006135fb848285016136a0565b600083015250602082015167ffffffffffffffff81111561361b57600080fd5b61362784828501613125565b602083015250604082015167ffffffffffffffff81111561364757600080fd5b613653848285016130a2565b604083015250606082015167ffffffffffffffff81111561367357600080fd5b61367f84828501613275565b60608301525092915050565b60008135905061369a81614dc6565b92915050565b6000815190506136af81614dc6565b92915050565b6000815190506136c481614ddd565b92915050565b6000602082840312156136dc57600080fd5b60006136ea8482850161302e565b91505092915050565b6000806040838503121561370657600080fd5b60006137148582860161302e565b92505060206137258582860161302e565b9150509250929050565b60008060006060848603121561374457600080fd5b60006137528682870161302e565b93505060206137638682870161302e565b92505060406137748682870161368b565b9150509250925092565b6000806040838503121561379157600080fd5b600061379f8582860161302e565b92505060206137b08582860161368b565b9150509250929050565b600080600080604085870312156137d057600080fd5b600085013567ffffffffffffffff8111156137ea57600080fd5b6137f687828801613058565b9450945050602085013567ffffffffffffffff81111561381557600080fd5b613821878288016131a8565b925092505092959194509250565b60008060008060006060868803121561384757600080fd5b600086013567ffffffffffffffff81111561386157600080fd5b61386d88828901613058565b9550955050602086013567ffffffffffffffff81111561388c57600080fd5b613898888289016131a8565b935093505060406138ab8882890161302e565b9150509295509295909350565b6000602082840312156138ca57600080fd5b60006138d8848285016132f8565b91505092915050565b600080604083850312156138f457600080fd5b6000613902858286016132f8565b925050602083015167ffffffffffffffff81111561391f57600080fd5b61392b85828601613322565b9150509250929050565b60008060006060848603121561394a57600080fd5b6000613958868287016132f8565b935050602084015167ffffffffffffffff81111561397557600080fd5b61398186828701613322565b925050604084015167ffffffffffffffff81111561399e57600080fd5b6139aa868287016131f2565b9150509250925092565b6000806000606084860312156139c957600080fd5b60006139d7868287016132f8565b935050602084015167ffffffffffffffff8111156139f457600080fd5b613a0086828701613322565b9250506040613a11868287016132f8565b9150509250925092565b6000806101208385031215613a2f57600080fd5b6000613a3d858286016132f8565b9250506020613a4e85828601613416565b9150509250929050565b600060208284031215613a6a57600080fd5b600082015167ffffffffffffffff811115613a8457600080fd5b613a9084828501613376565b91505092915050565b600060208284031215613aab57600080fd5b600082015167ffffffffffffffff811115613ac557600080fd5b613ad184828501613513565b91505092915050565b600060208284031215613aec57600080fd5b600082015167ffffffffffffffff811115613b0657600080fd5b613b12848285016135cf565b91505092915050565b600060208284031215613b2d57600080fd5b6000613b3b848285016136a0565b91505092915050565b60008060408385031215613b5757600080fd5b6000613b658582860161368b565b9250506020613b768582860161302e565b9150509250929050565b6000613b8c8383613be0565b60208301905092915050565b6000613ba48383614335565b60c08301905092915050565b6000613bbc838361442b565b60208301905092915050565b6000613bd48383614449565b60208301905092915050565b613be981614c87565b82525050565b613bf881614c87565b82525050565b6000613c0982614bb1565b613c138185614c27565b9350613c1e83614b71565b8060005b83811015613c4f578151613c368882613b80565b9750613c4183614bf3565b925050600181019050613c22565b5085935050505092915050565b6000613c6782614bbc565b613c718185614c38565b9350613c7c83614b81565b8060005b83811015613cad578151613c948882613b98565b9750613c9f83614c00565b925050600181019050613c80565b5085935050505092915050565b6000613cc582614bc7565b613ccf8185614c49565b9350613cda83614b91565b8060005b83811015613d0b578151613cf28882613bb0565b9750613cfd83614c0d565b925050600181019050613cde565b5085935050505092915050565b6000613d2382614bd2565b613d2d8185614c5a565b9350613d3883614ba1565b8060005b83811015613d69578151613d508882613bc8565b9750613d5b83614c1a565b925050600181019050613d3c565b5085935050505092915050565b613d7f81614c99565b82525050565b613d8e81614c99565b82525050565b6000613d9f82614bdd565b613da98185614c6b565b9350613db9818560208601614d37565b80840191505092915050565b613dce81614cef565b82525050565b613ddd81614d13565b82525050565b613dec81614d25565b82525050565b6000613dfd82614be8565b613e078185614c76565b9350613e17818560208601614d37565b613e2081614d6a565b840191505092915050565b6000613e38602383614c76565b91507f45524332303a207472616e7366657220746f20746865207a65726f206164647260008301527f65737300000000000000000000000000000000000000000000000000000000006020830152604082019050919050565b6000613e9e602283614c76565b91507f45524332303a20617070726f766520746f20746865207a65726f20616464726560008301527f73730000000000000000000000000000000000000000000000000000000000006020830152604082019050919050565b6000613f04601b83614c76565b91507f536166654d6174683a206164646974696f6e206f766572666c6f7700000000006000830152602082019050919050565b6000613f44601483614c76565b91507f496e707574206172726179206d69736d617463680000000000000000000000006000830152602082019050919050565b6000613f84601a83614c76565b91507f4e6f206d6173736574207175616e7469747920746f206d696e740000000000006000830152602082019050919050565b6000613fc4601883614c76565b91507f4d7573742072656465656d20736f6d65206241737365747300000000000000006000830152602082019050919050565b6000614004601683614c76565b91507f5175616e74697479206d757374206e6f742062652030000000000000000000006000830152602082019050919050565b6000614044602183614c76565b91507f536166654d6174683a206d756c7469706c69636174696f6e206f766572666c6f60008301527f77000000000000000000000000000000000000000000000000000000000000006020830152604082019050919050565b60006140aa602183614c76565b91507f45524332303a206275726e2066726f6d20746865207a65726f2061646472657360008301527f73000000000000000000000000000000000000000000000000000000000000006020830152604082019050919050565b6000614110602583614c76565b91507f45524332303a207472616e736665722066726f6d20746865207a65726f20616460008301527f64726573730000000000000000000000000000000000000000000000000000006020830152604082019050919050565b6000614176602483614c76565b91507f45524332303a20617070726f76652066726f6d20746865207a65726f2061646460008301527f72657373000000000000000000000000000000000000000000000000000000006020830152604082019050919050565b60006141dc601d83614c76565b91507f416464726573733a2063616c6c20746f206e6f6e2d636f6e74726163740000006000830152602082019050919050565b600061421c602a83614c76565b91507f5361666545524332303a204552433230206f7065726174696f6e20646964206e60008301527f6f742073756363656564000000000000000000000000000000000000000000006020830152604082019050919050565b6000614282601b83614c76565b91507f496e76616c696420726564656d7074696f6e207175616e7469747900000000006000830152602082019050919050565b60006142c2601983614c76565b91507f4d75737420626520612076616c696420726563697069656e74000000000000006000830152602082019050919050565b6000614302601f83614c76565b91507f45524332303a206d696e7420746f20746865207a65726f2061646472657373006000830152602082019050919050565b60c08201600082015161434b6000850182613be0565b50602082015161435e6020850182613dd4565b5060408201516143716040850182613d76565b506060820151614384606085018261442b565b506080820151614397608085018261442b565b5060a08201516143aa60a085018261442b565b50505050565b60c0820160008201516143c66000850182613be0565b5060208201516143d96020850182613dd4565b5060408201516143ec6040850182613d76565b5060608201516143ff606085018261442b565b506080820151614412608085018261442b565b5060a082015161442560a085018261442b565b50505050565b61443481614cd8565b82525050565b61444381614cd8565b82525050565b61445281614ce2565b82525050565b61446181614ce2565b82525050565b60006144738284613d94565b915081905092915050565b60006020820190506144936000830184613bef565b92915050565b60006060820190506144ae6000830186613bef565b6144bb6020830185613bef565b6144c8604083018461443a565b949350505050565b60006080820190506144e56000830187613bef565b6144f26020830186613bef565b6144ff604083018561443a565b61450c6060830184613d85565b95945050505050565b600060408201905061452a6000830185613bef565b614537602083018461443a565b9392505050565b60006080820190506145536000830187613bef565b614560602083018661443a565b61456d6040830185613bef565b61457a606083018461443a565b95945050505050565b60006080820190506145986000830187613bef565b6145a5602083018661443a565b81810360408301526145b78185613bfe565b905081810360608301526145cb8184613cba565b905095945050505050565b60006060820190506145eb6000830186613bef565b6145f8602083018561443a565b6146056040830184613d85565b949350505050565b600060608201905081810360008301526146278186613bfe565b9050818103602083015261463b8185613cba565b905061464a6040830184613d85565b949350505050565b6000606082019050818103600083015261466c8186613d18565b905081810360208301526146808185613bfe565b905081810360408301526146948184613cba565b9050949350505050565b60006020820190506146b36000830184613d85565b92915050565b600060a0820190506146ce6000830188613d85565b6146db602083018761443a565b81810360408301526146ed8186613c5c565b905081810360608301526147018185613d18565b905081810360808301526147158184613cba565b90509695505050505050565b60006020820190506147366000830184613dc5565b92915050565b60006060820190506147516000830186613de3565b61475e6020830185613bef565b61476b604083018461443a565b949350505050565b6000602082019050818103600083015261478d8184613df2565b905092915050565b600060208201905081810360008301526147ae81613e2b565b9050919050565b600060208201905081810360008301526147ce81613e91565b9050919050565b600060208201905081810360008301526147ee81613ef7565b9050919050565b6000602082019050818103600083015261480e81613f37565b9050919050565b6000602082019050818103600083015261482e81613f77565b9050919050565b6000602082019050818103600083015261484e81613fb7565b9050919050565b6000602082019050818103600083015261486e81613ff7565b9050919050565b6000602082019050818103600083015261488e81614037565b9050919050565b600060208201905081810360008301526148ae8161409d565b9050919050565b600060208201905081810360008301526148ce81614103565b9050919050565b600060208201905081810360008301526148ee81614169565b9050919050565b6000602082019050818103600083015261490e816141cf565b9050919050565b6000602082019050818103600083015261492e8161420f565b9050919050565b6000602082019050818103600083015261494e81614275565b9050919050565b6000602082019050818103600083015261496e816142b5565b9050919050565b6000602082019050818103600083015261498e816142f5565b9050919050565b60006020820190506149aa600083018461443a565b92915050565b60006040820190506149c5600083018561443a565b81810360208301526149d78184613c5c565b90509392505050565b60006060820190506149f5600083018661443a565b8181036020830152614a078185613c5c565b90508181036040830152614a1b8184613cba565b9050949350505050565b600061010082019050614a3b600083018661443a565b614a4860208301856143b0565b614a5560e083018461443a565b949350505050565b6000602082019050614a726000830184614458565b92915050565b6000604051905081810181811067ffffffffffffffff82111715614a9b57600080fd5b8060405250919050565b600067ffffffffffffffff821115614abc57600080fd5b602082029050602081019050919050565b600067ffffffffffffffff821115614ae457600080fd5b602082029050602081019050919050565b600067ffffffffffffffff821115614b0c57600080fd5b602082029050602081019050919050565b600067ffffffffffffffff821115614b3457600080fd5b602082029050602081019050919050565b600067ffffffffffffffff821115614b5c57600080fd5b601f19601f8301169050602081019050919050565b6000819050602082019050919050565b6000819050602082019050919050565b6000819050602082019050919050565b6000819050602082019050919050565b600081519050919050565b600081519050919050565b600081519050919050565b600081519050919050565b600081519050919050565b600081519050919050565b6000602082019050919050565b6000602082019050919050565b6000602082019050919050565b6000602082019050919050565b600082825260208201905092915050565b600082825260208201905092915050565b600082825260208201905092915050565b600082825260208201905092915050565b600081905092915050565b600082825260208201905092915050565b6000614c9282614cb8565b9050919050565b60008115159050919050565b6000819050614cb382614d7b565b919050565b600073ffffffffffffffffffffffffffffffffffffffff82169050919050565b6000819050919050565b600060ff82169050919050565b6000614cfa82614d01565b9050919050565b6000614d0c82614cb8565b9050919050565b6000614d1e82614ca5565b9050919050565b6000614d3082614ce2565b9050919050565b60005b83811015614d55578082015181840152602081019050614d3a565b83811115614d64576000848401525b50505050565b6000601f19601f8301169050919050565b60088110614d8557fe5b50565b614d9181614c87565b8114614d9c57600080fd5b50565b614da881614c99565b8114614db357600080fd5b50565b60088110614dc357600080fd5b50565b614dcf81614cd8565b8114614dda57600080fd5b50565b614de681614ce2565b8114614df157600080fd5b5056fe45524332303a206275726e20616d6f756e7420657863656564732062616c616e636545524332303a207472616e7366657220616d6f756e7420657863656564732062616c616e636545524332303a207472616e7366657220616d6f756e74206578636565647320616c6c6f77616e636545524332303a2064656372656173656420616c6c6f77616e63652062656c6f77207a65726fa26469706673582212206bc07794a6a407e2d8d5cfebba58d9eda5bbbdb2f8d46bff93c3f76368d0736d64736f6c634300060c0033",
  "immutableReferences": {},
  "source": "// SPDX-License-Identifier: SimPL-2.0\npragma solidity 0.6.12;\npragma experimental ABIEncoderV2;\n\n// External\nimport { IBasketManager } from \"./IBasketManager.sol\";\nimport { IPlatformIntegration } from \"./interfaces/IPlatformIntegration.sol\";\nimport { IForgeValidator } from \"./forge-validator/IForgeValidator.sol\";\n\n// Internal\nimport { ICustomToken } from \"./ICustomToken.sol\";\n\nimport \"@openzeppelin/contracts/token/ERC20/ERC20.sol\";\n\nimport { BasketManager } from \"./BasketManager.sol\";\nimport { StableMath } from \"./shared/StableMath.sol\";\nimport { MassetHelpers } from \"./shared/MassetHelpers.sol\";\n\ncontract CustomToken is ICustomToken, ERC20 {\n\n    using StableMath for uint256;\n\n    // , \n    IBasketManager private basketManager;\n    IForgeValidator public forgeValidator;\n\n    // \n    event Minted(address indexed minter, address recipient, uint256 mAssetQuantity, address bAsset, uint256 bAssetQuantity);\n    event MintedMulti(address indexed minter, address recipient, uint256 mAssetQuantity, address[] bAssets, uint256[] bAssetQuantities);\n    // \n    event Redeemed(address indexed redeemer, address recipient, uint256 mAssetQuantity, address[] bAssets, uint256[] bAssetQuantities);\n    event RedeemedMasset(address indexed redeemer, address recipient, uint256 mAssetQuantity);\n    // \n    event PaidFee(address indexed payer, address asset, uint256 feeQuantity);\n\n    // \n    constructor(string memory name, string memory symbol) public ERC20(name, symbol) {}\n\n    // \n    function initialize(\n        address _basketManager,\n        address _forgeValidator\n    )\n        external\n    {\n        basketManager = IBasketManager(_basketManager);\n        forgeValidator = IForgeValidator(_forgeValidator);\n    }\n\n    function mintMulti(address[] calldata _preToken, uint256[] calldata _bassetAmount) override external returns (uint256 massetMinted) {\n        return 1;\n    }\n\n    /**\n     * 1:1 XSDT\n     * \n     * _bAsset         \n     * _bAssetQuantity \n     * massetMinted    XSDT\n     */\n    function mint(address _bAsset, uint256 _bAssetAmount) external returns (uint256 massetMinted){\n        return _mintTo(_bAsset, _bAssetAmount, msg.sender);\n    }\n\n    // XSDT\n    function _mintTo(address _bAsset, uint256 _bAssetAmount, address _recipient) internal returns (uint256 massetMinted){\n        // \n        require(_recipient != address(0), \"Must be a valid recipient\");\n        // 0\n        require(_bAssetAmount > 0, \"Quantity must not be 0\");\n\n        (bool isValid, BassetDetails memory bInfo) = basketManager.prepareForgeBasset(_bAsset, _bAssetAmount, true);\n        if(!isValid) return 0;\n\n        // Transfer collateral to the platform integration address and call deposit\n        address integrator = bInfo.integrator;\n        (uint256 quantityDeposited, uint256 ratioedDeposit) =\n            _depositTokens(_bAsset, bInfo.bAsset.ratio, integrator, bInfo.bAsset.isTransferFeeCharged, _bAssetAmount);\n\n        // Validation should be after token transfer, as bAssetQty is unknown before\n        (bool mintValid, string memory reason) = forgeValidator.validateMint(totalSupply(), bInfo.bAsset, quantityDeposited);\n        require(mintValid, reason);\n\n        // ,  basket \n        basketManager.increaseVaultBalance(0, integrator, quantityDeposited);\n\n        // XSDT\n        _mint(_recipient, ratioedDeposit);\n        emit Minted(msg.sender, _recipient, ratioedDeposit, _bAsset, quantityDeposited);\n\n        return ratioedDeposit;\n    }\n\n    /**\n     * Mint with multiple bAssets, at a 1:1 ratio to mAsset. This contract\n     *      must have approval to spend the senders bAssets\n     * _bAssets          Non-duplicate address array of bAssets with which to mint\n     * _bAssetQuantity   Quantity of each bAsset to mint. Order of array\n     *                          should mirror the above\n     * _recipient        Address to receive the newly minted mAsset tokens\n     * massetMinted     Number of newly minted mAssets\n     */\n    function mintMulti(\n        address[] calldata _bAssets,\n        uint256[] calldata _bAssetQuantity,\n        address _recipient\n    )   \n        external\n        returns(uint256 massetMinted)\n    {\n        return _mintTo(_bAssets, _bAssetQuantity, _recipient);\n    }\n\n    // \n    function _mintTo(\n        address[] memory _bAssets,\n        uint256[] memory _bAssetQuantities,\n        address _recipient\n    )\n        internal\n        returns (uint256 massetMinted)\n    {\n        require(_recipient != address(0), \"Must be a valid recipient\");\n        uint256 len = _bAssetQuantities.length;\n        require(len > 0 && len == _bAssets.length, \"Input array mismatch\");\n\n        // Load only needed bAssets in array\n        ForgePropsMulti memory props\n            = basketManager.prepareForgeBassets(_bAssets, _bAssetQuantities, true);\n        if(!props.isValid) return 0;\n\n        uint256 mAssetQuantity = 2;\n        uint256[] memory receivedQty = new uint256[](len);\n\n        // Transfer the Bassets to the integrator, update storage and calc MassetQ\n        for(uint256 i = 0; i < len; i++){\n            uint256 bAssetQuantity = _bAssetQuantities[i];\n            if(bAssetQuantity > 0){\n                // bAsset == bAssets[i] == basket.bassets[indexes[i]]\n                Basset memory bAsset = props.bAssets[i];\n\n                (uint256 quantityDeposited, uint256 ratioedDeposit) =\n                    _depositTokens(bAsset.addr, bAsset.ratio, props.integrators[i], bAsset.isTransferFeeCharged, bAssetQuantity);\n\n                receivedQty[i] = quantityDeposited;\n                mAssetQuantity = mAssetQuantity.add(ratioedDeposit);\n            }\n        }\n        require(mAssetQuantity > 0, \"No masset quantity to mint\");\n\n        basketManager.increaseVaultBalances(props.indexes, props.integrators, receivedQty);\n\n        // Validate the proposed mint, after token transfer\n        (bool mintValid, string memory reason) = \n                    forgeValidator.validateMintMulti(totalSupply(), props.bAssets, receivedQty);\n        require(mintValid, reason);\n\n        // Mint the Masset\n        _mint(_recipient, mAssetQuantity);\n        emit MintedMulti(msg.sender, _recipient, mAssetQuantity, _bAssets, _bAssetQuantities);\n\n        return mAssetQuantity;\n    }\n\n    // Deposits tokens into the platform integration and returns the ratioed amount\n    function _depositTokens(\n        address _bAsset,\n        uint256 _bAssetRatio,\n        address _integrator,\n        bool _erc20TransferFeeCharged,\n        uint256 _quantity\n    )\n        internal\n        returns (uint256 quantityDeposited, uint256 ratioedDeposit)\n    {\n        quantityDeposited = _depositTokens(_bAsset, _integrator, _erc20TransferFeeCharged, _quantity);\n        ratioedDeposit = quantityDeposited.mulRatioTruncate(_bAssetRatio);\n    }\n\n    // Deposits tokens into the platform integration and returns the deposited amount\n    function _depositTokens(\n        address _bAsset,\n        address _integrator,\n        bool _erc20TransferFeeCharged,\n        uint256 _quantity\n    )\n        internal\n        returns (uint256 quantityDeposited)\n    {\n        uint256 quantityTransferred = MassetHelpers.transferTokens(msg.sender, _integrator, _bAsset, _erc20TransferFeeCharged, _quantity);\n        uint256 deposited = IPlatformIntegration(_integrator).deposit(_bAsset, quantityTransferred, _erc20TransferFeeCharged);\n        quantityDeposited = StableMath.min(deposited, _quantity);\n    }\n\n    /**\n     * Credits the sender with a certain quantity of selected bAsset, in exchange for burning the\n     *      relative mAsset quantity from the sender. Sender also incurs a small mAsset fee, if any.\n     * _bAsset           Address of the bAsset to redeem\n     * _bAssetQuantity   Units of the bAsset to redeem\n     * massetMinted     Relative number of mAsset units burned to pay for the bAssets\n     */\n    function redeem(\n        address _bAsset,\n        uint256 _bAssetQuantity\n    )\n        override\n        external\n        returns (uint256 massetRedeemed)\n    {\n        return _redeemTo(_bAsset, _bAssetQuantity, msg.sender);\n    }\n\n    function redeemMulti(\n        address[] calldata _bAssets,\n        uint256[] calldata _bAssetQuantities,\n        address _recipient\n    )\n        external\n        returns (uint256 massetRedeemed)\n    {\n        return _redeemTo(_bAssets, _bAssetQuantities, _recipient);\n    }\n\n    /**\n     * Credits a recipient with a proportionate amount of bAssets, relative to current vault\n     * balance levels and desired mAsset quantity. Burns the mAsset as payment.\n     * _mAssetQuantity   Quantity of mAsset to redeem\n     * _recipient        Address to credit the withdrawn bAssets\n     */\n    function redeemMasset(\n        uint256 _mAssetQuantity,\n        address _recipient\n    )\n        external\n    {\n        _redeemMasset(_mAssetQuantity, _recipient);\n    }\n\n    /** @dev Casting to arrays for use in redeemMulti func */\n    function _redeemTo(\n        address _bAsset,\n        uint256 _bAssetQuantity,\n        address _recipient\n    )\n        internal\n        returns (uint256 massetRedeemed)\n    {\n        address[] memory bAssets = new address[](1);\n        uint256[] memory quantities = new uint256[](1);\n        bAssets[0] = _bAsset;\n        quantities[0] = _bAssetQuantity;\n        return _redeemTo(bAssets, quantities, _recipient);\n    }\n\n    // Redeem mAsset for one or more bAssets\n    function _redeemTo(\n        address[] memory _bAssets,\n        uint256[] memory _bAssetQuantities,\n        address _recipient\n    )\n        internal\n        returns (uint256 massetRedeemed)\n    {\n        require(_recipient != address(0), \"Must be a valid recipient\");\n        uint256 bAssetCount = _bAssetQuantities.length;\n        require(bAssetCount > 0 && bAssetCount == _bAssets.length, \"Input array mismatch\");\n\n        // basket\n        Basket memory basket = basketManager.getBasket();\n\n        // \n        ForgePropsMulti memory props = basketManager.prepareForgeBassets(_bAssets, _bAssetQuantities, false);\n        if(!props.isValid) return 0;\n\n        // Validate redemption\n        (bool redemptionValid, string memory reason, bool applyFee) =\n            forgeValidator.validateRedemption(basket.failed, totalSupply(), basket.bassets, props.indexes, _bAssetQuantities);\n        require(redemptionValid, reason);\n\n        // Calc total redeemed mAsset quantity\n        // XSDT\n        for(uint256 i = 0; i < bAssetCount; i++){\n            uint256 bAssetQuantity = _bAssetQuantities[i];\n            if(bAssetQuantity > 0){\n                // Calc equivalent mAsset amount\n                uint256 ratioedBasset = bAssetQuantity.mulRatioTruncateCeil(props.bAssets[i].ratio);\n                bAssetCount = bAssetCount.add(ratioedBasset);\n            }\n        }\n        require(bAssetCount > 0, \"Must redeem some bAssets\");\n\n        // Redemption has fee? Fetch the rate\n        // uint256 fee = applyFee ? swapFee : 0;\n        // \n        uint256 fee = 0;\n\n        // Apply fees, burn mAsset and return bAsset to recipient\n        _settleRedemption(_recipient, bAssetCount, props.bAssets, _bAssetQuantities, props.indexes, props.integrators, fee);\n\n        emit Redeemed(msg.sender, _recipient, bAssetCount, _bAssets, _bAssetQuantities);\n        return bAssetCount;\n    }\n\n    // XSDT\n    function _redeemMasset(\n        uint256 _mAssetQuantity,\n        address _recipient\n    )\n        internal\n    {\n        require(_recipient != address(0), \"Must be a valid recipient\");\n        require(_mAssetQuantity > 0, \"Invalid redemption quantity\");\n\n        // Fetch high level details\n        RedeemPropsMulti memory props = basketManager.prepareRedeemMulti();\n        uint256 colRatio = StableMath.min(props.colRatio, StableMath.getFullScale());\n\n        // Ensure payout is related to the collateralised mAsset quantity\n        uint256 collateralisedMassetQuantity = _mAssetQuantity.mulTruncate(colRatio);\n\n        // Calculate redemption quantities\n        (bool redemptionValid, string memory reason, uint256[] memory bAssetQuantities) =\n            forgeValidator.calculateRedemptionMulti(collateralisedMassetQuantity, props.bAssets);\n        require(redemptionValid, reason);\n\n        // 0\n        uint256 redemptionFee = 0;\n\n        // Apply fees, burn mAsset and return bAsset to recipient\n        _settleRedemption(_recipient, _mAssetQuantity, props.bAssets, bAssetQuantities, props.indexes, props.integrators, redemptionFee);\n\n        emit RedeemedMasset(msg.sender, _recipient, _mAssetQuantity);\n    }\n\n    /**\n     * Internal func to update contract state post-redemption\n     * @param _recipient        Recipient of the bAssets\n     * @param _mAssetQuantity   Total amount of mAsset to burn from sender\n     * @param _bAssets          Array of bAssets to redeem\n     * @param _bAssetQuantities Array of bAsset quantities\n     * @param _indices          Matching indices for the bAsset array\n     * @param _integrators      Matching integrators for the bAsset array\n     * @param _feeRate          Fee rate to be applied to this redemption\n     */\n    function _settleRedemption(\n        address _recipient,\n        uint256 _mAssetQuantity,\n        Basset[] memory _bAssets,\n        uint256[] memory _bAssetQuantities,\n        uint8[] memory _indices,\n        address[] memory _integrators,\n        uint256 _feeRate\n    ) \n        internal \n    {\n        // Burn the full amount of Masset\n        _burn(msg.sender, _mAssetQuantity);\n\n        // Reduce the amount of bAssets marked in the vault\n        basketManager.decreaseVaultBalances(_indices, _integrators, _bAssetQuantities);\n\n        // Transfer the Bassets to the recipient\n        uint256 bAssetCount = _bAssets.length;\n        for(uint256 i = 0; i < bAssetCount; i++){\n            address bAsset = _bAssets[i].addr;\n            uint256 q = _bAssetQuantities[i];\n            if(q > 0){\n                // Deduct the redemption fee, if any\n                q = _deductSwapFee(bAsset, q, _feeRate);\n                // Transfer the Bassets to the user\n                IPlatformIntegration(_integrators[i]).withdraw(_recipient, bAsset, q, _bAssets[i].isTransferFeeCharged);\n            }\n        }\n    }\n\n    /**\n     * Pay the forging fee by burning relative amount of mAsset\n     * @param _bAssetQuantity     Exact amount of bAsset being swapped out\n     */\n    function _deductSwapFee(address _asset, uint256 _bAssetQuantity, uint256 _feeRate)\n        private\n        returns (uint256 outputMinusFee)\n    {\n        outputMinusFee = _bAssetQuantity;\n        if(_feeRate > 0){\n            (uint256 fee, uint256 output) = _calcSwapFee(_bAssetQuantity, _feeRate);\n            outputMinusFee = output;\n            emit PaidFee(msg.sender, _asset, fee);\n        }\n    }\n\n    /**\n     * Pay the forging fee by burning relative amount of mAsset\n     * @param _bAssetQuantity     Exact amount of bAsset being swapped out\n     */\n    function _calcSwapFee(uint256 _bAssetQuantity, uint256 _feeRate)\n        private\n        pure\n        returns (uint256 feeAmount, uint256 outputMinusFee)\n    {\n        // e.g. for 500 massets.\n        // feeRate == 1% == 1e16. _quantity == 5e20.\n        // (5e20 * 1e16) / 1e18 = 5e18\n        feeAmount = _bAssetQuantity.mulTruncate(_feeRate);\n        outputMinusFee = _bAssetQuantity.sub(feeAmount);\n    }\n\n}",
  "sourcePath": "/Users/zhangxuesong/mysoft/defi/XStableDollar-contracts/stabledollar/contracts/CustomToken.sol",
  "compiler": {
    "name": "solc",
    "version": "0.6.12+commit.27d51765.Emscripten.clang"
  },
  "schemaVersion": "3.3.2",
  "updatedAt": "2020-11-14T06:30:33.498Z",
  "devdoc": {
    "kind": "dev",
    "methods": {
      "allowance(address,address)": {
        "details": "See {IERC20-allowance}."
      },
      "approve(address,uint256)": {
        "details": "See {IERC20-approve}. Requirements: - `spender` cannot be the zero address."
      },
      "balanceOf(address)": {
        "details": "See {IERC20-balanceOf}."
      },
      "decimals()": {
        "details": "Returns the number of decimals used to get its user representation. For example, if `decimals` equals `2`, a balance of `505` tokens should be displayed to a user as `5,05` (`505 / 10 ** 2`). Tokens usually opt for a value of 18, imitating the relationship between Ether and Wei. This is the value {ERC20} uses, unless {_setupDecimals} is called. NOTE: This information is only used for _display_ purposes: it in no way affects any of the arithmetic of the contract, including {IERC20-balanceOf} and {IERC20-transfer}."
      },
      "decreaseAllowance(address,uint256)": {
        "details": "Atomically decreases the allowance granted to `spender` by the caller. This is an alternative to {approve} that can be used as a mitigation for problems described in {IERC20-approve}. Emits an {Approval} event indicating the updated allowance. Requirements: - `spender` cannot be the zero address. - `spender` must have allowance for the caller of at least `subtractedValue`."
      },
      "increaseAllowance(address,uint256)": {
        "details": "Atomically increases the allowance granted to `spender` by the caller. This is an alternative to {approve} that can be used as a mitigation for problems described in {IERC20-approve}. Emits an {Approval} event indicating the updated allowance. Requirements: - `spender` cannot be the zero address."
      },
      "name()": {
        "details": "Returns the name of the token."
      },
      "symbol()": {
        "details": "Returns the symbol of the token, usually a shorter version of the name."
      },
      "totalSupply()": {
        "details": "See {IERC20-totalSupply}."
      },
      "transfer(address,uint256)": {
        "details": "See {IERC20-transfer}. Requirements: - `recipient` cannot be the zero address. - the caller must have a balance of at least `amount`."
      },
      "transferFrom(address,address,uint256)": {
        "details": "See {IERC20-transferFrom}. Emits an {Approval} event indicating the updated allowance. This is not required by the EIP. See the note at the beginning of {ERC20}; Requirements: - `sender` and `recipient` cannot be the zero address. - `sender` must have a balance of at least `amount`. - the caller must have allowance for ``sender``'s tokens of at least `amount`."
      }
    },
    "version": 1
  },
  "userdoc": {
    "kind": "user",
    "methods": {
      "mint(address,uint256)": {
        "notice": "1:1 XSDT  _bAsset          _bAssetQuantity  massetMinted    XSDT"
      },
      "mintMulti(address[],uint256[],address)": {
        "notice": "Mint with multiple bAssets, at a 1:1 ratio to mAsset. This contract      must have approval to spend the senders bAssets _bAssets          Non-duplicate address array of bAssets with which to mint _bAssetQuantity   Quantity of each bAsset to mint. Order of array                          should mirror the above _recipient        Address to receive the newly minted mAsset tokens massetMinted     Number of newly minted mAssets"
      },
      "redeem(address,uint256)": {
        "notice": "Credits the sender with a certain quantity of selected bAsset, in exchange for burning the      relative mAsset quantity from the sender. Sender also incurs a small mAsset fee, if any. _bAsset           Address of the bAsset to redeem _bAssetQuantity   Units of the bAsset to redeem massetMinted     Relative number of mAsset units burned to pay for the bAssets"
      },
      "redeemMasset(uint256,address)": {
        "notice": "Credits a recipient with a proportionate amount of bAssets, relative to current vault balance levels and desired mAsset quantity. Burns the mAsset as payment. _mAssetQuantity   Quantity of mAsset to redeem _recipient        Address to credit the withdrawn bAssets"
      }
    },
    "version": 1
  }
}