{
  "contractName": "DataManager",
  "abi": [
    {
      "anonymous": false,
      "inputs": [],
      "name": "BasketStatusChanged",
      "type": "event"
    },
    {
      "anonymous": false,
      "inputs": [
        {
          "indexed": false,
          "internalType": "address[]",
          "name": "bAssets",
          "type": "address[]"
        },
        {
          "indexed": false,
          "internalType": "uint256[]",
          "name": "maxWeights",
          "type": "uint256[]"
        }
      ],
      "name": "BasketWeightsUpdated",
      "type": "event"
    },
    {
      "anonymous": false,
      "inputs": [
        {
          "indexed": true,
          "internalType": "address",
          "name": "bAsset",
          "type": "address"
        },
        {
          "indexed": false,
          "internalType": "address",
          "name": "integrator",
          "type": "address"
        }
      ],
      "name": "BassetAdded",
      "type": "event"
    },
    {
      "anonymous": false,
      "inputs": [
        {
          "indexed": true,
          "internalType": "address",
          "name": "bAsset",
          "type": "address"
        }
      ],
      "name": "BassetRemoved",
      "type": "event"
    },
    {
      "anonymous": false,
      "inputs": [
        {
          "indexed": true,
          "internalType": "address",
          "name": "bAsset",
          "type": "address"
        },
        {
          "indexed": false,
          "internalType": "enum TokenStructs.BassetStatus",
          "name": "status",
          "type": "uint8"
        }
      ],
      "name": "BassetStatusChanged",
      "type": "event"
    },
    {
      "anonymous": false,
      "inputs": [
        {
          "indexed": true,
          "internalType": "address",
          "name": "bAsset",
          "type": "address"
        },
        {
          "indexed": false,
          "internalType": "bool",
          "name": "enabled",
          "type": "bool"
        }
      ],
      "name": "TransferFeeEnabled",
      "type": "event"
    },
    {
      "inputs": [],
      "name": "basket",
      "outputs": [
        {
          "internalType": "uint8",
          "name": "maxBassets",
          "type": "uint8"
        },
        {
          "internalType": "bool",
          "name": "undergoingRecol",
          "type": "bool"
        },
        {
          "internalType": "bool",
          "name": "failed",
          "type": "bool"
        },
        {
          "internalType": "uint256",
          "name": "collateralisationRatio",
          "type": "uint256"
        }
      ],
      "stateMutability": "view",
      "type": "function"
    },
    {
      "inputs": [
        {
          "internalType": "uint256",
          "name": "",
          "type": "uint256"
        }
      ],
      "name": "integrations",
      "outputs": [
        {
          "internalType": "address",
          "name": "",
          "type": "address"
        }
      ],
      "stateMutability": "view",
      "type": "function"
    },
    {
      "inputs": [],
      "name": "mAsset",
      "outputs": [
        {
          "internalType": "address",
          "name": "",
          "type": "address"
        }
      ],
      "stateMutability": "view",
      "type": "function"
    },
    {
      "inputs": [
        {
          "internalType": "address",
          "name": "_mAsset",
          "type": "address"
        },
        {
          "internalType": "address[]",
          "name": "_bAssets",
          "type": "address[]"
        },
        {
          "internalType": "address[]",
          "name": "_integrators",
          "type": "address[]"
        },
        {
          "internalType": "uint256[]",
          "name": "_weights",
          "type": "uint256[]"
        },
        {
          "internalType": "bool[]",
          "name": "_hasTransferFees",
          "type": "bool[]"
        }
      ],
      "name": "initialize",
      "outputs": [],
      "stateMutability": "nonpayable",
      "type": "function"
    },
    {
      "inputs": [
        {
          "internalType": "uint8",
          "name": "_bAssetIndex",
          "type": "uint8"
        },
        {
          "internalType": "address",
          "name": "",
          "type": "address"
        },
        {
          "internalType": "uint256",
          "name": "_increaseAmount",
          "type": "uint256"
        }
      ],
      "name": "increaseVaultBalance",
      "outputs": [],
      "stateMutability": "nonpayable",
      "type": "function"
    },
    {
      "inputs": [
        {
          "internalType": "uint8[]",
          "name": "_bAssetIndices",
          "type": "uint8[]"
        },
        {
          "internalType": "address[]",
          "name": "",
          "type": "address[]"
        },
        {
          "internalType": "uint256[]",
          "name": "_increaseAmount",
          "type": "uint256[]"
        }
      ],
      "name": "increaseVaultBalances",
      "outputs": [],
      "stateMutability": "nonpayable",
      "type": "function"
    },
    {
      "inputs": [
        {
          "internalType": "uint8",
          "name": "_bAssetIndex",
          "type": "uint8"
        },
        {
          "internalType": "address",
          "name": "",
          "type": "address"
        },
        {
          "internalType": "uint256",
          "name": "_decreaseAmount",
          "type": "uint256"
        }
      ],
      "name": "decreaseVaultBalance",
      "outputs": [],
      "stateMutability": "nonpayable",
      "type": "function"
    },
    {
      "inputs": [
        {
          "internalType": "uint8[]",
          "name": "_bAssetIndices",
          "type": "uint8[]"
        },
        {
          "internalType": "address[]",
          "name": "",
          "type": "address[]"
        },
        {
          "internalType": "uint256[]",
          "name": "_decreaseAmount",
          "type": "uint256[]"
        }
      ],
      "name": "decreaseVaultBalances",
      "outputs": [],
      "stateMutability": "nonpayable",
      "type": "function"
    },
    {
      "inputs": [],
      "name": "collectInterest",
      "outputs": [
        {
          "internalType": "uint256",
          "name": "interestCollected",
          "type": "uint256"
        },
        {
          "internalType": "uint256[]",
          "name": "gains",
          "type": "uint256[]"
        }
      ],
      "stateMutability": "nonpayable",
      "type": "function"
    },
    {
      "inputs": [
        {
          "internalType": "address",
          "name": "_bAsset",
          "type": "address"
        },
        {
          "internalType": "address",
          "name": "_integration",
          "type": "address"
        },
        {
          "internalType": "bool",
          "name": "_isTransferFeeCharged",
          "type": "bool"
        }
      ],
      "name": "addBasset",
      "outputs": [
        {
          "internalType": "uint8",
          "name": "index",
          "type": "uint8"
        }
      ],
      "stateMutability": "nonpayable",
      "type": "function"
    },
    {
      "inputs": [
        {
          "internalType": "address[]",
          "name": "_bAssets",
          "type": "address[]"
        },
        {
          "internalType": "uint256[]",
          "name": "_weights",
          "type": "uint256[]"
        }
      ],
      "name": "setBasketWeights",
      "outputs": [],
      "stateMutability": "nonpayable",
      "type": "function"
    },
    {
      "inputs": [
        {
          "internalType": "address",
          "name": "_bAsset",
          "type": "address"
        },
        {
          "internalType": "bool",
          "name": "_flag",
          "type": "bool"
        }
      ],
      "name": "setTransferFeesFlag",
      "outputs": [],
      "stateMutability": "nonpayable",
      "type": "function"
    },
    {
      "inputs": [
        {
          "internalType": "address",
          "name": "_assetToRemove",
          "type": "address"
        }
      ],
      "name": "removeBasset",
      "outputs": [],
      "stateMutability": "nonpayable",
      "type": "function"
    },
    {
      "inputs": [],
      "name": "getBasket",
      "outputs": [
        {
          "components": [
            {
              "components": [
                {
                  "internalType": "address",
                  "name": "addr",
                  "type": "address"
                },
                {
                  "internalType": "enum TokenStructs.BassetStatus",
                  "name": "status",
                  "type": "uint8"
                },
                {
                  "internalType": "bool",
                  "name": "isTransferFeeCharged",
                  "type": "bool"
                },
                {
                  "internalType": "uint256",
                  "name": "ratio",
                  "type": "uint256"
                },
                {
                  "internalType": "uint256",
                  "name": "maxWeight",
                  "type": "uint256"
                },
                {
                  "internalType": "uint256",
                  "name": "vaultBalance",
                  "type": "uint256"
                }
              ],
              "internalType": "struct TokenStructs.Basset[]",
              "name": "bassets",
              "type": "tuple[]"
            },
            {
              "internalType": "uint8",
              "name": "maxBassets",
              "type": "uint8"
            },
            {
              "internalType": "bool",
              "name": "undergoingRecol",
              "type": "bool"
            },
            {
              "internalType": "bool",
              "name": "failed",
              "type": "bool"
            },
            {
              "internalType": "uint256",
              "name": "collateralisationRatio",
              "type": "uint256"
            }
          ],
          "internalType": "struct TokenStructs.Basket",
          "name": "b",
          "type": "tuple"
        }
      ],
      "stateMutability": "view",
      "type": "function"
    },
    {
      "inputs": [
        {
          "internalType": "address",
          "name": "_bAsset",
          "type": "address"
        },
        {
          "internalType": "uint256",
          "name": "",
          "type": "uint256"
        },
        {
          "internalType": "bool",
          "name": "",
          "type": "bool"
        }
      ],
      "name": "prepareForgeBasset",
      "outputs": [
        {
          "internalType": "bool",
          "name": "isValid",
          "type": "bool"
        },
        {
          "components": [
            {
              "components": [
                {
                  "internalType": "address",
                  "name": "addr",
                  "type": "address"
                },
                {
                  "internalType": "enum TokenStructs.BassetStatus",
                  "name": "status",
                  "type": "uint8"
                },
                {
                  "internalType": "bool",
                  "name": "isTransferFeeCharged",
                  "type": "bool"
                },
                {
                  "internalType": "uint256",
                  "name": "ratio",
                  "type": "uint256"
                },
                {
                  "internalType": "uint256",
                  "name": "maxWeight",
                  "type": "uint256"
                },
                {
                  "internalType": "uint256",
                  "name": "vaultBalance",
                  "type": "uint256"
                }
              ],
              "internalType": "struct TokenStructs.Basset",
              "name": "bAsset",
              "type": "tuple"
            },
            {
              "internalType": "address",
              "name": "integrator",
              "type": "address"
            },
            {
              "internalType": "uint8",
              "name": "index",
              "type": "uint8"
            }
          ],
          "internalType": "struct TokenStructs.BassetDetails",
          "name": "bInfo",
          "type": "tuple"
        }
      ],
      "stateMutability": "nonpayable",
      "type": "function"
    },
    {
      "inputs": [
        {
          "internalType": "address[]",
          "name": "_bAssets",
          "type": "address[]"
        },
        {
          "internalType": "uint256[]",
          "name": "",
          "type": "uint256[]"
        },
        {
          "internalType": "bool",
          "name": "",
          "type": "bool"
        }
      ],
      "name": "prepareForgeBassets",
      "outputs": [
        {
          "components": [
            {
              "internalType": "bool",
              "name": "isValid",
              "type": "bool"
            },
            {
              "components": [
                {
                  "internalType": "address",
                  "name": "addr",
                  "type": "address"
                },
                {
                  "internalType": "enum TokenStructs.BassetStatus",
                  "name": "status",
                  "type": "uint8"
                },
                {
                  "internalType": "bool",
                  "name": "isTransferFeeCharged",
                  "type": "bool"
                },
                {
                  "internalType": "uint256",
                  "name": "ratio",
                  "type": "uint256"
                },
                {
                  "internalType": "uint256",
                  "name": "maxWeight",
                  "type": "uint256"
                },
                {
                  "internalType": "uint256",
                  "name": "vaultBalance",
                  "type": "uint256"
                }
              ],
              "internalType": "struct TokenStructs.Basset[]",
              "name": "bAssets",
              "type": "tuple[]"
            },
            {
              "internalType": "address[]",
              "name": "integrators",
              "type": "address[]"
            },
            {
              "internalType": "uint8[]",
              "name": "indexes",
              "type": "uint8[]"
            }
          ],
          "internalType": "struct TokenStructs.ForgePropsMulti",
          "name": "props",
          "type": "tuple"
        }
      ],
      "stateMutability": "nonpayable",
      "type": "function"
    },
    {
      "inputs": [],
      "name": "prepareRedeemMulti",
      "outputs": [
        {
          "components": [
            {
              "internalType": "uint256",
              "name": "colRatio",
              "type": "uint256"
            },
            {
              "components": [
                {
                  "internalType": "address",
                  "name": "addr",
                  "type": "address"
                },
                {
                  "internalType": "enum TokenStructs.BassetStatus",
                  "name": "status",
                  "type": "uint8"
                },
                {
                  "internalType": "bool",
                  "name": "isTransferFeeCharged",
                  "type": "bool"
                },
                {
                  "internalType": "uint256",
                  "name": "ratio",
                  "type": "uint256"
                },
                {
                  "internalType": "uint256",
                  "name": "maxWeight",
                  "type": "uint256"
                },
                {
                  "internalType": "uint256",
                  "name": "vaultBalance",
                  "type": "uint256"
                }
              ],
              "internalType": "struct TokenStructs.Basset[]",
              "name": "bAssets",
              "type": "tuple[]"
            },
            {
              "internalType": "address[]",
              "name": "integrators",
              "type": "address[]"
            },
            {
              "internalType": "uint8[]",
              "name": "indexes",
              "type": "uint8[]"
            }
          ],
          "internalType": "struct TokenStructs.RedeemPropsMulti",
          "name": "props",
          "type": "tuple"
        }
      ],
      "stateMutability": "view",
      "type": "function"
    },
    {
      "inputs": [],
      "name": "getBassets",
      "outputs": [
        {
          "components": [
            {
              "internalType": "address",
              "name": "addr",
              "type": "address"
            },
            {
              "internalType": "enum TokenStructs.BassetStatus",
              "name": "status",
              "type": "uint8"
            },
            {
              "internalType": "bool",
              "name": "isTransferFeeCharged",
              "type": "bool"
            },
            {
              "internalType": "uint256",
              "name": "ratio",
              "type": "uint256"
            },
            {
              "internalType": "uint256",
              "name": "maxWeight",
              "type": "uint256"
            },
            {
              "internalType": "uint256",
              "name": "vaultBalance",
              "type": "uint256"
            }
          ],
          "internalType": "struct TokenStructs.Basset[]",
          "name": "bAssets",
          "type": "tuple[]"
        },
        {
          "internalType": "uint256",
          "name": "len",
          "type": "uint256"
        }
      ],
      "stateMutability": "view",
      "type": "function"
    },
    {
      "inputs": [
        {
          "internalType": "address",
          "name": "_bAsset",
          "type": "address"
        }
      ],
      "name": "getBasset",
      "outputs": [
        {
          "components": [
            {
              "internalType": "address",
              "name": "addr",
              "type": "address"
            },
            {
              "internalType": "enum TokenStructs.BassetStatus",
              "name": "status",
              "type": "uint8"
            },
            {
              "internalType": "bool",
              "name": "isTransferFeeCharged",
              "type": "bool"
            },
            {
              "internalType": "uint256",
              "name": "ratio",
              "type": "uint256"
            },
            {
              "internalType": "uint256",
              "name": "maxWeight",
              "type": "uint256"
            },
            {
              "internalType": "uint256",
              "name": "vaultBalance",
              "type": "uint256"
            }
          ],
          "internalType": "struct TokenStructs.Basset",
          "name": "bAsset",
          "type": "tuple"
        }
      ],
      "stateMutability": "view",
      "type": "function"
    },
    {
      "inputs": [
        {
          "internalType": "address",
          "name": "_bAsset",
          "type": "address"
        }
      ],
      "name": "getBassetIntegrator",
      "outputs": [
        {
          "internalType": "address",
          "name": "integrator",
          "type": "address"
        }
      ],
      "stateMutability": "view",
      "type": "function"
    },
    {
      "inputs": [
        {
          "internalType": "address",
          "name": "_bAsset",
          "type": "address"
        }
      ],
      "name": "failBasset",
      "outputs": [],
      "stateMutability": "nonpayable",
      "type": "function"
    },
    {
      "inputs": [],
      "name": "paused",
      "outputs": [
        {
          "internalType": "bool",
          "name": "",
          "type": "bool"
        }
      ],
      "stateMutability": "view",
      "type": "function"
    }
  ],
  "bytecode": "0x608060405234801561001057600080fd5b506150b6806100206000396000f3fe608060405234801561001057600080fd5b50600436106101415760003560e01c8063790bde32116100b8578063bf9ca02d1161007c578063bf9ca02d14610362578063c4a80a2a14610393578063cd6ef2b0146103c3578063d5e1d279146103e1578063dc686c8c146103fd578063edc832b31461041957610141565b8063790bde32146102ae57806388a90f51146102de5780639d01cd35146102fa578063a59824c51461032a578063bdfbe29c1461034657610141565b80632a2fab221161010a5780632a2fab22146101eb5780633e37bcbc1461020a57806343ae78be1461023a578063482a2fa3146102585780635c975abb146102745780635d16cf421461029257610141565b80629e328b1461014657806309f2a983146101765780630b2d850114610192578063178d341f146101ae5780631d3ce398146101cc575b600080fd5b610160600480360381019061015b9190613797565b61043a565b60405161016d9190614dd7565b60405180910390f35b610190600480360381019061018b919061376e565b6104fc565b005b6101ac60048036038101906101a79190613959565b6105ac565b005b6101b6610692565b6040516101c3919061491d565b60405180910390f35b6101d46106b6565b6040516101e292919061496f565b60405180910390f35b6101f36106ca565b604051610201929190614da7565b60405180910390f35b610224600480360381019061021f919061376e565b61093f565b6040516102319190614d48565b60405180910390f35b6102426109a9565b60405161024f9190614d85565b60405180910390f35b610272600480360381019061026d91906137e6565b610b9c565b005b61027c610deb565b604051610289919061499f565b60405180910390f35b6102ac60048036038101906102a79190613b9f565b610df0565b005b6102c860048036038101906102c39190613b24565b610ee2565b6040516102d5919061491d565b60405180910390f35b6102f860048036038101906102f39190613a57565b610f1e565b005b610314600480360381019061030f91906139ce565b611087565b6040516103219190614d63565b60405180910390f35b610344600480360381019061033f919061376e565b611168565b005b610360600480360381019061035b91906138ce565b61128b565b005b61037c6004803603810190610377919061390a565b61136b565b60405161038a9291906149ba565b60405180910390f35b6103ad60048036038101906103a8919061376e565b61152a565b6040516103ba919061491d565b60405180910390f35b6103cb6115c0565b6040516103d89190614d26565b60405180910390f35b6103fb60048036038101906103f69190613a57565b611752565b005b61041760048036038101906104129190613b9f565b61190d565b005b610421611a51565b6040516104319493929190614df2565b60405180910390f35b60006001800160029054906101000a900460ff161561048e576040517f08c379a000000000000000000000000000000000000000000000000000000000815260040161048590614c26565b60405180910390fd5b6001800160019054906101000a900460ff16156104e0576040517f08c379a00000000000000000000000000000000000000000000000000000000081526004016104d790614aa6565b60405180910390fd5b6104f384846104ed611a96565b85611aa2565b90509392505050565b6001800160029054906101000a900460ff161561054e576040517f08c379a000000000000000000000000000000000000000000000000000000000815260040161054590614c26565b60405180910390fd5b6001800160019054906101000a900460ff16156105a0576040517f08c379a000000000000000000000000000000000000000000000000000000000815260040161059790614aa6565b60405180910390fd5b6105a981611f18565b50565b6001800160029054906101000a900460ff16156105fe576040517f08c379a00000000000000000000000000000000000000000000000000000000081526004016105f590614c26565b60405180910390fd5b61068c848480806020026020016040519081016040528093929190818152602001838360200280828437600081840152601f19601f82011690508083019250505050505050838380806020026020016040519081016040528093929190818152602001838360200280828437600081840152601f19601f82011690508083019250505050505050600061272b565b50505050565b60008054906101000a900473ffffffffffffffffffffffffffffffffffffffff1681565b606060006106c26129b2565b915091509091565b600060603373ffffffffffffffffffffffffffffffffffffffff1660008054906101000a900473ffffffffffffffffffffffffffffffffffffffff1673ffffffffffffffffffffffffffffffffffffffff161461075c576040517f08c379a000000000000000000000000000000000000000000000000000000000815260040161075390614d06565b60405180910390fd5b6001800160029054906101000a900460ff16156107ae576040517f08c379a00000000000000000000000000000000000000000000000000000000081526004016107a590614c26565b60405180910390fd5b606060006107ba6129b2565b915091508067ffffffffffffffff811180156107d557600080fd5b506040519080825280602002602001820160405280156108045781602001602082028036833780820191505090505b5092506000935060005b818160ff161015610938576108216134bc565b838260ff168151811061083057fe5b6020026020010151905060006064905060008260a001519050808211801561087257506001600781111561086057fe5b8360200151600781111561087057fe5b145b1561090a578160016000018560ff168154811061088b57fe5b90600052602060002090600402016003018190555060006108b58284612ade90919063ffffffff16565b905080888660ff16815181106108c757fe5b60200260200101818152505060006108ec856060015183612b2890919063ffffffff16565b9050610901818b612b4190919063ffffffff16565b99505050610928565b6000878560ff168151811061091b57fe5b6020026020010181815250505b505050808060010191505061080e565b5050509091565b6109476134bc565b60008061095384612b96565b9150915081610997576040517f08c379a000000000000000000000000000000000000000000000000000000000815260040161098e90614ba6565b60405180910390fd5b6109a081612c97565b92505050919050565b6109b1613515565b6001800160019054906101000a900460ff1615610a03576040517f08c379a00000000000000000000000000000000000000000000000000000000081526004016109fa90614aa6565b60405180910390fd5b60606000610a0f6129b2565b9150915060608167ffffffffffffffff81118015610a2c57600080fd5b50604051908082528060200260200182016040528015610a5b5781602001602082028036833780820191505090505b50905060608267ffffffffffffffff81118015610a7757600080fd5b50604051908082528060200260200182016040528015610aa65781602001602082028036833780820191505090505b50905060005b838160ff161015610b6c5760058160ff1681548110610ac757fe5b9060005260206000200160009054906101000a900473ffffffffffffffffffffffffffffffffffffffff16838260ff1681518110610b0157fe5b602002602001019073ffffffffffffffffffffffffffffffffffffffff16908173ffffffffffffffffffffffffffffffffffffffff168152505080828260ff1681518110610b4b57fe5b602002602001019060ff16908160ff16815250508080600101915050610aac565b50604051806080016040528060016002015481526020018581526020018381526020018281525094505050505090565b600073ffffffffffffffffffffffffffffffffffffffff168973ffffffffffffffffffffffffffffffffffffffff161415610c0c576040517f08c379a0000000000000000000000000000000000000000000000000000000008152600401610c0390614a06565b60405180910390fd5b60008888905011610c52576040517f08c379a0000000000000000000000000000000000000000000000000000000008152600401610c4990614c66565b60405180910390fd5b886000806101000a81548173ffffffffffffffffffffffffffffffffffffffff021916908373ffffffffffffffffffffffffffffffffffffffff160217905550600a6001800160006101000a81548160ff021916908360ff160217905550670de0b6b3a764000060016002018190555060005b88889050811015610d5157610d43898983818110610cdf57fe5b9050602002016020810190610cf4919061376e565b888884818110610d0057fe5b9050602002016020810190610d15919061376e565b610d1d611a96565b868686818110610d2957fe5b9050602002016020810190610d3e9190613afb565b611aa2565b508080600101915050610cc5565b50610de0888880806020026020016040519081016040528093929190818152602001838360200280828437600081840152601f19601f82011690508083019250505050505050858580806020026020016040519081016040528093929190818152602001838360200280828437600081840152601f19601f82011690508083019250505050505050600161272b565b505050505050505050565b600090565b3373ffffffffffffffffffffffffffffffffffffffff1660008054906101000a900473ffffffffffffffffffffffffffffffffffffffff1673ffffffffffffffffffffffffffffffffffffffff1614610e7e576040517f08c379a0000000000000000000000000000000000000000000000000000000008152600401610e7590614d06565b60405180910390fd5b610eb58160016000018560ff1681548110610e9557fe5b906000526020600020906004020160030154612ade90919063ffffffff16565b60016000018460ff1681548110610ec857fe5b906000526020600020906004020160030181905550505050565b60058181548110610eef57fe5b906000526020600020016000915054906101000a900473ffffffffffffffffffffffffffffffffffffffff1681565b3373ffffffffffffffffffffffffffffffffffffffff1660008054906101000a900473ffffffffffffffffffffffffffffffffffffffff1673ffffffffffffffffffffffffffffffffffffffff1614610fac576040517f08c379a0000000000000000000000000000000000000000000000000000000008152600401610fa390614d06565b60405180910390fd5b600086869050905060005b8181101561107d57611028848483818110610fce57fe5b9050602002013560016000018a8a85818110610fe657fe5b9050602002016020810190610ffb9190613b4d565b60ff168154811061100857fe5b906000526020600020906004020160030154612ade90919063ffffffff16565b600160000189898481811061103957fe5b905060200201602081019061104e9190613b4d565b60ff168154811061105b57fe5b9060005260206000209060040201600301819055508080600101915050610fb7565b5050505050505050565b61108f61353d565b6001800160019054906101000a900460ff16156110e1576040517f08c379a00000000000000000000000000000000000000000000000000000000081526004016110d890614aa6565b60405180910390fd5b6060806060611130898980806020026020016040519081016040528093929190818152602001838360200280828437600081840152601f19601f82011690508083019250505050505050612d8e565b925092509250604051806080016040528060011515815260200184815260200182815260200183815250935050505095945050505050565b60008061117483612b96565b60ff1691509150816111bb576040517f08c379a00000000000000000000000000000000000000000000000000000000081526004016111b290614ba6565b60405180910390fd5b6000600160000182815481106111cd57fe5b906000526020600020906004020160000160149054906101000a900460ff169050600260078111156111fb57fe5b81600781111561120757fe5b148061122957506003600781111561121b57fe5b81600781111561122757fe5b145b611268576040517f08c379a000000000000000000000000000000000000000000000000000000000815260040161125f90614b06565b60405180910390fd5b60018060010160026101000a81548160ff02191690831515021790555050505050565b60008061129784612b96565b91509150816112db576040517f08c379a00000000000000000000000000000000000000000000000000000000081526004016112d290614c86565b60405180910390fd5b8260016000018260ff16815481106112ef57fe5b906000526020600020906004020160000160156101000a81548160ff0219169083151502179055508373ffffffffffffffffffffffffffffffffffffffff167ff1d30c51cc85d5f31324e582df608abdbb328479127c2d9c7e70666cbc611c7c8460405161135d919061499f565b60405180910390a250505050565b6000611375613567565b60008061138187612b96565b91509150816113c5576040517f08c379a00000000000000000000000000000000000000000000000000000000081526004016113bc90614c86565b60405180910390fd5b60019350604051806060016040528060016000018360ff16815481106113e757fe5b90600052602060002090600402016040518060c00160405290816000820160009054906101000a900473ffffffffffffffffffffffffffffffffffffffff1673ffffffffffffffffffffffffffffffffffffffff1673ffffffffffffffffffffffffffffffffffffffff1681526020016000820160149054906101000a900460ff16600781111561147457fe5b600781111561147f57fe5b81526020016000820160159054906101000a900460ff161515151581526020016001820154815260200160028201548152602001600382015481525050815260200160058360ff16815481106114d157fe5b9060005260206000200160009054906101000a900473ffffffffffffffffffffffffffffffffffffffff1673ffffffffffffffffffffffffffffffffffffffff1681526020018260ff1681525092505050935093915050565b600080600061153884612b96565b915091508161157c576040517f08c379a000000000000000000000000000000000000000000000000000000000815260040161157390614ba6565b60405180910390fd5b60058160ff168154811061158c57fe5b9060005260206000200160009054906101000a900473ffffffffffffffffffffffffffffffffffffffff1692505050919050565b6115c86135a7565b60016040518060a001604052908160008201805480602002602001604051908101604052809291908181526020016000905b828210156116e857838290600052602060002090600402016040518060c00160405290816000820160009054906101000a900473ffffffffffffffffffffffffffffffffffffffff1673ffffffffffffffffffffffffffffffffffffffff1673ffffffffffffffffffffffffffffffffffffffff1681526020016000820160149054906101000a900460ff16600781111561169157fe5b600781111561169c57fe5b81526020016000820160159054906101000a900460ff161515151581526020016001820154815260200160028201548152602001600382015481525050815260200190600101906115fa565b5050505081526020016001820160009054906101000a900460ff1660ff1660ff1681526020016001820160019054906101000a900460ff161515151581526020016001820160029054906101000a900460ff16151515158152602001600282015481525050905090565b3373ffffffffffffffffffffffffffffffffffffffff1660008054906101000a900473ffffffffffffffffffffffffffffffffffffffff1673ffffffffffffffffffffffffffffffffffffffff16146117e0576040517f08c379a00000000000000000000000000000000000000000000000000000000081526004016117d790614d06565b60405180910390fd5b6001800160029054906101000a900460ff1615611832576040517f08c379a000000000000000000000000000000000000000000000000000000000815260040161182990614c26565b60405180910390fd5b600086869050905060005b81811015611903576118ae84848381811061185457fe5b9050602002013560016000018a8a8581811061186c57fe5b90506020020160208101906118819190613b4d565b60ff168154811061188e57fe5b906000526020600020906004020160030154612b4190919063ffffffff16565b60016000018989848181106118bf57fe5b90506020020160208101906118d49190613b4d565b60ff16815481106118e157fe5b906000526020600020906004020160030181905550808060010191505061183d565b5050505050505050565b3373ffffffffffffffffffffffffffffffffffffffff1660008054906101000a900473ffffffffffffffffffffffffffffffffffffffff1673ffffffffffffffffffffffffffffffffffffffff161461199b576040517f08c379a000000000000000000000000000000000000000000000000000000000815260040161199290614d06565b60405180910390fd5b6001800160029054906101000a900460ff16156119ed576040517f08c379a00000000000000000000000000000000000000000000000000000000081526004016119e490614c26565b60405180910390fd5b611a248160016000018560ff1681548110611a0457fe5b906000526020600020906004020160030154612b4190919063ffffffff16565b60016000018460ff1681548110611a3757fe5b906000526020600020906004020160030181905550505050565b60018060010160009054906101000a900460ff16908060010160019054906101000a900460ff16908060010160029054906101000a900460ff16908060020154905084565b60006305f5e100905090565b60008073ffffffffffffffffffffffffffffffffffffffff168573ffffffffffffffffffffffffffffffffffffffff161415611b13576040517f08c379a0000000000000000000000000000000000000000000000000000000008152600401611b0a90614bc6565b60405180910390fd5b600073ffffffffffffffffffffffffffffffffffffffff168473ffffffffffffffffffffffffffffffffffffffff161415611b83576040517f08c379a0000000000000000000000000000000000000000000000000000000008152600401611b7a90614ca6565b60405180910390fd5b620f42408310158015611b9b57506402540be4008311155b611bda576040517f08c379a0000000000000000000000000000000000000000000000000000000008152600401611bd190614ae6565b60405180910390fd5b6000611be586612b96565b5090508015611c29576040517f08c379a0000000000000000000000000000000000000000000000000000000008152600401611c2090614b66565b60405180910390fd5b6000611c3487613171565b90506000611c4c826012612ade90919063ffffffff16565b90506000611c6682600a0a8861325190919063ffffffff16565b9050600060016000018054905090506001800160009054906101000a900460ff1660ff168160ff1610611cce576040517f08c379a0000000000000000000000000000000000000000000000000000000008152600401611cc590614b26565b60405180910390fd5b80600460008c73ffffffffffffffffffffffffffffffffffffffff1673ffffffffffffffffffffffffffffffffffffffff16815260200190815260200160002060006101000a81548160ff021916908360ff1602179055506005899080600181540180825580915050600190039060005260206000200160009091909190916101000a81548173ffffffffffffffffffffffffffffffffffffffff021916908373ffffffffffffffffffffffffffffffffffffffff16021790555060016000016040518060c001604052808c73ffffffffffffffffffffffffffffffffffffffff16815260200160016007811115611dc257fe5b81526020018915158152602001848152602001600081526020016000815250908060018154018082558091505060019003906000526020600020906004020160009091909190915060008201518160000160006101000a81548173ffffffffffffffffffffffffffffffffffffffff021916908373ffffffffffffffffffffffffffffffffffffffff16021790555060208201518160000160146101000a81548160ff02191690836007811115611e7557fe5b021790555060408201518160000160156101000a81548160ff021916908315150217905550606082015181600101556080820151816002015560a0820151816003015550508973ffffffffffffffffffffffffffffffffffffffff167fc5841a71c957e4395ad5f2efb03673e584498cce9790cce25bf59e92094dbd308a604051611f00919061491d565b60405180910390a28095505050505050949350505050565b600080611f2483612b96565b9150915081611f68576040517f08c379a0000000000000000000000000000000000000000000000000000000008152600401611f5f90614c86565b60405180910390fd5b60006001600001805490509050611f7d6134bc565b60016000018360ff1681548110611f9057fe5b90600052602060002090600402016040518060c00160405290816000820160009054906101000a900473ffffffffffffffffffffffffffffffffffffffff1673ffffffffffffffffffffffffffffffffffffffff1673ffffffffffffffffffffffffffffffffffffffff1681526020016000820160149054906101000a900460ff16600781111561201d57fe5b600781111561202857fe5b81526020016000820160159054906101000a900460ff161515151581526020016001820154815260200160028201548152602001600382015481525050905060008160800151146120ae576040517f08c379a00000000000000000000000000000000000000000000000000000000081526004016120a590614ce6565b60405180910390fd5b60008160a00151146120f5576040517f08c379a00000000000000000000000000000000000000000000000000000000081526004016120ec90614ac6565b60405180910390fd5b6005600781111561210257fe5b8160200151600781111561211257fe5b1415612153576040517f08c379a000000000000000000000000000000000000000000000000000000000815260040161214a90614a86565b60405180910390fd5b6000612169600184612ade90919063ffffffff16565b90508060ff168460ff1614156122a557600160000180548061218757fe5b6001900381819060005260206000209060040201600080820160006101000a81549073ffffffffffffffffffffffffffffffffffffffff02191690556000820160146101000a81549060ff02191690556000820160156101000a81549060ff0219169055600182016000905560028201600090556003820160009055505090556000600460008873ffffffffffffffffffffffffffffffffffffffff1673ffffffffffffffffffffffffffffffffffffffff16815260200190815260200160002060006101000a81548160ff021916908360ff160217905550600580548061226b57fe5b6001900381819060005260206000200160006101000a81549073ffffffffffffffffffffffffffffffffffffffff021916905590556126dc565b60016000018160ff16815481106122b857fe5b906000526020600020906004020160016000018560ff16815481106122d957fe5b90600052602060002090600402016000820160009054906101000a900473ffffffffffffffffffffffffffffffffffffffff168160000160006101000a81548173ffffffffffffffffffffffffffffffffffffffff021916908373ffffffffffffffffffffffffffffffffffffffff1602179055506000820160149054906101000a900460ff168160000160146101000a81548160ff0219169083600781111561237f57fe5b02179055506000820160159054906101000a900460ff168160000160156101000a81548160ff02191690831515021790555060018201548160010155600282015481600201556003820154816003015590505060016000018054806123e057fe5b6001900381819060005260206000209060040201600080820160006101000a81549073ffffffffffffffffffffffffffffffffffffffff02191690556000820160146101000a81549060ff02191690556000820160156101000a81549060ff0219169055600182016000905560028201600090556003820160009055505090556124686134bc565b60016000018560ff168154811061247b57fe5b90600052602060002090600402016040518060c00160405290816000820160009054906101000a900473ffffffffffffffffffffffffffffffffffffffff1673ffffffffffffffffffffffffffffffffffffffff1673ffffffffffffffffffffffffffffffffffffffff1681526020016000820160149054906101000a900460ff16600781111561250857fe5b600781111561251357fe5b81526020016000820160159054906101000a900460ff16151515158152602001600182015481526020016002820154815260200160038201548152505090506000600460008973ffffffffffffffffffffffffffffffffffffffff1673ffffffffffffffffffffffffffffffffffffffff16815260200190815260200160002060006101000a81548160ff021916908360ff1602179055508460046000836000015173ffffffffffffffffffffffffffffffffffffffff1673ffffffffffffffffffffffffffffffffffffffff16815260200190815260200160002060006101000a81548160ff021916908360ff16021790555060058260ff168154811061261757fe5b9060005260206000200160009054906101000a900473ffffffffffffffffffffffffffffffffffffffff1660058660ff168154811061265257fe5b9060005260206000200160006101000a81548173ffffffffffffffffffffffffffffffffffffffff021916908373ffffffffffffffffffffffffffffffffffffffff16021790555060058054806126a557fe5b6001900381819060005260206000200160006101000a81549073ffffffffffffffffffffffffffffffffffffffff02191690559055505b816000015173ffffffffffffffffffffffffffffffffffffffff167f1e5281bbecf5c15104f9e35265dbe738c1cd2597613cbf4a0a51713448bc13b960405160405180910390a2505050505050565b60008351905060008111612774576040517f08c379a000000000000000000000000000000000000000000000000000000000815260040161276b90614a26565b60405180910390fd5b825181146127b7576040517f08c379a00000000000000000000000000000000000000000000000000000000081526004016127ae90614c46565b60405180910390fd5b60005b81811015612964576000806127e18784815181106127d457fe5b6020026020010151612b96565b9150915081612825576040517f08c379a000000000000000000000000000000000000000000000000000000000815260040161281c90614ba6565b60405180910390fd5b61282d6134bc565b61283682612c97565b9050600087858151811061284657fe5b602002602001015190506001600781111561285d57fe5b8260200151600781111561286d57fe5b14156128ec57670de0b6b3a76400008111156128be576040517f08c379a00000000000000000000000000000000000000000000000000000000081526004016128b590614a66565b60405180910390fd5b8060016000018460ff16815481106128d257fe5b906000526020600020906004020160020181905550612953565b60016000018360ff16815481106128ff57fe5b9060005260206000209060040201600201548114612952576040517f08c379a000000000000000000000000000000000000000000000000000000000815260040161294990614be6565b60405180910390fd5b5b5050505080806001019150506127ba565b5081612973576129726132c1565b5b7fbe2adf2902216365c5c656d48909da65fad401f809e4351cdbcfcac40674566984846040516129a4929190614938565b60405180910390a150505050565b606060006001600001805480602002602001604051908101604052809291908181526020016000905b82821015612ac957838290600052602060002090600402016040518060c00160405290816000820160009054906101000a900473ffffffffffffffffffffffffffffffffffffffff1673ffffffffffffffffffffffffffffffffffffffff1673ffffffffffffffffffffffffffffffffffffffff1681526020016000820160149054906101000a900460ff166007811115612a7257fe5b6007811115612a7d57fe5b81526020016000820160159054906101000a900460ff161515151581526020016001820154815260200160028201548152602001600382015481525050815260200190600101906129db565b50505050915060016000018054905090509091565b6000612b2083836040518060400160405280601e81526020017f536166654d6174683a207375627472616374696f6e206f766572666c6f770000815250613381565b905092915050565b6000612b3983836305f5e1006133dc565b905092915050565b600080828401905083811015612b8c576040517f08c379a0000000000000000000000000000000000000000000000000000000008152600401612b8390614a46565b60405180910390fd5b8091505092915050565b600080600460008473ffffffffffffffffffffffffffffffffffffffff1673ffffffffffffffffffffffffffffffffffffffff16815260200190815260200160002060009054906101000a900460ff16905060008160ff161415612c8d5760006001600001805490501415612c115760008091509150612c92565b8273ffffffffffffffffffffffffffffffffffffffff166001600001600081548110612c3957fe5b906000526020600020906004020160000160009054906101000a900473ffffffffffffffffffffffffffffffffffffffff1673ffffffffffffffffffffffffffffffffffffffff1614600091509150612c92565b600191505b915091565b612c9f6134bc565b60016000018260ff1681548110612cb257fe5b90600052602060002090600402016040518060c00160405290816000820160009054906101000a900473ffffffffffffffffffffffffffffffffffffffff1673ffffffffffffffffffffffffffffffffffffffff1673ffffffffffffffffffffffffffffffffffffffff1681526020016000820160149054906101000a900460ff166007811115612d3f57fe5b6007811115612d4a57fe5b81526020016000820160159054906101000a900460ff1615151515815260200160018201548152602001600282015481526020016003820154815250509050919050565b60608060606000845190508060ff1667ffffffffffffffff81118015612db357600080fd5b50604051908082528060200260200182016040528015612ded57816020015b612dda6134bc565b815260200190600190039081612dd25790505b5093508060ff1667ffffffffffffffff81118015612e0a57600080fd5b50604051908082528060200260200182016040528015612e395781602001602082028036833780820191505090505b5091508060ff1667ffffffffffffffff81118015612e5657600080fd5b50604051908082528060200260200182016040528015612e855781602001602082028036833780820191505090505b50925060005b8160ff168160ff161015613168576000868260ff1681518110612eaa57fe5b6020026020010151905060006001830190505b8360ff168160ff161015612f5d57878160ff1681518110612eda57fe5b602002602001015173ffffffffffffffffffffffffffffffffffffffff168273ffffffffffffffffffffffffffffffffffffffff161415612f50576040517f08c379a0000000000000000000000000000000000000000000000000000000008152600401612f4790614c06565b60405180910390fd5b8080600101915050612ebd565b50600080612f6a83612b96565b9150915081612fae576040517f08c379a0000000000000000000000000000000000000000000000000000000008152600401612fa590614ba6565b60405180910390fd5b80878560ff1681518110612fbe57fe5b602002602001019060ff16908160ff168152505060016000018160ff1681548110612fe557fe5b90600052602060002090600402016040518060c00160405290816000820160009054906101000a900473ffffffffffffffffffffffffffffffffffffffff1673ffffffffffffffffffffffffffffffffffffffff1673ffffffffffffffffffffffffffffffffffffffff1681526020016000820160149054906101000a900460ff16600781111561307257fe5b600781111561307d57fe5b81526020016000820160159054906101000a900460ff161515151581526020016001820154815260200160028201548152602001600382015481525050888560ff16815181106130c957fe5b602002602001018190525060058160ff16815481106130e457fe5b9060005260206000200160009054906101000a900473ffffffffffffffffffffffffffffffffffffffff16868560ff168151811061311e57fe5b602002602001019073ffffffffffffffffffffffffffffffffffffffff16908173ffffffffffffffffffffffffffffffffffffffff16815250505050508080600101915050612e8b565b50509193909250565b6000808273ffffffffffffffffffffffffffffffffffffffff1663313ce5676040518163ffffffff1660e01b815260040160206040518083038186803b1580156131ba57600080fd5b505afa1580156131ce573d6000803e3d6000fd5b505050506040513d601f19601f820116820180604052508101906131f29190613b76565b60ff16905060048110158015613209575060128111155b613248576040517f08c379a000000000000000000000000000000000000000000000000000000000815260040161323f90614b46565b60405180910390fd5b80915050919050565b60008083141561326457600090506132bb565b600082840290508284828161327557fe5b04146132b6576040517f08c379a00000000000000000000000000000000000000000000000000000000081526004016132ad90614b86565b60405180910390fd5b809150505b92915050565b600060016000018054905090506000805b8281101561331d5761330e600160000182815481106132ed57fe5b90600052602060002090600402016002015483612b4190919063ffffffff16565b915080806001019150506132d2565b50670de0b6b3a7640000811015801561333e5750673782dace9d9000008111155b61337d576040517f08c379a000000000000000000000000000000000000000000000000000000000815260040161337490614cc6565b60405180910390fd5b5050565b60008383111582906133c9576040517f08c379a00000000000000000000000000000000000000000000000000000000081526004016133c091906149e4565b60405180910390fd5b5060008385039050809150509392505050565b6000806133f2848661325190919063ffffffff16565b9050613407838261341190919063ffffffff16565b9150509392505050565b600061345383836040518060400160405280601a81526020017f536166654d6174683a206469766973696f6e206279207a65726f00000000000081525061345b565b905092915050565b600080831182906134a2576040517f08c379a000000000000000000000000000000000000000000000000000000000815260040161349991906149e4565b60405180910390fd5b5060008385816134ae57fe5b049050809150509392505050565b6040518060c00160405280600073ffffffffffffffffffffffffffffffffffffffff168152602001600060078111156134f157fe5b81526020016000151581526020016000815260200160008152602001600081525090565b6040518060800160405280600081526020016060815260200160608152602001606081525090565b60405180608001604052806000151581526020016060815260200160608152602001606081525090565b604051806060016040528061357a6134bc565b8152602001600073ffffffffffffffffffffffffffffffffffffffff168152602001600060ff1681525090565b6040518060a0016040528060608152602001600060ff168152602001600015158152602001600015158152602001600081525090565b6000813590506135ec81615024565b92915050565b60008083601f84011261360457600080fd5b8235905067ffffffffffffffff81111561361d57600080fd5b60208301915083602082028301111561363557600080fd5b9250929050565b60008083601f84011261364e57600080fd5b8235905067ffffffffffffffff81111561366757600080fd5b60208301915083602082028301111561367f57600080fd5b9250929050565b60008083601f84011261369857600080fd5b8235905067ffffffffffffffff8111156136b157600080fd5b6020830191508360208202830111156136c957600080fd5b9250929050565b60008083601f8401126136e257600080fd5b8235905067ffffffffffffffff8111156136fb57600080fd5b60208301915083602082028301111561371357600080fd5b9250929050565b6000813590506137298161503b565b92915050565b60008135905061373e81615052565b92915050565b60008135905061375381615069565b92915050565b60008151905061376881615069565b92915050565b60006020828403121561378057600080fd5b600061378e848285016135dd565b91505092915050565b6000806000606084860312156137ac57600080fd5b60006137ba868287016135dd565b93505060206137cb868287016135dd565b92505060406137dc8682870161371a565b9150509250925092565b600080600080600080600080600060a08a8c03121561380457600080fd5b60006138128c828d016135dd565b99505060208a013567ffffffffffffffff81111561382f57600080fd5b61383b8c828d016135f2565b985098505060408a013567ffffffffffffffff81111561385a57600080fd5b6138668c828d016135f2565b965096505060608a013567ffffffffffffffff81111561388557600080fd5b6138918c828d01613686565b945094505060808a013567ffffffffffffffff8111156138b057600080fd5b6138bc8c828d0161363c565b92509250509295985092959850929598565b600080604083850312156138e157600080fd5b60006138ef858286016135dd565b92505060206139008582860161371a565b9150509250929050565b60008060006060848603121561391f57600080fd5b600061392d868287016135dd565b935050602061393e8682870161372f565b925050604061394f8682870161371a565b9150509250925092565b6000806000806040858703121561396f57600080fd5b600085013567ffffffffffffffff81111561398957600080fd5b613995878288016135f2565b9450945050602085013567ffffffffffffffff8111156139b457600080fd5b6139c087828801613686565b925092505092959194509250565b6000806000806000606086880312156139e657600080fd5b600086013567ffffffffffffffff811115613a0057600080fd5b613a0c888289016135f2565b9550955050602086013567ffffffffffffffff811115613a2b57600080fd5b613a3788828901613686565b93509350506040613a4a8882890161371a565b9150509295509295909350565b60008060008060008060608789031215613a7057600080fd5b600087013567ffffffffffffffff811115613a8a57600080fd5b613a9689828a016136d0565b9650965050602087013567ffffffffffffffff811115613ab557600080fd5b613ac189828a016135f2565b9450945050604087013567ffffffffffffffff811115613ae057600080fd5b613aec89828a01613686565b92509250509295509295509295565b600060208284031215613b0d57600080fd5b6000613b1b8482850161371a565b91505092915050565b600060208284031215613b3657600080fd5b6000613b448482850161372f565b91505092915050565b600060208284031215613b5f57600080fd5b6000613b6d84828501613744565b91505092915050565b600060208284031215613b8857600080fd5b6000613b9684828501613759565b91505092915050565b600080600060608486031215613bb457600080fd5b6000613bc286828701613744565b9350506020613bd3868287016135dd565b9250506040613be48682870161372f565b9150509250925092565b6000613bfa8383613c4e565b60208301905092915050565b6000613c128383614709565b60c08301905092915050565b6000613c2a83836148e1565b60208301905092915050565b6000613c4283836148ff565b60208301905092915050565b613c5781614f59565b82525050565b613c6681614f59565b82525050565b6000613c7782614e77565b613c818185614ee2565b9350613c8c83614e37565b8060005b83811015613cbd578151613ca48882613bee565b9750613caf83614eae565b925050600181019050613c90565b5085935050505092915050565b6000613cd582614e77565b613cdf8185614ef3565b9350613cea83614e37565b8060005b83811015613d1b578151613d028882613bee565b9750613d0d83614eae565b925050600181019050613cee565b5085935050505092915050565b6000613d3382614e82565b613d3d8185614f04565b9350613d4883614e47565b8060005b83811015613d79578151613d608882613c06565b9750613d6b83614ebb565b925050600181019050613d4c565b5085935050505092915050565b6000613d9182614e82565b613d9b8185614f15565b9350613da683614e47565b8060005b83811015613dd7578151613dbe8882613c06565b9750613dc983614ebb565b925050600181019050613daa565b5085935050505092915050565b6000613def82614e8d565b613df98185614f26565b9350613e0483614e57565b8060005b83811015613e35578151613e1c8882613c1e565b9750613e2783614ec8565b925050600181019050613e08565b5085935050505092915050565b6000613e4d82614e98565b613e578185614f37565b9350613e6283614e67565b8060005b83811015613e93578151613e7a8882613c36565b9750613e8583614ed5565b925050600181019050613e66565b5085935050505092915050565b613ea981614f6b565b82525050565b613eb881614f6b565b82525050565b613ec781614fc1565b82525050565b6000613ed882614ea3565b613ee28185614f48565b9350613ef2818560208601614fd3565b613efb81615006565b840191505092915050565b6000613f13601683614f48565b91507f6d41737365742061646472657373206973207a65726f000000000000000000006000830152602082019050919050565b6000613f53601a83614f48565b91507f456d7074792062417373657473206172726179207061737365640000000000006000830152602082019050919050565b6000613f93601b83614f48565b91507f536166654d6174683a206164646974696f6e206f766572666c6f7700000000006000830152602082019050919050565b6000613fd3601c83614f48565b91507f417373657420776569676874206d757374206265203c3d2031303025000000006000830152602082019050919050565b6000614013601583614f48565b91507f624173736574206d7573742062652061637469766500000000000000000000006000830152602082019050919050565b6000614053602283614f48565b91507f4e6f20624173736574732063616e20626520756e646572676f696e672072656360008301527f6f6c0000000000000000000000000000000000000000000000000000000000006020830152604082019050919050565b60006140b9601a83614f48565b91507f624173736574207661756c74206d75737420626520656d7074790000000000006000830152602082019050919050565b60006140f9600f83614f48565b91507f4d4d206f7574206f662072616e676500000000000000000000000000000000006000830152602082019050919050565b6000614139601783614f48565b91507f624173736574206d7573742062652061666665637465640000000000000000006000830152602082019050919050565b6000614179601583614f48565b91507f4d6178206241737365747320696e204261736b657400000000000000000000006000830152602082019050919050565b60006141b9602983614f48565b91507f546f6b656e206d75737420686176652073756666696369656e7420646563696d60008301527f616c20706c6163657300000000000000000000000000000000000000000000006020830152604082019050919050565b600061421f601f83614f48565b91507f62417373657420616c72656164792065786973747320696e204261736b6574006000830152602082019050919050565b600061425f602183614f48565b91507f536166654d6174683a206d756c7469706c69636174696f6e206f766572666c6f60008301527f77000000000000000000000000000000000000000000000000000000000000006020830152604082019050919050565b60006142c5601183614f48565b91507f624173736574206d7573742065786973740000000000000000000000000000006000830152602082019050919050565b6000614305601c83614f48565b91507f6241737365742061646472657373206d7573742062652076616c6964000000006000830152602082019050919050565b6000614345601f83614f48565b91507f41666665637465642062417373657473206d75737420626520737461746963006000830152602082019050919050565b6000614385601783614f48565b91507f4d7573742068617665206e6f206475706c6963617465730000000000000000006000830152602082019050919050565b60006143c5601483614f48565b91507f4261736b6574206d75737420626520616c6976650000000000000000000000006000830152602082019050919050565b6000614405601e83614f48565b91507f4d757374206265206d61746368696e67206241737365742061727261797300006000830152602082019050919050565b6000614445602183614f48565b91507f4d75737420696e697469616c697365207769746820736f6d652062417373657460008301527f73000000000000000000000000000000000000000000000000000000000000006020830152604082019050919050565b60006144ab601583614f48565b91507f62417373657420646f6573206e6f7420657869737400000000000000000000006000830152602082019050919050565b60006144eb602183614f48565b91507f496e746567726174696f6e2061646472657373206d7573742062652076616c6960008301527f64000000000000000000000000000000000000000000000000000000000000006020830152604082019050919050565b6000614551602783614f48565b91507f4261736b657420776569676874206d757374206265203e3d203130302026262060008301527f3c3d2034303025000000000000000000000000000000000000000000000000006020830152604082019050919050565b60006145b7602583614f48565b91507f624173736574206d75737420686176652061207461726765742077656967687460008301527f206f6620300000000000000000000000000000000000000000000000000000006020830152604082019050919050565b600061461d601883614f48565b91507f4d7573742062652063616c6c6564206279206d417373657400000000000000006000830152602082019050919050565b600060a083016000830151848203600086015261466d8282613d28565b915050602083015161468260208601826148ff565b5060408301516146956040860182613ea0565b5060608301516146a86060860182613ea0565b5060808301516146bb60808601826148e1565b508091505092915050565b610100820160008201516146dd6000850182614709565b5060208201516146f060c0850182613c4e565b50604082015161470360e08501826148ff565b50505050565b60c08201600082015161471f6000850182613c4e565b5060208201516147326020850182613ebe565b5060408201516147456040850182613ea0565b50606082015161475860608501826148e1565b50608082015161476b60808501826148e1565b5060a082015161477e60a08501826148e1565b50505050565b60c08201600082015161479a6000850182613c4e565b5060208201516147ad6020850182613ebe565b5060408201516147c06040850182613ea0565b5060608201516147d360608501826148e1565b5060808201516147e660808501826148e1565b5060a08201516147f960a08501826148e1565b50505050565b60006080830160008301516148176000860182613ea0565b506020830151848203602086015261482f8282613d28565b915050604083015184820360408601526148498282613c6c565b915050606083015184820360608601526148638282613e42565b9150508091505092915050565b600060808301600083015161488860008601826148e1565b50602083015184820360208601526148a08282613d28565b915050604083015184820360408601526148ba8282613c6c565b915050606083015184820360608601526148d48282613e42565b9150508091505092915050565b6148ea81614faa565b82525050565b6148f981614faa565b82525050565b61490881614fb4565b82525050565b61491781614fb4565b82525050565b60006020820190506149326000830184613c5d565b92915050565b600060408201905081810360008301526149528185613cca565b905081810360208301526149668184613de4565b90509392505050565b600060408201905081810360008301526149898185613d86565b905061499860208301846148f0565b9392505050565b60006020820190506149b46000830184613eaf565b92915050565b6000610120820190506149d06000830185613eaf565b6149dd60208301846146c6565b9392505050565b600060208201905081810360008301526149fe8184613ecd565b905092915050565b60006020820190508181036000830152614a1f81613f06565b9050919050565b60006020820190508181036000830152614a3f81613f46565b9050919050565b60006020820190508181036000830152614a5f81613f86565b9050919050565b60006020820190508181036000830152614a7f81613fc6565b9050919050565b60006020820190508181036000830152614a9f81614006565b9050919050565b60006020820190508181036000830152614abf81614046565b9050919050565b60006020820190508181036000830152614adf816140ac565b9050919050565b60006020820190508181036000830152614aff816140ec565b9050919050565b60006020820190508181036000830152614b1f8161412c565b9050919050565b60006020820190508181036000830152614b3f8161416c565b9050919050565b60006020820190508181036000830152614b5f816141ac565b9050919050565b60006020820190508181036000830152614b7f81614212565b9050919050565b60006020820190508181036000830152614b9f81614252565b9050919050565b60006020820190508181036000830152614bbf816142b8565b9050919050565b60006020820190508181036000830152614bdf816142f8565b9050919050565b60006020820190508181036000830152614bff81614338565b9050919050565b60006020820190508181036000830152614c1f81614378565b9050919050565b60006020820190508181036000830152614c3f816143b8565b9050919050565b60006020820190508181036000830152614c5f816143f8565b9050919050565b60006020820190508181036000830152614c7f81614438565b9050919050565b60006020820190508181036000830152614c9f8161449e565b9050919050565b60006020820190508181036000830152614cbf816144de565b9050919050565b60006020820190508181036000830152614cdf81614544565b9050919050565b60006020820190508181036000830152614cff816145aa565b9050919050565b60006020820190508181036000830152614d1f81614610565b9050919050565b60006020820190508181036000830152614d408184614650565b905092915050565b600060c082019050614d5d6000830184614784565b92915050565b60006020820190508181036000830152614d7d81846147ff565b905092915050565b60006020820190508181036000830152614d9f8184614870565b905092915050565b6000604082019050614dbc60008301856148f0565b8181036020830152614dce8184613de4565b90509392505050565b6000602082019050614dec600083018461490e565b92915050565b6000608082019050614e07600083018761490e565b614e146020830186613eaf565b614e216040830185613eaf565b614e2e60608301846148f0565b95945050505050565b6000819050602082019050919050565b6000819050602082019050919050565b6000819050602082019050919050565b6000819050602082019050919050565b600081519050919050565b600081519050919050565b600081519050919050565b600081519050919050565b600081519050919050565b6000602082019050919050565b6000602082019050919050565b6000602082019050919050565b6000602082019050919050565b600082825260208201905092915050565b600082825260208201905092915050565b600082825260208201905092915050565b600082825260208201905092915050565b600082825260208201905092915050565b600082825260208201905092915050565b600082825260208201905092915050565b6000614f6482614f8a565b9050919050565b60008115159050919050565b6000819050614f8582615017565b919050565b600073ffffffffffffffffffffffffffffffffffffffff82169050919050565b6000819050919050565b600060ff82169050919050565b6000614fcc82614f77565b9050919050565b60005b83811015614ff1578082015181840152602081019050614fd6565b83811115615000576000848401525b50505050565b6000601f19601f8301169050919050565b6008811061502157fe5b50565b61502d81614f59565b811461503857600080fd5b50565b61504481614f6b565b811461504f57600080fd5b50565b61505b81614faa565b811461506657600080fd5b50565b61507281614fb4565b811461507d57600080fd5b5056fea2646970667358221220396aaf2b9af262c2873807da8f5548ce0561645a12daafa445587c1eb2f8f65364736f6c634300060c0033",
  "immutableReferences": {},
  "source": "// SPDX-License-Identifier: SimPL-2.0\npragma solidity 0.6.12;\npragma experimental ABIEncoderV2;\n\n// External\nimport { IERC20 } from \"@openzeppelin/contracts/token/ERC20/IERC20.sol\";\n\n// Internal\nimport { IDataManager } from \"./IDataManager.sol\";\n\n// Libs\nimport { CommonHelpers } from \"./shared/CommonHelpers.sol\";\nimport { StableMath } from \"./shared/StableMath.sol\";\nimport { SafeERC20 } from \"@openzeppelin/contracts/token/ERC20/SafeERC20.sol\";\nimport { SafeMath } from \"@openzeppelin/contracts/math/SafeMath.sol\";\n\n/**\n * DataManager\n */\ncontract DataManager is IDataManager {\n    using SafeMath for uint256;\n    using StableMath for uint256;\n    using SafeERC20 for IERC20;\n\n    // Events for Basket composition changes\n    event BassetAdded(address indexed bAsset, address integrator);\n    event BassetRemoved(address indexed bAsset);\n    event BasketWeightsUpdated(address[] bAssets, uint256[] maxWeights);\n    event BassetStatusChanged(address indexed bAsset, BassetStatus status);\n    event BasketStatusChanged();\n    event TransferFeeEnabled(address indexed bAsset, bool enabled);\n\n    // mAsset linked to the manager (const)\n    address public mAsset;\n\n    // Struct holding Basket details\n    Basket public basket;\n    // Mapping holds bAsset token address => array index\n    mapping(address => uint8) private bAssetsMap;\n    // Holds relative addresses of the integration platforms\n    address[] public integrations;\n\n    /**\n     * @dev Initialization function for upgradable proxy contract.\n     *      This function should be called via Proxy just after contract deployment.\n     * @param _mAsset           Address of the mAsset whose Basket to manage\n     * @param _bAssets          Array of erc20 bAsset addresses\n     * @param _integrators      Matching array of the platform intergations for bAssets\n     * @param _weights          Weightings of each bAsset, summing to 1e18\n     * @param _hasTransferFees  Bool signifying if this bAsset has xfer fees\n     */\n    function initialize(\n        address _mAsset,\n        address[] calldata _bAssets,\n        address[] calldata _integrators,\n        uint256[] calldata _weights,\n        bool[] calldata _hasTransferFees\n    )\n        external\n    {\n        // InitializableReentrancyGuard._initialize();\n        // InitializablePausableModule._initialize(_nexus);\n\n        require(_mAsset != address(0), \"mAsset address is zero\");\n        require(_bAssets.length > 0, \"Must initialise with some bAssets\");\n        mAsset = _mAsset;\n\n        // Defaults\n        basket.maxBassets = 10;               // 10\n        basket.collateralisationRatio = 1e18; // 100%\n\n        for (uint256 i = 0; i < _bAssets.length; i++) {\n            _addBasset(\n                _bAssets[i],\n                _integrators[i],\n                StableMath.getRatioScale(),\n                _hasTransferFees[i]\n            );\n        }\n        _setBasketWeights(_bAssets, _weights, true);\n    }\n\n    /**\n     * @dev Requires the overall basket composition to be healthy\n     */\n    modifier whenBasketIsHealthy() {\n        require(!basket.failed, \"Basket must be alive\");\n        _;\n    }\n\n    /**\n     * @dev Requires the overall basket composition to be healthy\n     */\n    modifier whenNotRecolling() {\n        require(!basket.undergoingRecol, \"No bAssets can be undergoing recol\");\n        _;\n    }\n\n    /**\n     * @dev Verifies that the caller is governed mAsset\n     */\n    modifier onlyMasset() {\n        require(mAsset == msg.sender, \"Must be called by mAsset\");\n        _;\n    }\n\n    /***************************************\n                VAULT BALANCE\n    ****************************************/\n\n    /**\n     * @dev Called by only mAsset, and only when the basket is healthy, to add units to\n     *      storage after they have been deposited into the vault\n     * @param _bAssetIndex      Index of the bAsset\n     * @param _increaseAmount   Units deposited\n     */\n    function increaseVaultBalance(\n        uint8 _bAssetIndex,\n        address /* _integrator */,\n        uint256 _increaseAmount\n    )\n        override\n        external\n        onlyMasset\n        whenBasketIsHealthy\n    {\n        basket.bassets[_bAssetIndex].vaultBalance =\n            basket.bassets[_bAssetIndex].vaultBalance.add(_increaseAmount);\n    }\n\n    /**\n     * @dev Called by only mAsset, and only when the basket is healthy, to add units to\n     *      storage after they have been deposited into the vault\n     * @param _bAssetIndices    Array of bAsset indexes\n     * @param _increaseAmount   Units deposited\n     */\n    function increaseVaultBalances(\n        uint8[] calldata _bAssetIndices,\n        address[] calldata /* _integrator */,\n        uint256[] calldata _increaseAmount\n    )\n        override\n        external\n        onlyMasset\n        whenBasketIsHealthy\n    {\n        uint256 len = _bAssetIndices.length;\n        for(uint i = 0; i < len; i++) {\n            basket.bassets[_bAssetIndices[i]].vaultBalance =\n                basket.bassets[_bAssetIndices[i]].vaultBalance.add(_increaseAmount[i]);\n        }\n    }\n\n    /**\n     * @dev Called by mAsset after redeeming tokens. Simply reduce the balance in the vault\n     * @param _bAssetIndex      Index of the bAsset\n     * @param _decreaseAmount   Units withdrawn\n     */\n    function decreaseVaultBalance(\n        uint8 _bAssetIndex,\n        address /* _integrator */,\n        uint256 _decreaseAmount\n    )\n        override\n        external\n        onlyMasset\n    {\n        basket.bassets[_bAssetIndex].vaultBalance =\n            basket.bassets[_bAssetIndex].vaultBalance.sub(_decreaseAmount);\n    }\n\n    /**\n     * @dev Called by mAsset after redeeming tokens. Simply reduce the balance in the vault\n     * @param _bAssetIndices    Array of bAsset indexes\n     * @param _decreaseAmount   Units withdrawn\n     */\n    function decreaseVaultBalances(\n        uint8[] calldata _bAssetIndices,\n        address[] calldata /* _integrator */,\n        uint256[] calldata _decreaseAmount\n    )\n        override\n        external\n        onlyMasset\n    {\n        uint256 len = _bAssetIndices.length;\n        for(uint i = 0; i < len; i++) {\n            basket.bassets[_bAssetIndices[i]].vaultBalance =\n                basket.bassets[_bAssetIndices[i]].vaultBalance.sub(_decreaseAmount[i]);\n        }\n    }\n\n    /**\n     * @dev Called by mAsset to calculate how much interest has been generated in the basket\n     *      and withdraw it. Cycles through the connected platforms to check the balances.\n     * @return interestCollected   Total amount of interest collected, in mAsset terms\n     * @return gains               Array of bAsset units gained\n     */\n    function collectInterest()\n        override\n        external\n        onlyMasset\n        whenBasketIsHealthy\n        returns (uint256 interestCollected, uint256[] memory gains)\n    {\n        // Get basket details\n        (Basset[] memory allBassets, uint256 count) = _getBassets();\n        gains = new uint256[](count);\n        interestCollected = 0;\n\n        // foreach bAsset\n        for(uint8 i = 0; i < count; i++) {\n            Basset memory b = allBassets[i];\n            // call each integration to `checkBalance`\n            // uint256 balance = IPlatformIntegration(integrations[i]).checkBalance(b.addr);\n            uint256 balance = 100;\n            uint256 oldVaultBalance = b.vaultBalance;\n\n            // accumulate interest (ratioed bAsset)\n            if(balance > oldVaultBalance && b.status == BassetStatus.Normal) {\n                // Update balance\n                basket.bassets[i].vaultBalance = balance;\n\n                uint256 interestDelta = balance.sub(oldVaultBalance);\n                gains[i] = interestDelta;\n\n                // Calc MassetQ\n                uint256 ratioedDelta = interestDelta.mulRatioTruncate(b.ratio);\n                interestCollected = interestCollected.add(ratioedDelta);\n            } else {\n                gains[i] = 0;\n            }\n        }\n    }\n\n\n    /***************************************\n                BASKET MANAGEMENT\n    ****************************************/\n\n    /**\n     * @dev External func to allow the Governor to conduct add operations on the Basket\n     * @param _bAsset               Address of the ERC20 token to add to the Basket\n     * @param _integration          Address of the vault integration to deposit and withdraw\n     * @param _isTransferFeeCharged Bool - are transfer fees charged on this bAsset\n     * @return index                Position of the bAsset in the Basket\n     */\n    function addBasset(address _bAsset, address _integration, bool _isTransferFeeCharged)\n        override\n        external\n        whenBasketIsHealthy\n        whenNotRecolling\n        returns (uint8 index)\n    {\n        index = _addBasset(\n            _bAsset,\n            _integration,\n            StableMath.getRatioScale(),\n            _isTransferFeeCharged\n        );\n    }\n\n    /**\n     * @dev Adds a bAsset to the Basket, fetching its decimals and calculating the Ratios\n     * @param _bAsset               Address of the ERC20 token to add to the Basket\n     * @param _integration          Address of the Platform Integration\n     * @param _measurementMultiple  Base 1e8 var to determine measurement ratio\n     *                              between bAsset:mAsset\n     * @param _isTransferFeeCharged Bool - are transfer fees charged on this bAsset\n     * @return index                Position of the bAsset in the Basket\n     */\n    function _addBasset(\n        address _bAsset,\n        address _integration,\n        uint256 _measurementMultiple,\n        bool _isTransferFeeCharged\n    )\n        internal\n        returns (uint8 index)\n    {\n        require(_bAsset != address(0), \"bAsset address must be valid\");\n        require(_integration != address(0), \"Integration address must be valid\");\n        require(_measurementMultiple >= 1e6 && _measurementMultiple <= 1e10, \"MM out of range\");\n\n        (bool alreadyInBasket, ) = _isAssetInBasket(_bAsset);\n        require(!alreadyInBasket, \"bAsset already exists in Basket\");\n\n        // Should fail if bAsset is not added to integration\n        // Programmatic enforcement of bAsset validity should service through decentralised feed\n        // IPlatformIntegration(_integration).checkBalance(_bAsset);\n\n        uint256 bAsset_decimals = CommonHelpers.getDecimals(_bAsset);\n        uint256 delta = uint256(18).sub(bAsset_decimals);\n\n        uint256 ratio = _measurementMultiple.mul(10 ** delta);\n\n        uint8 numberOfBassetsInBasket = uint8(basket.bassets.length);\n        require(numberOfBassetsInBasket < basket.maxBassets, \"Max bAssets in Basket\");\n\n        bAssetsMap[_bAsset] = numberOfBassetsInBasket;\n\n        integrations.push(_integration);\n        basket.bassets.push(Basset({\n            addr: _bAsset,\n            ratio: ratio,\n            maxWeight: 0,\n            vaultBalance: 0,\n            status: BassetStatus.Normal,\n            isTransferFeeCharged: _isTransferFeeCharged\n        }));\n\n        emit BassetAdded(_bAsset, _integration);\n\n        index = numberOfBassetsInBasket;\n    }\n\n\n    /**\n     * @dev External call for the governor to set weightings of all bAssets\n     * @param _bAssets Array of bAsset addresses\n     * @param _weights Array of bAsset weights - summing 100% where 100% == 1e18\n     */\n    function setBasketWeights(\n        address[] calldata _bAssets,\n        uint256[] calldata _weights\n    )\n        override\n        external\n        whenBasketIsHealthy\n    {\n        _setBasketWeights(_bAssets, _weights, false);\n    }\n\n    /**\n     * @notice Sets new Basket weightings\n     * @dev Requires the modified bAssets to be in a Normal state\n     * @param _bAssets Array of bAsset addresses\n     * @param _weights Array of bAsset weights - summing 100% where 100% == 1e18\n     * @param _isBootstrap True only on the first occurence of weight setting\n     */\n    function _setBasketWeights(\n        address[] memory _bAssets,\n        uint256[] memory _weights,\n        bool _isBootstrap\n    )\n        internal\n    {\n        uint256 bAssetCount = _bAssets.length;\n        require(bAssetCount > 0, \"Empty bAssets array passed\");\n        require(bAssetCount == _weights.length, \"Must be matching bAsset arrays\");\n\n        for (uint256 i = 0; i < bAssetCount; i++) {\n            (bool exists, uint8 index) = _isAssetInBasket(_bAssets[i]);\n            require(exists, \"bAsset must exist\");\n\n            Basset memory bAsset = _getBasset(index);\n\n            uint256 bAssetWeight = _weights[i];\n\n            if(bAsset.status == BassetStatus.Normal) {\n                require(\n                    bAssetWeight <= 1e18,\n                    \"Asset weight must be <= 100%\"\n                );\n                basket.bassets[index].maxWeight = bAssetWeight;\n            } else {\n                require(\n                    bAssetWeight == basket.bassets[index].maxWeight,\n                    \"Affected bAssets must be static\"\n                );\n            }\n        }\n\n        if(!_isBootstrap){\n            _validateBasketWeight();\n        }\n\n        emit BasketWeightsUpdated(_bAssets, _weights);\n    }\n\n    /**\n     * @dev Throws if the sum of all bAsset maxWeights is not in range 100-400%\n     */\n    function _validateBasketWeight() internal view {\n        uint256 len = basket.bassets.length;\n        uint256 weightSum = 0;\n        for(uint256 i = 0; i < len; i++) {\n            weightSum = weightSum.add(basket.bassets[i].maxWeight);\n        }\n        require(weightSum >= 1e18 && weightSum <= 4e18, \"Basket weight must be >= 100 && <= 400%\");\n    }\n\n    /**\n     * @dev Update transfer fee flag for a given bAsset, should it change its fee practice\n     * @param _bAsset   bAsset address\n     * @param _flag         Charge transfer fee when its set to 'true', otherwise 'false'\n     */\n    function setTransferFeesFlag(address _bAsset, bool _flag)\n        override\n        external\n    {\n        (bool exist, uint8 index) = _isAssetInBasket(_bAsset);\n        require(exist, \"bAsset does not exist\");\n        basket.bassets[index].isTransferFeeCharged = _flag;\n\n        emit TransferFeeEnabled(_bAsset, _flag);\n    }\n\n\n    /**\n     * @dev Removes a specific Asset from the Basket, given that its target/collateral\n     *      level is already 0, throws if invalid.\n     * @param _assetToRemove The asset to remove from the basket\n     */\n    function removeBasset(address _assetToRemove)\n        external\n        whenBasketIsHealthy\n        whenNotRecolling\n    {\n        _removeBasset(_assetToRemove);\n    }\n\n    /**\n     * @dev Removes a specific Asset from the Basket, given that its target/collateral\n     *      level is already 0, throws if invalid.\n     * @param _assetToRemove The asset to remove from the basket\n     */\n    function _removeBasset(address _assetToRemove) internal {\n        (bool exists, uint8 index) = _isAssetInBasket(_assetToRemove);\n        require(exists, \"bAsset does not exist\");\n\n        uint256 len = basket.bassets.length;\n        Basset memory bAsset = basket.bassets[index];\n\n        require(bAsset.maxWeight == 0, \"bAsset must have a target weight of 0\");\n        require(bAsset.vaultBalance == 0, \"bAsset vault must be empty\");\n        require(bAsset.status != BassetStatus.Liquidating, \"bAsset must be active\");\n\n        uint8 lastIndex = uint8(len.sub(1));\n        if(index == lastIndex) {\n            basket.bassets.pop();\n            bAssetsMap[_assetToRemove] = 0;\n            integrations.pop();\n        } else {\n            // Swap the bassets\n            basket.bassets[index] = basket.bassets[lastIndex];\n            basket.bassets.pop();\n            Basset memory swappedBasset = basket.bassets[index];\n            // Update bassetsMap\n            bAssetsMap[_assetToRemove] = 0;\n            bAssetsMap[swappedBasset.addr] = index;\n            // Update integrations\n            integrations[index] = integrations[lastIndex];\n            integrations.pop();\n        }\n\n        emit BassetRemoved(bAsset.addr);\n    }\n\n\n    /***************************************\n                    GETTERS\n    ****************************************/\n\n    /**\n     * @dev Get basket details for `MassetStructs.Basket`\n     * @return b   Basket struct\n     */\n    function getBasket()\n        override\n        external\n        view\n        returns (Basket memory b)\n    {\n        b = basket;\n    }\n\n    /**\n     * Prepare given bAsset for Forging. Currently returns integrator\n     *      and essential minting info.\n     * _bAsset    Address of the bAsset\n     * props     Struct of all relevant Forge information\n     */\n    function prepareForgeBasset(address _bAsset, uint256 /*_amt*/, bool /*_mint*/)\n        override\n        external\n        returns (bool isValid, BassetDetails memory bInfo)\n    {\n        (bool exists, uint8 idx) = _isAssetInBasket(_bAsset);\n        require(exists, \"bAsset does not exist\");\n        isValid = true;\n        bInfo = BassetDetails({\n            bAsset: basket.bassets[idx],\n            integrator: integrations[idx],\n            index: idx\n        });\n    }\n\n    /**\n     * @dev Prepare given bAsset addresses for Forging. Currently returns integrator\n     *      and essential minting info for each bAsset\n     * @param _bAssets   Array of bAsset addresses with which to forge\n     * @return props     Struct of all relevant Forge information\n     */\n    function prepareForgeBassets(\n        address[] calldata _bAssets,\n        uint256[] calldata /*_amts*/,\n        bool /* _isMint */\n    )\n        override\n        external\n        whenNotRecolling\n        returns (ForgePropsMulti memory props)\n    {\n        // Pass the fetching logic to the internal view func to reduce SLOAD cost\n        (Basset[] memory bAssets, uint8[] memory indexes, address[] memory integrators) = _fetchForgeBassets(_bAssets);\n        props = ForgePropsMulti({\n            isValid: true,\n            bAssets: bAssets,\n            integrators: integrators,\n            indexes: indexes\n        });\n    }\n\n    /**\n     * @dev Prepare given bAsset addresses for RedeemMulti. Currently returns integrator\n     *      and essential minting info for each bAsset\n     * @return props     Struct of all relevant Forge information\n     */\n    function prepareRedeemMulti()\n        override\n        external\n        view\n        whenNotRecolling\n        returns (RedeemPropsMulti memory props)\n    {\n        (Basset[] memory bAssets, uint256 len) = _getBassets();\n        address[] memory orderedIntegrators = new address[](len);\n        uint8[] memory indexes = new uint8[](len);\n        for(uint8 i = 0; i < len; i++){\n            orderedIntegrators[i] = integrations[i];\n            indexes[i] = i;\n        }\n        props = RedeemPropsMulti({\n            colRatio: basket.collateralisationRatio,\n            bAssets: bAssets,\n            integrators: orderedIntegrators,\n            indexes: indexes\n        });\n    }\n\n    /**\n     * @dev Internal func to fetch an array of bAssets and their integrators from storage\n     * @param _bAssets       Array of non-duplicate bAsset addresses with which to forge\n     * @return bAssets       Array of bAsset structs for the given addresses\n     * @return indexes       Array of indexes for the given addresses\n     * @return integrators   Array of integrators for the given addresses\n     */\n    function _fetchForgeBassets(address[] memory _bAssets)\n        internal\n        view\n        returns (\n            Basset[] memory bAssets,\n            uint8[] memory indexes,\n            address[] memory integrators\n        )\n    {\n        uint8 len = uint8(_bAssets.length);\n\n        bAssets = new Basset[](len);\n        integrators = new address[](len);\n        indexes = new uint8[](len);\n\n        // Iterate through the input\n        for(uint8 i = 0; i < len; i++) {\n            address current = _bAssets[i];\n\n            // If there is a duplicate here, throw\n            // Gas costs do not incur SLOAD\n            for(uint8 j = i+1; j < len; j++){\n                require(current != _bAssets[j], \"Must have no duplicates\");\n            }\n\n            // Fetch and log all the relevant data\n            (bool exists, uint8 index) = _isAssetInBasket(current);\n            require(exists, \"bAsset must exist\");\n            indexes[i] = index;\n            bAssets[i] = basket.bassets[index];\n            integrators[i] = integrations[index];\n        }\n    }\n\n    /**\n     * @dev Get data for a all bAssets in basket\n     * @return bAssets  Struct[] with full bAsset data\n     * @return len      Number of bAssets in the Basket\n     */\n    function getBassets()\n        override\n        external\n        view\n        returns (\n            Basset[] memory bAssets,\n            uint256 len\n        )\n    {\n        return _getBassets();\n    }\n\n    /**\n     * @dev Get data for a specific bAsset, if it exists\n     * @param _bAsset   Address of bAsset\n     * @return bAsset  Struct with full bAsset data\n     */\n    function getBasset(address _bAsset)\n        override\n        external\n        view\n        returns (Basset memory bAsset)\n    {\n        (bool exists, uint8 index) = _isAssetInBasket(_bAsset);\n        require(exists, \"bAsset must exist\");\n        bAsset = _getBasset(index);\n    }\n\n    /**\n     * @dev Get current integrator for a specific bAsset, if it exists\n     * @param _bAsset      Address of bAsset\n     * @return integrator  Address of current integrator\n     */\n    function getBassetIntegrator(address _bAsset)\n        external\n        view\n        returns (address integrator)\n    {\n        (bool exists, uint8 index) = _isAssetInBasket(_bAsset);\n        require(exists, \"bAsset must exist\");\n        integrator = integrations[index];\n    }\n\n    function _getBassets()\n        internal\n        view\n        returns (\n            Basset[] memory bAssets,\n            uint256 len\n        )\n    {\n        bAssets = basket.bassets;\n        len = basket.bassets.length;\n    }\n\n    function _getBasset(uint8 _bAssetIndex)\n        internal\n        view\n        returns (Basset memory bAsset)\n    {\n        bAsset = basket.bassets[_bAssetIndex];\n    }\n\n\n    /***************************************\n                    HELPERS\n    ****************************************/\n\n    /**\n     * @dev Checks if a particular asset is in the basket\n     * @param _asset   Address of bAsset to look for\n     * @return exists  bool to signal that the asset is in basket\n     * @return index   uint256 Index of the bAsset\n     */\n    function _isAssetInBasket(address _asset)\n        internal\n        view\n        returns (bool exists, uint8 index)\n    {\n        index = bAssetsMap[_asset];\n        if(index == 0) {\n            if(basket.bassets.length == 0) {\n                return (false, 0);\n            }\n            return (basket.bassets[0].addr == _asset, 0);\n        }\n        return (true, index);\n    }\n\n    /**\n     * @notice Determine whether or not a bAsset has already undergone re-collateralisation\n     * @param _status   Status of the bAsset\n     * @return          Bool to determine if undergone re-collateralisation\n     */\n    function _bAssetHasRecolled(BassetStatus _status)\n        internal\n        pure\n        returns (bool)\n    {\n        if(_status == BassetStatus.Liquidating ||\n            _status == BassetStatus.Liquidated ||\n            _status == BassetStatus.Failed) {\n            return true;\n        }\n        return false;\n    }\n\n\n    /***************************************\n                RE-COLLATERALISATION\n    ****************************************/\n    /**\n     * @dev Marks a bAsset as permanently deviated from peg\n     * @param _bAsset Address of the bAsset\n     */\n    function failBasset(address _bAsset)\n        external\n    {\n        (bool exists, uint256 i) = _isAssetInBasket(_bAsset);\n        require(exists, \"bAsset must exist\");\n\n        BassetStatus currentStatus = basket.bassets[i].status;\n        require(\n            currentStatus == BassetStatus.BrokenBelowPeg ||\n            currentStatus == BassetStatus.BrokenAbovePeg,\n            \"bAsset must be affected\"\n        );\n        basket.failed = true;\n    }\n\n    function paused() override external view returns (bool) {\n        return false;\n    }\n\n///////////////////////////\n\n    // address[] public _tokenList;\n    // mapping(address => uint256) customAssetMap;\n\n    // CustomAsset[] public tokenList;\n\n    // // token\n    // function create(string memory name, string memory symbol, PreToken[] preTokens) external returns (CustomAsset){\n    //     CustomAsset customAsset = CustomAsset(name, symbol, preTokens);\n    //     return customAsset;\n    // }\n\n    // // token\n    // function mint(address coin, uint256 amount) external returns (address, uint256){\n    //     // \n    //     return (coin, amount);\n    // }\n\n    // // token\n    // function redeem(address coin, uint256 amount) external returns (uint, uint256){\n    //     // coin\n    //     return (coin, amount);\n    // }\n\n    // function tokenList() external view returns (string[] memory, string[] memory, address[] memory){\n\n    //     uint _length = _tokenList.length\n\n    //     string[]  memory names = new string[](_length);\n    //     string[]  memory symbols = new string[](_length);\n    //     address[] memory targets = new string[](_length);\n\n    //     for (uint i=0; i < _length; i++) {\n    //         address addr = _tokenList[i]\n    //         names[i] = customAssetMap[addr].name\n    //         symbols[i] = customAssetMap[addr].symbol\n    //         targets[i] = customAssetMap[addr].target\n    //     }\n\n    //   return (names, symbols, targets);\n\n    // }\n}",
  "sourcePath": "/Users/zhangxuesong/mysoft/defi/XStableDollar-contracts/stabledollar/contracts/DataManager.sol",
  "compiler": {
    "name": "solc",
    "version": "0.6.12+commit.27d51765.Emscripten.clang"
  },
  "schemaVersion": "3.3.2",
  "updatedAt": "2020-11-14T12:17:36.902Z",
  "devdoc": {
    "kind": "dev",
    "methods": {
      "addBasset(address,address,bool)": {
        "details": "External func to allow the Governor to conduct add operations on the Basket",
        "params": {
          "_bAsset": "Address of the ERC20 token to add to the Basket",
          "_integration": "Address of the vault integration to deposit and withdraw",
          "_isTransferFeeCharged": "Bool - are transfer fees charged on this bAsset"
        },
        "returns": {
          "index": "               Position of the bAsset in the Basket"
        }
      },
      "collectInterest()": {
        "details": "Called by mAsset to calculate how much interest has been generated in the basket      and withdraw it. Cycles through the connected platforms to check the balances.",
        "returns": {
          "gains": "              Array of bAsset units gained",
          "interestCollected": "  Total amount of interest collected, in mAsset terms"
        }
      },
      "decreaseVaultBalance(uint8,address,uint256)": {
        "details": "Called by mAsset after redeeming tokens. Simply reduce the balance in the vault",
        "params": {
          "_bAssetIndex": "Index of the bAsset",
          "_decreaseAmount": "Units withdrawn"
        }
      },
      "decreaseVaultBalances(uint8[],address[],uint256[])": {
        "details": "Called by mAsset after redeeming tokens. Simply reduce the balance in the vault",
        "params": {
          "_bAssetIndices": "Array of bAsset indexes",
          "_decreaseAmount": "Units withdrawn"
        }
      },
      "failBasset(address)": {
        "details": "Marks a bAsset as permanently deviated from peg",
        "params": {
          "_bAsset": "Address of the bAsset"
        }
      },
      "getBasket()": {
        "details": "Get basket details for `MassetStructs.Basket`",
        "returns": {
          "b": "  Basket struct"
        }
      },
      "getBasset(address)": {
        "details": "Get data for a specific bAsset, if it exists",
        "params": {
          "_bAsset": "Address of bAsset"
        },
        "returns": {
          "bAsset": " Struct with full bAsset data"
        }
      },
      "getBassetIntegrator(address)": {
        "details": "Get current integrator for a specific bAsset, if it exists",
        "params": {
          "_bAsset": "Address of bAsset"
        },
        "returns": {
          "integrator": " Address of current integrator"
        }
      },
      "getBassets()": {
        "details": "Get data for a all bAssets in basket",
        "returns": {
          "bAssets": " Struct[] with full bAsset data",
          "len": "     Number of bAssets in the Basket"
        }
      },
      "increaseVaultBalance(uint8,address,uint256)": {
        "details": "Called by only mAsset, and only when the basket is healthy, to add units to      storage after they have been deposited into the vault",
        "params": {
          "_bAssetIndex": "Index of the bAsset",
          "_increaseAmount": "Units deposited"
        }
      },
      "increaseVaultBalances(uint8[],address[],uint256[])": {
        "details": "Called by only mAsset, and only when the basket is healthy, to add units to      storage after they have been deposited into the vault",
        "params": {
          "_bAssetIndices": "Array of bAsset indexes",
          "_increaseAmount": "Units deposited"
        }
      },
      "initialize(address,address[],address[],uint256[],bool[])": {
        "details": "Initialization function for upgradable proxy contract.      This function should be called via Proxy just after contract deployment.",
        "params": {
          "_bAssets": "Array of erc20 bAsset addresses",
          "_hasTransferFees": "Bool signifying if this bAsset has xfer fees",
          "_integrators": "Matching array of the platform intergations for bAssets",
          "_mAsset": "Address of the mAsset whose Basket to manage",
          "_weights": "Weightings of each bAsset, summing to 1e18"
        }
      },
      "prepareForgeBassets(address[],uint256[],bool)": {
        "details": "Prepare given bAsset addresses for Forging. Currently returns integrator      and essential minting info for each bAsset",
        "params": {
          "_bAssets": "Array of bAsset addresses with which to forge"
        },
        "returns": {
          "props": "    Struct of all relevant Forge information"
        }
      },
      "prepareRedeemMulti()": {
        "details": "Prepare given bAsset addresses for RedeemMulti. Currently returns integrator      and essential minting info for each bAsset",
        "returns": {
          "props": "    Struct of all relevant Forge information"
        }
      },
      "removeBasset(address)": {
        "details": "Removes a specific Asset from the Basket, given that its target/collateral      level is already 0, throws if invalid.",
        "params": {
          "_assetToRemove": "The asset to remove from the basket"
        }
      },
      "setBasketWeights(address[],uint256[])": {
        "details": "External call for the governor to set weightings of all bAssets",
        "params": {
          "_bAssets": "Array of bAsset addresses",
          "_weights": "Array of bAsset weights - summing 100% where 100% == 1e18"
        }
      },
      "setTransferFeesFlag(address,bool)": {
        "details": "Update transfer fee flag for a given bAsset, should it change its fee practice",
        "params": {
          "_bAsset": "bAsset address",
          "_flag": "Charge transfer fee when its set to 'true', otherwise 'false'"
        }
      }
    },
    "version": 1
  },
  "userdoc": {
    "kind": "user",
    "methods": {
      "prepareForgeBasset(address,uint256,bool)": {
        "notice": "Prepare given bAsset for Forging. Currently returns integrator      and essential minting info. _bAsset    Address of the bAsset props     Struct of all relevant Forge information"
      }
    },
    "notice": "DataManager",
    "version": 1
  }
}