{
  "contractName": "ForgeValidator",
  "abi": [
    {
      "inputs": [
        {
          "internalType": "uint256",
          "name": "_totalVault",
          "type": "uint256"
        },
        {
          "components": [
            {
              "internalType": "address",
              "name": "addr",
              "type": "address"
            },
            {
              "internalType": "enum TokenStructs.BassetStatus",
              "name": "status",
              "type": "uint8"
            },
            {
              "internalType": "bool",
              "name": "isTransferFeeCharged",
              "type": "bool"
            },
            {
              "internalType": "uint256",
              "name": "ratio",
              "type": "uint256"
            },
            {
              "internalType": "uint256",
              "name": "maxWeight",
              "type": "uint256"
            },
            {
              "internalType": "uint256",
              "name": "vaultBalance",
              "type": "uint256"
            }
          ],
          "internalType": "struct TokenStructs.Basset",
          "name": "_bAsset",
          "type": "tuple"
        },
        {
          "internalType": "uint256",
          "name": "_bAssetQuantity",
          "type": "uint256"
        }
      ],
      "name": "validateMint",
      "outputs": [
        {
          "internalType": "bool",
          "name": "isValid",
          "type": "bool"
        },
        {
          "internalType": "string",
          "name": "reason",
          "type": "string"
        }
      ],
      "stateMutability": "pure",
      "type": "function"
    },
    {
      "inputs": [
        {
          "internalType": "uint256",
          "name": "_totalVault",
          "type": "uint256"
        },
        {
          "components": [
            {
              "internalType": "address",
              "name": "addr",
              "type": "address"
            },
            {
              "internalType": "enum TokenStructs.BassetStatus",
              "name": "status",
              "type": "uint8"
            },
            {
              "internalType": "bool",
              "name": "isTransferFeeCharged",
              "type": "bool"
            },
            {
              "internalType": "uint256",
              "name": "ratio",
              "type": "uint256"
            },
            {
              "internalType": "uint256",
              "name": "maxWeight",
              "type": "uint256"
            },
            {
              "internalType": "uint256",
              "name": "vaultBalance",
              "type": "uint256"
            }
          ],
          "internalType": "struct TokenStructs.Basset[]",
          "name": "_bAssets",
          "type": "tuple[]"
        },
        {
          "internalType": "uint256[]",
          "name": "_bAssetQuantities",
          "type": "uint256[]"
        }
      ],
      "name": "validateMintMulti",
      "outputs": [
        {
          "internalType": "bool",
          "name": "isValid",
          "type": "bool"
        },
        {
          "internalType": "string",
          "name": "reason",
          "type": "string"
        }
      ],
      "stateMutability": "pure",
      "type": "function"
    },
    {
      "inputs": [
        {
          "internalType": "uint256",
          "name": "_totalVault",
          "type": "uint256"
        },
        {
          "components": [
            {
              "internalType": "address",
              "name": "addr",
              "type": "address"
            },
            {
              "internalType": "enum TokenStructs.BassetStatus",
              "name": "status",
              "type": "uint8"
            },
            {
              "internalType": "bool",
              "name": "isTransferFeeCharged",
              "type": "bool"
            },
            {
              "internalType": "uint256",
              "name": "ratio",
              "type": "uint256"
            },
            {
              "internalType": "uint256",
              "name": "maxWeight",
              "type": "uint256"
            },
            {
              "internalType": "uint256",
              "name": "vaultBalance",
              "type": "uint256"
            }
          ],
          "internalType": "struct TokenStructs.Basset",
          "name": "_inputBasset",
          "type": "tuple"
        },
        {
          "components": [
            {
              "internalType": "address",
              "name": "addr",
              "type": "address"
            },
            {
              "internalType": "enum TokenStructs.BassetStatus",
              "name": "status",
              "type": "uint8"
            },
            {
              "internalType": "bool",
              "name": "isTransferFeeCharged",
              "type": "bool"
            },
            {
              "internalType": "uint256",
              "name": "ratio",
              "type": "uint256"
            },
            {
              "internalType": "uint256",
              "name": "maxWeight",
              "type": "uint256"
            },
            {
              "internalType": "uint256",
              "name": "vaultBalance",
              "type": "uint256"
            }
          ],
          "internalType": "struct TokenStructs.Basset",
          "name": "_outputBasset",
          "type": "tuple"
        },
        {
          "internalType": "uint256",
          "name": "_quantity",
          "type": "uint256"
        }
      ],
      "name": "validateSwap",
      "outputs": [
        {
          "internalType": "bool",
          "name": "isValid",
          "type": "bool"
        },
        {
          "internalType": "string",
          "name": "reason",
          "type": "string"
        },
        {
          "internalType": "uint256",
          "name": "output",
          "type": "uint256"
        },
        {
          "internalType": "bool",
          "name": "applySwapFee",
          "type": "bool"
        }
      ],
      "stateMutability": "pure",
      "type": "function"
    },
    {
      "inputs": [
        {
          "internalType": "bool",
          "name": "_basketIsFailed",
          "type": "bool"
        },
        {
          "internalType": "uint256",
          "name": "_totalVault",
          "type": "uint256"
        },
        {
          "components": [
            {
              "internalType": "address",
              "name": "addr",
              "type": "address"
            },
            {
              "internalType": "enum TokenStructs.BassetStatus",
              "name": "status",
              "type": "uint8"
            },
            {
              "internalType": "bool",
              "name": "isTransferFeeCharged",
              "type": "bool"
            },
            {
              "internalType": "uint256",
              "name": "ratio",
              "type": "uint256"
            },
            {
              "internalType": "uint256",
              "name": "maxWeight",
              "type": "uint256"
            },
            {
              "internalType": "uint256",
              "name": "vaultBalance",
              "type": "uint256"
            }
          ],
          "internalType": "struct TokenStructs.Basset[]",
          "name": "_allBassets",
          "type": "tuple[]"
        },
        {
          "internalType": "uint8[]",
          "name": "_indices",
          "type": "uint8[]"
        },
        {
          "internalType": "uint256[]",
          "name": "_bAssetQuantities",
          "type": "uint256[]"
        }
      ],
      "name": "validateRedemption",
      "outputs": [
        {
          "internalType": "bool",
          "name": "",
          "type": "bool"
        },
        {
          "internalType": "string",
          "name": "",
          "type": "string"
        },
        {
          "internalType": "bool",
          "name": "",
          "type": "bool"
        }
      ],
      "stateMutability": "pure",
      "type": "function"
    },
    {
      "inputs": [
        {
          "internalType": "uint256",
          "name": "_mAssetQuantity",
          "type": "uint256"
        },
        {
          "components": [
            {
              "internalType": "address",
              "name": "addr",
              "type": "address"
            },
            {
              "internalType": "enum TokenStructs.BassetStatus",
              "name": "status",
              "type": "uint8"
            },
            {
              "internalType": "bool",
              "name": "isTransferFeeCharged",
              "type": "bool"
            },
            {
              "internalType": "uint256",
              "name": "ratio",
              "type": "uint256"
            },
            {
              "internalType": "uint256",
              "name": "maxWeight",
              "type": "uint256"
            },
            {
              "internalType": "uint256",
              "name": "vaultBalance",
              "type": "uint256"
            }
          ],
          "internalType": "struct TokenStructs.Basset[]",
          "name": "_allBassets",
          "type": "tuple[]"
        }
      ],
      "name": "calculateRedemptionMulti",
      "outputs": [
        {
          "internalType": "bool",
          "name": "",
          "type": "bool"
        },
        {
          "internalType": "string",
          "name": "",
          "type": "string"
        },
        {
          "internalType": "uint256[]",
          "name": "",
          "type": "uint256[]"
        }
      ],
      "stateMutability": "pure",
      "type": "function"
    }
  ],
  "bytecode": "0x608060405234801561001057600080fd5b506121aa806100206000396000f3fe608060405234801561001057600080fd5b50600436106100575760003560e01c80630201e2d01461005c5780634566eb091461008e5780638da25c09146100bf5780638fb1860b146100f2578063df95633514610124575b600080fd5b61007660048036038101906100719190611a0a565b610155565b60405161008593929190611d7b565b60405180910390f35b6100a860048036038101906100a39190611a62565b6104c7565b6040516100b6929190611d4b565b60405180910390f35b6100d960048036038101906100d49190611aeb565b61079d565b6040516100e99493929190611dfe565b60405180910390f35b61010c600480360381019061010791906118ec565b6109e4565b60405161011b93929190611dc0565b60405180910390f35b61013e60048036038101906101399190611b50565b610e61565b60405161014c929190611d4b565b60405180910390f35b6000606080600085859050905060608167ffffffffffffffff8111801561017b57600080fd5b506040519080825280602002602001820160405280156101aa5781602001602082028036833780820191505090505b50905060608267ffffffffffffffff811180156101c657600080fd5b506040519080825280602002602001820160405280156101f55781602001602082028036833780820191505090505b5090506000805b8481101561035f576004600781111561021157fe5b8a8a8381811061021d57fe5b905060c00201602001602081019061023591906119b8565b600781111561024057fe5b1415610273576000846040518060600160405280602281526020016120cd602291399097509750975050505050506104be565b6005600781111561028057fe5b8a8a8381811061028c57fe5b905060c0020160200160208101906102a491906119b8565b60078111156102af57fe5b14156102e257600084604051806060016040528060228152602001612034602291399097509750975050505050506104be565b60006103218b8b848181106102f357fe5b905060c00201606001358c8c8581811061030957fe5b905060c0020160a0013561100790919063ffffffff16565b90508084838151811061033057fe5b60200260200101818152505061034f818461102090919063ffffffff16565b92505080806001019150506101fc565b5060008114156103b2576000836040518060400160405280601f81526020017f4e6f7468696e6720696e20746865206261736b657420746f2072656465656d0081525090965096509650505050506104be565b808a1115610403576000836040518060400160405280601481526020017f4e6f7420656e6f756768206c697175696469747900000000000000000000000081525090965096509650505050506104be565b60005b8481101561049e5760006104368385848151811061042057fe5b602002602001015161107590919063ffffffff16565b9050600061044d828e6110b190919063ffffffff16565b90506104778c8c8581811061045e57fe5b905060c0020160600135826110ce90919063ffffffff16565b86848151811061048357fe5b60200260200101818152505050508080600101915050610406565b506001836040518060200160405280600081525090965096509650505050505b93509350939050565b60006060600086869050905084849050811461051f5760006040518060400160405280601c81526020017f496e707574206c656e6774682073686f756c6420626520657175616c000000008152509250925050610793565b60608167ffffffffffffffff8111801561053857600080fd5b506040519080825280602002602001820160405280156105675781602001602082028036833780820191505090505b509050600089905060005b838110156106ee5761058261165b565b8a8a8381811061058e57fe5b905060c002018036038101906105a491906119e1565b9050600081602001519050600260078111156105bc57fe5b8160078111156105c857fe5b14806105ea5750600560078111156105dc57fe5b8160078111156105e857fe5b145b8061060b5750600460078111156105fd57fe5b81600781111561060957fe5b145b156106575760006040518060400160405280601a81526020017f624173736574206e6f7420616c6c6f77656420696e206d696e7400000000000081525097509750505050505050610793565b600061068283606001518c8c8781811061066d57fe5b9050602002013561100790919063ffffffff16565b90506106b1816106a385606001518660a0015161100790919063ffffffff16565b61102090919063ffffffff16565b8685815181106106bd57fe5b6020026020010181815250506106dc818661102090919063ffffffff16565b94505050508080600101915050610572565b5060005b838110156107785760006107248b8b8481811061070b57fe5b905060c0020160800135846110b190919063ffffffff16565b90508084838151811061073357fe5b6020026020010151111561076a5760006040518060600160405280603381526020016120ef60339139965096505050505050610793565b5080806001019150506106f2565b50600160405180602001604052806000815250945094505050505b9550959350505050565b60006060600080600160078111156107b157fe5b8760200160208101906107c491906119b8565b60078111156107cf57fe5b1415806108055750600160078111156107e457fe5b8660200160208101906107f791906119b8565b600781111561080257fe5b14155b156108545760008060006040518060400160405280601a81526020017f624173736574206e6f7420616c6c6f77656420696e2073776170000000000000815250919093509350935093506109d9565b600061086d88606001358761100790919063ffffffff16565b905060006108888860600135836110ce90919063ffffffff16565b90508760a001358111156108e25760008060006040518060400160405280601481526020017f4e6f7420656e6f756768206c69717569646974790000000000000000000000008152509190955095509550955050506109d9565b60019250600061090389606001358a60a0013561100790919063ffffffff16565b9050600061091e8a608001358d6110b190919063ffffffff16565b90508082111561092d57600094505b600061095c8561094e8e606001358f60a0013561100790919063ffffffff16565b61102090919063ffffffff16565b905060006109778d608001358f6110b190919063ffffffff16565b9050808211156109b45760008060006040518060600160405280602581526020016120a860259139919099509950995099505050505050506109d9565b6001858860405180602001604052806000815250919099509950995099505050505050505b945094509450949050565b60006060600080878790509050858590508114610a2457600080604051806060016040528060238152602001612122602391399093509350935050610e53565b610a2c6116b4565b610a8c8c8c8c808060200260200160405190810160405280939291908181526020016000905b82821015610a8257848483905060c00201803603810190610a7391906119e1565b81526020019060010190610a52565b5050505050611106565b90508060000151610aad576000816020015160009450945094505050610e53565b8c80610aba575080604001515b15610b06576000806040518060400160405280601b81526020017f4d7573742072656465656d2070726f706f7274696f6e6174656c790000000000815250909450945094505050610e53565b8181606001511115610b3c576000806040518060600160405280602e815260200161207a602e9139909450945094505050610e53565b60008c905060005b83811015610cd65760008b8b83818110610b5a57fe5b9050602002016020810190610b6f9190611ba0565b90508d8d90508160ff1610610bc8576000806040518060400160405280601581526020017f42617373657420646f6573206e6f742065786973740000000000000000000000815250909750975097505050505050610e53565b610bd061165b565b8e8e8360ff16818110610bdf57fe5b905060c00201803603810190610bf591906119e1565b905060008b8b85818110610c0557fe5b9050602002013590508160a00151811115610c4957600080604051806060016040528060308152602001612145603091399099509950995050505050505050610e53565b6000610c6283606001518361100790919063ffffffff16565b9050610c91818860a001518660ff1681518110610c7b57fe5b60200260200101516113c590919063ffffffff16565b8760a001518560ff1681518110610ca457fe5b602002602001018181525050610cc381876113c590919063ffffffff16565b9550505050508080600101915050610b44565b506000610d43828e8e808060200260200160405190810160405280939291908181526020016000905b82821015610d2f57848483905060c00201803603810190610d2091906119e1565b81526020019060010190610cff565b50505050508560a00151866080015161140f565b9050600060019050600084606001511115610e005760005b85811015610dfa5784608001518d8d83818110610d7457fe5b9050602002016020810190610d899190611ba0565b60ff1681518110610d9657fe5b6020026020010151610ded576000806040518060400160405280601e81526020017f4d7573742072656465656d206f7665727765696768742062417373657473000081525090985098509850505050505050610e53565b8080600101915050610d5b565b50600090505b8115610e335760008060405180606001604052806024815260200161205660249139909750975097505050505050610e53565b600181604051806020016040528060008152509097509750975050505050505b985098509895505050505050565b6000606060026007811115610e7257fe5b846020016020810190610e8591906119b8565b6007811115610e9057fe5b1480610ec4575060056007811115610ea457fe5b846020016020810190610eb791906119b8565b6007811115610ec257fe5b145b80610ef7575060046007811115610ed757fe5b846020016020810190610eea91906119b8565b6007811115610ef557fe5b145b15610f3d5760006040518060400160405280601a81526020017f624173736574206e6f7420616c6c6f77656420696e206d696e7400000000000081525091509150610fff565b6000610f5685606001358561100790919063ffffffff16565b90506000610f8782610f7988606001358960a0013561100790919063ffffffff16565b61102090919063ffffffff16565b90506000610fb48760800135610fa6858b61102090919063ffffffff16565b6110b190919063ffffffff16565b905080821115610fe55760006040518060600160405280603381526020016120ef6033913994509450505050610fff565b600160405180602001604052806000815250945094505050505b935093915050565b600061101883836305f5e1006114b0565b905092915050565b60008082840190508381101561106b576040517f08c379a000000000000000000000000000000000000000000000000000000000815260040161106290611e6c565b60405180910390fd5b8091505092915050565b600080611093670de0b6b3a7640000856114e590919063ffffffff16565b90506110a8838261155590919063ffffffff16565b91505092915050565b60006110c68383670de0b6b3a76400006114b0565b905092915050565b6000806110e86305f5e100856114e590919063ffffffff16565b90506110fd838261155590919063ffffffff16565b91505092915050565b61110e6116b4565b6000825190506040518060c00160405280600115158152602001604051806020016040528060008152508152602001600015158152602001600081526020018267ffffffffffffffff8111801561116457600080fd5b506040519080825280602002602001820160405280156111935781602001602082028036833780820191505090505b5081526020018267ffffffffffffffff811180156111b057600080fd5b506040519080825280602002602001820160405280156111df5781602001602082028036833780820191505090505b50815250915060005b818110156113bc5760008482815181106111fe57fe5b60200260200101516020015190506004600781111561121957fe5b81600781111561122557fe5b14156112655760008460000190151590811515815250506040518060600160405280602281526020016120cd6022913984602001819052505050506113bf565b6005600781111561127257fe5b81600781111561127e57fe5b14806112a057506002600781111561129257fe5b81600781111561129e57fe5b145b806112c15750600360078111156112b357fe5b8160078111156112bf57fe5b145b156112d85760018460400190151590811515815250505b600061131b8684815181106112e957fe5b60200260200101516060015187858151811061130157fe5b602002602001015160a0015161100790919063ffffffff16565b9050808560a00151848151811061132e57fe5b602002602001018181525050600061136687858151811061134b57fe5b602002602001015160800151896110b190919063ffffffff16565b90506000818311905080156113ab5760018760800151868151811061138757fe5b60200260200101901515908115158152505060018760600181815101915081815250505b5050505080806001019150506111e8565b50505b92915050565b600061140783836040518060400160405280601e81526020017f536166654d6174683a207375627472616374696f6e206f766572666c6f77000081525061159f565b905092915050565b6000808351905060005b818110156114a657600061144d87838151811061143257fe5b602002602001015160800151896110b190919063ffffffff16565b905060008187848151811061145e57fe5b6020026020010151119050600086848151811061147757fe5b60200260200101511580156114895750815b905085806114945750805b95505050508080600101915050611419565b5050949350505050565b6000806114c684866114e590919063ffffffff16565b90506114db838261155590919063ffffffff16565b9150509392505050565b6000808314156114f8576000905061154f565b600082840290508284828161150957fe5b041461154a576040517f08c379a000000000000000000000000000000000000000000000000000000000815260040161154190611e8c565b60405180910390fd5b809150505b92915050565b600061159783836040518060400160405280601a81526020017f536166654d6174683a206469766973696f6e206279207a65726f0000000000008152506115fa565b905092915050565b60008383111582906115e7576040517f08c379a00000000000000000000000000000000000000000000000000000000081526004016115de9190611e4a565b60405180910390fd5b5060008385039050809150509392505050565b60008083118290611641576040517f08c379a00000000000000000000000000000000000000000000000000000000081526004016116389190611e4a565b60405180910390fd5b50600083858161164d57fe5b049050809150509392505050565b6040518060c00160405280600073ffffffffffffffffffffffffffffffffffffffff1681526020016000600781111561169057fe5b81526020016000151581526020016000815260200160008152602001600081525090565b6040518060c00160405280600015158152602001606081526020016000151581526020016000815260200160608152602001606081525090565b6000813590506116fd81611fc7565b92915050565b60008083601f84011261171557600080fd5b8235905067ffffffffffffffff81111561172e57600080fd5b6020830191508360c082028301111561174657600080fd5b9250929050565b60008083601f84011261175f57600080fd5b8235905067ffffffffffffffff81111561177857600080fd5b60208301915083602082028301111561179057600080fd5b9250929050565b60008083601f8401126117a957600080fd5b8235905067ffffffffffffffff8111156117c257600080fd5b6020830191508360208202830111156117da57600080fd5b9250929050565b6000813590506117f081611fde565b92915050565b60008135905061180581611ff5565b92915050565b600060c0828403121561181d57600080fd5b81905092915050565b600060c0828403121561183857600080fd5b61184260c0611eac565b90506000611852848285016116ee565b6000830152506020611866848285016117f6565b602083015250604061187a848285016117e1565b604083015250606061188e848285016118c2565b60608301525060806118a2848285016118c2565b60808301525060a06118b6848285016118c2565b60a08301525092915050565b6000813590506118d181612005565b92915050565b6000813590506118e68161201c565b92915050565b60008060008060008060008060a0898b03121561190857600080fd5b60006119168b828c016117e1565b98505060206119278b828c016118c2565b975050604089013567ffffffffffffffff81111561194457600080fd5b6119508b828c01611703565b9650965050606089013567ffffffffffffffff81111561196f57600080fd5b61197b8b828c01611797565b9450945050608089013567ffffffffffffffff81111561199a57600080fd5b6119a68b828c0161174d565b92509250509295985092959890939650565b6000602082840312156119ca57600080fd5b60006119d8848285016117f6565b91505092915050565b600060c082840312156119f357600080fd5b6000611a0184828501611826565b91505092915050565b600080600060408486031215611a1f57600080fd5b6000611a2d868287016118c2565b935050602084013567ffffffffffffffff811115611a4a57600080fd5b611a5686828701611703565b92509250509250925092565b600080600080600060608688031215611a7a57600080fd5b6000611a88888289016118c2565b955050602086013567ffffffffffffffff811115611aa557600080fd5b611ab188828901611703565b9450945050604086013567ffffffffffffffff811115611ad057600080fd5b611adc8882890161174d565b92509250509295509295909350565b6000806000806101c08587031215611b0257600080fd5b6000611b10878288016118c2565b9450506020611b218782880161180b565b93505060e0611b328782880161180b565b9250506101a0611b44878288016118c2565b91505092959194509250565b60008060006101008486031215611b6657600080fd5b6000611b74868287016118c2565b9350506020611b858682870161180b565b92505060e0611b96868287016118c2565b9150509250925092565b600060208284031215611bb257600080fd5b6000611bc0848285016118d7565b91505092915050565b6000611bd58383611d2d565b60208301905092915050565b6000611bec82611ee9565b611bf68185611f0c565b9350611c0183611ed9565b8060005b83811015611c32578151611c198882611bc9565b9750611c2483611eff565b925050600181019050611c05565b5085935050505092915050565b611c4881611f40565b82525050565b6000611c5982611ef4565b611c638185611f1d565b9350611c73818560208601611f83565b611c7c81611fb6565b840191505092915050565b6000611c94601b83611f1d565b91507f536166654d6174683a206164646974696f6e206f766572666c6f7700000000006000830152602082019050919050565b6000611cd4602183611f1d565b91507f536166654d6174683a206d756c7469706c69636174696f6e206f766572666c6f60008301527f77000000000000000000000000000000000000000000000000000000000000006020830152604082019050919050565b611d3681611f6c565b82525050565b611d4581611f6c565b82525050565b6000604082019050611d606000830185611c3f565b8181036020830152611d728184611c4e565b90509392505050565b6000606082019050611d906000830186611c3f565b8181036020830152611da28185611c4e565b90508181036040830152611db68184611be1565b9050949350505050565b6000606082019050611dd56000830186611c3f565b8181036020830152611de78185611c4e565b9050611df66040830184611c3f565b949350505050565b6000608082019050611e136000830187611c3f565b8181036020830152611e258186611c4e565b9050611e346040830185611d3c565b611e416060830184611c3f565b95945050505050565b60006020820190508181036000830152611e648184611c4e565b905092915050565b60006020820190508181036000830152611e8581611c87565b9050919050565b60006020820190508181036000830152611ea581611cc7565b9050919050565b6000604051905081810181811067ffffffffffffffff82111715611ecf57600080fd5b8060405250919050565b6000819050602082019050919050565b600081519050919050565b600081519050919050565b6000602082019050919050565b600082825260208201905092915050565b600082825260208201905092915050565b6000611f3982611f4c565b9050919050565b60008115159050919050565b600073ffffffffffffffffffffffffffffffffffffffff82169050919050565b6000819050919050565b600060ff82169050919050565b60005b83811015611fa1578082015181840152602081019050611f86565b83811115611fb0576000848401525b50505050565b6000601f19601f8301169050919050565b611fd081611f2e565b8114611fdb57600080fd5b50565b611fe781611f40565b8114611ff257600080fd5b50565b6008811061200257600080fd5b50565b61200e81611f6c565b811461201957600080fd5b50565b61202581611f76565b811461203057600080fd5b5056fe4261736b657420636f6e7461696e73206c69717569646174696e672062417373657462417373657473206d7573742072656d61696e2062656c6f77206d617820776569676874526564656d7074696f6e206d75737420636f6e7461696e20616c6c206f7665727765696768742062417373657473496e707574206d7573742072656d61696e2062656c6f77206d617820776569676874696e674261736b657420636f6e7461696e7320626c61636b6c69737465642062417373657462417373657473207573656420696e206d696e742063616e6e6f7420657863656564207468656972206d617820776569676874496e70757420617272617973206d757374206861766520657175616c206c656e67746843616e6e6f742072656465656d206d6f72652062417373657473207468616e2061726520696e20746865207661756c74a2646970667358221220d4098ba0a6db50597301fa72a49119be0b575687cce847f43273ee4aa7a4c56b64736f6c634300060c0033",
  "immutableReferences": {},
  "source": "// SPDX-License-Identifier: SimPL-2.0\npragma solidity 0.6.12;\npragma experimental ABIEncoderV2;\n\nimport { IForgeValidator, TokenStructs } from \"./IForgeValidator.sol\";\nimport { StableMath } from \"../shared/StableMath.sol\";\nimport { SafeMath } from \"@openzeppelin/contracts/math/SafeMath.sol\";\n\n/**\n * @title   ForgeValidator\n * @author  Stability Labs Pty. Ltd.\n * @notice  Calculates whether or not minting or redemption is valid, based\n *          on how it affects the underlying basket collateral weightings\n * @dev     VERSION: 1.1\n *          DATE:    2020-06-22\n */\ncontract ForgeValidator is IForgeValidator {\n\n    using SafeMath for uint256;\n    using StableMath for uint256;\n\n    /***************************************\n                    MINT\n    ****************************************/\n\n    /**\n     * @notice Checks whether a given mint is valid and returns the result\n     * @dev Is the resulting weighting of the max bAsset beyond it's implicit max weight?\n     * Max weight is determined as max weight (in units)\n     * @param _totalVault       Current sum of basket collateral\n     * @param _bAsset           Struct containing relevant data on the bAsset\n     * @param _bAssetQuantity   Number of bAsset units that will be used to mint\n     * @return isValid          Bool to signify that the mint does not move our weightings the wrong way\n     * @return reason           If the mint is invalid, this is the reason\n     */\n    function validateMint(\n        uint256 _totalVault,\n        Basset calldata _bAsset,\n        uint256 _bAssetQuantity\n    )\n        override\n        external\n        pure\n        returns (bool isValid, string memory reason)\n    {\n        if(\n            _bAsset.status == BassetStatus.BrokenBelowPeg ||\n            _bAsset.status == BassetStatus.Liquidating ||\n            _bAsset.status == BassetStatus.Blacklisted\n        ) {\n            return (false, \"bAsset not allowed in mint\");\n        }\n\n        // How much mAsset is this _bAssetQuantity worth?\n        uint256 mintAmountInMasset = _bAssetQuantity.mulRatioTruncate(_bAsset.ratio);\n        // How much of this bAsset do we have in the vault, in terms of mAsset?\n        uint256 newBalanceInMasset = _bAsset.vaultBalance.mulRatioTruncate(_bAsset.ratio).add(mintAmountInMasset);\n        // What is the max weight of this bAsset in the basket?\n        uint256 maxWeightInUnits = (_totalVault.add(mintAmountInMasset)).mulTruncate(_bAsset.maxWeight);\n\n        if(newBalanceInMasset > maxWeightInUnits) {\n            return (false, \"bAssets used in mint cannot exceed their max weight\");\n        }\n\n        return (true, \"\");\n    }\n\n    /**\n     * @notice Checks whether a given mint using more than one asset is valid and returns the result\n     * @dev Is the resulting weighting of the max bAssets beyond their implicit max weight?\n     * Max weight is determined as max weight (in units)\n     * @param _totalVault       Current sum of basket collateral\n     * @param _bAssets          Array of Struct containing relevant data on the bAssets\n     * @param _bAssetQuantities Number of bAsset units that will be used to mint (aligned with above)\n     * @return isValid          Bool to signify that the mint does not move our weightings the wrong way\n     * @return reason           If the mint is invalid, this is the reason\n     */\n    function validateMintMulti(\n        uint256 _totalVault,\n        Basset[] calldata _bAssets,\n        uint256[] calldata _bAssetQuantities\n    )   \n        override\n        external\n        pure\n        returns (bool isValid, string memory reason)\n    {\n        uint256 bAssetCount = _bAssets.length;\n        if(bAssetCount != _bAssetQuantities.length) return (false, \"Input length should be equal\");\n\n        uint256[] memory newBalances = new uint256[](bAssetCount);\n        uint256 newTotalVault = _totalVault;\n\n        // Theoretically add the mint quantities to the vault\n        for(uint256 j = 0; j < bAssetCount; j++){\n            Basset memory b = _bAssets[j];\n            BassetStatus bAssetStatus = b.status;\n\n            if(\n                bAssetStatus == BassetStatus.BrokenBelowPeg ||\n                bAssetStatus == BassetStatus.Liquidating ||\n                bAssetStatus == BassetStatus.Blacklisted\n            ) {\n                return (false, \"bAsset not allowed in mint\");\n            }\n\n            // How much mAsset is this bassetquantity worth?\n            uint256 mintAmountInMasset = _bAssetQuantities[j].mulRatioTruncate(b.ratio);\n            // How much of this bAsset do we have in the vault, in terms of mAsset?\n            newBalances[j] = b.vaultBalance.mulRatioTruncate(b.ratio).add(mintAmountInMasset);\n\n            newTotalVault = newTotalVault.add(mintAmountInMasset);\n        }\n\n        for(uint256 k = 0; k < bAssetCount; k++){\n            // What is the max weight of this bAsset in the basket?\n            uint256 maxWeightInUnits = newTotalVault.mulTruncate(_bAssets[k].maxWeight);\n\n            if(newBalances[k] > maxWeightInUnits) {\n                return (false, \"bAssets used in mint cannot exceed their max weight\");\n            }\n        }\n\n        return (true, \"\");\n    }\n\n    /***************************************\n                    SWAP\n    ****************************************/\n\n    /**\n     * @notice Checks whether a given swap is valid and calculates the output\n     * @dev Input bAsset must not exceed max weight, output bAsset must have sufficient liquidity\n     * @param _totalVault       Current sum of basket collateral\n     * @param _inputBasset      Input bAsset details\n     * @param _outputBasset     Output bAsset details\n     * @param _quantity         Number of bAsset units on the input side\n     * @return isValid          Bool to signify that the mint does not move our weightings the wrong way\n     * @return reason           If the swap is invalid, this is the reason\n     * @return output           Units of output bAsset, before fee is applied\n     * @return applySwapFee     Bool to signify that the swap fee is applied\n     */\n    function validateSwap(\n        uint256 _totalVault,\n        Basset calldata _inputBasset,\n        Basset calldata _outputBasset,\n        uint256 _quantity\n    )\n        override\n        external\n        pure\n        returns (bool isValid, string memory reason, uint256 output, bool applySwapFee)\n    {\n        if(_inputBasset.status != BassetStatus.Normal || _outputBasset.status != BassetStatus.Normal) {\n            return (false, \"bAsset not allowed in swap\", 0, false);\n        }\n\n        // How much mAsset is this _bAssetQuantity worth?\n        uint256 inputAmountInMasset = _quantity.mulRatioTruncate(_inputBasset.ratio);\n\n        // 1. Determine output bAsset valid\n        //  - Enough units in the bank\n        uint256 outputAmount = inputAmountInMasset.divRatioPrecisely(_outputBasset.ratio);\n        if(outputAmount > _outputBasset.vaultBalance) {\n            return (false, \"Not enough liquidity\", 0, false);\n        }\n\n        // 1.1. If it is currently overweight, then no fee\n        applySwapFee = true;\n        uint256 outputBalanceMasset = _outputBasset.vaultBalance.mulRatioTruncate(_outputBasset.ratio);\n        uint256 outputMaxWeightUnits = _totalVault.mulTruncate(_outputBasset.maxWeight);\n        if(outputBalanceMasset > outputMaxWeightUnits) {\n            applySwapFee = false;\n        }\n\n        // 2. Calculate input bAsset valid - If incoming basket goes above weight, then fail\n        // How much of this bAsset do we have in the vault, in terms of mAsset?\n        uint256 newInputBalanceInMasset = _inputBasset.vaultBalance.mulRatioTruncate(_inputBasset.ratio).add(inputAmountInMasset);\n        // What is the max weight of this bAsset in the basket?\n        uint256 inputMaxWeightInUnits = _totalVault.mulTruncate(_inputBasset.maxWeight);\n        if(newInputBalanceInMasset > inputMaxWeightInUnits) {\n            return (false, \"Input must remain below max weighting\", 0, false);\n        }\n\n        // 3. Return swap output\n        return (true, \"\", outputAmount, applySwapFee);\n    }\n\n\n    /***************************************\n                    REDEEM\n    ****************************************/\n\n    /**\n     * @notice Checks whether a given redemption is valid and returns the result\n     * @dev A redemption is valid if it does not push any untouched bAssets above their\n     * max weightings. In addition, if bAssets are currently above their max weight\n     * (i.e. during basket composition changes) they must be redeemed\n     * @param _basketIsFailed   Bool to suggest that the basket has failed a recollateralisation attempt\n     * @param _totalVault       Sum of collateral units in the basket\n     * @param _allBassets       Array of all bAsset information\n     * @param _indices          Indexes of the bAssets to redeem\n     * @param _bAssetQuantities Quantity of bAsset to redeem\n     * @return isValid          Bool to signify that the redemption is allowed\n     * @return reason           If the redemption is invalid, this is the reason\n     * @return feeRequired      Does this redemption require the swap fee to be applied\n     */\n    function validateRedemption(\n        bool _basketIsFailed,\n        uint256 _totalVault,\n        Basset[] calldata _allBassets,\n        uint8[] calldata _indices,\n        uint256[] calldata _bAssetQuantities\n    )\n        override\n        external\n        pure\n        returns (bool, string memory, bool)\n    {\n        uint256 idxCount = _indices.length;\n        if(idxCount != _bAssetQuantities.length) return (false, \"Input arrays must have equal length\", false);\n\n        // Get current weightings, and cache some outputs from the loop to avoid unecessary recursion\n        BasketStateResponse memory data = _getBasketState(_totalVault, _allBassets);\n        if(!data.isValid) return (false, data.reason, false);\n\n        // If the basket is in an affected state, enforce proportional redemption\n        if(\n            _basketIsFailed ||\n            data.atLeastOneBroken\n        ) {\n            return (false, \"Must redeem proportionately\", false);\n        } else if (data.overWeightCount > idxCount) {\n            return (false, \"Redemption must contain all overweight bAssets\", false);\n        }\n\n        uint256 newTotalVault = _totalVault;\n\n        // Simulate the redemption on the ratioedBassetVaults and totalSupply\n        for(uint256 i = 0; i < idxCount; i++){\n            uint8 idx = _indices[i];\n            if(idx >= _allBassets.length) return (false, \"Basset does not exist\", false);\n\n            Basset memory bAsset = _allBassets[idx];\n            uint256 quantity = _bAssetQuantities[i];\n            if(quantity > bAsset.vaultBalance) return (false, \"Cannot redeem more bAssets than are in the vault\", false);\n\n            // Calculate ratioed redemption amount in mAsset terms\n            uint256 ratioedRedemptionAmount = quantity.mulRatioTruncate(bAsset.ratio);\n            // Subtract ratioed redemption amount from both vault and total supply\n            data.ratioedBassetVaults[idx] = data.ratioedBassetVaults[idx].sub(ratioedRedemptionAmount);\n\n            newTotalVault = newTotalVault.sub(ratioedRedemptionAmount);\n        }\n\n        // Get overweight after\n        bool atLeastOneBecameOverweight =\n            _getOverweightBassetsAfter(newTotalVault, _allBassets, data.ratioedBassetVaults, data.isOverWeight);\n\n        bool applySwapFee = true;\n        // If there are any bAssets overweight, we must redeem them all\n        if(data.overWeightCount > 0) {\n            for(uint256 j = 0; j < idxCount; j++) {\n                if(!data.isOverWeight[_indices[j]]) return (false, \"Must redeem overweight bAssets\", false);\n            }\n            applySwapFee = false;\n        }\n        // Since no bAssets were overweight before, if one becomes overweight, throw\n        if(atLeastOneBecameOverweight) return (false, \"bAssets must remain below max weight\", false);\n\n        return (true, \"\", applySwapFee);\n    }\n\n    /**\n     * @notice Calculates the relative quantities of bAssets to redeem, with current basket state\n     * @dev Sum the value of the bAssets, and then find the proportions relative to the desired\n     * mAsset quantity.\n     * @param _mAssetQuantity   Quantity of mAsset to redeem\n     * @param _allBassets       Array of all bAsset information\n     * @return isValid          Bool to signify that the redemption is allowed\n     * @return reason           If the redemption is invalid, this is the reason\n     * @return quantities       Array of bAsset quantities to redeem\n     */\n    function calculateRedemptionMulti(\n        uint256 _mAssetQuantity,\n        Basset[] calldata _allBassets\n    )\n        override\n        external\n        pure\n        returns (bool, string memory, uint256[] memory)\n    {\n        // e.g. mAsset = 1e20 (100)\n        // e.g. bAsset: [   A,   B,    C,    D]\n        // e.g. vaults: [  80,  60,   60,    0]\n        // e.g. ratio:  [1e12, 1e8, 1e20, 1e18]\n        // expectedM:    4e19 3e19  3e19     0\n        // expectedB:    4e15 3e19   3e7     0\n        uint256 len = _allBassets.length;\n        uint256[] memory redeemQuantities = new uint256[](len);\n        uint256[] memory ratioedBassetVaults = new uint256[](len);\n        uint256 totalBassetVault = 0;\n        // 1. Add up total vault & ratioedBassets, fail if blacklisted\n        for(uint256 i = 0; i < len; i++) {\n            if(_allBassets[i].status == BassetStatus.Blacklisted) {\n                return (false, \"Basket contains blacklisted bAsset\", redeemQuantities);\n            } else if(_allBassets[i].status == BassetStatus.Liquidating) {\n                return (false, \"Basket contains liquidating bAsset\", redeemQuantities);\n            }\n            // e.g. (80e14 * 1e12) / 1e8 = 80e18\n            // e.g. (60e18 * 1e8) / 1e8 = 60e18\n            uint256 ratioedBasset = _allBassets[i].vaultBalance.mulRatioTruncate(_allBassets[i].ratio);\n            ratioedBassetVaults[i] = ratioedBasset;\n            totalBassetVault = totalBassetVault.add(ratioedBasset);\n        }\n        if(totalBassetVault == 0) return (false, \"Nothing in the basket to redeem\", redeemQuantities);\n        if(_mAssetQuantity > totalBassetVault) return (false, \"Not enough liquidity\", redeemQuantities);\n        // 2. Calculate proportional weighting & non-ratioed amount\n        for(uint256 i = 0; i < len; i++) {\n            // proportional weighting\n            // e.g. (8e19 * 1e18) / 2e20 = 8e37 / 2e20 = 4e17 (40%)\n            uint256 percentageOfVault = ratioedBassetVaults[i].divPrecisely(totalBassetVault);\n            // e.g. (1e20 * 4e17) / 1e18 = 4e37 / 1e18 = 4e19 (40)\n            uint256 ratioedProportionalBasset = _mAssetQuantity.mulTruncate(percentageOfVault);\n            // convert back to bAsset amount\n             // e.g. (4e19 * 1e8) / 1e12 = 4e27 / 1e12 = 4e15\n            redeemQuantities[i] = ratioedProportionalBasset.divRatioPrecisely(_allBassets[i].ratio);\n        }\n        // 3. Return\n        return (true, \"\", redeemQuantities);\n    }\n\n    /***************************************\n                    HELPERS\n    ****************************************/\n\n    struct BasketStateResponse {\n        bool isValid;\n        string reason;\n        bool atLeastOneBroken;\n        uint256 overWeightCount;\n        bool[] isOverWeight;\n        uint256[] ratioedBassetVaults;\n    }\n\n    /**\n     * @dev Gets the currently overweight bAssets, and capitalises on the for loop to\n     * produce some other useful data. Loops through, validating the bAsset, and determining\n     * if it is overweight, returning the ratioed bAsset.\n     * @param _total         Sum of collateral units in the basket\n     * @param _bAssets       Array of all bAsset information\n     * @return response      Struct containing calculated data\n     */\n    function _getBasketState(uint256 _total, Basset[] memory _bAssets)\n        private\n        pure\n        returns (BasketStateResponse memory response)\n    {\n        uint256 len = _bAssets.length;\n        response = BasketStateResponse({\n            isValid: true,\n            reason: \"\",\n            atLeastOneBroken: false,\n            overWeightCount: 0,\n            isOverWeight: new bool[](len),\n            ratioedBassetVaults: new uint256[](len)\n        });\n\n        for(uint256 i = 0; i < len; i++) {\n            BassetStatus status = _bAssets[i].status;\n            if(status == BassetStatus.Blacklisted) {\n                response.isValid = false;\n                response.reason = \"Basket contains blacklisted bAsset\";\n                return response;\n            } else if(\n                status == BassetStatus.Liquidating ||\n                status == BassetStatus.BrokenBelowPeg ||\n                status == BassetStatus.BrokenAbovePeg\n            ) {\n                response.atLeastOneBroken = true;\n            }\n\n            uint256 ratioedBasset = _bAssets[i].vaultBalance.mulRatioTruncate(_bAssets[i].ratio);\n            response.ratioedBassetVaults[i] = ratioedBasset;\n            uint256 maxWeightInUnits = _total.mulTruncate(_bAssets[i].maxWeight);\n\n            bool bAssetOverWeight = ratioedBasset > maxWeightInUnits;\n            if(bAssetOverWeight){\n                response.isOverWeight[i] = true;\n                response.overWeightCount += 1;\n            }\n        }\n    }\n\n    /**\n     * After the redeemed bAssets have been removed from the basket, determine\n     * if there are any resulting overweight, or underweight\n     * @param _newTotal                 Sum of collateral units in the basket\n     * @param _bAssets                  Array of all bAsset information\n     * @param _ratioedBassetVaultsAfter Array of all new bAsset vaults\n     * @param _previouslyOverWeight     Array of bools - was this bAsset already overweight\n     * underWeight              Array of bools - is this bAsset now under min weight\n     */\n    function _getOverweightBassetsAfter(\n        uint256 _newTotal,\n        Basset[] memory _bAssets,\n        uint256[] memory _ratioedBassetVaultsAfter,\n        bool[] memory _previouslyOverWeight\n    )\n        private\n        pure\n        returns (bool atLeastOneBecameOverweight)\n    {\n        uint256 len = _ratioedBassetVaultsAfter.length;\n\n        for(uint256 i = 0; i < len; i++) {\n            uint256 maxWeightInUnits = _newTotal.mulTruncate(_bAssets[i].maxWeight);\n\n            bool isOverweight = _ratioedBassetVaultsAfter[i] > maxWeightInUnits;\n            // If it was not previously overweight, and now it, then it became overweight\n            bool becameOverweight = !_previouslyOverWeight[i] && isOverweight;\n            atLeastOneBecameOverweight = atLeastOneBecameOverweight || becameOverweight;\n        }\n    }\n}\n",
  "sourcePath": "/Users/zhangxuesong/mysoft/defi/XStableDollar-contracts/stabledollar/contracts/forge-validator/ForgeValidator.sol",
  "compiler": {
    "name": "solc",
    "version": "0.6.12+commit.27d51765.Emscripten.clang"
  },
  "schemaVersion": "3.3.2",
  "updatedAt": "2020-11-14T07:15:27.940Z",
  "devdoc": {
    "author": "Stability Labs Pty. Ltd.",
    "details": "VERSION: 1.1          DATE:    2020-06-22",
    "kind": "dev",
    "methods": {
      "calculateRedemptionMulti(uint256,(address,uint8,bool,uint256,uint256,uint256)[])": {
        "details": "Sum the value of the bAssets, and then find the proportions relative to the desired mAsset quantity.",
        "params": {
          "_allBassets": "Array of all bAsset information",
          "_mAssetQuantity": "Quantity of mAsset to redeem"
        },
        "returns": {
          "_0": "isValid          Bool to signify that the redemption is allowed",
          "_1": "reason           If the redemption is invalid, this is the reason",
          "_2": "quantities       Array of bAsset quantities to redeem"
        }
      },
      "validateMint(uint256,(address,uint8,bool,uint256,uint256,uint256),uint256)": {
        "details": "Is the resulting weighting of the max bAsset beyond it's implicit max weight? Max weight is determined as max weight (in units)",
        "params": {
          "_bAsset": "Struct containing relevant data on the bAsset",
          "_bAssetQuantity": "Number of bAsset units that will be used to mint",
          "_totalVault": "Current sum of basket collateral"
        },
        "returns": {
          "isValid": "         Bool to signify that the mint does not move our weightings the wrong way",
          "reason": "          If the mint is invalid, this is the reason"
        }
      },
      "validateMintMulti(uint256,(address,uint8,bool,uint256,uint256,uint256)[],uint256[])": {
        "details": "Is the resulting weighting of the max bAssets beyond their implicit max weight? Max weight is determined as max weight (in units)",
        "params": {
          "_bAssetQuantities": "Number of bAsset units that will be used to mint (aligned with above)",
          "_bAssets": "Array of Struct containing relevant data on the bAssets",
          "_totalVault": "Current sum of basket collateral"
        },
        "returns": {
          "isValid": "         Bool to signify that the mint does not move our weightings the wrong way",
          "reason": "          If the mint is invalid, this is the reason"
        }
      },
      "validateRedemption(bool,uint256,(address,uint8,bool,uint256,uint256,uint256)[],uint8[],uint256[])": {
        "details": "A redemption is valid if it does not push any untouched bAssets above their max weightings. In addition, if bAssets are currently above their max weight (i.e. during basket composition changes) they must be redeemed",
        "params": {
          "_allBassets": "Array of all bAsset information",
          "_bAssetQuantities": "Quantity of bAsset to redeem",
          "_basketIsFailed": "Bool to suggest that the basket has failed a recollateralisation attempt",
          "_indices": "Indexes of the bAssets to redeem",
          "_totalVault": "Sum of collateral units in the basket"
        },
        "returns": {
          "_0": "isValid          Bool to signify that the redemption is allowed",
          "_1": "reason           If the redemption is invalid, this is the reason",
          "_2": "feeRequired      Does this redemption require the swap fee to be applied"
        }
      },
      "validateSwap(uint256,(address,uint8,bool,uint256,uint256,uint256),(address,uint8,bool,uint256,uint256,uint256),uint256)": {
        "details": "Input bAsset must not exceed max weight, output bAsset must have sufficient liquidity",
        "params": {
          "_inputBasset": "Input bAsset details",
          "_outputBasset": "Output bAsset details",
          "_quantity": "Number of bAsset units on the input side",
          "_totalVault": "Current sum of basket collateral"
        },
        "returns": {
          "applySwapFee": "    Bool to signify that the swap fee is applied",
          "isValid": "         Bool to signify that the mint does not move our weightings the wrong way",
          "output": "          Units of output bAsset, before fee is applied",
          "reason": "          If the swap is invalid, this is the reason"
        }
      }
    },
    "title": "ForgeValidator",
    "version": 1
  },
  "userdoc": {
    "kind": "user",
    "methods": {
      "calculateRedemptionMulti(uint256,(address,uint8,bool,uint256,uint256,uint256)[])": {
        "notice": "Calculates the relative quantities of bAssets to redeem, with current basket state"
      },
      "validateMint(uint256,(address,uint8,bool,uint256,uint256,uint256),uint256)": {
        "notice": "Checks whether a given mint is valid and returns the result"
      },
      "validateMintMulti(uint256,(address,uint8,bool,uint256,uint256,uint256)[],uint256[])": {
        "notice": "Checks whether a given mint using more than one asset is valid and returns the result"
      },
      "validateRedemption(bool,uint256,(address,uint8,bool,uint256,uint256,uint256)[],uint8[],uint256[])": {
        "notice": "Checks whether a given redemption is valid and returns the result"
      },
      "validateSwap(uint256,(address,uint8,bool,uint256,uint256,uint256),(address,uint8,bool,uint256,uint256,uint256),uint256)": {
        "notice": "Checks whether a given swap is valid and calculates the output"
      }
    },
    "notice": "Calculates whether or not minting or redemption is valid, based          on how it affects the underlying basket collateral weightings",
    "version": 1
  }
}