{
  "contractName": "Masset",
  "abi": [
    {
      "anonymous": false,
      "inputs": [
        {
          "indexed": true,
          "internalType": "address",
          "name": "minter",
          "type": "address"
        },
        {
          "indexed": false,
          "internalType": "address",
          "name": "recipient",
          "type": "address"
        },
        {
          "indexed": false,
          "internalType": "uint256",
          "name": "mAssetQuantity",
          "type": "uint256"
        },
        {
          "indexed": false,
          "internalType": "address",
          "name": "bAsset",
          "type": "address"
        },
        {
          "indexed": false,
          "internalType": "uint256",
          "name": "bAssetQuantity",
          "type": "uint256"
        }
      ],
      "name": "Minted",
      "type": "event"
    },
    {
      "anonymous": false,
      "inputs": [
        {
          "indexed": true,
          "internalType": "address",
          "name": "minter",
          "type": "address"
        },
        {
          "indexed": false,
          "internalType": "address",
          "name": "recipient",
          "type": "address"
        },
        {
          "indexed": false,
          "internalType": "uint256",
          "name": "mAssetQuantity",
          "type": "uint256"
        },
        {
          "indexed": false,
          "internalType": "address[]",
          "name": "bAssets",
          "type": "address[]"
        },
        {
          "indexed": false,
          "internalType": "uint256[]",
          "name": "bAssetQuantities",
          "type": "uint256[]"
        }
      ],
      "name": "MintedMulti",
      "type": "event"
    },
    {
      "inputs": [],
      "name": "version",
      "outputs": [
        {
          "internalType": "uint256",
          "name": "",
          "type": "uint256"
        }
      ],
      "stateMutability": "view",
      "type": "function"
    },
    {
      "inputs": [
        {
          "internalType": "address",
          "name": "_basketManager",
          "type": "address"
        }
      ],
      "name": "initialize",
      "outputs": [],
      "stateMutability": "nonpayable",
      "type": "function"
    },
    {
      "inputs": [],
      "name": "getVersion",
      "outputs": [
        {
          "internalType": "uint256",
          "name": "",
          "type": "uint256"
        }
      ],
      "stateMutability": "view",
      "type": "function"
    },
    {
      "inputs": [
        {
          "internalType": "address",
          "name": "_bAsset",
          "type": "address"
        },
        {
          "internalType": "uint256",
          "name": "_bAssetQuantity",
          "type": "uint256"
        }
      ],
      "name": "mint",
      "outputs": [
        {
          "internalType": "uint256",
          "name": "massetMinted",
          "type": "uint256"
        }
      ],
      "stateMutability": "nonpayable",
      "type": "function"
    }
  ],
  "bytecode": "0x6080604052604260005534801561001557600080fd5b50610395806100256000396000f3fe608060405234801561001057600080fd5b506004361061004c5760003560e01c80630d8e6e2c1461005157806340c10f191461006f57806354fd4d50146100d1578063c4d66de8146100ef575b600080fd5b610059610133565b6040518082815260200191505060405180910390f35b6100bb6004803603604081101561008557600080fd5b81019080803573ffffffffffffffffffffffffffffffffffffffff1690602001909291908035906020019092919050505061013c565b6040518082815260200191505060405180910390f35b6100d9610151565b6040518082815260200191505060405180910390f35b6101316004803603602081101561010557600080fd5b81019080803573ffffffffffffffffffffffffffffffffffffffff169060200190929190505050610157565b005b60008054905090565b600061014983833361019b565b905092915050565b60005481565b80600160006101000a81548173ffffffffffffffffffffffffffffffffffffffff021916908373ffffffffffffffffffffffffffffffffffffffff16021790555050565b60008073ffffffffffffffffffffffffffffffffffffffff168273ffffffffffffffffffffffffffffffffffffffff16141561023f576040517f08c379a00000000000000000000000000000000000000000000000000000000081526004018080602001828103825260198152602001807f4d75737420626520612076616c696420726563697069656e740000000000000081525060200191505060405180910390fd5b600083116102b5576040517f08c379a00000000000000000000000000000000000000000000000000000000081526004018080602001828103825260168152602001807f5175616e74697479206d757374206e6f7420626520300000000000000000000081525060200191505060405180910390fd5b6000604290506000603790503373ffffffffffffffffffffffffffffffffffffffff167f30873c596f54a2e2e09894670d7e1a48b2433c00204f81fbedf557353c36e7c785838986604051808573ffffffffffffffffffffffffffffffffffffffff1681526020018481526020018373ffffffffffffffffffffffffffffffffffffffff16815260200182815260200194505050505060405180910390a28192505050939250505056fea2646970667358221220a1d05db81a871ca3f6c1ae9b22f8d3ccf04a0e23493899195a4cab5ad33afb7864736f6c634300060c0033",
  "immutableReferences": {},
  "source": "// SPDX-License-Identifier: SimPL-2.0\npragma solidity 0.6.12;\n\n// External\nimport { IBasketManager } from \"./interfaces/IBasketManager.sol\";\n\n// Internal\nimport { IMasset } from \"./interfaces/IMasset.sol\";\n\ncontract Masset is IMasset {\n\n    uint256 public version = 66;\n    IBasketManager private basketManager;\n\n    // 合成事件\n    event Minted(address indexed minter, address recipient, uint256 mAssetQuantity, address bAsset, uint256 bAssetQuantity);\n    event MintedMulti(address indexed minter, address recipient, uint256 mAssetQuantity, address[] bAssets, uint256[] bAssetQuantities);\n    \n    function initialize( \n        address _basketManager\n    )\n        external\n    {\n        basketManager = IBasketManager(_basketManager);\n    }\n\n    function getVersion() public view returns (uint256) {\n        return version;\n    }\n\n    /**\n     * @dev Mint a single bAsset, at a 1:1 ratio with the bAsset. This contract\n     *      must have approval to spend the senders bAsset\n     * @param _bAsset         Address of the bAsset to mint\n     * @param _bAssetQuantity Quantity in bAsset units\n     * @return massetMinted   Number of newly minted mAssets\n     */\n    function mint(address _bAsset, uint256 _bAssetQuantity) override external returns (uint256 massetMinted){\n        return _mintTo(_bAsset, _bAssetQuantity, msg.sender);\n    }\n\n    /***************************************\n              MINTING (INTERNAL)\n    ****************************************/\n\n    // Mint Single\n    // 单一币种进行合成\n    function _mintTo(address _bAsset, uint256 _bAssetQuantity, address _recipient) internal returns (uint256 massetMinted){\n        // 必须是个可用的接收者\n        require(_recipient != address(0), \"Must be a valid recipient\");\n        // 数量不能为0\n        require(_bAssetQuantity > 0, \"Quantity must not be 0\");\n\n        uint256 quantityDeposited = 66;\n        uint256 ratioedDeposit = 55;\n        \n        // (bool isValid, BassetDetails memory bInfo) = basketManager.prepareForgeBasset(_bAsset, _bAssetQuantity, true);\n        // if(!isValid) return 0;\n\n        // Transfer collateral to the platform integration address and call deposit\n        // address integrator = bInfo.integrator;\n        // (uint256 quantityDeposited, uint256 ratioedDeposit) =\n        //     _depositTokens(_bAsset, bInfo.bAsset.ratio, integrator, bInfo.bAsset.isTransferFeeCharged, _bAssetQuantity);\n\n        // Validation should be after token transfer, as bAssetQty is unknown before\n        // (bool mintValid, string memory reason) = forgeValidator.validateMint(totalSupply(), bInfo.bAsset, quantityDeposited);\n        // require(mintValid, reason);\n\n        // Log the Vault increase - can only be done when basket is healthy\n        // basketManager.increaseVaultBalance(bInfo.index, integrator, quantityDeposited);\n\n        // Mint the Masset\n        // _mint(_recipient, ratioedDeposit);\n        emit Minted(msg.sender, _recipient, ratioedDeposit, _bAsset, quantityDeposited);\n\n        // return ratioedDeposit;\n        return quantityDeposited;\n    }\n\n}",
  "sourcePath": "/Users/flora/workspace/eth/stable-coin/XStableDollar/XStableDollar-contracts/stabledollar/contracts/Masset.sol",
  "compiler": {
    "name": "solc",
    "version": "0.6.12+commit.27d51765.Emscripten.clang"
  },
  "schemaVersion": "3.3.1",
  "updatedAt": "2020-11-12T15:16:16.098Z",
  "devdoc": {
    "kind": "dev",
    "methods": {
      "mint(address,uint256)": {
        "details": "Mint a single bAsset, at a 1:1 ratio with the bAsset. This contract      must have approval to spend the senders bAsset",
        "params": {
          "_bAsset": "Address of the bAsset to mint",
          "_bAssetQuantity": "Quantity in bAsset units"
        },
        "returns": {
          "massetMinted": "  Number of newly minted mAssets"
        }
      }
    },
    "version": 1
  },
  "userdoc": {
    "kind": "user",
    "methods": {},
    "version": 1
  }
}