{
  "contractName": "Masset",
  "abi": [
    {
      "inputs": [
        {
          "internalType": "string",
          "name": "name",
          "type": "string"
        },
        {
          "internalType": "string",
          "name": "symbol",
          "type": "string"
        }
      ],
      "stateMutability": "nonpayable",
      "type": "constructor"
    },
    {
      "anonymous": false,
      "inputs": [
        {
          "indexed": true,
          "internalType": "address",
          "name": "owner",
          "type": "address"
        },
        {
          "indexed": true,
          "internalType": "address",
          "name": "spender",
          "type": "address"
        },
        {
          "indexed": false,
          "internalType": "uint256",
          "name": "value",
          "type": "uint256"
        }
      ],
      "name": "Approval",
      "type": "event"
    },
    {
      "anonymous": false,
      "inputs": [
        {
          "indexed": true,
          "internalType": "address",
          "name": "minter",
          "type": "address"
        },
        {
          "indexed": false,
          "internalType": "address",
          "name": "recipient",
          "type": "address"
        },
        {
          "indexed": false,
          "internalType": "uint256",
          "name": "mAssetQuantity",
          "type": "uint256"
        },
        {
          "indexed": false,
          "internalType": "address",
          "name": "bAsset",
          "type": "address"
        },
        {
          "indexed": false,
          "internalType": "uint256",
          "name": "bAssetQuantity",
          "type": "uint256"
        }
      ],
      "name": "Minted",
      "type": "event"
    },
    {
      "anonymous": false,
      "inputs": [
        {
          "indexed": true,
          "internalType": "address",
          "name": "minter",
          "type": "address"
        },
        {
          "indexed": false,
          "internalType": "address",
          "name": "recipient",
          "type": "address"
        },
        {
          "indexed": false,
          "internalType": "uint256",
          "name": "mAssetQuantity",
          "type": "uint256"
        },
        {
          "indexed": false,
          "internalType": "address[]",
          "name": "bAssets",
          "type": "address[]"
        },
        {
          "indexed": false,
          "internalType": "uint256[]",
          "name": "bAssetQuantities",
          "type": "uint256[]"
        }
      ],
      "name": "MintedMulti",
      "type": "event"
    },
    {
      "anonymous": false,
      "inputs": [
        {
          "indexed": true,
          "internalType": "address",
          "name": "payer",
          "type": "address"
        },
        {
          "indexed": false,
          "internalType": "address",
          "name": "asset",
          "type": "address"
        },
        {
          "indexed": false,
          "internalType": "uint256",
          "name": "feeQuantity",
          "type": "uint256"
        }
      ],
      "name": "PaidFee",
      "type": "event"
    },
    {
      "anonymous": false,
      "inputs": [
        {
          "indexed": true,
          "internalType": "address",
          "name": "redeemer",
          "type": "address"
        },
        {
          "indexed": false,
          "internalType": "address",
          "name": "recipient",
          "type": "address"
        },
        {
          "indexed": false,
          "internalType": "uint256",
          "name": "mAssetQuantity",
          "type": "uint256"
        },
        {
          "indexed": false,
          "internalType": "address[]",
          "name": "bAssets",
          "type": "address[]"
        },
        {
          "indexed": false,
          "internalType": "uint256[]",
          "name": "bAssetQuantities",
          "type": "uint256[]"
        }
      ],
      "name": "Redeemed",
      "type": "event"
    },
    {
      "anonymous": false,
      "inputs": [
        {
          "indexed": true,
          "internalType": "address",
          "name": "redeemer",
          "type": "address"
        },
        {
          "indexed": false,
          "internalType": "address",
          "name": "recipient",
          "type": "address"
        },
        {
          "indexed": false,
          "internalType": "uint256",
          "name": "mAssetQuantity",
          "type": "uint256"
        }
      ],
      "name": "RedeemedMasset",
      "type": "event"
    },
    {
      "anonymous": false,
      "inputs": [
        {
          "indexed": true,
          "internalType": "address",
          "name": "from",
          "type": "address"
        },
        {
          "indexed": true,
          "internalType": "address",
          "name": "to",
          "type": "address"
        },
        {
          "indexed": false,
          "internalType": "uint256",
          "name": "value",
          "type": "uint256"
        }
      ],
      "name": "Transfer",
      "type": "event"
    },
    {
      "inputs": [
        {
          "internalType": "address",
          "name": "owner",
          "type": "address"
        },
        {
          "internalType": "address",
          "name": "spender",
          "type": "address"
        }
      ],
      "name": "allowance",
      "outputs": [
        {
          "internalType": "uint256",
          "name": "",
          "type": "uint256"
        }
      ],
      "stateMutability": "view",
      "type": "function"
    },
    {
      "inputs": [
        {
          "internalType": "address",
          "name": "spender",
          "type": "address"
        },
        {
          "internalType": "uint256",
          "name": "amount",
          "type": "uint256"
        }
      ],
      "name": "approve",
      "outputs": [
        {
          "internalType": "bool",
          "name": "",
          "type": "bool"
        }
      ],
      "stateMutability": "nonpayable",
      "type": "function"
    },
    {
      "inputs": [
        {
          "internalType": "address",
          "name": "account",
          "type": "address"
        }
      ],
      "name": "balanceOf",
      "outputs": [
        {
          "internalType": "uint256",
          "name": "",
          "type": "uint256"
        }
      ],
      "stateMutability": "view",
      "type": "function"
    },
    {
      "inputs": [],
      "name": "decimals",
      "outputs": [
        {
          "internalType": "uint8",
          "name": "",
          "type": "uint8"
        }
      ],
      "stateMutability": "view",
      "type": "function"
    },
    {
      "inputs": [
        {
          "internalType": "address",
          "name": "spender",
          "type": "address"
        },
        {
          "internalType": "uint256",
          "name": "subtractedValue",
          "type": "uint256"
        }
      ],
      "name": "decreaseAllowance",
      "outputs": [
        {
          "internalType": "bool",
          "name": "",
          "type": "bool"
        }
      ],
      "stateMutability": "nonpayable",
      "type": "function"
    },
    {
      "inputs": [],
      "name": "forgeValidator",
      "outputs": [
        {
          "internalType": "contract IForgeValidator",
          "name": "",
          "type": "address"
        }
      ],
      "stateMutability": "view",
      "type": "function"
    },
    {
      "inputs": [
        {
          "internalType": "address",
          "name": "spender",
          "type": "address"
        },
        {
          "internalType": "uint256",
          "name": "addedValue",
          "type": "uint256"
        }
      ],
      "name": "increaseAllowance",
      "outputs": [
        {
          "internalType": "bool",
          "name": "",
          "type": "bool"
        }
      ],
      "stateMutability": "nonpayable",
      "type": "function"
    },
    {
      "inputs": [],
      "name": "name",
      "outputs": [
        {
          "internalType": "string",
          "name": "",
          "type": "string"
        }
      ],
      "stateMutability": "view",
      "type": "function"
    },
    {
      "inputs": [],
      "name": "symbol",
      "outputs": [
        {
          "internalType": "string",
          "name": "",
          "type": "string"
        }
      ],
      "stateMutability": "view",
      "type": "function"
    },
    {
      "inputs": [],
      "name": "totalSupply",
      "outputs": [
        {
          "internalType": "uint256",
          "name": "",
          "type": "uint256"
        }
      ],
      "stateMutability": "view",
      "type": "function"
    },
    {
      "inputs": [
        {
          "internalType": "address",
          "name": "recipient",
          "type": "address"
        },
        {
          "internalType": "uint256",
          "name": "amount",
          "type": "uint256"
        }
      ],
      "name": "transfer",
      "outputs": [
        {
          "internalType": "bool",
          "name": "",
          "type": "bool"
        }
      ],
      "stateMutability": "nonpayable",
      "type": "function"
    },
    {
      "inputs": [
        {
          "internalType": "address",
          "name": "sender",
          "type": "address"
        },
        {
          "internalType": "address",
          "name": "recipient",
          "type": "address"
        },
        {
          "internalType": "uint256",
          "name": "amount",
          "type": "uint256"
        }
      ],
      "name": "transferFrom",
      "outputs": [
        {
          "internalType": "bool",
          "name": "",
          "type": "bool"
        }
      ],
      "stateMutability": "nonpayable",
      "type": "function"
    },
    {
      "inputs": [
        {
          "internalType": "address",
          "name": "_basketManager",
          "type": "address"
        },
        {
          "internalType": "address",
          "name": "_forgeValidator",
          "type": "address"
        }
      ],
      "name": "initialize",
      "outputs": [],
      "stateMutability": "nonpayable",
      "type": "function"
    },
    {
      "inputs": [],
      "name": "getVersion",
      "outputs": [
        {
          "internalType": "uint256",
          "name": "",
          "type": "uint256"
        }
      ],
      "stateMutability": "view",
      "type": "function"
    },
    {
      "inputs": [
        {
          "internalType": "address",
          "name": "_bAsset",
          "type": "address"
        },
        {
          "internalType": "uint256",
          "name": "_bAssetAmount",
          "type": "uint256"
        }
      ],
      "name": "mint",
      "outputs": [
        {
          "internalType": "uint256",
          "name": "massetMinted",
          "type": "uint256"
        }
      ],
      "stateMutability": "nonpayable",
      "type": "function"
    },
    {
      "inputs": [
        {
          "internalType": "address[]",
          "name": "_bAssets",
          "type": "address[]"
        },
        {
          "internalType": "uint256[]",
          "name": "_bAssetQuantity",
          "type": "uint256[]"
        },
        {
          "internalType": "address",
          "name": "_recipient",
          "type": "address"
        }
      ],
      "name": "mintMulti",
      "outputs": [
        {
          "internalType": "uint256",
          "name": "massetMinted",
          "type": "uint256"
        }
      ],
      "stateMutability": "nonpayable",
      "type": "function"
    },
    {
      "inputs": [
        {
          "internalType": "address",
          "name": "_bAsset",
          "type": "address"
        },
        {
          "internalType": "uint256",
          "name": "_bAssetQuantity",
          "type": "uint256"
        }
      ],
      "name": "redeem",
      "outputs": [
        {
          "internalType": "uint256",
          "name": "massetRedeemed",
          "type": "uint256"
        }
      ],
      "stateMutability": "nonpayable",
      "type": "function"
    },
    {
      "inputs": [
        {
          "internalType": "address[]",
          "name": "_bAssets",
          "type": "address[]"
        },
        {
          "internalType": "uint256[]",
          "name": "_bAssetQuantities",
          "type": "uint256[]"
        },
        {
          "internalType": "address",
          "name": "_recipient",
          "type": "address"
        }
      ],
      "name": "redeemMulti",
      "outputs": [
        {
          "internalType": "uint256",
          "name": "massetRedeemed",
          "type": "uint256"
        }
      ],
      "stateMutability": "nonpayable",
      "type": "function"
    },
    {
      "inputs": [
        {
          "internalType": "uint256",
          "name": "_mAssetQuantity",
          "type": "uint256"
        },
        {
          "internalType": "address",
          "name": "_recipient",
          "type": "address"
        }
      ],
      "name": "redeemMasset",
      "outputs": [],
      "stateMutability": "nonpayable",
      "type": "function"
    }
  ],
  "bytecode": "0x608060405260016006553480156200001657600080fd5b50604051620050e0380380620050e083398181016040528101906200003c919062000198565b818181600390805190602001906200005692919062000096565b5080600490805190602001906200006f92919062000096565b506012600560006101000a81548160ff021916908360ff160217905550505050506200029c565b828054600181600116156101000203166002900490600052602060002090601f016020900481019282601f10620000d957805160ff19168380011785556200010a565b828001600101855582156200010a579182015b8281111562000109578251825591602001919060010190620000ec565b5b5090506200011991906200011d565b5090565b5b80821115620001385760008160009055506001016200011e565b5090565b600082601f8301126200014e57600080fd5b8151620001656200015f8262000239565b6200020b565b915080825260208301602083018583830111156200018257600080fd5b6200018f83828462000266565b50505092915050565b60008060408385031215620001ac57600080fd5b600083015167ffffffffffffffff811115620001c757600080fd5b620001d5858286016200013c565b925050602083015167ffffffffffffffff811115620001f357600080fd5b62000201858286016200013c565b9150509250929050565b6000604051905081810181811067ffffffffffffffff821117156200022f57600080fd5b8060405250919050565b600067ffffffffffffffff8211156200025157600080fd5b601f19601f8301169050602081019050919050565b60005b838110156200028657808201518184015260208101905062000269565b8381111562000296576000848401525b50505050565b614e3480620002ac6000396000f3fe608060405234801561001057600080fd5b50600436106101215760003560e01c8063485cc955116100ad578063a9059cbb11610071578063a9059cbb14610358578063aa3053b014610388578063abe743ff146103b8578063d7d52266146103d4578063dd62ed3e146103f257610121565b8063485cc9551461028e57806370a08231146102aa57806384f9378a146102da57806395d89b411461030a578063a457c2d71461032857610121565b80631e9a6950116100f45780631e9a6950146101b057806323b872dd146101e0578063313ce56714610210578063395093511461022e57806340c10f191461025e57610121565b806306fdde0314610126578063095ea7b3146101445780630d8e6e2c1461017457806318160ddd14610192575b600080fd5b61012e610422565b60405161013b91906146e8565b60405180910390f35b61015e60048036038101906101599190613768565b6104c4565b60405161016b9190614613565b60405180910390f35b61017c6104e2565b604051610189919061490a565b60405180910390f35b61019a6104ec565b6040516101a7919061490a565b60405180910390f35b6101ca60048036038101906101c59190613768565b6104f6565b6040516101d7919061490a565b60405180910390f35b6101fa60048036038101906101f59190613719565b61050b565b6040516102079190614613565b60405180910390f35b6102186105e4565b60405161022591906149d2565b60405180910390f35b61024860048036038101906102439190613768565b6105fb565b6040516102559190614613565b60405180910390f35b61027860048036038101906102739190613768565b6106ae565b604051610285919061490a565b60405180910390f35b6102a860048036038101906102a391906136dd565b6106c3565b005b6102c460048036038101906102bf91906136b4565b610749565b6040516102d1919061490a565b60405180910390f35b6102f460048036038101906102ef91906137a4565b610791565b604051610301919061490a565b60405180910390f35b61031261082b565b60405161031f91906146e8565b60405180910390f35b610342600480360381019061033d9190613768565b6108cd565b60405161034f9190614613565b60405180910390f35b610372600480360381019061036d9190613768565b61099a565b60405161037f9190614613565b60405180910390f35b6103a2600480360381019061039d91906137a4565b6109b8565b6040516103af919061490a565b60405180910390f35b6103d260048036038101906103cd9190613ab9565b610a52565b005b6103dc610a60565b6040516103e99190614696565b60405180910390f35b61040c600480360381019061040791906136dd565b610a86565b604051610419919061490a565b60405180910390f35b606060038054600181600116156101000203166002900480601f0160208091040260200160405190810160405280929190818152602001828054600181600116156101000203166002900480156104ba5780601f1061048f576101008083540402835291602001916104ba565b820191906000526020600020905b81548152906001019060200180831161049d57829003601f168201915b5050505050905090565b60006104d86104d1610b0d565b8484610b15565b6001905092915050565b6000600654905090565b6000600254905090565b6000610503838333610ce0565b905092915050565b6000610518848484610df2565b6105d984610524610b0d565b6105d485604051806060016040528060288152602001614db260289139600160008b73ffffffffffffffffffffffffffffffffffffffff1673ffffffffffffffffffffffffffffffffffffffff168152602001908152602001600020600061058a610b0d565b73ffffffffffffffffffffffffffffffffffffffff1673ffffffffffffffffffffffffffffffffffffffff168152602001908152602001600020546110879092919063ffffffff16565b610b15565b600190509392505050565b6000600560009054906101000a900460ff16905090565b60006106a4610608610b0d565b8461069f8560016000610619610b0d565b73ffffffffffffffffffffffffffffffffffffffff1673ffffffffffffffffffffffffffffffffffffffff16815260200190815260200160002060008973ffffffffffffffffffffffffffffffffffffffff1673ffffffffffffffffffffffffffffffffffffffff168152602001908152602001600020546110e290919063ffffffff16565b610b15565b6001905092915050565b60006106bb838333611137565b905092915050565b81600760006101000a81548173ffffffffffffffffffffffffffffffffffffffff021916908373ffffffffffffffffffffffffffffffffffffffff16021790555080600860006101000a81548173ffffffffffffffffffffffffffffffffffffffff021916908373ffffffffffffffffffffffffffffffffffffffff1602179055505050565b60008060008373ffffffffffffffffffffffffffffffffffffffff1673ffffffffffffffffffffffffffffffffffffffff168152602001908152602001600020549050919050565b6000610820868680806020026020016040519081016040528093929190818152602001838360200280828437600081840152601f19601f82011690508083019250505050505050858580806020026020016040519081016040528093929190818152602001838360200280828437600081840152601f19601f82011690508083019250505050505050846114f6565b905095945050505050565b606060048054600181600116156101000203166002900480601f0160208091040260200160405190810160405280929190818152602001828054600181600116156101000203166002900480156108c35780601f10610898576101008083540402835291602001916108c3565b820191906000526020600020905b8154815290600101906020018083116108a657829003601f168201915b5050505050905090565b60006109906108da610b0d565b8461098b85604051806060016040528060258152602001614dda6025913960016000610904610b0d565b73ffffffffffffffffffffffffffffffffffffffff1673ffffffffffffffffffffffffffffffffffffffff16815260200190815260200160002060008a73ffffffffffffffffffffffffffffffffffffffff1673ffffffffffffffffffffffffffffffffffffffff168152602001908152602001600020546110879092919063ffffffff16565b610b15565b6001905092915050565b60006109ae6109a7610b0d565b8484610df2565b6001905092915050565b6000610a47868680806020026020016040519081016040528093929190818152602001838360200280828437600081840152601f19601f82011690508083019250505050505050858580806020026020016040519081016040528093929190818152602001838360200280828437600081840152601f19601f82011690508083019250505050505050846119fe565b905095945050505050565b610a5c8282611eae565b5050565b600860009054906101000a900473ffffffffffffffffffffffffffffffffffffffff1681565b6000600160008473ffffffffffffffffffffffffffffffffffffffff1673ffffffffffffffffffffffffffffffffffffffff16815260200190815260200160002060008373ffffffffffffffffffffffffffffffffffffffff1673ffffffffffffffffffffffffffffffffffffffff16815260200190815260200160002054905092915050565b600033905090565b600073ffffffffffffffffffffffffffffffffffffffff168373ffffffffffffffffffffffffffffffffffffffff161415610b85576040517f08c379a0000000000000000000000000000000000000000000000000000000008152600401610b7c9061484a565b60405180910390fd5b600073ffffffffffffffffffffffffffffffffffffffff168273ffffffffffffffffffffffffffffffffffffffff161415610bf5576040517f08c379a0000000000000000000000000000000000000000000000000000000008152600401610bec9061472a565b60405180910390fd5b80600160008573ffffffffffffffffffffffffffffffffffffffff1673ffffffffffffffffffffffffffffffffffffffff16815260200190815260200160002060008473ffffffffffffffffffffffffffffffffffffffff1673ffffffffffffffffffffffffffffffffffffffff168152602001908152602001600020819055508173ffffffffffffffffffffffffffffffffffffffff168373ffffffffffffffffffffffffffffffffffffffff167f8c5be1e5ebec7d5bd14f71427d1e84f3dd0314c0f7b2291e5b200ac8c7c3b92583604051610cd3919061490a565b60405180910390a3505050565b60006060600167ffffffffffffffff81118015610cfc57600080fd5b50604051908082528060200260200182016040528015610d2b5781602001602082028036833780820191505090505b5090506060600167ffffffffffffffff81118015610d4857600080fd5b50604051908082528060200260200182016040528015610d775781602001602082028036833780820191505090505b5090508582600081518110610d8857fe5b602002602001019073ffffffffffffffffffffffffffffffffffffffff16908173ffffffffffffffffffffffffffffffffffffffff16815250508481600081518110610dd057fe5b602002602001018181525050610de78282866119fe565b925050509392505050565b600073ffffffffffffffffffffffffffffffffffffffff168373ffffffffffffffffffffffffffffffffffffffff161415610e62576040517f08c379a0000000000000000000000000000000000000000000000000000000008152600401610e599061482a565b60405180910390fd5b600073ffffffffffffffffffffffffffffffffffffffff168273ffffffffffffffffffffffffffffffffffffffff161415610ed2576040517f08c379a0000000000000000000000000000000000000000000000000000000008152600401610ec99061470a565b60405180910390fd5b610edd8383836121bd565b610f4881604051806060016040528060268152602001614d8c602691396000808773ffffffffffffffffffffffffffffffffffffffff1673ffffffffffffffffffffffffffffffffffffffff168152602001908152602001600020546110879092919063ffffffff16565b6000808573ffffffffffffffffffffffffffffffffffffffff1673ffffffffffffffffffffffffffffffffffffffff16815260200190815260200160002081905550610fdb816000808573ffffffffffffffffffffffffffffffffffffffff1673ffffffffffffffffffffffffffffffffffffffff168152602001908152602001600020546110e290919063ffffffff16565b6000808473ffffffffffffffffffffffffffffffffffffffff1673ffffffffffffffffffffffffffffffffffffffff168152602001908152602001600020819055508173ffffffffffffffffffffffffffffffffffffffff168373ffffffffffffffffffffffffffffffffffffffff167fddf252ad1be2c89b69c2b068fc378daa952ba7f163c4a11628f55a4df523b3ef8360405161107a919061490a565b60405180910390a3505050565b60008383111582906110cf576040517f08c379a00000000000000000000000000000000000000000000000000000000081526004016110c691906146e8565b60405180910390fd5b5060008385039050809150509392505050565b60008082840190508381101561112d576040517f08c379a00000000000000000000000000000000000000000000000000000000081526004016111249061474a565b60405180910390fd5b8091505092915050565b60008073ffffffffffffffffffffffffffffffffffffffff168273ffffffffffffffffffffffffffffffffffffffff1614156111a8576040517f08c379a000000000000000000000000000000000000000000000000000000000815260040161119f906148ca565b60405180910390fd5b600083116111eb576040517f08c379a00000000000000000000000000000000000000000000000000000000081526004016111e2906147ca565b60405180910390fd5b60006111f5612ef7565b600760009054906101000a900473ffffffffffffffffffffffffffffffffffffffff1673ffffffffffffffffffffffffffffffffffffffff1663bf9ca02d878760016040518463ffffffff1660e01b81526004016112559392919061454b565b61012060405180830381600087803b15801561127057600080fd5b505af1158015611284573d6000803e3d6000fd5b505050506040513d601f19601f820116820180604052508101906112a89190613990565b91509150816112bc576000925050506114ef565b6000816020015190506000806112e589856000015160600151858760000151604001518c6121c2565b9150915060006060600860009054906101000a900473ffffffffffffffffffffffffffffffffffffffff1673ffffffffffffffffffffffffffffffffffffffff1663df9563356113336104ec565b8860000151876040518463ffffffff1660e01b81526004016113579392919061499a565b60006040518083038186803b15801561136f57600080fd5b505afa158015611383573d6000803e3d6000fd5b505050506040513d6000823e3d601f19601f820116820180604052508101906113ac9190613856565b915091508181906113f3576040517f08c379a00000000000000000000000000000000000000000000000000000000081526004016113ea91906146e8565b60405180910390fd5b50600760009054906101000a900473ffffffffffffffffffffffffffffffffffffffff1673ffffffffffffffffffffffffffffffffffffffff1663dc686c8c600087876040518463ffffffff1660e01b8152600401611454939291906146b1565b600060405180830381600087803b15801561146e57600080fd5b505af1158015611482573d6000803e3d6000fd5b5050505061149089846121f2565b3373ffffffffffffffffffffffffffffffffffffffff167f30873c596f54a2e2e09894670d7e1a48b2433c00204f81fbedf557353c36e7c78a858e886040516114dc94939291906144b3565b60405180910390a2829750505050505050505b9392505050565b60008073ffffffffffffffffffffffffffffffffffffffff168273ffffffffffffffffffffffffffffffffffffffff161415611567576040517f08c379a000000000000000000000000000000000000000000000000000000000815260040161155e906148ca565b60405180910390fd5b60008351905060008111801561157d5750845181145b6115bc576040517f08c379a00000000000000000000000000000000000000000000000000000000081526004016115b39061476a565b60405180910390fd5b6115c4612f37565b600760009054906101000a900473ffffffffffffffffffffffffffffffffffffffff1673ffffffffffffffffffffffffffffffffffffffff16639d01cd35878760016040518463ffffffff1660e01b815260040161162493929190614582565b600060405180830381600087803b15801561163e57600080fd5b505af1158015611652573d6000803e3d6000fd5b505050506040513d6000823e3d601f19601f8201168201806040525081019061167b9190613a0e565b90508060000151611691576000925050506119f7565b60006002905060608367ffffffffffffffff811180156116b057600080fd5b506040519080825280602002602001820160405280156116df5781602001602082028036833780820191505090505b50905060005b848110156117a75760008882815181106116fb57fe5b60200260200101519050600081111561179957611716612f61565b8560200151838151811061172657fe5b60200260200101519050600080611763836000015184606001518a60400151888151811061175057fe5b60200260200101518660400151886121c2565b915091508186868151811061177457fe5b60200260200101818152505061179381886110e290919063ffffffff16565b96505050505b5080806001019150506116e5565b50600082116117eb576040517f08c379a00000000000000000000000000000000000000000000000000000000081526004016117e29061478a565b60405180910390fd5b600760009054906101000a900473ffffffffffffffffffffffffffffffffffffffff1673ffffffffffffffffffffffffffffffffffffffff1663d5e1d27984606001518560400151846040518463ffffffff1660e01b8152600401611852939291906145c7565b600060405180830381600087803b15801561186c57600080fd5b505af1158015611880573d6000803e3d6000fd5b5050505060006060600860009054906101000a900473ffffffffffffffffffffffffffffffffffffffff1673ffffffffffffffffffffffffffffffffffffffff16634566eb096118ce6104ec565b8760200151866040518463ffffffff1660e01b81526004016118f293929190614955565b60006040518083038186803b15801561190a57600080fd5b505afa15801561191e573d6000803e3d6000fd5b505050506040513d6000823e3d601f19601f820116820180604052508101906119479190613856565b9150915081819061198e576040517f08c379a000000000000000000000000000000000000000000000000000000000815260040161198591906146e8565b60405180910390fd5b5061199988856121f2565b3373ffffffffffffffffffffffffffffffffffffffff167f7d3ff197e9071095bd36b627028ef523ecf46fcbf17cbde745a4b65aec88b6bc89868d8d6040516119e594939291906144f8565b60405180910390a28396505050505050505b9392505050565b60008073ffffffffffffffffffffffffffffffffffffffff168273ffffffffffffffffffffffffffffffffffffffff161415611a6f576040517f08c379a0000000000000000000000000000000000000000000000000000000008152600401611a66906148ca565b60405180910390fd5b600083519050600081118015611a855750845181145b611ac4576040517f08c379a0000000000000000000000000000000000000000000000000000000008152600401611abb9061476a565b60405180910390fd5b611acc612fba565b600760009054906101000a900473ffffffffffffffffffffffffffffffffffffffff1673ffffffffffffffffffffffffffffffffffffffff1663cd6ef2b06040518163ffffffff1660e01b815260040160006040518083038186803b158015611b3457600080fd5b505afa158015611b48573d6000803e3d6000fd5b505050506040513d6000823e3d601f19601f82011682018060405250810190611b7191906139cd565b9050611b7b612f37565b600760009054906101000a900473ffffffffffffffffffffffffffffffffffffffff1673ffffffffffffffffffffffffffffffffffffffff16639d01cd35888860006040518463ffffffff1660e01b8152600401611bdb93929190614582565b600060405180830381600087803b158015611bf557600080fd5b505af1158015611c09573d6000803e3d6000fd5b505050506040513d6000823e3d601f19601f82011682018060405250810190611c329190613a0e565b90508060000151611c495760009350505050611ea7565b600060606000600860009054906101000a900473ffffffffffffffffffffffffffffffffffffffff1673ffffffffffffffffffffffffffffffffffffffff16638fb1860b8660600151611c9a6104ec565b886000015188606001518e6040518663ffffffff1660e01b8152600401611cc595949392919061462e565b60006040518083038186803b158015611cdd57600080fd5b505afa158015611cf1573d6000803e3d6000fd5b505050506040513d6000823e3d601f19601f82011682018060405250810190611d1a9190613929565b925092509250828290611d63576040517f08c379a0000000000000000000000000000000000000000000000000000000008152600401611d5a91906146e8565b60405180910390fd5b5060005b86811015611de75760008a8281518110611d7d57fe5b602002602001015190506000811115611dd9576000611dc087602001518481518110611da557fe5b6020026020010151606001518361238690919063ffffffff16565b9050611dd5818a6110e290919063ffffffff16565b9850505b508080600101915050611d67565b5060008611611e2b576040517f08c379a0000000000000000000000000000000000000000000000000000000008152600401611e22906147aa565b60405180910390fd5b6000611e48898887602001518d89606001518a60400151876123ed565b3373ffffffffffffffffffffffffffffffffffffffff167f93fc955b3f6c5e7b37fbb64f39e6f4d9050f82ed17cec724743f95a50da7df1c8a898e8e604051611e9494939291906144f8565b60405180910390a2869750505050505050505b9392505050565b600073ffffffffffffffffffffffffffffffffffffffff168173ffffffffffffffffffffffffffffffffffffffff161415611f1e576040517f08c379a0000000000000000000000000000000000000000000000000000000008152600401611f15906148ca565b60405180910390fd5b60008211611f61576040517f08c379a0000000000000000000000000000000000000000000000000000000008152600401611f58906148aa565b60405180910390fd5b611f69612ff0565b600760009054906101000a900473ffffffffffffffffffffffffffffffffffffffff1673ffffffffffffffffffffffffffffffffffffffff166343ae78be6040518163ffffffff1660e01b815260040160006040518083038186803b158015611fd157600080fd5b505afa158015611fe5573d6000803e3d6000fd5b505050506040513d6000823e3d601f19601f8201168201806040525081019061200e9190613a4f565b905060006120278260000151612022612599565b6125a9565b9050600061203e82866125c290919063ffffffff16565b90506000606080600860009054906101000a900473ffffffffffffffffffffffffffffffffffffffff1673ffffffffffffffffffffffffffffffffffffffff16630201e2d08588602001516040518363ffffffff1660e01b81526004016120a6929190614925565b60006040518083038186803b1580156120be57600080fd5b505afa1580156120d2573d6000803e3d6000fd5b505050506040513d6000823e3d601f19601f820116820180604052508101906120fb91906138aa565b925092509250828290612144576040517f08c379a000000000000000000000000000000000000000000000000000000000815260040161213b91906146e8565b60405180910390fd5b506000612162888a8960200151858b606001518c60400151876123ed565b3373ffffffffffffffffffffffffffffffffffffffff167f6e8e3f900293b89801cb29bf5dc5c402c685e66d588bed50a3d83ffbf0bb9034898b6040516121aa92919061448a565b60405180910390a2505050505050505050565b505050565b6000806121d1878686866125df565b91506121e6868361269a90919063ffffffff16565b90509550959350505050565b600073ffffffffffffffffffffffffffffffffffffffff168273ffffffffffffffffffffffffffffffffffffffff161415612262576040517f08c379a0000000000000000000000000000000000000000000000000000000008152600401612259906148ea565b60405180910390fd5b61226e600083836121bd565b612283816002546110e290919063ffffffff16565b6002819055506122da816000808573ffffffffffffffffffffffffffffffffffffffff1673ffffffffffffffffffffffffffffffffffffffff168152602001908152602001600020546110e290919063ffffffff16565b6000808473ffffffffffffffffffffffffffffffffffffffff1673ffffffffffffffffffffffffffffffffffffffff168152602001908152602001600020819055508173ffffffffffffffffffffffffffffffffffffffff16600073ffffffffffffffffffffffffffffffffffffffff167fddf252ad1be2c89b69c2b068fc378daa952ba7f163c4a11628f55a4df523b3ef8360405161237a919061490a565b60405180910390a35050565b60008061239c83856126b390919063ffffffff16565b905060006123ca6123bb60016305f5e10061272390919063ffffffff16565b836110e290919063ffffffff16565b90506123e36305f5e1008261276d90919063ffffffff16565b9250505092915050565b6123f733876127b7565b600760009054906101000a900473ffffffffffffffffffffffffffffffffffffffff1673ffffffffffffffffffffffffffffffffffffffff166388a90f518484876040518463ffffffff1660e01b8152600401612456939291906145c7565b600060405180830381600087803b15801561247057600080fd5b505af1158015612484573d6000803e3d6000fd5b5050505060008551905060005b8181101561258e5760008782815181106124a757fe5b602002602001015160000151905060008783815181106124c357fe5b60200260200101519050600081111561257f576124e1828287612965565b90508583815181106124ef57fe5b602002602001015173ffffffffffffffffffffffffffffffffffffffff1663934785b78c84848d888151811061252157fe5b6020026020010151604001516040518563ffffffff1660e01b815260040161254c9493929190614445565b600060405180830381600087803b15801561256657600080fd5b505af115801561257a573d6000803e3d6000fd5b505050505b50508080600101915050612491565b505050505050505050565b6000670de0b6b3a7640000905090565b60008183116125b857826125ba565b815b905092915050565b60006125d78383670de0b6b3a76400006129e1565b905092915050565b6000806125ef3386888787612a16565b905060008573ffffffffffffffffffffffffffffffffffffffff16633edd11288884886040518463ffffffff1660e01b81526004016126309392919061454b565b602060405180830381600087803b15801561264a57600080fd5b505af115801561265e573d6000803e3d6000fd5b505050506040513d601f19601f820116820180604052508101906126829190613a90565b905061268e81856125a9565b92505050949350505050565b60006126ab83836305f5e1006129e1565b905092915050565b6000808314156126c6576000905061271d565b60008284029050828482816126d757fe5b0414612718576040517f08c379a000000000000000000000000000000000000000000000000000000000815260040161270f906147ea565b60405180910390fd5b809150505b92915050565b600061276583836040518060400160405280601e81526020017f536166654d6174683a207375627472616374696f6e206f766572666c6f770000815250611087565b905092915050565b60006127af83836040518060400160405280601a81526020017f536166654d6174683a206469766973696f6e206279207a65726f000000000000815250612bc4565b905092915050565b600073ffffffffffffffffffffffffffffffffffffffff168273ffffffffffffffffffffffffffffffffffffffff161415612827576040517f08c379a000000000000000000000000000000000000000000000000000000000815260040161281e9061480a565b60405180910390fd5b612833826000836121bd565b61289e81604051806060016040528060228152602001614d6a602291396000808673ffffffffffffffffffffffffffffffffffffffff1673ffffffffffffffffffffffffffffffffffffffff168152602001908152602001600020546110879092919063ffffffff16565b6000808473ffffffffffffffffffffffffffffffffffffffff1673ffffffffffffffffffffffffffffffffffffffff168152602001908152602001600020819055506128f58160025461272390919063ffffffff16565b600281905550600073ffffffffffffffffffffffffffffffffffffffff168273ffffffffffffffffffffffffffffffffffffffff167fddf252ad1be2c89b69c2b068fc378daa952ba7f163c4a11628f55a4df523b3ef83604051612959919061490a565b60405180910390a35050565b600082905060008211156129da576000806129808585612c25565b915091508092503373ffffffffffffffffffffffffffffffffffffffff167f02f19ecb5bbcd7b0f0cb034005563f7ad115132d0beb073b5d32697ca94bbaa187846040516129cf92919061448a565b60405180910390a250505b9392505050565b6000806129f784866126b390919063ffffffff16565b9050612a0c838261276d90919063ffffffff16565b9150509392505050565b60008190508215612b8d5760008473ffffffffffffffffffffffffffffffffffffffff166370a08231876040518263ffffffff1660e01b8152600401612a5c91906143f3565b60206040518083038186803b158015612a7457600080fd5b505afa158015612a88573d6000803e3d6000fd5b505050506040513d601f19601f82011682018060405250810190612aac9190613a90565b9050612adb8787858873ffffffffffffffffffffffffffffffffffffffff16612c59909392919063ffffffff16565b60008573ffffffffffffffffffffffffffffffffffffffff166370a08231886040518263ffffffff1660e01b8152600401612b1691906143f3565b60206040518083038186803b158015612b2e57600080fd5b505afa158015612b42573d6000803e3d6000fd5b505050506040513d601f19601f82011682018060405250810190612b669190613a90565b9050612b8484612b7f848461272390919063ffffffff16565b6125a9565b92505050612bbb565b612bba8686848773ffffffffffffffffffffffffffffffffffffffff16612c59909392919063ffffffff16565b5b95945050505050565b60008083118290612c0b576040517f08c379a0000000000000000000000000000000000000000000000000000000008152600401612c0291906146e8565b60405180910390fd5b506000838581612c1757fe5b049050809150509392505050565b600080612c3b83856125c290919063ffffffff16565b9150612c50828561272390919063ffffffff16565b90509250929050565b612cdc846323b872dd60e01b858585604051602401612c7a9392919061440e565b604051602081830303815290604052907bffffffffffffffffffffffffffffffffffffffffffffffffffffffff19166020820180517bffffffffffffffffffffffffffffffffffffffffffffffffffffffff8381831617835250505050612ce2565b50505050565b6060612d44826040518060400160405280602081526020017f5361666545524332303a206c6f772d6c6576656c2063616c6c206661696c65648152508573ffffffffffffffffffffffffffffffffffffffff16612da99092919063ffffffff16565b9050600081511115612da45780806020019051810190612d64919061382d565b612da3576040517f08c379a0000000000000000000000000000000000000000000000000000000008152600401612d9a9061488a565b60405180910390fd5b5b505050565b6060612db88484600085612dc1565b90509392505050565b6060612dcc85612ee4565b612e0b576040517f08c379a0000000000000000000000000000000000000000000000000000000008152600401612e029061486a565b60405180910390fd5b600060608673ffffffffffffffffffffffffffffffffffffffff168587604051612e3591906143dc565b60006040518083038185875af1925050503d8060008114612e72576040519150601f19603f3d011682016040523d82523d6000602084013e612e77565b606091505b50915091508115612e8c578092505050612edc565b600081511115612e9f5780518082602001fd5b836040517f08c379a0000000000000000000000000000000000000000000000000000000008152600401612ed391906146e8565b60405180910390fd5b949350505050565b600080823b905060008111915050919050565b6040518060600160405280612f0a612f61565b8152602001600073ffffffffffffffffffffffffffffffffffffffff168152602001600060ff1681525090565b60405180608001604052806000151581526020016060815260200160608152602001606081525090565b6040518060c00160405280600073ffffffffffffffffffffffffffffffffffffffff16815260200160006007811115612f9657fe5b81526020016000151581526020016000815260200160008152602001600081525090565b6040518060a0016040528060608152602001600060ff168152602001600015158152602001600015158152602001600081525090565b6040518060800160405280600081526020016060815260200160608152602001606081525090565b60008135905061302781614cfd565b92915050565b60008151905061303c81614cfd565b92915050565b60008083601f84011261305457600080fd5b8235905067ffffffffffffffff81111561306d57600080fd5b60208301915083602082028301111561308557600080fd5b9250929050565b600082601f83011261309d57600080fd5b81516130b06130ab82614a1a565b6149ed565b915081818352602084019350602081019050838560208402820111156130d557600080fd5b60005b8381101561310557816130eb888261302d565b8452602084019350602083019250506001810190506130d8565b5050505092915050565b600082601f83011261312057600080fd5b815161313361312e82614a42565b6149ed565b915081818352602084019350602081019050838560c084028201111561315857600080fd5b60005b83811015613188578161316e8882613461565b845260208401935060c0830192505060018101905061315b565b5050505092915050565b60008083601f8401126131a457600080fd5b8235905067ffffffffffffffff8111156131bd57600080fd5b6020830191508360208202830111156131d557600080fd5b9250929050565b600082601f8301126131ed57600080fd5b81516132006131fb82614a6a565b6149ed565b9150818183526020840193506020810190508385602084028201111561322557600080fd5b60005b83811015613255578161323b888261368a565b845260208401935060208301925050600181019050613228565b5050505092915050565b600082601f83011261327057600080fd5b815161328361327e82614a92565b6149ed565b915081818352602084019350602081019050838560208402820111156132a857600080fd5b60005b838110156132d857816132be888261369f565b8452602084019350602083019250506001810190506132ab565b5050505092915050565b6000815190506132f181614d14565b92915050565b60008151905061330681614d2b565b92915050565b600082601f83011261331d57600080fd5b815161333061332b82614aba565b6149ed565b9150808252602083016020830185838301111561334c57600080fd5b613357838284614cac565b50505092915050565b600060a0828403121561337257600080fd5b61337c60a06149ed565b9050600082015167ffffffffffffffff81111561339857600080fd5b6133a48482850161310f565b60008301525060206133b88482850161369f565b60208301525060406133cc848285016132e2565b60408301525060606133e0848285016132e2565b60608301525060806133f48482850161368a565b60808301525092915050565b6000610100828403121561341357600080fd5b61341d60606149ed565b9050600061342d84828501613461565b60008301525060c06134418482850161302d565b60208301525060e06134558482850161369f565b60408301525092915050565b600060c0828403121561347357600080fd5b61347d60c06149ed565b9050600061348d8482850161302d565b60008301525060206134a1848285016132f7565b60208301525060406134b5848285016132e2565b60408301525060606134c98482850161368a565b60608301525060806134dd8482850161368a565b60808301525060a06134f18482850161368a565b60a08301525092915050565b60006080828403121561350f57600080fd5b61351960806149ed565b90506000613529848285016132e2565b600083015250602082015167ffffffffffffffff81111561354957600080fd5b6135558482850161310f565b602083015250604082015167ffffffffffffffff81111561357557600080fd5b6135818482850161308c565b604083015250606082015167ffffffffffffffff8111156135a157600080fd5b6135ad8482850161325f565b60608301525092915050565b6000608082840312156135cb57600080fd5b6135d560806149ed565b905060006135e58482850161368a565b600083015250602082015167ffffffffffffffff81111561360557600080fd5b6136118482850161310f565b602083015250604082015167ffffffffffffffff81111561363157600080fd5b61363d8482850161308c565b604083015250606082015167ffffffffffffffff81111561365d57600080fd5b6136698482850161325f565b60608301525092915050565b60008135905061368481614d3b565b92915050565b60008151905061369981614d3b565b92915050565b6000815190506136ae81614d52565b92915050565b6000602082840312156136c657600080fd5b60006136d484828501613018565b91505092915050565b600080604083850312156136f057600080fd5b60006136fe85828601613018565b925050602061370f85828601613018565b9150509250929050565b60008060006060848603121561372e57600080fd5b600061373c86828701613018565b935050602061374d86828701613018565b925050604061375e86828701613675565b9150509250925092565b6000806040838503121561377b57600080fd5b600061378985828601613018565b925050602061379a85828601613675565b9150509250929050565b6000806000806000606086880312156137bc57600080fd5b600086013567ffffffffffffffff8111156137d657600080fd5b6137e288828901613042565b9550955050602086013567ffffffffffffffff81111561380157600080fd5b61380d88828901613192565b9350935050604061382088828901613018565b9150509295509295909350565b60006020828403121561383f57600080fd5b600061384d848285016132e2565b91505092915050565b6000806040838503121561386957600080fd5b6000613877858286016132e2565b925050602083015167ffffffffffffffff81111561389457600080fd5b6138a08582860161330c565b9150509250929050565b6000806000606084860312156138bf57600080fd5b60006138cd868287016132e2565b935050602084015167ffffffffffffffff8111156138ea57600080fd5b6138f68682870161330c565b925050604084015167ffffffffffffffff81111561391357600080fd5b61391f868287016131dc565b9150509250925092565b60008060006060848603121561393e57600080fd5b600061394c868287016132e2565b935050602084015167ffffffffffffffff81111561396957600080fd5b6139758682870161330c565b9250506040613986868287016132e2565b9150509250925092565b60008061012083850312156139a457600080fd5b60006139b2858286016132e2565b92505060206139c385828601613400565b9150509250929050565b6000602082840312156139df57600080fd5b600082015167ffffffffffffffff8111156139f957600080fd5b613a0584828501613360565b91505092915050565b600060208284031215613a2057600080fd5b600082015167ffffffffffffffff811115613a3a57600080fd5b613a46848285016134fd565b91505092915050565b600060208284031215613a6157600080fd5b600082015167ffffffffffffffff811115613a7b57600080fd5b613a87848285016135b9565b91505092915050565b600060208284031215613aa257600080fd5b6000613ab08482850161368a565b91505092915050565b60008060408385031215613acc57600080fd5b6000613ada85828601613675565b9250506020613aeb85828601613018565b9150509250929050565b6000613b018383613b55565b60208301905092915050565b6000613b1983836142aa565b60c08301905092915050565b6000613b3183836143a0565b60208301905092915050565b6000613b4983836143be565b60208301905092915050565b613b5e81614bfc565b82525050565b613b6d81614bfc565b82525050565b6000613b7e82614b26565b613b888185614b9c565b9350613b9383614ae6565b8060005b83811015613bc4578151613bab8882613af5565b9750613bb683614b68565b925050600181019050613b97565b5085935050505092915050565b6000613bdc82614b31565b613be68185614bad565b9350613bf183614af6565b8060005b83811015613c22578151613c098882613b0d565b9750613c1483614b75565b925050600181019050613bf5565b5085935050505092915050565b6000613c3a82614b3c565b613c448185614bbe565b9350613c4f83614b06565b8060005b83811015613c80578151613c678882613b25565b9750613c7283614b82565b925050600181019050613c53565b5085935050505092915050565b6000613c9882614b47565b613ca28185614bcf565b9350613cad83614b16565b8060005b83811015613cde578151613cc58882613b3d565b9750613cd083614b8f565b925050600181019050613cb1565b5085935050505092915050565b613cf481614c0e565b82525050565b613d0381614c0e565b82525050565b6000613d1482614b52565b613d1e8185614be0565b9350613d2e818560208601614cac565b80840191505092915050565b613d4381614c64565b82525050565b613d5281614c88565b82525050565b613d6181614c9a565b82525050565b6000613d7282614b5d565b613d7c8185614beb565b9350613d8c818560208601614cac565b613d9581614cdf565b840191505092915050565b6000613dad602383614beb565b91507f45524332303a207472616e7366657220746f20746865207a65726f206164647260008301527f65737300000000000000000000000000000000000000000000000000000000006020830152604082019050919050565b6000613e13602283614beb565b91507f45524332303a20617070726f766520746f20746865207a65726f20616464726560008301527f73730000000000000000000000000000000000000000000000000000000000006020830152604082019050919050565b6000613e79601b83614beb565b91507f536166654d6174683a206164646974696f6e206f766572666c6f7700000000006000830152602082019050919050565b6000613eb9601483614beb565b91507f496e707574206172726179206d69736d617463680000000000000000000000006000830152602082019050919050565b6000613ef9601a83614beb565b91507f4e6f206d6173736574207175616e7469747920746f206d696e740000000000006000830152602082019050919050565b6000613f39601883614beb565b91507f4d7573742072656465656d20736f6d65206241737365747300000000000000006000830152602082019050919050565b6000613f79601683614beb565b91507f5175616e74697479206d757374206e6f742062652030000000000000000000006000830152602082019050919050565b6000613fb9602183614beb565b91507f536166654d6174683a206d756c7469706c69636174696f6e206f766572666c6f60008301527f77000000000000000000000000000000000000000000000000000000000000006020830152604082019050919050565b600061401f602183614beb565b91507f45524332303a206275726e2066726f6d20746865207a65726f2061646472657360008301527f73000000000000000000000000000000000000000000000000000000000000006020830152604082019050919050565b6000614085602583614beb565b91507f45524332303a207472616e736665722066726f6d20746865207a65726f20616460008301527f64726573730000000000000000000000000000000000000000000000000000006020830152604082019050919050565b60006140eb602483614beb565b91507f45524332303a20617070726f76652066726f6d20746865207a65726f2061646460008301527f72657373000000000000000000000000000000000000000000000000000000006020830152604082019050919050565b6000614151601d83614beb565b91507f416464726573733a2063616c6c20746f206e6f6e2d636f6e74726163740000006000830152602082019050919050565b6000614191602a83614beb565b91507f5361666545524332303a204552433230206f7065726174696f6e20646964206e60008301527f6f742073756363656564000000000000000000000000000000000000000000006020830152604082019050919050565b60006141f7601b83614beb565b91507f496e76616c696420726564656d7074696f6e207175616e7469747900000000006000830152602082019050919050565b6000614237601983614beb565b91507f4d75737420626520612076616c696420726563697069656e74000000000000006000830152602082019050919050565b6000614277601f83614beb565b91507f45524332303a206d696e7420746f20746865207a65726f2061646472657373006000830152602082019050919050565b60c0820160008201516142c06000850182613b55565b5060208201516142d36020850182613d49565b5060408201516142e66040850182613ceb565b5060608201516142f960608501826143a0565b50608082015161430c60808501826143a0565b5060a082015161431f60a08501826143a0565b50505050565b60c08201600082015161433b6000850182613b55565b50602082015161434e6020850182613d49565b5060408201516143616040850182613ceb565b50606082015161437460608501826143a0565b50608082015161438760808501826143a0565b5060a082015161439a60a08501826143a0565b50505050565b6143a981614c4d565b82525050565b6143b881614c4d565b82525050565b6143c781614c57565b82525050565b6143d681614c57565b82525050565b60006143e88284613d09565b915081905092915050565b60006020820190506144086000830184613b64565b92915050565b60006060820190506144236000830186613b64565b6144306020830185613b64565b61443d60408301846143af565b949350505050565b600060808201905061445a6000830187613b64565b6144676020830186613b64565b61447460408301856143af565b6144816060830184613cfa565b95945050505050565b600060408201905061449f6000830185613b64565b6144ac60208301846143af565b9392505050565b60006080820190506144c86000830187613b64565b6144d560208301866143af565b6144e26040830185613b64565b6144ef60608301846143af565b95945050505050565b600060808201905061450d6000830187613b64565b61451a60208301866143af565b818103604083015261452c8185613b73565b905081810360608301526145408184613c2f565b905095945050505050565b60006060820190506145606000830186613b64565b61456d60208301856143af565b61457a6040830184613cfa565b949350505050565b6000606082019050818103600083015261459c8186613b73565b905081810360208301526145b08185613c2f565b90506145bf6040830184613cfa565b949350505050565b600060608201905081810360008301526145e18186613c8d565b905081810360208301526145f58185613b73565b905081810360408301526146098184613c2f565b9050949350505050565b60006020820190506146286000830184613cfa565b92915050565b600060a0820190506146436000830188613cfa565b61465060208301876143af565b81810360408301526146628186613bd1565b905081810360608301526146768185613c8d565b9050818103608083015261468a8184613c2f565b90509695505050505050565b60006020820190506146ab6000830184613d3a565b92915050565b60006060820190506146c66000830186613d58565b6146d36020830185613b64565b6146e060408301846143af565b949350505050565b600060208201905081810360008301526147028184613d67565b905092915050565b6000602082019050818103600083015261472381613da0565b9050919050565b6000602082019050818103600083015261474381613e06565b9050919050565b6000602082019050818103600083015261476381613e6c565b9050919050565b6000602082019050818103600083015261478381613eac565b9050919050565b600060208201905081810360008301526147a381613eec565b9050919050565b600060208201905081810360008301526147c381613f2c565b9050919050565b600060208201905081810360008301526147e381613f6c565b9050919050565b6000602082019050818103600083015261480381613fac565b9050919050565b6000602082019050818103600083015261482381614012565b9050919050565b6000602082019050818103600083015261484381614078565b9050919050565b60006020820190508181036000830152614863816140de565b9050919050565b6000602082019050818103600083015261488381614144565b9050919050565b600060208201905081810360008301526148a381614184565b9050919050565b600060208201905081810360008301526148c3816141ea565b9050919050565b600060208201905081810360008301526148e38161422a565b9050919050565b600060208201905081810360008301526149038161426a565b9050919050565b600060208201905061491f60008301846143af565b92915050565b600060408201905061493a60008301856143af565b818103602083015261494c8184613bd1565b90509392505050565b600060608201905061496a60008301866143af565b818103602083015261497c8185613bd1565b905081810360408301526149908184613c2f565b9050949350505050565b6000610100820190506149b060008301866143af565b6149bd6020830185614325565b6149ca60e08301846143af565b949350505050565b60006020820190506149e760008301846143cd565b92915050565b6000604051905081810181811067ffffffffffffffff82111715614a1057600080fd5b8060405250919050565b600067ffffffffffffffff821115614a3157600080fd5b602082029050602081019050919050565b600067ffffffffffffffff821115614a5957600080fd5b602082029050602081019050919050565b600067ffffffffffffffff821115614a8157600080fd5b602082029050602081019050919050565b600067ffffffffffffffff821115614aa957600080fd5b602082029050602081019050919050565b600067ffffffffffffffff821115614ad157600080fd5b601f19601f8301169050602081019050919050565b6000819050602082019050919050565b6000819050602082019050919050565b6000819050602082019050919050565b6000819050602082019050919050565b600081519050919050565b600081519050919050565b600081519050919050565b600081519050919050565b600081519050919050565b600081519050919050565b6000602082019050919050565b6000602082019050919050565b6000602082019050919050565b6000602082019050919050565b600082825260208201905092915050565b600082825260208201905092915050565b600082825260208201905092915050565b600082825260208201905092915050565b600081905092915050565b600082825260208201905092915050565b6000614c0782614c2d565b9050919050565b60008115159050919050565b6000819050614c2882614cf0565b919050565b600073ffffffffffffffffffffffffffffffffffffffff82169050919050565b6000819050919050565b600060ff82169050919050565b6000614c6f82614c76565b9050919050565b6000614c8182614c2d565b9050919050565b6000614c9382614c1a565b9050919050565b6000614ca582614c57565b9050919050565b60005b83811015614cca578082015181840152602081019050614caf565b83811115614cd9576000848401525b50505050565b6000601f19601f8301169050919050565b60088110614cfa57fe5b50565b614d0681614bfc565b8114614d1157600080fd5b50565b614d1d81614c0e565b8114614d2857600080fd5b50565b60088110614d3857600080fd5b50565b614d4481614c4d565b8114614d4f57600080fd5b50565b614d5b81614c57565b8114614d6657600080fd5b5056fe45524332303a206275726e20616d6f756e7420657863656564732062616c616e636545524332303a207472616e7366657220616d6f756e7420657863656564732062616c616e636545524332303a207472616e7366657220616d6f756e74206578636565647320616c6c6f77616e636545524332303a2064656372656173656420616c6c6f77616e63652062656c6f77207a65726fa26469706673582212209ce0d1f8fd53bc8586d9bf8dcc8bf19c399be9371dedea2875df5a8fa636dffb64736f6c634300060c0033",
  "immutableReferences": {},
  "source": "// SPDX-License-Identifier: SimPL-2.0\npragma solidity 0.6.12;\npragma experimental ABIEncoderV2;\n\n// External\nimport { IBasketManager } from \"./interfaces/IBasketManager.sol\";\nimport { IPlatformIntegration } from \"./interfaces/IPlatformIntegration.sol\";\nimport { IForgeValidator } from \"./forge-validator/IForgeValidator.sol\";\n\n// Internal\nimport { IMasset } from \"./interfaces/IMasset.sol\";\n// import { InitializableToken } from \"./shared/InitializableToken.sol\";\nimport \"@openzeppelin/contracts/token/ERC20/ERC20.sol\";\nimport { BasketManager } from \"./BasketManager.sol\";\nimport { XStableDollar } from \"./XStableDollar.sol\";\nimport { StableMath } from \"./shared/StableMath.sol\";\nimport { MassetHelpers } from \"./shared/MassetHelpers.sol\";\n\ncontract Masset is IMasset, ERC20 {\n\n    using StableMath for uint256;\n\n    // \n    uint256 private version = 1;\n\n    // , \n    IBasketManager private basketManager;\n    IForgeValidator public forgeValidator;\n\n    // \n    event Minted(address indexed minter, address recipient, uint256 mAssetQuantity, address bAsset, uint256 bAssetQuantity);\n    event MintedMulti(address indexed minter, address recipient, uint256 mAssetQuantity, address[] bAssets, uint256[] bAssetQuantities);\n    // \n    event Redeemed(address indexed redeemer, address recipient, uint256 mAssetQuantity, address[] bAssets, uint256[] bAssetQuantities);\n    event RedeemedMasset(address indexed redeemer, address recipient, uint256 mAssetQuantity);\n    // \n    event PaidFee(address indexed payer, address asset, uint256 feeQuantity);\n\n    // \n    constructor(string memory name, string memory symbol) public ERC20(name, symbol) {}\n\n    // \n    function initialize(\n        address _basketManager,\n        address _forgeValidator\n    )\n        external\n    {\n        basketManager = IBasketManager(_basketManager);\n        forgeValidator = IForgeValidator(_forgeValidator);\n    }\n\n    // ()\n    function getVersion() public view returns (uint256) {\n        return version;\n    }\n\n    /**\n     * 1:1 XSDT\n     * \n     * _bAsset         \n     * _bAssetQuantity \n     * massetMinted    XSDT\n     */\n    function mint(address _bAsset, uint256 _bAssetAmount) override external returns (uint256 massetMinted){\n        return _mintTo(_bAsset, _bAssetAmount, msg.sender);\n    }\n\n    // XSDT\n    function _mintTo(address _bAsset, uint256 _bAssetAmount, address _recipient) internal returns (uint256 massetMinted){\n        // \n        require(_recipient != address(0), \"Must be a valid recipient\");\n        // 0\n        require(_bAssetAmount > 0, \"Quantity must not be 0\");\n\n        (bool isValid, BassetDetails memory bInfo) = basketManager.prepareForgeBasset(_bAsset, _bAssetAmount, true);\n        if(!isValid) return 0;\n\n        // Transfer collateral to the platform integration address and call deposit\n        address integrator = bInfo.integrator;\n        (uint256 quantityDeposited, uint256 ratioedDeposit) =\n            _depositTokens(_bAsset, bInfo.bAsset.ratio, integrator, bInfo.bAsset.isTransferFeeCharged, _bAssetAmount);\n\n        // Validation should be after token transfer, as bAssetQty is unknown before\n        (bool mintValid, string memory reason) = forgeValidator.validateMint(totalSupply(), bInfo.bAsset, quantityDeposited);\n        require(mintValid, reason);\n\n        // ,  basket \n        basketManager.increaseVaultBalance(0, integrator, quantityDeposited);\n\n        // XSDT\n        _mint(_recipient, ratioedDeposit);\n        emit Minted(msg.sender, _recipient, ratioedDeposit, _bAsset, quantityDeposited);\n\n        return ratioedDeposit;\n    }\n\n    /**\n     * Mint with multiple bAssets, at a 1:1 ratio to mAsset. This contract\n     *      must have approval to spend the senders bAssets\n     * _bAssets          Non-duplicate address array of bAssets with which to mint\n     * _bAssetQuantity   Quantity of each bAsset to mint. Order of array\n     *                          should mirror the above\n     * _recipient        Address to receive the newly minted mAsset tokens\n     * massetMinted     Number of newly minted mAssets\n     */\n    function mintMulti(\n        address[] calldata _bAssets,\n        uint256[] calldata _bAssetQuantity,\n        address _recipient\n    )\n        external\n        returns(uint256 massetMinted)\n    {\n        return _mintTo(_bAssets, _bAssetQuantity, _recipient);\n    }\n\n    // \n    function _mintTo(\n        address[] memory _bAssets,\n        uint256[] memory _bAssetQuantities,\n        address _recipient\n    )\n        internal\n        returns (uint256 massetMinted)\n    {\n        require(_recipient != address(0), \"Must be a valid recipient\");\n        uint256 len = _bAssetQuantities.length;\n        require(len > 0 && len == _bAssets.length, \"Input array mismatch\");\n\n        // Load only needed bAssets in array\n        ForgePropsMulti memory props\n            = basketManager.prepareForgeBassets(_bAssets, _bAssetQuantities, true);\n        if(!props.isValid) return 0;\n\n        uint256 mAssetQuantity = 2;\n        uint256[] memory receivedQty = new uint256[](len);\n\n        // Transfer the Bassets to the integrator, update storage and calc MassetQ\n        for(uint256 i = 0; i < len; i++){\n            uint256 bAssetQuantity = _bAssetQuantities[i];\n            if(bAssetQuantity > 0){\n                // bAsset == bAssets[i] == basket.bassets[indexes[i]]\n                Basset memory bAsset = props.bAssets[i];\n\n                (uint256 quantityDeposited, uint256 ratioedDeposit) =\n                    _depositTokens(bAsset.addr, bAsset.ratio, props.integrators[i], bAsset.isTransferFeeCharged, bAssetQuantity);\n\n                receivedQty[i] = quantityDeposited;\n                mAssetQuantity = mAssetQuantity.add(ratioedDeposit);\n            }\n        }\n        require(mAssetQuantity > 0, \"No masset quantity to mint\");\n\n        basketManager.increaseVaultBalances(props.indexes, props.integrators, receivedQty);\n\n        // Validate the proposed mint, after token transfer\n        (bool mintValid, string memory reason) = \n                    forgeValidator.validateMintMulti(totalSupply(), props.bAssets, receivedQty);\n        require(mintValid, reason);\n\n        // Mint the Masset\n        _mint(_recipient, mAssetQuantity);\n        emit MintedMulti(msg.sender, _recipient, mAssetQuantity, _bAssets, _bAssetQuantities);\n\n        return mAssetQuantity;\n    }\n\n    // Deposits tokens into the platform integration and returns the ratioed amount\n    function _depositTokens(\n        address _bAsset,\n        uint256 _bAssetRatio,\n        address _integrator,\n        bool _erc20TransferFeeCharged,\n        uint256 _quantity\n    )\n        internal\n        returns (uint256 quantityDeposited, uint256 ratioedDeposit)\n    {\n        quantityDeposited = _depositTokens(_bAsset, _integrator, _erc20TransferFeeCharged, _quantity);\n        ratioedDeposit = quantityDeposited.mulRatioTruncate(_bAssetRatio);\n    }\n\n    // Deposits tokens into the platform integration and returns the deposited amount\n    function _depositTokens(\n        address _bAsset,\n        address _integrator,\n        bool _erc20TransferFeeCharged,\n        uint256 _quantity\n    )\n        internal\n        returns (uint256 quantityDeposited)\n    {\n        uint256 quantityTransferred = MassetHelpers.transferTokens(msg.sender, _integrator, _bAsset, _erc20TransferFeeCharged, _quantity);\n        uint256 deposited = IPlatformIntegration(_integrator).deposit(_bAsset, quantityTransferred, _erc20TransferFeeCharged);\n        quantityDeposited = StableMath.min(deposited, _quantity);\n    }\n\n    /**\n     * Credits the sender with a certain quantity of selected bAsset, in exchange for burning the\n     *      relative mAsset quantity from the sender. Sender also incurs a small mAsset fee, if any.\n     * _bAsset           Address of the bAsset to redeem\n     * _bAssetQuantity   Units of the bAsset to redeem\n     * massetMinted     Relative number of mAsset units burned to pay for the bAssets\n     */\n    function redeem(\n        address _bAsset,\n        uint256 _bAssetQuantity\n    )\n        external\n        returns (uint256 massetRedeemed)\n    {\n        return _redeemTo(_bAsset, _bAssetQuantity, msg.sender);\n    }\n\n    function redeemMulti(\n        address[] calldata _bAssets,\n        uint256[] calldata _bAssetQuantities,\n        address _recipient\n    )\n        external\n        returns (uint256 massetRedeemed)\n    {\n        return _redeemTo(_bAssets, _bAssetQuantities, _recipient);\n    }\n\n    /**\n     * Credits a recipient with a proportionate amount of bAssets, relative to current vault\n     * balance levels and desired mAsset quantity. Burns the mAsset as payment.\n     * _mAssetQuantity   Quantity of mAsset to redeem\n     * _recipient        Address to credit the withdrawn bAssets\n     */\n    function redeemMasset(\n        uint256 _mAssetQuantity,\n        address _recipient\n    )\n        external\n    {\n        _redeemMasset(_mAssetQuantity, _recipient);\n    }\n\n    /** @dev Casting to arrays for use in redeemMulti func */\n    function _redeemTo(\n        address _bAsset,\n        uint256 _bAssetQuantity,\n        address _recipient\n    )\n        internal\n        returns (uint256 massetRedeemed)\n    {\n        address[] memory bAssets = new address[](1);\n        uint256[] memory quantities = new uint256[](1);\n        bAssets[0] = _bAsset;\n        quantities[0] = _bAssetQuantity;\n        return _redeemTo(bAssets, quantities, _recipient);\n    }\n\n    // Redeem mAsset for one or more bAssets\n    function _redeemTo(\n        address[] memory _bAssets,\n        uint256[] memory _bAssetQuantities,\n        address _recipient\n    )\n        internal\n        returns (uint256 massetRedeemed)\n    {\n        require(_recipient != address(0), \"Must be a valid recipient\");\n        uint256 bAssetCount = _bAssetQuantities.length;\n        require(bAssetCount > 0 && bAssetCount == _bAssets.length, \"Input array mismatch\");\n\n        // basket\n        Basket memory basket = basketManager.getBasket();\n\n        // \n        ForgePropsMulti memory props = basketManager.prepareForgeBassets(_bAssets, _bAssetQuantities, false);\n        if(!props.isValid) return 0;\n\n        // Validate redemption\n        (bool redemptionValid, string memory reason, bool applyFee) =\n            forgeValidator.validateRedemption(basket.failed, totalSupply(), basket.bassets, props.indexes, _bAssetQuantities);\n        require(redemptionValid, reason);\n\n        // Calc total redeemed mAsset quantity\n        // XSDT\n        for(uint256 i = 0; i < bAssetCount; i++){\n            uint256 bAssetQuantity = _bAssetQuantities[i];\n            if(bAssetQuantity > 0){\n                // Calc equivalent mAsset amount\n                uint256 ratioedBasset = bAssetQuantity.mulRatioTruncateCeil(props.bAssets[i].ratio);\n                bAssetCount = bAssetCount.add(ratioedBasset);\n            }\n        }\n        require(bAssetCount > 0, \"Must redeem some bAssets\");\n\n        // Redemption has fee? Fetch the rate\n        // uint256 fee = applyFee ? swapFee : 0;\n        // \n        uint256 fee = 0;\n\n        // Apply fees, burn mAsset and return bAsset to recipient\n        _settleRedemption(_recipient, bAssetCount, props.bAssets, _bAssetQuantities, props.indexes, props.integrators, fee);\n\n        emit Redeemed(msg.sender, _recipient, bAssetCount, _bAssets, _bAssetQuantities);\n        return bAssetCount;\n    }\n\n    // XSDT\n    function _redeemMasset(\n        uint256 _mAssetQuantity,\n        address _recipient\n    )\n        internal\n    {\n        require(_recipient != address(0), \"Must be a valid recipient\");\n        require(_mAssetQuantity > 0, \"Invalid redemption quantity\");\n\n        // Fetch high level details\n        RedeemPropsMulti memory props = basketManager.prepareRedeemMulti();\n        uint256 colRatio = StableMath.min(props.colRatio, StableMath.getFullScale());\n\n        // Ensure payout is related to the collateralised mAsset quantity\n        uint256 collateralisedMassetQuantity = _mAssetQuantity.mulTruncate(colRatio);\n\n        // Calculate redemption quantities\n        (bool redemptionValid, string memory reason, uint256[] memory bAssetQuantities) =\n            forgeValidator.calculateRedemptionMulti(collateralisedMassetQuantity, props.bAssets);\n        require(redemptionValid, reason);\n\n        // 0\n        uint256 redemptionFee = 0;\n\n        // Apply fees, burn mAsset and return bAsset to recipient\n        _settleRedemption(_recipient, _mAssetQuantity, props.bAssets, bAssetQuantities, props.indexes, props.integrators, redemptionFee);\n\n        emit RedeemedMasset(msg.sender, _recipient, _mAssetQuantity);\n    }\n\n    /**\n     * Internal func to update contract state post-redemption\n     * @param _recipient        Recipient of the bAssets\n     * @param _mAssetQuantity   Total amount of mAsset to burn from sender\n     * @param _bAssets          Array of bAssets to redeem\n     * @param _bAssetQuantities Array of bAsset quantities\n     * @param _indices          Matching indices for the bAsset array\n     * @param _integrators      Matching integrators for the bAsset array\n     * @param _feeRate          Fee rate to be applied to this redemption\n     */\n    function _settleRedemption(\n        address _recipient,\n        uint256 _mAssetQuantity,\n        Basset[] memory _bAssets,\n        uint256[] memory _bAssetQuantities,\n        uint8[] memory _indices,\n        address[] memory _integrators,\n        uint256 _feeRate\n    ) \n        internal \n    {\n        // Burn the full amount of Masset\n        _burn(msg.sender, _mAssetQuantity);\n\n        // Reduce the amount of bAssets marked in the vault\n        basketManager.decreaseVaultBalances(_indices, _integrators, _bAssetQuantities);\n\n        // Transfer the Bassets to the recipient\n        uint256 bAssetCount = _bAssets.length;\n        for(uint256 i = 0; i < bAssetCount; i++){\n            address bAsset = _bAssets[i].addr;\n            uint256 q = _bAssetQuantities[i];\n            if(q > 0){\n                // Deduct the redemption fee, if any\n                q = _deductSwapFee(bAsset, q, _feeRate);\n                // Transfer the Bassets to the user\n                IPlatformIntegration(_integrators[i]).withdraw(_recipient, bAsset, q, _bAssets[i].isTransferFeeCharged);\n            }\n        }\n    }\n\n    /**\n     * Pay the forging fee by burning relative amount of mAsset\n     * @param _bAssetQuantity     Exact amount of bAsset being swapped out\n     */\n    function _deductSwapFee(address _asset, uint256 _bAssetQuantity, uint256 _feeRate)\n        private\n        returns (uint256 outputMinusFee)\n    {\n        outputMinusFee = _bAssetQuantity;\n        if(_feeRate > 0){\n            (uint256 fee, uint256 output) = _calcSwapFee(_bAssetQuantity, _feeRate);\n            outputMinusFee = output;\n            emit PaidFee(msg.sender, _asset, fee);\n        }\n    }\n\n    /**\n     * Pay the forging fee by burning relative amount of mAsset\n     * @param _bAssetQuantity     Exact amount of bAsset being swapped out\n     */\n    function _calcSwapFee(uint256 _bAssetQuantity, uint256 _feeRate)\n        private\n        pure\n        returns (uint256 feeAmount, uint256 outputMinusFee)\n    {\n        // e.g. for 500 massets.\n        // feeRate == 1% == 1e16. _quantity == 5e20.\n        // (5e20 * 1e16) / 1e18 = 5e18\n        feeAmount = _bAssetQuantity.mulTruncate(_feeRate);\n        outputMinusFee = _bAssetQuantity.sub(feeAmount);\n    }\n\n}",
  "sourcePath": "/Users/zhangxuesong/mysoft/defi/XStableDollar-contracts/stabledollar/contracts/Masset.sol",
  "compiler": {
    "name": "solc",
    "version": "0.6.12+commit.27d51765.Emscripten.clang"
  },
  "schemaVersion": "3.3.2",
  "updatedAt": "2020-11-13T02:47:25.714Z",
  "devdoc": {
    "kind": "dev",
    "methods": {
      "allowance(address,address)": {
        "details": "See {IERC20-allowance}."
      },
      "approve(address,uint256)": {
        "details": "See {IERC20-approve}. Requirements: - `spender` cannot be the zero address."
      },
      "balanceOf(address)": {
        "details": "See {IERC20-balanceOf}."
      },
      "decimals()": {
        "details": "Returns the number of decimals used to get its user representation. For example, if `decimals` equals `2`, a balance of `505` tokens should be displayed to a user as `5,05` (`505 / 10 ** 2`). Tokens usually opt for a value of 18, imitating the relationship between Ether and Wei. This is the value {ERC20} uses, unless {_setupDecimals} is called. NOTE: This information is only used for _display_ purposes: it in no way affects any of the arithmetic of the contract, including {IERC20-balanceOf} and {IERC20-transfer}."
      },
      "decreaseAllowance(address,uint256)": {
        "details": "Atomically decreases the allowance granted to `spender` by the caller. This is an alternative to {approve} that can be used as a mitigation for problems described in {IERC20-approve}. Emits an {Approval} event indicating the updated allowance. Requirements: - `spender` cannot be the zero address. - `spender` must have allowance for the caller of at least `subtractedValue`."
      },
      "increaseAllowance(address,uint256)": {
        "details": "Atomically increases the allowance granted to `spender` by the caller. This is an alternative to {approve} that can be used as a mitigation for problems described in {IERC20-approve}. Emits an {Approval} event indicating the updated allowance. Requirements: - `spender` cannot be the zero address."
      },
      "name()": {
        "details": "Returns the name of the token."
      },
      "symbol()": {
        "details": "Returns the symbol of the token, usually a shorter version of the name."
      },
      "totalSupply()": {
        "details": "See {IERC20-totalSupply}."
      },
      "transfer(address,uint256)": {
        "details": "See {IERC20-transfer}. Requirements: - `recipient` cannot be the zero address. - the caller must have a balance of at least `amount`."
      },
      "transferFrom(address,address,uint256)": {
        "details": "See {IERC20-transferFrom}. Emits an {Approval} event indicating the updated allowance. This is not required by the EIP. See the note at the beginning of {ERC20}; Requirements: - `sender` and `recipient` cannot be the zero address. - `sender` must have a balance of at least `amount`. - the caller must have allowance for ``sender``'s tokens of at least `amount`."
      }
    },
    "version": 1
  },
  "userdoc": {
    "kind": "user",
    "methods": {
      "mint(address,uint256)": {
        "notice": "1:1 XSDT  _bAsset          _bAssetQuantity  massetMinted    XSDT"
      },
      "mintMulti(address[],uint256[],address)": {
        "notice": "Mint with multiple bAssets, at a 1:1 ratio to mAsset. This contract      must have approval to spend the senders bAssets _bAssets          Non-duplicate address array of bAssets with which to mint _bAssetQuantity   Quantity of each bAsset to mint. Order of array                          should mirror the above _recipient        Address to receive the newly minted mAsset tokens massetMinted     Number of newly minted mAssets"
      },
      "redeem(address,uint256)": {
        "notice": "Credits the sender with a certain quantity of selected bAsset, in exchange for burning the      relative mAsset quantity from the sender. Sender also incurs a small mAsset fee, if any. _bAsset           Address of the bAsset to redeem _bAssetQuantity   Units of the bAsset to redeem massetMinted     Relative number of mAsset units burned to pay for the bAssets"
      },
      "redeemMasset(uint256,address)": {
        "notice": "Credits a recipient with a proportionate amount of bAssets, relative to current vault balance levels and desired mAsset quantity. Burns the mAsset as payment. _mAssetQuantity   Quantity of mAsset to redeem _recipient        Address to credit the withdrawn bAssets"
      }
    },
    "version": 1
  }
}