{
  "contractName": "MockAAVE",
  "abi": [
    {
      "inputs": [
        {
          "internalType": "address",
          "name": "_bAsset",
          "type": "address"
        },
        {
          "internalType": "uint256",
          "name": "quantityTransferred",
          "type": "uint256"
        },
        {
          "internalType": "bool",
          "name": "_erc20TransferFeeCharged",
          "type": "bool"
        }
      ],
      "name": "deposit",
      "outputs": [
        {
          "internalType": "uint256",
          "name": "",
          "type": "uint256"
        }
      ],
      "stateMutability": "nonpayable",
      "type": "function"
    },
    {
      "inputs": [
        {
          "internalType": "address",
          "name": "_recipient",
          "type": "address"
        },
        {
          "internalType": "address",
          "name": "bAsset",
          "type": "address"
        },
        {
          "internalType": "uint256",
          "name": "q",
          "type": "uint256"
        },
        {
          "internalType": "bool",
          "name": "isFeeCharged",
          "type": "bool"
        }
      ],
      "name": "withdraw",
      "outputs": [],
      "stateMutability": "nonpayable",
      "type": "function"
    }
  ],
  "bytecode": "0x608060405234801561001057600080fd5b5061016b806100206000396000f3fe608060405234801561001057600080fd5b50600436106100365760003560e01c80633edd11281461003b578063934785b7146100a9575b600080fd5b6100936004803603606081101561005157600080fd5b81019080803573ffffffffffffffffffffffffffffffffffffffff16906020019092919080359060200190929190803515159060200190929190505050610123565b6040518082815260200191505060405180910390f35b610121600480360360808110156100bf57600080fd5b81019080803573ffffffffffffffffffffffffffffffffffffffff169060200190929190803573ffffffffffffffffffffffffffffffffffffffff1690602001909291908035906020019092919080351515906020019092919050505061012f565b005b60008290509392505050565b5050505056fea2646970667358221220eed62d4204880f75a8a6ca1a14a7adc97ff7c2d3f051a7eb864de4d86473eb2c64736f6c634300060c0033",
  "immutableReferences": {},
  "source": "// SPDX-License-Identifier: SimPL-2.0\npragma solidity 0.6.12;\n\ncontract MockAAVE{\n    function deposit(\n        address _bAsset,\n        uint256 quantityTransferred,\n        bool _erc20TransferFeeCharged\n    ) public  returns (uint256){\n        return quantityTransferred;\n    }\n\n    function withdraw(address _recipient, address bAsset, uint256 q, bool isFeeCharged) public {\n        // , bAsset, q, _bAssets[i].isTransferFeeCharged\n    }\n}",
  "sourcePath": "/Users/zhangxuesong/mysoft/defi/XStableDollar-contracts/stabledollar/contracts/mock/MockAAVE.sol",
  "compiler": {
    "name": "solc",
    "version": "0.6.12+commit.27d51765.Emscripten.clang"
  },
  "schemaVersion": "3.3.2",
  "updatedAt": "2020-11-14T06:30:33.612Z",
  "devdoc": {
    "kind": "dev",
    "methods": {},
    "version": 1
  },
  "userdoc": {
    "kind": "user",
    "methods": {},
    "version": 1
  }
}