{
  "contractName": "TokenManager",
  "abi": [
    {
      "inputs": [
        {
          "internalType": "string",
          "name": "name",
          "type": "string"
        },
        {
          "internalType": "string",
          "name": "symbol",
          "type": "string"
        }
      ],
      "stateMutability": "nonpayable",
      "type": "constructor"
    },
    {
      "anonymous": false,
      "inputs": [
        {
          "indexed": true,
          "internalType": "address",
          "name": "owner",
          "type": "address"
        },
        {
          "indexed": true,
          "internalType": "address",
          "name": "spender",
          "type": "address"
        },
        {
          "indexed": false,
          "internalType": "uint256",
          "name": "value",
          "type": "uint256"
        }
      ],
      "name": "Approval",
      "type": "event"
    },
    {
      "anonymous": false,
      "inputs": [
        {
          "indexed": false,
          "internalType": "string",
          "name": "name",
          "type": "string"
        },
        {
          "indexed": false,
          "internalType": "string",
          "name": "symbol",
          "type": "string"
        },
        {
          "indexed": false,
          "internalType": "uint256",
          "name": "supply",
          "type": "uint256"
        },
        {
          "indexed": false,
          "internalType": "address",
          "name": "token_addr",
          "type": "address"
        }
      ],
      "name": "Created",
      "type": "event"
    },
    {
      "anonymous": false,
      "inputs": [
        {
          "indexed": true,
          "internalType": "address",
          "name": "minter",
          "type": "address"
        },
        {
          "indexed": false,
          "internalType": "address",
          "name": "recipient",
          "type": "address"
        },
        {
          "indexed": false,
          "internalType": "uint256",
          "name": "mAssetQuantity",
          "type": "uint256"
        },
        {
          "indexed": false,
          "internalType": "address",
          "name": "bAsset",
          "type": "address"
        },
        {
          "indexed": false,
          "internalType": "uint256",
          "name": "bAssetQuantity",
          "type": "uint256"
        }
      ],
      "name": "Minted",
      "type": "event"
    },
    {
      "anonymous": false,
      "inputs": [
        {
          "indexed": true,
          "internalType": "address",
          "name": "minter",
          "type": "address"
        },
        {
          "indexed": false,
          "internalType": "address",
          "name": "recipient",
          "type": "address"
        },
        {
          "indexed": false,
          "internalType": "uint256",
          "name": "mAssetQuantity",
          "type": "uint256"
        },
        {
          "indexed": false,
          "internalType": "address[]",
          "name": "bAssets",
          "type": "address[]"
        },
        {
          "indexed": false,
          "internalType": "uint256[]",
          "name": "bAssetQuantities",
          "type": "uint256[]"
        }
      ],
      "name": "MintedMulti",
      "type": "event"
    },
    {
      "anonymous": false,
      "inputs": [
        {
          "indexed": true,
          "internalType": "address",
          "name": "payer",
          "type": "address"
        },
        {
          "indexed": false,
          "internalType": "address",
          "name": "asset",
          "type": "address"
        },
        {
          "indexed": false,
          "internalType": "uint256",
          "name": "feeQuantity",
          "type": "uint256"
        }
      ],
      "name": "PaidFee",
      "type": "event"
    },
    {
      "anonymous": false,
      "inputs": [
        {
          "indexed": true,
          "internalType": "address",
          "name": "redeemer",
          "type": "address"
        },
        {
          "indexed": false,
          "internalType": "address",
          "name": "recipient",
          "type": "address"
        },
        {
          "indexed": false,
          "internalType": "uint256",
          "name": "mAssetQuantity",
          "type": "uint256"
        },
        {
          "indexed": false,
          "internalType": "address[]",
          "name": "bAssets",
          "type": "address[]"
        },
        {
          "indexed": false,
          "internalType": "uint256[]",
          "name": "bAssetQuantities",
          "type": "uint256[]"
        }
      ],
      "name": "Redeemed",
      "type": "event"
    },
    {
      "anonymous": false,
      "inputs": [
        {
          "indexed": true,
          "internalType": "address",
          "name": "redeemer",
          "type": "address"
        },
        {
          "indexed": false,
          "internalType": "address",
          "name": "recipient",
          "type": "address"
        },
        {
          "indexed": false,
          "internalType": "uint256",
          "name": "mAssetQuantity",
          "type": "uint256"
        }
      ],
      "name": "RedeemedMasset",
      "type": "event"
    },
    {
      "anonymous": false,
      "inputs": [
        {
          "indexed": true,
          "internalType": "address",
          "name": "from",
          "type": "address"
        },
        {
          "indexed": true,
          "internalType": "address",
          "name": "to",
          "type": "address"
        },
        {
          "indexed": false,
          "internalType": "uint256",
          "name": "value",
          "type": "uint256"
        }
      ],
      "name": "Transfer",
      "type": "event"
    },
    {
      "inputs": [
        {
          "internalType": "uint256",
          "name": "",
          "type": "uint256"
        }
      ],
      "name": "CustomAssets",
      "outputs": [
        {
          "internalType": "string",
          "name": "name",
          "type": "string"
        },
        {
          "internalType": "string",
          "name": "symbol",
          "type": "string"
        },
        {
          "internalType": "address",
          "name": "target",
          "type": "address"
        },
        {
          "internalType": "uint256",
          "name": "status",
          "type": "uint256"
        }
      ],
      "stateMutability": "view",
      "type": "function"
    },
    {
      "inputs": [
        {
          "internalType": "address",
          "name": "owner",
          "type": "address"
        },
        {
          "internalType": "address",
          "name": "spender",
          "type": "address"
        }
      ],
      "name": "allowance",
      "outputs": [
        {
          "internalType": "uint256",
          "name": "",
          "type": "uint256"
        }
      ],
      "stateMutability": "view",
      "type": "function"
    },
    {
      "inputs": [
        {
          "internalType": "address",
          "name": "spender",
          "type": "address"
        },
        {
          "internalType": "uint256",
          "name": "amount",
          "type": "uint256"
        }
      ],
      "name": "approve",
      "outputs": [
        {
          "internalType": "bool",
          "name": "",
          "type": "bool"
        }
      ],
      "stateMutability": "nonpayable",
      "type": "function"
    },
    {
      "inputs": [
        {
          "internalType": "address",
          "name": "account",
          "type": "address"
        }
      ],
      "name": "balanceOf",
      "outputs": [
        {
          "internalType": "uint256",
          "name": "",
          "type": "uint256"
        }
      ],
      "stateMutability": "view",
      "type": "function"
    },
    {
      "inputs": [],
      "name": "decimals",
      "outputs": [
        {
          "internalType": "uint8",
          "name": "",
          "type": "uint8"
        }
      ],
      "stateMutability": "view",
      "type": "function"
    },
    {
      "inputs": [
        {
          "internalType": "address",
          "name": "spender",
          "type": "address"
        },
        {
          "internalType": "uint256",
          "name": "subtractedValue",
          "type": "uint256"
        }
      ],
      "name": "decreaseAllowance",
      "outputs": [
        {
          "internalType": "bool",
          "name": "",
          "type": "bool"
        }
      ],
      "stateMutability": "nonpayable",
      "type": "function"
    },
    {
      "inputs": [
        {
          "internalType": "address",
          "name": "",
          "type": "address"
        }
      ],
      "name": "ercAddrToCustomToken",
      "outputs": [
        {
          "internalType": "string",
          "name": "name",
          "type": "string"
        },
        {
          "internalType": "string",
          "name": "symbol",
          "type": "string"
        },
        {
          "internalType": "address",
          "name": "target",
          "type": "address"
        },
        {
          "internalType": "uint256",
          "name": "status",
          "type": "uint256"
        }
      ],
      "stateMutability": "view",
      "type": "function"
    },
    {
      "inputs": [
        {
          "internalType": "address",
          "name": "spender",
          "type": "address"
        },
        {
          "internalType": "uint256",
          "name": "addedValue",
          "type": "uint256"
        }
      ],
      "name": "increaseAllowance",
      "outputs": [
        {
          "internalType": "bool",
          "name": "",
          "type": "bool"
        }
      ],
      "stateMutability": "nonpayable",
      "type": "function"
    },
    {
      "inputs": [],
      "name": "name",
      "outputs": [
        {
          "internalType": "string",
          "name": "",
          "type": "string"
        }
      ],
      "stateMutability": "view",
      "type": "function"
    },
    {
      "inputs": [
        {
          "internalType": "address",
          "name": "",
          "type": "address"
        },
        {
          "internalType": "uint256",
          "name": "",
          "type": "uint256"
        }
      ],
      "name": "preTokens",
      "outputs": [
        {
          "internalType": "address",
          "name": "tokenAddr",
          "type": "address"
        },
        {
          "internalType": "uint256",
          "name": "amount",
          "type": "uint256"
        }
      ],
      "stateMutability": "view",
      "type": "function"
    },
    {
      "inputs": [
        {
          "internalType": "address",
          "name": "",
          "type": "address"
        }
      ],
      "name": "ratio",
      "outputs": [
        {
          "internalType": "uint256",
          "name": "",
          "type": "uint256"
        }
      ],
      "stateMutability": "view",
      "type": "function"
    },
    {
      "inputs": [],
      "name": "symbol",
      "outputs": [
        {
          "internalType": "string",
          "name": "",
          "type": "string"
        }
      ],
      "stateMutability": "view",
      "type": "function"
    },
    {
      "inputs": [
        {
          "internalType": "address",
          "name": "",
          "type": "address"
        },
        {
          "internalType": "address",
          "name": "",
          "type": "address"
        }
      ],
      "name": "tokenRadio",
      "outputs": [
        {
          "internalType": "uint256",
          "name": "",
          "type": "uint256"
        }
      ],
      "stateMutability": "view",
      "type": "function"
    },
    {
      "inputs": [],
      "name": "totalSupply",
      "outputs": [
        {
          "internalType": "uint256",
          "name": "",
          "type": "uint256"
        }
      ],
      "stateMutability": "view",
      "type": "function"
    },
    {
      "inputs": [
        {
          "internalType": "address",
          "name": "recipient",
          "type": "address"
        },
        {
          "internalType": "uint256",
          "name": "amount",
          "type": "uint256"
        }
      ],
      "name": "transfer",
      "outputs": [
        {
          "internalType": "bool",
          "name": "",
          "type": "bool"
        }
      ],
      "stateMutability": "nonpayable",
      "type": "function"
    },
    {
      "inputs": [
        {
          "internalType": "address",
          "name": "sender",
          "type": "address"
        },
        {
          "internalType": "address",
          "name": "recipient",
          "type": "address"
        },
        {
          "internalType": "uint256",
          "name": "amount",
          "type": "uint256"
        }
      ],
      "name": "transferFrom",
      "outputs": [
        {
          "internalType": "bool",
          "name": "",
          "type": "bool"
        }
      ],
      "stateMutability": "nonpayable",
      "type": "function"
    },
    {
      "inputs": [],
      "name": "initialize",
      "outputs": [],
      "stateMutability": "nonpayable",
      "type": "function"
    },
    {
      "inputs": [
        {
          "internalType": "string",
          "name": "_name",
          "type": "string"
        },
        {
          "internalType": "string",
          "name": "_symbol",
          "type": "string"
        }
      ],
      "name": "create",
      "outputs": [],
      "stateMutability": "nonpayable",
      "type": "function"
    },
    {
      "inputs": [
        {
          "internalType": "address",
          "name": "erc20Addr",
          "type": "address"
        },
        {
          "internalType": "address[]",
          "name": "_preToken",
          "type": "address[]"
        },
        {
          "internalType": "uint256[]",
          "name": "_bassetAmount",
          "type": "uint256[]"
        },
        {
          "internalType": "bool[]",
          "name": "_isTransferFee",
          "type": "bool[]"
        },
        {
          "internalType": "address",
          "name": "receipt",
          "type": "address"
        }
      ],
      "name": "mintMulti",
      "outputs": [
        {
          "internalType": "uint256",
          "name": "massetMinted",
          "type": "uint256"
        }
      ],
      "stateMutability": "nonpayable",
      "type": "function"
    },
    {
      "inputs": [
        {
          "internalType": "address",
          "name": "_targetAddr",
          "type": "address"
        },
        {
          "internalType": "uint256",
          "name": "_bAssetQuantity",
          "type": "uint256"
        }
      ],
      "name": "redeem",
      "outputs": [
        {
          "internalType": "uint256",
          "name": "massetRedeemed",
          "type": "uint256"
        }
      ],
      "stateMutability": "nonpayable",
      "type": "function"
    },
    {
      "inputs": [
        {
          "internalType": "address",
          "name": "_bAsset",
          "type": "address"
        },
        {
          "internalType": "uint256",
          "name": "_bAssetAmount",
          "type": "uint256"
        }
      ],
      "name": "mint",
      "outputs": [
        {
          "internalType": "uint256",
          "name": "massetMinted",
          "type": "uint256"
        }
      ],
      "stateMutability": "nonpayable",
      "type": "function"
    },
    {
      "inputs": [
        {
          "internalType": "address[]",
          "name": "_bAssets",
          "type": "address[]"
        },
        {
          "internalType": "uint256[]",
          "name": "_bAssetQuantities",
          "type": "uint256[]"
        },
        {
          "internalType": "address",
          "name": "_recipient",
          "type": "address"
        }
      ],
      "name": "redeemMulti",
      "outputs": [
        {
          "internalType": "uint256",
          "name": "massetRedeemed",
          "type": "uint256"
        }
      ],
      "stateMutability": "nonpayable",
      "type": "function"
    },
    {
      "inputs": [
        {
          "internalType": "uint256",
          "name": "_mAssetQuantity",
          "type": "uint256"
        },
        {
          "internalType": "address",
          "name": "_recipient",
          "type": "address"
        }
      ],
      "name": "redeemMasset",
      "outputs": [],
      "stateMutability": "nonpayable",
      "type": "function"
    }
  ],
  "bytecode": "0x60806040523480156200001157600080fd5b5060405162004e5938038062004e59833981810160405281019062000037919062000193565b818181600390805190602001906200005192919062000091565b5080600490805190602001906200006a92919062000091565b506012600560006101000a81548160ff021916908360ff1602179055505050505062000297565b828054600181600116156101000203166002900490600052602060002090601f016020900481019282601f10620000d457805160ff191683800117855562000105565b8280016001018555821562000105579182015b8281111562000104578251825591602001919060010190620000e7565b5b50905062000114919062000118565b5090565b5b808211156200013357600081600090555060010162000119565b5090565b600082601f8301126200014957600080fd5b8151620001606200015a8262000234565b62000206565b915080825260208301602083018583830111156200017d57600080fd5b6200018a83828462000261565b50505092915050565b60008060408385031215620001a757600080fd5b600083015167ffffffffffffffff811115620001c257600080fd5b620001d08582860162000137565b925050602083015167ffffffffffffffff811115620001ee57600080fd5b620001fc8582860162000137565b9150509250929050565b6000604051905081810181811067ffffffffffffffff821117156200022a57600080fd5b8060405250919050565b600067ffffffffffffffff8211156200024c57600080fd5b601f19601f8301169050602081019050919050565b60005b838110156200028157808201518184015260208101905062000264565b8381111562000291576000848401525b50505050565b614bb280620002a76000396000f3fe60806040523480156200001157600080fd5b50600436106200016c5760003560e01c806351abb90a11620000d557806395d89b41116200008757806395d89b411462000492578063a457c2d714620004b4578063a9059cbb14620004ea578063aa3053b01462000520578063abe743ff1462000556578063dd62ed3e1462000576576200016c565b806351abb90a1462000374578063701d9a4614620003ad57806370a0823114620003e3578063730d135514620004195780638129fc1c146200044f578063834330cc146200045b576200016c565b8063198e2b8a116200012f578063198e2b8a146200025a5780631e9a6950146200027a57806323b872dd14620002b0578063313ce56714620002e657806339509351146200030857806340c10f19146200033e576200016c565b80630453e208146200017157806306fdde0314620001aa578063095ea7b314620001cc5780630b40495b146200020257806318160ddd1462000238575b600080fd5b6200018f600480360381019062000189919062002c80565b620005ac565b604051620001a194939291906200331a565b60405180910390f35b620001b462000742565b604051620001c39190620032bb565b60405180910390f35b620001ea6004803603810190620001e4919062002ae2565b620007e8565b604051620001f991906200329e565b60405180910390f35b6200022060048036038101906200021a919062002945565b6200080a565b6040516200022f91906200358a565b60405180910390f35b6200024262000822565b6040516200025191906200358a565b60405180910390f35b62000278600480360381019062000272919062002c0d565b6200082c565b005b62000298600480360381019062000292919062002ae2565b62000a41565b604051620002a791906200358a565b60405180910390f35b620002ce6004803603810190620002c89190620029b2565b62000cb6565b604051620002dd91906200329e565b60405180910390f35b620002f062000d9a565b604051620002ff9190620035a7565b60405180910390f35b62000326600480360381019062000320919062002ae2565b62000db1565b6040516200033591906200329e565b60405180910390f35b6200035c600480360381019062000356919062002ae2565b62000e6c565b6040516200036b91906200358a565b60405180910390f35b6200039260048036038101906200038c919062002945565b62000e83565b604051620003a494939291906200331a565b60405180910390f35b620003cb6004803603810190620003c5919062002971565b6200100b565b604051620003da91906200358a565b60405180910390f35b620004016004803603810190620003fb919062002945565b62001030565b6040516200041091906200358a565b60405180910390f35b62000437600480360381019062000431919062002a08565b62001078565b6040516200044691906200358a565b60405180910390f35b620004596200143e565b005b62000479600480360381019062000473919062002ae2565b62001440565b6040516200048992919062003271565b60405180910390f35b6200049c6200149f565b604051620004ab9190620032bb565b60405180910390f35b620004d26004803603810190620004cc919062002ae2565b62001545565b604051620004e191906200329e565b60405180910390f35b62000508600480360381019062000502919062002ae2565b6200161b565b6040516200051791906200329e565b60405180910390f35b6200053e600480360381019062000538919062002b23565b6200163d565b6040516200054d91906200358a565b60405180910390f35b6200057460048036038101906200056e919062002cd8565b620016d9565b005b6200059460048036038101906200058e919062002971565b620016e9565b604051620005a391906200358a565b60405180910390f35b60068181548110620005ba57fe5b9060005260206000209060050201600091509050806000018054600181600116156101000203166002900480601f0160208091040260200160405190810160405280929190818152602001828054600181600116156101000203166002900480156200066a5780601f106200063e576101008083540402835291602001916200066a565b820191906000526020600020905b8154815290600101906020018083116200064c57829003601f168201915b505050505090806001018054600181600116156101000203166002900480601f0160208091040260200160405190810160405280929190818152602001828054600181600116156101000203166002900480156200070c5780601f10620006e0576101008083540402835291602001916200070c565b820191906000526020600020905b815481529060010190602001808311620006ee57829003601f168201915b5050505050908060020160009054906101000a900473ffffffffffffffffffffffffffffffffffffffff16908060030154905084565b606060038054600181600116156101000203166002900480601f016020809104026020016040519081016040528092919081815260200182805460018160011615610100020316600290048015620007de5780601f10620007b257610100808354040283529160200191620007de565b820191906000526020600020905b815481529060010190602001808311620007c057829003601f168201915b5050505050905090565b600062000800620007f862001770565b848462001778565b6001905092915050565b60096020528060005260406000206000915090505481565b6000600254905090565b600082826040516200083e9062002644565b6200084b929190620032df565b604051809103906000f08015801562000868573d6000803e3d6000fd5b5090506060600167ffffffffffffffff811180156200088657600080fd5b50604051908082528060200260200182016040528015620008b65781602001602082028036833780820191505090505b509050600060019050620008c962002652565b6040518060a001604052808781526020018681526020018573ffffffffffffffffffffffffffffffffffffffff16815260200183815260200184815250905080600760008673ffffffffffffffffffffffffffffffffffffffff1673ffffffffffffffffffffffffffffffffffffffff16815260200190815260200160002060008201518160000190805190602001906200096692919062002697565b5060208201518160010190805190602001906200098592919062002697565b5060408201518160020160006101000a81548173ffffffffffffffffffffffffffffffffffffffff021916908373ffffffffffffffffffffffffffffffffffffffff160217905550606082015181600301556080820151816004019080519060200190620009f59291906200271e565b509050507f80500318e1044ee4ff02c497b5e6a5094e1941785784636d474f52c76b9cc0d1868660008760405162000a31949392919062003375565b60405180910390a1505050505050565b600062000a4d62002652565b600760008573ffffffffffffffffffffffffffffffffffffffff1673ffffffffffffffffffffffffffffffffffffffff1681526020019081526020016000206040518060a0016040529081600082018054600181600116156101000203166002900480601f01602080910402602001604051908101604052809291908181526020018280546001816001161561010002031660029004801562000b345780601f1062000b085761010080835404028352916020019162000b34565b820191906000526020600020905b81548152906001019060200180831162000b1657829003601f168201915b50505050508152602001600182018054600181600116156101000203166002900480601f01602080910402602001604051908101604052809291908181526020018280546001816001161561010002031660029004801562000bda5780601f1062000bae5761010080835404028352916020019162000bda565b820191906000526020600020905b81548152906001019060200180831162000bbc57829003601f168201915b505050505081526020016002820160009054906101000a900473ffffffffffffffffffffffffffffffffffffffff1673ffffffffffffffffffffffffffffffffffffffff1673ffffffffffffffffffffffffffffffffffffffff168152602001600382015481526020016004820180548060200260200160405190810160405280929190818152602001828054801562000c9457602002820191906000526020600020905b81548152602001906001019080831162000c7f575b505050505081525050905062000cad846001336200194b565b91505092915050565b600062000cc584848462001a65565b62000d8f8462000cd462001770565b62000d898560405180606001604052806028815260200162004b3060289139600160008b73ffffffffffffffffffffffffffffffffffffffff1673ffffffffffffffffffffffffffffffffffffffff168152602001908152602001600020600062000d3e62001770565b73ffffffffffffffffffffffffffffffffffffffff1673ffffffffffffffffffffffffffffffffffffffff1681526020019081526020016000205462001d099092919063ffffffff16565b62001778565b600190509392505050565b6000600560009054906101000a900460ff16905090565b600062000e6262000dc162001770565b8462000e5c856001600062000dd562001770565b73ffffffffffffffffffffffffffffffffffffffff1673ffffffffffffffffffffffffffffffffffffffff16815260200190815260200160002060008973ffffffffffffffffffffffffffffffffffffffff1673ffffffffffffffffffffffffffffffffffffffff1681526020019081526020016000205462001d6790919063ffffffff16565b62001778565b6001905092915050565b600062000e7b83833362001dbf565b905092915050565b6007602052806000526040600020600091509050806000018054600181600116156101000203166002900480601f01602080910402602001604051908101604052809291908181526020018280546001816001161561010002031660029004801562000f335780601f1062000f075761010080835404028352916020019162000f33565b820191906000526020600020905b81548152906001019060200180831162000f1557829003601f168201915b505050505090806001018054600181600116156101000203166002900480601f01602080910402602001604051908101604052809291908181526020018280546001816001161561010002031660029004801562000fd55780601f1062000fa95761010080835404028352916020019162000fd5565b820191906000526020600020905b81548152906001019060200180831162000fb757829003601f168201915b5050505050908060020160009054906101000a900473ffffffffffffffffffffffffffffffffffffffff16908060030154905084565b600a602052816000526040600020602052806000526040600020600091509150505481565b60008060008373ffffffffffffffffffffffffffffffffffffffff1673ffffffffffffffffffffffffffffffffffffffff168152602001908152602001600020549050919050565b6000808888905011620010c2576040517f08c379a0000000000000000000000000000000000000000000000000000000008152600401620010b990620034be565b60405180910390fd5b858590508888905014156200110e576040517f08c379a0000000000000000000000000000000000000000000000000000000008152600401620011059062003546565b60405180910390fd5b6200111862002652565b600760008b73ffffffffffffffffffffffffffffffffffffffff1673ffffffffffffffffffffffffffffffffffffffff1681526020019081526020016000206040518060a0016040529081600082018054600181600116156101000203166002900480601f016020809104026020016040519081016040528092919081815260200182805460018160011615610100020316600290048015620011ff5780601f10620011d357610100808354040283529160200191620011ff565b820191906000526020600020905b815481529060010190602001808311620011e157829003601f168201915b50505050508152602001600182018054600181600116156101000203166002900480601f016020809104026020016040519081016040528092919081815260200182805460018160011615610100020316600290048015620012a55780601f106200127957610100808354040283529160200191620012a5565b820191906000526020600020905b8154815290600101906020018083116200128757829003601f168201915b505050505081526020016002820160009054906101000a900473ffffffffffffffffffffffffffffffffffffffff1673ffffffffffffffffffffffffffffffffffffffff1673ffffffffffffffffffffffffffffffffffffffff16815260200160038201548152602001600482018054806020026020016040519081016040528092919081815260200182805480156200135f57602002820191906000526020600020905b8154815260200190600101908083116200134a575b50505050508152505090506000816060015114156200137d57600080fd5b600089899050905060005b818110156200141e5760008b8b83818110620013a057fe5b9050602002016020810190620013b7919062002945565b905060008a8a84818110620013c857fe5b9050602002013590506000898985818110620013e057fe5b9050602002016020810190620013f7919062002bb5565b905060006200140a333086858762001dd1565b905050505050808060010191505062001388565b506200142c33600162001f95565b60019250505098975050505050505050565b565b600860205281600052604060002081815481106200145a57fe5b9060005260206000209060020201600091509150508060000160009054906101000a900473ffffffffffffffffffffffffffffffffffffffff16908060010154905082565b606060048054600181600116156101000203166002900480601f0160208091040260200160405190810160405280929190818152602001828054600181600116156101000203166002900480156200153b5780601f106200150f576101008083540402835291602001916200153b565b820191906000526020600020905b8154815290600101906020018083116200151d57829003601f168201915b5050505050905090565b6000620016116200155562001770565b846200160b8560405180606001604052806025815260200162004b5860259139600160006200158362001770565b73ffffffffffffffffffffffffffffffffffffffff1673ffffffffffffffffffffffffffffffffffffffff16815260200190815260200160002060008a73ffffffffffffffffffffffffffffffffffffffff1673ffffffffffffffffffffffffffffffffffffffff1681526020019081526020016000205462001d099092919063ffffffff16565b62001778565b6001905092915050565b6000620016336200162b62001770565b848462001a65565b6001905092915050565b6000620016ce868680806020026020016040519081016040528093929190818152602001838360200280828437600081840152601f19601f82011690508083019250505050505050858580806020026020016040519081016040528093929190818152602001838360200280828437600081840152601f19601f820116905080830192505050505050508462002134565b905095945050505050565b620016e582826200220f565b5050565b6000600160008473ffffffffffffffffffffffffffffffffffffffff1673ffffffffffffffffffffffffffffffffffffffff16815260200190815260200160002060008373ffffffffffffffffffffffffffffffffffffffff1673ffffffffffffffffffffffffffffffffffffffff16815260200190815260200160002054905092915050565b600033905090565b600073ffffffffffffffffffffffffffffffffffffffff168373ffffffffffffffffffffffffffffffffffffffff161415620017eb576040517f08c379a0000000000000000000000000000000000000000000000000000000008152600401620017e2906200347a565b60405180910390fd5b600073ffffffffffffffffffffffffffffffffffffffff168273ffffffffffffffffffffffffffffffffffffffff1614156200185e576040517f08c379a00000000000000000000000000000000000000000000000000000000081526004016200185590620033f2565b60405180910390fd5b80600160008573ffffffffffffffffffffffffffffffffffffffff1673ffffffffffffffffffffffffffffffffffffffff16815260200190815260200160002060008473ffffffffffffffffffffffffffffffffffffffff1673ffffffffffffffffffffffffffffffffffffffff168152602001908152602001600020819055508173ffffffffffffffffffffffffffffffffffffffff168373ffffffffffffffffffffffffffffffffffffffff167f8c5be1e5ebec7d5bd14f71427d1e84f3dd0314c0f7b2291e5b200ac8c7c3b925836040516200193e91906200358a565b60405180910390a3505050565b60006060600167ffffffffffffffff811180156200196857600080fd5b50604051908082528060200260200182016040528015620019985781602001602082028036833780820191505090505b5090506060600167ffffffffffffffff81118015620019b657600080fd5b50604051908082528060200260200182016040528015620019e65781602001602082028036833780820191505090505b5090508582600081518110620019f857fe5b602002602001019073ffffffffffffffffffffffffffffffffffffffff16908173ffffffffffffffffffffffffffffffffffffffff1681525050848160008151811062001a4157fe5b60200260200101818152505062001a5a82828662002134565b925050509392505050565b600073ffffffffffffffffffffffffffffffffffffffff168373ffffffffffffffffffffffffffffffffffffffff16141562001ad8576040517f08c379a000000000000000000000000000000000000000000000000000000000815260040162001acf9062003458565b60405180910390fd5b600073ffffffffffffffffffffffffffffffffffffffff168273ffffffffffffffffffffffffffffffffffffffff16141562001b4b576040517f08c379a000000000000000000000000000000000000000000000000000000000815260040162001b4290620033d0565b60405180910390fd5b62001b588383836200231e565b62001bc68160405180606001604052806026815260200162004b0a602691396000808773ffffffffffffffffffffffffffffffffffffffff1673ffffffffffffffffffffffffffffffffffffffff1681526020019081526020016000205462001d099092919063ffffffff16565b6000808573ffffffffffffffffffffffffffffffffffffffff1673ffffffffffffffffffffffffffffffffffffffff1681526020019081526020016000208190555062001c5b816000808573ffffffffffffffffffffffffffffffffffffffff1673ffffffffffffffffffffffffffffffffffffffff1681526020019081526020016000205462001d6790919063ffffffff16565b6000808473ffffffffffffffffffffffffffffffffffffffff1673ffffffffffffffffffffffffffffffffffffffff168152602001908152602001600020819055508173ffffffffffffffffffffffffffffffffffffffff168373ffffffffffffffffffffffffffffffffffffffff167fddf252ad1be2c89b69c2b068fc378daa952ba7f163c4a11628f55a4df523b3ef8360405162001cfc91906200358a565b60405180910390a3505050565b600083831115829062001d54576040517f08c379a000000000000000000000000000000000000000000000000000000000815260040162001d4b9190620032bb565b60405180910390fd5b5060008385039050809150509392505050565b60008082840190508381101562001db5576040517f08c379a000000000000000000000000000000000000000000000000000000000815260040162001dac9062003414565b60405180910390fd5b8091505092915050565b60008060019050809150509392505050565b6000819050821562001f5c5760008473ffffffffffffffffffffffffffffffffffffffff166370a08231876040518263ffffffff1660e01b815260040162001e1a919062003217565b60206040518083038186803b15801562001e3357600080fd5b505afa15801562001e48573d6000803e3d6000fd5b505050506040513d601f19601f8201168201806040525081019062001e6e919062002cac565b905062001e9f8787858873ffffffffffffffffffffffffffffffffffffffff1662002323909392919063ffffffff16565b60008573ffffffffffffffffffffffffffffffffffffffff166370a08231886040518263ffffffff1660e01b815260040162001edc919062003217565b60206040518083038186803b15801562001ef557600080fd5b505afa15801562001f0a573d6000803e3d6000fd5b505050506040513d601f19601f8201168201806040525081019062001f30919062002cac565b905062001f528462001f4c8484620023b090919063ffffffff16565b620023fc565b9250505062001f8c565b62001f8b8686848773ffffffffffffffffffffffffffffffffffffffff1662002323909392919063ffffffff16565b5b95945050505050565b600073ffffffffffffffffffffffffffffffffffffffff168273ffffffffffffffffffffffffffffffffffffffff16141562002008576040517f08c379a000000000000000000000000000000000000000000000000000000000815260040162001fff9062003568565b60405180910390fd5b62002016600083836200231e565b6200202d8160025462001d6790919063ffffffff16565b60028190555062002086816000808573ffffffffffffffffffffffffffffffffffffffff1673ffffffffffffffffffffffffffffffffffffffff1681526020019081526020016000205462001d6790919063ffffffff16565b6000808473ffffffffffffffffffffffffffffffffffffffff1673ffffffffffffffffffffffffffffffffffffffff168152602001908152602001600020819055508173ffffffffffffffffffffffffffffffffffffffff16600073ffffffffffffffffffffffffffffffffffffffff167fddf252ad1be2c89b69c2b068fc378daa952ba7f163c4a11628f55a4df523b3ef836040516200212891906200358a565b60405180910390a35050565b60008073ffffffffffffffffffffffffffffffffffffffff168273ffffffffffffffffffffffffffffffffffffffff161415620021a8576040517f08c379a00000000000000000000000000000000000000000000000000000000081526004016200219f9062003524565b60405180910390fd5b600083519050600081118015620021bf5750845181145b62002201576040517f08c379a0000000000000000000000000000000000000000000000000000000008152600401620021f89062003436565b60405180910390fd5b600081925050509392505050565b600073ffffffffffffffffffffffffffffffffffffffff168173ffffffffffffffffffffffffffffffffffffffff16141562002282576040517f08c379a0000000000000000000000000000000000000000000000000000000008152600401620022799062003524565b60405180910390fd5b60008211620022c8576040517f08c379a0000000000000000000000000000000000000000000000000000000008152600401620022bf9062003502565b60405180910390fd5b3373ffffffffffffffffffffffffffffffffffffffff167f6e8e3f900293b89801cb29bf5dc5c402c685e66d588bed50a3d83ffbf0bb903482846040516200231292919062003271565b60405180910390a25050565b505050565b620023aa846323b872dd60e01b858585604051602401620023479392919062003234565b604051602081830303815290604052907bffffffffffffffffffffffffffffffffffffffffffffffffffffffff19166020820180517bffffffffffffffffffffffffffffffffffffffffffffffffffffffff838183161783525050505062002417565b50505050565b6000620023f483836040518060400160405280601e81526020017f536166654d6174683a207375627472616374696f6e206f766572666c6f77000081525062001d09565b905092915050565b60008183116200240d57826200240f565b815b905092915050565b60606200247b826040518060400160405280602081526020017f5361666545524332303a206c6f772d6c6576656c2063616c6c206661696c65648152508573ffffffffffffffffffffffffffffffffffffffff16620024e69092919063ffffffff16565b9050600081511115620024e157808060200190518101906200249e919062002be1565b620024e0576040517f08c379a0000000000000000000000000000000000000000000000000000000008152600401620024d790620034e0565b60405180910390fd5b5b505050565b6060620024f7848460008562002500565b90509392505050565b60606200250d8562002631565b6200254f576040517f08c379a000000000000000000000000000000000000000000000000000000000815260040162002546906200349c565b60405180910390fd5b600060608673ffffffffffffffffffffffffffffffffffffffff1685876040516200257b9190620031fe565b60006040518083038185875af1925050503d8060008114620025ba576040519150601f19603f3d011682016040523d82523d6000602084013e620025bf565b606091505b50915091508115620025d657809250505062002629565b600081511115620025ea5780518082602001fd5b836040517f08c379a0000000000000000000000000000000000000000000000000000000008152600401620026209190620032bb565b60405180910390fd5b949350505050565b600080823b905060008111915050919050565b6113a9806200376183390190565b6040518060a001604052806060815260200160608152602001600073ffffffffffffffffffffffffffffffffffffffff16815260200160008152602001606081525090565b828054600181600116156101000203166002900490600052602060002090601f016020900481019282601f10620026da57805160ff19168380011785556200270b565b828001600101855582156200270b579182015b828111156200270a578251825591602001919060010190620026ed565b5b5090506200271a919062002770565b5090565b8280548282559060005260206000209081019282156200275d579160200282015b828111156200275c5782518255916020019190600101906200273f565b5b5090506200276c919062002770565b5090565b5b808211156200278b57600081600090555060010162002771565b5090565b600081359050620027a08162003712565b92915050565b60008083601f840112620027b957600080fd5b8235905067ffffffffffffffff811115620027d357600080fd5b602083019150836020820283011115620027ec57600080fd5b9250929050565b60008083601f8401126200280657600080fd5b8235905067ffffffffffffffff8111156200282057600080fd5b6020830191508360208202830111156200283957600080fd5b9250929050565b60008083601f8401126200285357600080fd5b8235905067ffffffffffffffff8111156200286d57600080fd5b6020830191508360208202830111156200288657600080fd5b9250929050565b6000813590506200289e816200372c565b92915050565b600081519050620028b5816200372c565b92915050565b600082601f830112620028cd57600080fd5b8135620028e4620028de82620035f2565b620035c4565b915080825260208301602083018583830111156200290157600080fd5b6200290e838284620036bc565b50505092915050565b600081359050620029288162003746565b92915050565b6000815190506200293f8162003746565b92915050565b6000602082840312156200295857600080fd5b600062002968848285016200278f565b91505092915050565b600080604083850312156200298557600080fd5b600062002995858286016200278f565b9250506020620029a8858286016200278f565b9150509250929050565b600080600060608486031215620029c857600080fd5b6000620029d8868287016200278f565b9350506020620029eb868287016200278f565b9250506040620029fe8682870162002917565b9150509250925092565b60008060008060008060008060a0898b03121562002a2557600080fd5b600062002a358b828c016200278f565b985050602089013567ffffffffffffffff81111562002a5357600080fd5b62002a618b828c01620027a6565b9750975050604089013567ffffffffffffffff81111562002a8157600080fd5b62002a8f8b828c0162002840565b9550955050606089013567ffffffffffffffff81111562002aaf57600080fd5b62002abd8b828c01620027f3565b9350935050608062002ad28b828c016200278f565b9150509295985092959890939650565b6000806040838503121562002af657600080fd5b600062002b06858286016200278f565b925050602062002b198582860162002917565b9150509250929050565b60008060008060006060868803121562002b3c57600080fd5b600086013567ffffffffffffffff81111562002b5757600080fd5b62002b6588828901620027a6565b9550955050602086013567ffffffffffffffff81111562002b8557600080fd5b62002b938882890162002840565b9350935050604062002ba8888289016200278f565b9150509295509295909350565b60006020828403121562002bc857600080fd5b600062002bd8848285016200288d565b91505092915050565b60006020828403121562002bf457600080fd5b600062002c0484828501620028a4565b91505092915050565b6000806040838503121562002c2157600080fd5b600083013567ffffffffffffffff81111562002c3c57600080fd5b62002c4a85828601620028bb565b925050602083013567ffffffffffffffff81111562002c6857600080fd5b62002c7685828601620028bb565b9150509250929050565b60006020828403121562002c9357600080fd5b600062002ca38482850162002917565b91505092915050565b60006020828403121562002cbf57600080fd5b600062002ccf848285016200292e565b91505092915050565b6000806040838503121562002cec57600080fd5b600062002cfc8582860162002917565b925050602062002d0f858286016200278f565b9150509250929050565b62002d248162003651565b82525050565b62002d358162003665565b82525050565b600062002d48826200361f565b62002d54818562003635565b935062002d66818560208601620036cb565b80840191505092915050565b62002d7d81620036a8565b82525050565b600062002d90826200362a565b62002d9c818562003640565b935062002dae818560208601620036cb565b62002db98162003701565b840191505092915050565b600062002dd360238362003640565b91507f45524332303a207472616e7366657220746f20746865207a65726f206164647260008301527f65737300000000000000000000000000000000000000000000000000000000006020830152604082019050919050565b600062002e3b60228362003640565b91507f45524332303a20617070726f766520746f20746865207a65726f20616464726560008301527f73730000000000000000000000000000000000000000000000000000000000006020830152604082019050919050565b600062002ea3601b8362003640565b91507f536166654d6174683a206164646974696f6e206f766572666c6f7700000000006000830152602082019050919050565b600062002ee560148362003640565b91507f496e707574206172726179206d69736d617463680000000000000000000000006000830152602082019050919050565b600062002f2760258362003640565b91507f45524332303a207472616e736665722066726f6d20746865207a65726f20616460008301527f64726573730000000000000000000000000000000000000000000000000000006020830152604082019050919050565b600062002f8f60248362003640565b91507f45524332303a20617070726f76652066726f6d20746865207a65726f2061646460008301527f72657373000000000000000000000000000000000000000000000000000000006020830152604082019050919050565b600062002ff7601d8362003640565b91507f416464726573733a2063616c6c20746f206e6f6e2d636f6e74726163740000006000830152602082019050919050565b600062003039601e8362003640565b91507f5f707265546f6b656e206c656e676874206d757374206e6f74206265203000006000830152602082019050919050565b60006200307b602a8362003640565b91507f5361666545524332303a204552433230206f7065726174696f6e20646964206e60008301527f6f742073756363656564000000000000000000000000000000000000000000006020830152604082019050919050565b6000620030e3601b8362003640565b91507f496e76616c696420726564656d7074696f6e207175616e7469747900000000006000830152602082019050919050565b60006200312560198362003640565b91507f4d75737420626520612076616c696420726563697069656e74000000000000006000830152602082019050919050565b60006200316760148362003640565b91507f6c656e676874206d75737420626520657175616c0000000000000000000000006000830152602082019050919050565b6000620031a9601f8362003640565b91507f45524332303a206d696e7420746f20746865207a65726f2061646472657373006000830152602082019050919050565b620031e78162003691565b82525050565b620031f8816200369b565b82525050565b60006200320c828462002d3b565b915081905092915050565b60006020820190506200322e600083018462002d19565b92915050565b60006060820190506200324b600083018662002d19565b6200325a602083018562002d19565b620032696040830184620031dc565b949350505050565b600060408201905062003288600083018562002d19565b620032976020830184620031dc565b9392505050565b6000602082019050620032b5600083018462002d2a565b92915050565b60006020820190508181036000830152620032d7818462002d83565b905092915050565b60006040820190508181036000830152620032fb818562002d83565b9050818103602083015262003311818462002d83565b90509392505050565b6000608082019050818103600083015262003336818762002d83565b905081810360208301526200334c818662002d83565b90506200335d604083018562002d19565b6200336c6060830184620031dc565b95945050505050565b6000608082019050818103600083015262003391818762002d83565b90508181036020830152620033a7818662002d83565b9050620033b8604083018562002d72565b620033c7606083018462002d19565b95945050505050565b60006020820190508181036000830152620033eb8162002dc4565b9050919050565b600060208201905081810360008301526200340d8162002e2c565b9050919050565b600060208201905081810360008301526200342f8162002e94565b9050919050565b60006020820190508181036000830152620034518162002ed6565b9050919050565b60006020820190508181036000830152620034738162002f18565b9050919050565b60006020820190508181036000830152620034958162002f80565b9050919050565b60006020820190508181036000830152620034b78162002fe8565b9050919050565b60006020820190508181036000830152620034d9816200302a565b9050919050565b60006020820190508181036000830152620034fb816200306c565b9050919050565b600060208201905081810360008301526200351d81620030d4565b9050919050565b600060208201905081810360008301526200353f8162003116565b9050919050565b60006020820190508181036000830152620035618162003158565b9050919050565b6000602082019050818103600083015262003583816200319a565b9050919050565b6000602082019050620035a16000830184620031dc565b92915050565b6000602082019050620035be6000830184620031ed565b92915050565b6000604051905081810181811067ffffffffffffffff82111715620035e857600080fd5b8060405250919050565b600067ffffffffffffffff8211156200360a57600080fd5b601f19601f8301169050602081019050919050565b600081519050919050565b600081519050919050565b600081905092915050565b600082825260208201905092915050565b60006200365e8262003671565b9050919050565b60008115159050919050565b600073ffffffffffffffffffffffffffffffffffffffff82169050919050565b6000819050919050565b600060ff82169050919050565b6000620036b58262003691565b9050919050565b82818337600083830152505050565b60005b83811015620036eb578082015181840152602081019050620036ce565b83811115620036fb576000848401525b50505050565b6000601f19601f8301169050919050565b6200371d8162003651565b81146200372957600080fd5b50565b620037378162003665565b81146200374357600080fd5b50565b620037518162003691565b81146200375d57600080fd5b5056fe60806040523480156200001157600080fd5b50604051620013a9380380620013a9833981810160405260408110156200003757600080fd5b81019080805160405193929190846401000000008211156200005857600080fd5b838201915060208201858111156200006f57600080fd5b82518660018202830111640100000000821117156200008d57600080fd5b8083526020830192505050908051906020019080838360005b83811015620000c3578082015181840152602081019050620000a6565b50505050905090810190601f168015620000f15780820380516001836020036101000a031916815260200191505b50604052602001805160405193929190846401000000008211156200011557600080fd5b838201915060208201858111156200012c57600080fd5b82518660018202830111640100000000821117156200014a57600080fd5b8083526020830192505050908051906020019080838360005b838110156200018057808201518184015260208101905062000163565b50505050905090810190601f168015620001ae5780820380516001836020036101000a031916815260200191505b5060405250505081818160039080519060200190620001cf9291906200020f565b508060049080519060200190620001e89291906200020f565b506012600560006101000a81548160ff021916908360ff16021790555050505050620002b5565b828054600181600116156101000203166002900490600052602060002090601f016020900481019282601f106200025257805160ff191683800117855562000283565b8280016001018555821562000283579182015b828111156200028257825182559160200191906001019062000265565b5b50905062000292919062000296565b5090565b5b80821115620002b157600081600090555060010162000297565b5090565b6110e480620002c56000396000f3fe608060405234801561001057600080fd5b50600436106100a95760003560e01c80633950935111610071578063395093511461025857806370a08231146102bc57806395d89b4114610314578063a457c2d714610397578063a9059cbb146103fb578063dd62ed3e1461045f576100a9565b806306fdde03146100ae578063095ea7b31461013157806318160ddd1461019557806323b872dd146101b3578063313ce56714610237575b600080fd5b6100b66104d7565b6040518080602001828103825283818151815260200191508051906020019080838360005b838110156100f65780820151818401526020810190506100db565b50505050905090810190601f1680156101235780820380516001836020036101000a031916815260200191505b509250505060405180910390f35b61017d6004803603604081101561014757600080fd5b81019080803573ffffffffffffffffffffffffffffffffffffffff16906020019092919080359060200190929190505050610579565b60405180821515815260200191505060405180910390f35b61019d610597565b6040518082815260200191505060405180910390f35b61021f600480360360608110156101c957600080fd5b81019080803573ffffffffffffffffffffffffffffffffffffffff169060200190929190803573ffffffffffffffffffffffffffffffffffffffff169060200190929190803590602001909291905050506105a1565b60405180821515815260200191505060405180910390f35b61023f61067a565b604051808260ff16815260200191505060405180910390f35b6102a46004803603604081101561026e57600080fd5b81019080803573ffffffffffffffffffffffffffffffffffffffff16906020019092919080359060200190929190505050610691565b60405180821515815260200191505060405180910390f35b6102fe600480360360208110156102d257600080fd5b81019080803573ffffffffffffffffffffffffffffffffffffffff169060200190929190505050610744565b6040518082815260200191505060405180910390f35b61031c61078c565b6040518080602001828103825283818151815260200191508051906020019080838360005b8381101561035c578082015181840152602081019050610341565b50505050905090810190601f1680156103895780820380516001836020036101000a031916815260200191505b509250505060405180910390f35b6103e3600480360360408110156103ad57600080fd5b81019080803573ffffffffffffffffffffffffffffffffffffffff1690602001909291908035906020019092919050505061082e565b60405180821515815260200191505060405180910390f35b6104476004803603604081101561041157600080fd5b81019080803573ffffffffffffffffffffffffffffffffffffffff169060200190929190803590602001909291905050506108fb565b60405180821515815260200191505060405180910390f35b6104c16004803603604081101561047557600080fd5b81019080803573ffffffffffffffffffffffffffffffffffffffff169060200190929190803573ffffffffffffffffffffffffffffffffffffffff169060200190929190505050610919565b6040518082815260200191505060405180910390f35b606060038054600181600116156101000203166002900480601f01602080910402602001604051908101604052809291908181526020018280546001816001161561010002031660029004801561056f5780601f106105445761010080835404028352916020019161056f565b820191906000526020600020905b81548152906001019060200180831161055257829003601f168201915b5050505050905090565b600061058d6105866109a0565b84846109a8565b6001905092915050565b6000600254905090565b60006105ae848484610b9f565b61066f846105ba6109a0565b61066a8560405180606001604052806028815260200161101960289139600160008b73ffffffffffffffffffffffffffffffffffffffff1673ffffffffffffffffffffffffffffffffffffffff16815260200190815260200160002060006106206109a0565b73ffffffffffffffffffffffffffffffffffffffff1673ffffffffffffffffffffffffffffffffffffffff16815260200190815260200160002054610e609092919063ffffffff16565b6109a8565b600190509392505050565b6000600560009054906101000a900460ff16905090565b600061073a61069e6109a0565b8461073585600160006106af6109a0565b73ffffffffffffffffffffffffffffffffffffffff1673ffffffffffffffffffffffffffffffffffffffff16815260200190815260200160002060008973ffffffffffffffffffffffffffffffffffffffff1673ffffffffffffffffffffffffffffffffffffffff16815260200190815260200160002054610f2090919063ffffffff16565b6109a8565b6001905092915050565b60008060008373ffffffffffffffffffffffffffffffffffffffff1673ffffffffffffffffffffffffffffffffffffffff168152602001908152602001600020549050919050565b606060048054600181600116156101000203166002900480601f0160208091040260200160405190810160405280929190818152602001828054600181600116156101000203166002900480156108245780601f106107f957610100808354040283529160200191610824565b820191906000526020600020905b81548152906001019060200180831161080757829003601f168201915b5050505050905090565b60006108f161083b6109a0565b846108ec8560405180606001604052806025815260200161108a60259139600160006108656109a0565b73ffffffffffffffffffffffffffffffffffffffff1673ffffffffffffffffffffffffffffffffffffffff16815260200190815260200160002060008a73ffffffffffffffffffffffffffffffffffffffff1673ffffffffffffffffffffffffffffffffffffffff16815260200190815260200160002054610e609092919063ffffffff16565b6109a8565b6001905092915050565b600061090f6109086109a0565b8484610b9f565b6001905092915050565b6000600160008473ffffffffffffffffffffffffffffffffffffffff1673ffffffffffffffffffffffffffffffffffffffff16815260200190815260200160002060008373ffffffffffffffffffffffffffffffffffffffff1673ffffffffffffffffffffffffffffffffffffffff16815260200190815260200160002054905092915050565b600033905090565b600073ffffffffffffffffffffffffffffffffffffffff168373ffffffffffffffffffffffffffffffffffffffff161415610a2e576040517f08c379a00000000000000000000000000000000000000000000000000000000081526004018080602001828103825260248152602001806110666024913960400191505060405180910390fd5b600073ffffffffffffffffffffffffffffffffffffffff168273ffffffffffffffffffffffffffffffffffffffff161415610ab4576040517f08c379a0000000000000000000000000000000000000000000000000000000008152600401808060200182810382526022815260200180610fd16022913960400191505060405180910390fd5b80600160008573ffffffffffffffffffffffffffffffffffffffff1673ffffffffffffffffffffffffffffffffffffffff16815260200190815260200160002060008473ffffffffffffffffffffffffffffffffffffffff1673ffffffffffffffffffffffffffffffffffffffff168152602001908152602001600020819055508173ffffffffffffffffffffffffffffffffffffffff168373ffffffffffffffffffffffffffffffffffffffff167f8c5be1e5ebec7d5bd14f71427d1e84f3dd0314c0f7b2291e5b200ac8c7c3b925836040518082815260200191505060405180910390a3505050565b600073ffffffffffffffffffffffffffffffffffffffff168373ffffffffffffffffffffffffffffffffffffffff161415610c25576040517f08c379a00000000000000000000000000000000000000000000000000000000081526004018080602001828103825260258152602001806110416025913960400191505060405180910390fd5b600073ffffffffffffffffffffffffffffffffffffffff168273ffffffffffffffffffffffffffffffffffffffff161415610cab576040517f08c379a0000000000000000000000000000000000000000000000000000000008152600401808060200182810382526023815260200180610fae6023913960400191505060405180910390fd5b610cb6838383610fa8565b610d2181604051806060016040528060268152602001610ff3602691396000808773ffffffffffffffffffffffffffffffffffffffff1673ffffffffffffffffffffffffffffffffffffffff16815260200190815260200160002054610e609092919063ffffffff16565b6000808573ffffffffffffffffffffffffffffffffffffffff1673ffffffffffffffffffffffffffffffffffffffff16815260200190815260200160002081905550610db4816000808573ffffffffffffffffffffffffffffffffffffffff1673ffffffffffffffffffffffffffffffffffffffff16815260200190815260200160002054610f2090919063ffffffff16565b6000808473ffffffffffffffffffffffffffffffffffffffff1673ffffffffffffffffffffffffffffffffffffffff168152602001908152602001600020819055508173ffffffffffffffffffffffffffffffffffffffff168373ffffffffffffffffffffffffffffffffffffffff167fddf252ad1be2c89b69c2b068fc378daa952ba7f163c4a11628f55a4df523b3ef836040518082815260200191505060405180910390a3505050565b6000838311158290610f0d576040517f08c379a00000000000000000000000000000000000000000000000000000000081526004018080602001828103825283818151815260200191508051906020019080838360005b83811015610ed2578082015181840152602081019050610eb7565b50505050905090810190601f168015610eff5780820380516001836020036101000a031916815260200191505b509250505060405180910390fd5b5060008385039050809150509392505050565b600080828401905083811015610f9e576040517f08c379a000000000000000000000000000000000000000000000000000000000815260040180806020018281038252601b8152602001807f536166654d6174683a206164646974696f6e206f766572666c6f77000000000081525060200191505060405180910390fd5b8091505092915050565b50505056fe45524332303a207472616e7366657220746f20746865207a65726f206164647265737345524332303a20617070726f766520746f20746865207a65726f206164647265737345524332303a207472616e7366657220616d6f756e7420657863656564732062616c616e636545524332303a207472616e7366657220616d6f756e74206578636565647320616c6c6f77616e636545524332303a207472616e736665722066726f6d20746865207a65726f206164647265737345524332303a20617070726f76652066726f6d20746865207a65726f206164647265737345524332303a2064656372656173656420616c6c6f77616e63652062656c6f77207a65726fa2646970667358221220a6a13fcb3a6f481548943880251245179a3cfc813d2892a6589dab1120cc98bd64736f6c634300060c003345524332303a207472616e7366657220616d6f756e7420657863656564732062616c616e636545524332303a207472616e7366657220616d6f756e74206578636565647320616c6c6f77616e636545524332303a2064656372656173656420616c6c6f77616e63652062656c6f77207a65726fa264697066735822122093437546673100637404133c9ecc3ab1640215ac17ae522c08de37491421798164736f6c634300060c0033",
  "immutableReferences": {},
  "source": "// SPDX-License-Identifier: SimPL-2.0\npragma solidity 0.6.12;\npragma experimental ABIEncoderV2;\n\n// External\nimport { ITokenManager } from \"./ITokenManager.sol\";\nimport { IDataManager } from \"./IDataManager.sol\";\n\n// Internal\nimport { TokenStructs } from \"./TokenStructs.sol\";\nimport { CustomToken } from \"./CustomToken.sol\";\n\nimport \"@openzeppelin/contracts/token/ERC20/ERC20.sol\";\n\nimport { StableMath } from \"./shared/StableMath.sol\";\nimport { MassetHelpers } from \"./shared/MassetHelpers.sol\";\n\ncontract TokenManager is ITokenManager, ERC20 {\n\n    using StableMath for uint256;\n\n    // \n    event Created(string name, string symbol, uint256 supply, address token_addr);\n    // \n    event Minted(address indexed minter, address recipient, uint256 mAssetQuantity, address bAsset, uint256 bAssetQuantity);\n    event MintedMulti(address indexed minter, address recipient, uint256 mAssetQuantity, address[] bAssets, uint256[] bAssetQuantities);\n    // \n    event Redeemed(address indexed redeemer, address recipient, uint256 mAssetQuantity, address[] bAssets, uint256[] bAssetQuantities);\n    event RedeemedMasset(address indexed redeemer, address recipient, uint256 mAssetQuantity);\n    // \n    event PaidFee(address indexed payer, address asset, uint256 feeQuantity);\n\n    CustomAsset[] public CustomAssets;\n\n    // \n    mapping(address => CustomAsset) public ercAddrToCustomToken;\n\n    // \n    mapping(address => PreToken[]) public preTokens;\n\n    mapping(address => uint256) public ratio;\n\n    mapping(address => mapping(address => uint256)) public tokenRadio;\n\n    // \n    constructor(string memory name, string memory symbol) public ERC20(name, symbol) {}\n\n    // \n    function initialize()\n        external\n    {\n        \n    }\n\n    // \n    function create(\n        string memory _name, \n        string memory _symbol\n    )\n        override\n        external\n    {\n        CustomToken token = new CustomToken(_name, _symbol);\n        uint256[] memory ratios = new uint256[](1);\n        uint256 status = 1;\n        CustomAsset memory asset = CustomAsset(\n            _name,\n            _symbol,\n            address(token),\n            status,\n            ratios\n        );\n\n        ercAddrToCustomToken[address(token)] = asset;\n\n        emit Created(_name, _symbol, 0, address(token));\n    }\n\n    // \n    function mintMulti(\n        address erc20Addr,\n        address[] calldata _preToken, \n        uint256[] calldata _bassetAmount, \n        bool[] calldata _isTransferFee,\n        address receipt\n    )\n        override\n        external\n        returns (uint256 massetMinted) \n    {\n        require(_preToken.length > 0, \"_preToken lenght must not be 0\");\n        require(_preToken.length != _bassetAmount.length, \"lenght must be equal\");\n\n        // TODO \n\n        CustomAsset memory customAsset = ercAddrToCustomToken[erc20Addr];\n        require(customAsset.status != 0);\n\n        uint256 len = _preToken.length;\n        // \n        for(uint256 i = 0; i < len; i++) {\n            address tokenAddr = _preToken[i];\n            uint256 amount = _bassetAmount[i];\n            bool isTransferFee = _isTransferFee[i];\n            uint256 quantityTransferred = MassetHelpers.transferTokens(msg.sender, address(this), tokenAddr, isTransferFee, amount);\n        }\n        _mint(msg.sender, 1);\n        return 1;\n    }\n\n    // \n    function redeem(\n        address _targetAddr,\n        uint256 _bAssetQuantity\n    )\n        override\n        external\n        returns (uint256 massetRedeemed)\n    {\n        // \n        CustomAsset memory asset = ercAddrToCustomToken[_targetAddr];\n\n        return _redeemTo(_targetAddr, 1, msg.sender);\n    }\n\n    /**\n     * 1:1 XSDT\n     * \n     * _bAsset         \n     * _bAssetQuantity \n     * massetMinted    XSDT\n     */\n    function mint(address _bAsset, uint256 _bAssetAmount) external returns (uint256 massetMinted){\n        return _mintTo(_bAsset, _bAssetAmount, msg.sender);\n    }\n\n    // XSDT\n    function _mintTo(address _bAsset, uint256 _bAssetAmount, address _recipient) internal returns (uint256 massetMinted){\n        // // \n        // require(_recipient != address(0), \"Must be a valid recipient\");\n        // // 0\n        // require(_bAssetAmount > 0, \"Quantity must not be 0\");\n\n        // (bool isValid, BassetDetails memory bInfo) = basketManager.prepareForgeBasset(_bAsset, _bAssetAmount, true);\n        // if(!isValid) return 0;\n\n        // Transfer collateral to the platform integration address and call deposit\n        // address integrator = bInfo.integrator;\n        // (uint256 quantityDeposited, uint256 ratioedDeposit) =\n        //     _depositTokens(_bAsset, bInfo.bAsset.ratio, integrator, bInfo.bAsset.isTransferFeeCharged, _bAssetAmount);\n\n        // Validation should be after token transfer, as bAssetQty is unknown before\n        // (bool mintValid, string memory reason) = forgeValidator.validateMint(totalSupply(), bInfo.bAsset, quantityDeposited);\n        // require(mintValid, reason);\n\n        // ,  basket \n        // basketManager.increaseVaultBalance(0, integrator, quantityDeposited);\n\n        // XSDT\n        // _mint(_recipient, ratioedDeposit);\n        // emit Minted(msg.sender, _recipient, ratioedDeposit, _bAsset, quantityDeposited);\n        uint256 ratioedDeposit = 1;\n        return ratioedDeposit;\n    }\n\n    /**\n     * Mint with multiple bAssets, at a 1:1 ratio to mAsset. This contract\n     *      must have approval to spend the senders bAssets\n     * _bAssets          Non-duplicate address array of bAssets with which to mint\n     * _bAssetQuantity   Quantity of each bAsset to mint. Order of array\n     *                          should mirror the above\n     * _recipient        Address to receive the newly minted mAsset tokens\n     * massetMinted     Number of newly minted mAssets\n     */\n    // function mintMulti(\n    //     address[] calldata _bAssets,\n    //     uint256[] calldata _bAssetQuantity,\n    //     address _recipient\n    // )   \n    //     external\n    //     returns(uint256 massetMinted)\n    // {\n    //     return _mintTo(_bAssets, _bAssetQuantity, _recipient);\n    // }\n\n    // \n    function _mintTo(\n        address[] memory _bAssets,\n        uint256[] memory _bAssetQuantities,\n        address _recipient\n    )\n        internal\n        returns (uint256 massetMinted)\n    {\n        require(_recipient != address(0), \"Must be a valid recipient\");\n        uint256 len = _bAssetQuantities.length;\n        require(len > 0 && len == _bAssets.length, \"Input array mismatch\");\n\n        // Load only needed bAssets in array\n        // ForgePropsMulti memory props\n        //     = basketManager.prepareForgeBassets(_bAssets, _bAssetQuantities, true);\n        // if(!props.isValid) return 0;\n\n        uint256 mAssetQuantity = 2;\n        uint256[] memory receivedQty = new uint256[](len);\n\n        // Transfer the Bassets to the integrator, update storage and calc MassetQ\n        // for(uint256 i = 0; i < len; i++){\n        //     uint256 bAssetQuantity = _bAssetQuantities[i];\n        //     if(bAssetQuantity > 0){\n        //         // bAsset == bAssets[i] == basket.bassets[indexes[i]]\n        //         Basset memory bAsset = props.bAssets[i];\n\n        //         (uint256 quantityDeposited, uint256 ratioedDeposit) =\n        //             _depositTokens(bAsset.addr, bAsset.ratio, props.integrators[i], bAsset.isTransferFeeCharged, bAssetQuantity);\n\n        //         receivedQty[i] = quantityDeposited;\n        //         mAssetQuantity = mAssetQuantity.add(ratioedDeposit);\n        //     }\n        // }\n        require(mAssetQuantity > 0, \"No masset quantity to mint\");\n\n        // basketManager.increaseVaultBalances(props.indexes, props.integrators, receivedQty);\n\n        // Validate the proposed mint, after token transfer\n        // (bool mintValid, string memory reason) = \n        //             forgeValidator.validateMintMulti(totalSupply(), props.bAssets, receivedQty);\n        // require(mintValid, reason);\n\n        // Mint the Masset\n        // _mint(_recipient, mAssetQuantity);\n        // emit MintedMulti(msg.sender, _recipient, mAssetQuantity, _bAssets, _bAssetQuantities);\n\n        return mAssetQuantity;\n    }\n\n    // Deposits tokens into the platform integration and returns the ratioed amount\n    function _depositTokens(\n        address _bAsset,\n        uint256 _bAssetRatio,\n        address _integrator,\n        bool _erc20TransferFeeCharged,\n        uint256 _quantity\n    )\n        internal\n        returns (uint256 quantityDeposited, uint256 ratioedDeposit)\n    {\n        quantityDeposited = _depositTokens(_bAsset, _integrator, _erc20TransferFeeCharged, _quantity);\n        ratioedDeposit = quantityDeposited.mulRatioTruncate(_bAssetRatio);\n    }\n\n    // Deposits tokens into the platform integration and returns the deposited amount\n    function _depositTokens(\n        address _bAsset,\n        address _integrator,\n        bool _erc20TransferFeeCharged,\n        uint256 _quantity\n    )\n        internal\n        returns (uint256 quantityDeposited)\n    {\n        uint256 quantityTransferred = MassetHelpers.transferTokens(msg.sender, _integrator, _bAsset, _erc20TransferFeeCharged, _quantity);\n        // uint256 deposited = IPlatformIntegration(_integrator).deposit(_bAsset, quantityTransferred, _erc20TransferFeeCharged);\n        // quantityDeposited = StableMath.min(deposited, _quantity);\n    }\n\n    function redeemMulti(\n        address[] calldata _bAssets,\n        uint256[] calldata _bAssetQuantities,\n        address _recipient\n    )\n        external\n        returns (uint256 massetRedeemed)\n    {\n        return _redeemTo(_bAssets, _bAssetQuantities, _recipient);\n    }\n\n    /**\n     * Credits a recipient with a proportionate amount of bAssets, relative to current vault\n     * balance levels and desired mAsset quantity. Burns the mAsset as payment.\n     * _mAssetQuantity   Quantity of mAsset to redeem\n     * _recipient        Address to credit the withdrawn bAssets\n     */\n    function redeemMasset(\n        uint256 _mAssetQuantity,\n        address _recipient\n    )\n        external\n    {\n        _redeemMasset(_mAssetQuantity, _recipient);\n    }\n\n    /** @dev Casting to arrays for use in redeemMulti func */\n    function _redeemTo(\n        address _bAsset,\n        uint256 _bAssetQuantity,\n        address _recipient\n    )\n        internal\n        returns (uint256 massetRedeemed)\n    {\n        address[] memory bAssets = new address[](1);\n        uint256[] memory quantities = new uint256[](1);\n        bAssets[0] = _bAsset;\n        quantities[0] = _bAssetQuantity;\n        return _redeemTo(bAssets, quantities, _recipient);\n    }\n\n    // Redeem mAsset for one or more bAssets\n    function _redeemTo(\n        address[] memory _bAssets,\n        uint256[] memory _bAssetQuantities,\n        address _recipient\n    )\n        internal\n        returns (uint256 massetRedeemed)\n    {\n        require(_recipient != address(0), \"Must be a valid recipient\");\n        uint256 bAssetCount = _bAssetQuantities.length;\n        require(bAssetCount > 0 && bAssetCount == _bAssets.length, \"Input array mismatch\");\n\n        // basket\n        // Basket memory basket = basketManager.getBasket();\n\n        // \n        // ForgePropsMulti memory props = basketManager.prepareForgeBassets(_bAssets, _bAssetQuantities, false);\n        // if(!props.isValid) return 0;\n\n        // Validate redemption\n        // (bool redemptionValid, string memory reason, bool applyFee) =\n        //     forgeValidator.validateRedemption(basket.failed, totalSupply(), basket.bassets, props.indexes, _bAssetQuantities);\n        // require(redemptionValid, reason);\n\n        // Calc total redeemed mAsset quantity\n        // XSDT\n        // for(uint256 i = 0; i < bAssetCount; i++){\n        //     uint256 bAssetQuantity = _bAssetQuantities[i];\n        //     if(bAssetQuantity > 0){\n        //         // Calc equivalent mAsset amount\n        //         uint256 ratioedBasset = bAssetQuantity.mulRatioTruncateCeil(props.bAssets[i].ratio);\n        //         bAssetCount = bAssetCount.add(ratioedBasset);\n        //     }\n        // }\n        // require(bAssetCount > 0, \"Must redeem some bAssets\");\n\n        // Redemption has fee? Fetch the rate\n        // uint256 fee = applyFee ? swapFee : 0;\n        // \n        uint256 fee = 0;\n\n        // Apply fees, burn mAsset and return bAsset to recipient\n        // _settleRedemption(_recipient, bAssetCount, props.bAssets, _bAssetQuantities, props.indexes, props.integrators, fee);\n\n        // emit Redeemed(msg.sender, _recipient, bAssetCount, _bAssets, _bAssetQuantities);\n\n        return bAssetCount;\n    }\n\n    // XSDT\n    function _redeemMasset(\n        uint256 _mAssetQuantity,\n        address _recipient\n    )\n        internal\n    {\n        require(_recipient != address(0), \"Must be a valid recipient\");\n        require(_mAssetQuantity > 0, \"Invalid redemption quantity\");\n\n        // Fetch high level details\n        // RedeemPropsMulti memory props = basketManager.prepareRedeemMulti();\n        // uint256 colRatio = StableMath.min(props.colRatio, StableMath.getFullScale());\n\n        // Ensure payout is related to the collateralised mAsset quantity\n        // uint256 collateralisedMassetQuantity = _mAssetQuantity.mulTruncate(colRatio);\n\n        // // Calculate redemption quantities\n        // (bool redemptionValid, string memory reason, uint256[] memory bAssetQuantities) =\n        //     forgeValidator.calculateRedemptionMulti(collateralisedMassetQuantity, props.bAssets);\n        // require(redemptionValid, reason);\n\n        // // 0\n        // uint256 redemptionFee = 0;\n\n        // // Apply fees, burn mAsset and return bAsset to recipient\n        // _settleRedemption(_recipient, _mAssetQuantity, props.bAssets, bAssetQuantities, props.indexes, props.integrators, redemptionFee);\n\n        emit RedeemedMasset(msg.sender, _recipient, _mAssetQuantity);\n    }\n\n    /**\n     * Internal func to update contract state post-redemption\n     * @param _recipient        Recipient of the bAssets\n     * @param _mAssetQuantity   Total amount of mAsset to burn from sender\n     * @param _bAssets          Array of bAssets to redeem\n     * @param _bAssetQuantities Array of bAsset quantities\n     * @param _indices          Matching indices for the bAsset array\n     * @param _integrators      Matching integrators for the bAsset array\n     * @param _feeRate          Fee rate to be applied to this redemption\n     */\n    function _settleRedemption(\n        address _recipient,\n        uint256 _mAssetQuantity,\n        Basset[] memory _bAssets,\n        uint256[] memory _bAssetQuantities,\n        uint8[] memory _indices,\n        address[] memory _integrators,\n        uint256 _feeRate\n    ) \n        internal \n    {\n        // Burn the full amount of Masset\n        _burn(msg.sender, _mAssetQuantity);\n\n        // Reduce the amount of bAssets marked in the vault\n        // basketManager.decreaseVaultBalances(_indices, _integrators, _bAssetQuantities);\n\n        // Transfer the Bassets to the recipient\n        // uint256 bAssetCount = _bAssets.length;\n        // for(uint256 i = 0; i < bAssetCount; i++){\n        //     address bAsset = _bAssets[i].addr;\n        //     uint256 q = _bAssetQuantities[i];\n        //     if(q > 0){\n        //         // Deduct the redemption fee, if any\n        //         q = _deductSwapFee(bAsset, q, _feeRate);\n        //         // Transfer the Bassets to the user\n        //         IPlatformIntegration(_integrators[i]).withdraw(_recipient, bAsset, q, _bAssets[i].isTransferFeeCharged);\n        //     }\n        // }\n    }\n\n    /**\n     * Pay the forging fee by burning relative amount of mAsset\n     * @param _bAssetQuantity     Exact amount of bAsset being swapped out\n     */\n    function _deductSwapFee(address _asset, uint256 _bAssetQuantity, uint256 _feeRate)\n        private\n        returns (uint256 outputMinusFee)\n    {\n        outputMinusFee = _bAssetQuantity;\n        if(_feeRate > 0){\n            (uint256 fee, uint256 output) = _calcSwapFee(_bAssetQuantity, _feeRate);\n            outputMinusFee = output;\n            emit PaidFee(msg.sender, _asset, fee);\n        }\n    }\n\n    /**\n     * Pay the forging fee by burning relative amount of mAsset\n     * @param _bAssetQuantity     Exact amount of bAsset being swapped out\n     */\n    function _calcSwapFee(uint256 _bAssetQuantity, uint256 _feeRate)\n        private\n        pure\n        returns (uint256 feeAmount, uint256 outputMinusFee)\n    {\n        // e.g. for 500 massets.\n        // feeRate == 1% == 1e16. _quantity == 5e20.\n        // (5e20 * 1e16) / 1e18 = 5e18\n        feeAmount = _bAssetQuantity.mulTruncate(_feeRate);\n        outputMinusFee = _bAssetQuantity.sub(feeAmount);\n    }\n\n}",
  "sourcePath": "/Users/zhangxuesong/mysoft/defi/XStableDollar-contracts/stabledollar/contracts/TokenManager.sol",
  "compiler": {
    "name": "solc",
    "version": "0.6.12+commit.27d51765.Emscripten.clang"
  },
  "schemaVersion": "3.3.2",
  "updatedAt": "2020-11-14T11:25:57.864Z",
  "devdoc": {
    "kind": "dev",
    "methods": {
      "allowance(address,address)": {
        "details": "See {IERC20-allowance}."
      },
      "approve(address,uint256)": {
        "details": "See {IERC20-approve}. Requirements: - `spender` cannot be the zero address."
      },
      "balanceOf(address)": {
        "details": "See {IERC20-balanceOf}."
      },
      "decimals()": {
        "details": "Returns the number of decimals used to get its user representation. For example, if `decimals` equals `2`, a balance of `505` tokens should be displayed to a user as `5,05` (`505 / 10 ** 2`). Tokens usually opt for a value of 18, imitating the relationship between Ether and Wei. This is the value {ERC20} uses, unless {_setupDecimals} is called. NOTE: This information is only used for _display_ purposes: it in no way affects any of the arithmetic of the contract, including {IERC20-balanceOf} and {IERC20-transfer}."
      },
      "decreaseAllowance(address,uint256)": {
        "details": "Atomically decreases the allowance granted to `spender` by the caller. This is an alternative to {approve} that can be used as a mitigation for problems described in {IERC20-approve}. Emits an {Approval} event indicating the updated allowance. Requirements: - `spender` cannot be the zero address. - `spender` must have allowance for the caller of at least `subtractedValue`."
      },
      "increaseAllowance(address,uint256)": {
        "details": "Atomically increases the allowance granted to `spender` by the caller. This is an alternative to {approve} that can be used as a mitigation for problems described in {IERC20-approve}. Emits an {Approval} event indicating the updated allowance. Requirements: - `spender` cannot be the zero address."
      },
      "name()": {
        "details": "Returns the name of the token."
      },
      "symbol()": {
        "details": "Returns the symbol of the token, usually a shorter version of the name."
      },
      "totalSupply()": {
        "details": "See {IERC20-totalSupply}."
      },
      "transfer(address,uint256)": {
        "details": "See {IERC20-transfer}. Requirements: - `recipient` cannot be the zero address. - the caller must have a balance of at least `amount`."
      },
      "transferFrom(address,address,uint256)": {
        "details": "See {IERC20-transferFrom}. Emits an {Approval} event indicating the updated allowance. This is not required by the EIP. See the note at the beginning of {ERC20}; Requirements: - `sender` and `recipient` cannot be the zero address. - `sender` must have a balance of at least `amount`. - the caller must have allowance for ``sender``'s tokens of at least `amount`."
      }
    },
    "version": 1
  },
  "userdoc": {
    "kind": "user",
    "methods": {
      "mint(address,uint256)": {
        "notice": "1:1 XSDT  _bAsset          _bAssetQuantity  massetMinted    XSDT"
      },
      "redeemMasset(uint256,address)": {
        "notice": "Credits a recipient with a proportionate amount of bAssets, relative to current vault balance levels and desired mAsset quantity. Burns the mAsset as payment. _mAssetQuantity   Quantity of mAsset to redeem _recipient        Address to credit the withdrawn bAssets"
      }
    },
    "version": 1
  }
}