{
  "contractName": "TokenManager",
  "abi": [
    {
      "inputs": [
        {
          "internalType": "string",
          "name": "name",
          "type": "string"
        },
        {
          "internalType": "string",
          "name": "symbol",
          "type": "string"
        }
      ],
      "stateMutability": "nonpayable",
      "type": "constructor"
    },
    {
      "anonymous": false,
      "inputs": [
        {
          "indexed": true,
          "internalType": "address",
          "name": "owner",
          "type": "address"
        },
        {
          "indexed": true,
          "internalType": "address",
          "name": "spender",
          "type": "address"
        },
        {
          "indexed": false,
          "internalType": "uint256",
          "name": "value",
          "type": "uint256"
        }
      ],
      "name": "Approval",
      "type": "event"
    },
    {
      "anonymous": false,
      "inputs": [
        {
          "indexed": false,
          "internalType": "string",
          "name": "name",
          "type": "string"
        },
        {
          "indexed": false,
          "internalType": "string",
          "name": "symbol",
          "type": "string"
        },
        {
          "indexed": false,
          "internalType": "uint256",
          "name": "supply",
          "type": "uint256"
        },
        {
          "indexed": false,
          "internalType": "address",
          "name": "token_addr",
          "type": "address"
        }
      ],
      "name": "Created",
      "type": "event"
    },
    {
      "anonymous": false,
      "inputs": [
        {
          "indexed": true,
          "internalType": "address",
          "name": "minter",
          "type": "address"
        },
        {
          "indexed": false,
          "internalType": "address",
          "name": "recipient",
          "type": "address"
        },
        {
          "indexed": false,
          "internalType": "uint256",
          "name": "mAssetQuantity",
          "type": "uint256"
        },
        {
          "indexed": false,
          "internalType": "address",
          "name": "bAsset",
          "type": "address"
        },
        {
          "indexed": false,
          "internalType": "uint256",
          "name": "bAssetQuantity",
          "type": "uint256"
        }
      ],
      "name": "Minted",
      "type": "event"
    },
    {
      "anonymous": false,
      "inputs": [
        {
          "indexed": true,
          "internalType": "address",
          "name": "minter",
          "type": "address"
        },
        {
          "indexed": false,
          "internalType": "address",
          "name": "recipient",
          "type": "address"
        },
        {
          "indexed": false,
          "internalType": "uint256",
          "name": "mAssetQuantity",
          "type": "uint256"
        },
        {
          "indexed": false,
          "internalType": "address[]",
          "name": "bAssets",
          "type": "address[]"
        },
        {
          "indexed": false,
          "internalType": "uint256[]",
          "name": "bAssetQuantities",
          "type": "uint256[]"
        }
      ],
      "name": "MintedMulti",
      "type": "event"
    },
    {
      "anonymous": false,
      "inputs": [
        {
          "indexed": true,
          "internalType": "address",
          "name": "payer",
          "type": "address"
        },
        {
          "indexed": false,
          "internalType": "address",
          "name": "asset",
          "type": "address"
        },
        {
          "indexed": false,
          "internalType": "uint256",
          "name": "feeQuantity",
          "type": "uint256"
        }
      ],
      "name": "PaidFee",
      "type": "event"
    },
    {
      "anonymous": false,
      "inputs": [
        {
          "indexed": true,
          "internalType": "address",
          "name": "redeemer",
          "type": "address"
        },
        {
          "indexed": false,
          "internalType": "address",
          "name": "recipient",
          "type": "address"
        },
        {
          "indexed": false,
          "internalType": "uint256",
          "name": "mAssetQuantity",
          "type": "uint256"
        },
        {
          "indexed": false,
          "internalType": "address[]",
          "name": "bAssets",
          "type": "address[]"
        },
        {
          "indexed": false,
          "internalType": "uint256[]",
          "name": "bAssetQuantities",
          "type": "uint256[]"
        }
      ],
      "name": "Redeemed",
      "type": "event"
    },
    {
      "anonymous": false,
      "inputs": [
        {
          "indexed": true,
          "internalType": "address",
          "name": "redeemer",
          "type": "address"
        },
        {
          "indexed": false,
          "internalType": "address",
          "name": "recipient",
          "type": "address"
        },
        {
          "indexed": false,
          "internalType": "uint256",
          "name": "mAssetQuantity",
          "type": "uint256"
        }
      ],
      "name": "RedeemedMasset",
      "type": "event"
    },
    {
      "anonymous": false,
      "inputs": [
        {
          "indexed": true,
          "internalType": "address",
          "name": "from",
          "type": "address"
        },
        {
          "indexed": true,
          "internalType": "address",
          "name": "to",
          "type": "address"
        },
        {
          "indexed": false,
          "internalType": "uint256",
          "name": "value",
          "type": "uint256"
        }
      ],
      "name": "Transfer",
      "type": "event"
    },
    {
      "inputs": [
        {
          "internalType": "uint256",
          "name": "",
          "type": "uint256"
        }
      ],
      "name": "CustomAssets",
      "outputs": [
        {
          "internalType": "string",
          "name": "name",
          "type": "string"
        },
        {
          "internalType": "string",
          "name": "symbol",
          "type": "string"
        },
        {
          "internalType": "address",
          "name": "target",
          "type": "address"
        },
        {
          "internalType": "uint256",
          "name": "status",
          "type": "uint256"
        }
      ],
      "stateMutability": "view",
      "type": "function"
    },
    {
      "inputs": [
        {
          "internalType": "address",
          "name": "owner",
          "type": "address"
        },
        {
          "internalType": "address",
          "name": "spender",
          "type": "address"
        }
      ],
      "name": "allowance",
      "outputs": [
        {
          "internalType": "uint256",
          "name": "",
          "type": "uint256"
        }
      ],
      "stateMutability": "view",
      "type": "function"
    },
    {
      "inputs": [
        {
          "internalType": "address",
          "name": "spender",
          "type": "address"
        },
        {
          "internalType": "uint256",
          "name": "amount",
          "type": "uint256"
        }
      ],
      "name": "approve",
      "outputs": [
        {
          "internalType": "bool",
          "name": "",
          "type": "bool"
        }
      ],
      "stateMutability": "nonpayable",
      "type": "function"
    },
    {
      "inputs": [
        {
          "internalType": "address",
          "name": "account",
          "type": "address"
        }
      ],
      "name": "balanceOf",
      "outputs": [
        {
          "internalType": "uint256",
          "name": "",
          "type": "uint256"
        }
      ],
      "stateMutability": "view",
      "type": "function"
    },
    {
      "inputs": [],
      "name": "decimals",
      "outputs": [
        {
          "internalType": "uint8",
          "name": "",
          "type": "uint8"
        }
      ],
      "stateMutability": "view",
      "type": "function"
    },
    {
      "inputs": [
        {
          "internalType": "address",
          "name": "spender",
          "type": "address"
        },
        {
          "internalType": "uint256",
          "name": "subtractedValue",
          "type": "uint256"
        }
      ],
      "name": "decreaseAllowance",
      "outputs": [
        {
          "internalType": "bool",
          "name": "",
          "type": "bool"
        }
      ],
      "stateMutability": "nonpayable",
      "type": "function"
    },
    {
      "inputs": [
        {
          "internalType": "address",
          "name": "",
          "type": "address"
        }
      ],
      "name": "ercAddrToCustomToken",
      "outputs": [
        {
          "internalType": "string",
          "name": "name",
          "type": "string"
        },
        {
          "internalType": "string",
          "name": "symbol",
          "type": "string"
        },
        {
          "internalType": "address",
          "name": "target",
          "type": "address"
        },
        {
          "internalType": "uint256",
          "name": "status",
          "type": "uint256"
        }
      ],
      "stateMutability": "view",
      "type": "function"
    },
    {
      "inputs": [
        {
          "internalType": "address",
          "name": "spender",
          "type": "address"
        },
        {
          "internalType": "uint256",
          "name": "addedValue",
          "type": "uint256"
        }
      ],
      "name": "increaseAllowance",
      "outputs": [
        {
          "internalType": "bool",
          "name": "",
          "type": "bool"
        }
      ],
      "stateMutability": "nonpayable",
      "type": "function"
    },
    {
      "inputs": [],
      "name": "name",
      "outputs": [
        {
          "internalType": "string",
          "name": "",
          "type": "string"
        }
      ],
      "stateMutability": "view",
      "type": "function"
    },
    {
      "inputs": [
        {
          "internalType": "address",
          "name": "",
          "type": "address"
        },
        {
          "internalType": "uint256",
          "name": "",
          "type": "uint256"
        }
      ],
      "name": "preTokens",
      "outputs": [
        {
          "internalType": "address",
          "name": "tokenAddr",
          "type": "address"
        },
        {
          "internalType": "uint256",
          "name": "amount",
          "type": "uint256"
        }
      ],
      "stateMutability": "view",
      "type": "function"
    },
    {
      "inputs": [
        {
          "internalType": "address",
          "name": "",
          "type": "address"
        }
      ],
      "name": "ratio",
      "outputs": [
        {
          "internalType": "uint256",
          "name": "",
          "type": "uint256"
        }
      ],
      "stateMutability": "view",
      "type": "function"
    },
    {
      "inputs": [],
      "name": "symbol",
      "outputs": [
        {
          "internalType": "string",
          "name": "",
          "type": "string"
        }
      ],
      "stateMutability": "view",
      "type": "function"
    },
    {
      "inputs": [
        {
          "internalType": "address",
          "name": "",
          "type": "address"
        },
        {
          "internalType": "address",
          "name": "",
          "type": "address"
        }
      ],
      "name": "tokenRadio",
      "outputs": [
        {
          "internalType": "uint256",
          "name": "",
          "type": "uint256"
        }
      ],
      "stateMutability": "view",
      "type": "function"
    },
    {
      "inputs": [],
      "name": "totalSupply",
      "outputs": [
        {
          "internalType": "uint256",
          "name": "",
          "type": "uint256"
        }
      ],
      "stateMutability": "view",
      "type": "function"
    },
    {
      "inputs": [
        {
          "internalType": "address",
          "name": "recipient",
          "type": "address"
        },
        {
          "internalType": "uint256",
          "name": "amount",
          "type": "uint256"
        }
      ],
      "name": "transfer",
      "outputs": [
        {
          "internalType": "bool",
          "name": "",
          "type": "bool"
        }
      ],
      "stateMutability": "nonpayable",
      "type": "function"
    },
    {
      "inputs": [
        {
          "internalType": "address",
          "name": "sender",
          "type": "address"
        },
        {
          "internalType": "address",
          "name": "recipient",
          "type": "address"
        },
        {
          "internalType": "uint256",
          "name": "amount",
          "type": "uint256"
        }
      ],
      "name": "transferFrom",
      "outputs": [
        {
          "internalType": "bool",
          "name": "",
          "type": "bool"
        }
      ],
      "stateMutability": "nonpayable",
      "type": "function"
    },
    {
      "inputs": [
        {
          "internalType": "address",
          "name": "_dataManager",
          "type": "address"
        }
      ],
      "name": "initialize",
      "outputs": [],
      "stateMutability": "nonpayable",
      "type": "function"
    },
    {
      "inputs": [
        {
          "internalType": "string",
          "name": "_name",
          "type": "string"
        },
        {
          "internalType": "string",
          "name": "_symbol",
          "type": "string"
        }
      ],
      "name": "create",
      "outputs": [],
      "stateMutability": "nonpayable",
      "type": "function"
    },
    {
      "inputs": [
        {
          "internalType": "address",
          "name": "erc20Addr",
          "type": "address"
        },
        {
          "internalType": "address[]",
          "name": "_preToken",
          "type": "address[]"
        },
        {
          "internalType": "uint256[]",
          "name": "_bassetAmount",
          "type": "uint256[]"
        },
        {
          "internalType": "bool[]",
          "name": "_isTransferFee",
          "type": "bool[]"
        },
        {
          "internalType": "address",
          "name": "receipt",
          "type": "address"
        }
      ],
      "name": "mintMulti",
      "outputs": [
        {
          "internalType": "uint256",
          "name": "massetMinted",
          "type": "uint256"
        }
      ],
      "stateMutability": "nonpayable",
      "type": "function"
    },
    {
      "inputs": [
        {
          "internalType": "address",
          "name": "_targetAddr",
          "type": "address"
        },
        {
          "internalType": "uint256",
          "name": "_bAssetQuantity",
          "type": "uint256"
        }
      ],
      "name": "redeem",
      "outputs": [
        {
          "internalType": "uint256",
          "name": "massetRedeemed",
          "type": "uint256"
        }
      ],
      "stateMutability": "nonpayable",
      "type": "function"
    },
    {
      "inputs": [
        {
          "internalType": "address",
          "name": "_bAsset",
          "type": "address"
        },
        {
          "internalType": "uint256",
          "name": "_bAssetAmount",
          "type": "uint256"
        }
      ],
      "name": "mint",
      "outputs": [
        {
          "internalType": "uint256",
          "name": "massetMinted",
          "type": "uint256"
        }
      ],
      "stateMutability": "nonpayable",
      "type": "function"
    },
    {
      "inputs": [
        {
          "internalType": "address[]",
          "name": "_bAssets",
          "type": "address[]"
        },
        {
          "internalType": "uint256[]",
          "name": "_bAssetQuantities",
          "type": "uint256[]"
        },
        {
          "internalType": "address",
          "name": "_recipient",
          "type": "address"
        }
      ],
      "name": "redeemMulti",
      "outputs": [
        {
          "internalType": "uint256",
          "name": "massetRedeemed",
          "type": "uint256"
        }
      ],
      "stateMutability": "nonpayable",
      "type": "function"
    },
    {
      "inputs": [
        {
          "internalType": "uint256",
          "name": "_mAssetQuantity",
          "type": "uint256"
        },
        {
          "internalType": "address",
          "name": "_recipient",
          "type": "address"
        }
      ],
      "name": "redeemMasset",
      "outputs": [],
      "stateMutability": "nonpayable",
      "type": "function"
    }
  ],
  "bytecode": "0x60806040523480156200001157600080fd5b5060405162004e6e38038062004e6e833981810160405281019062000037919062000193565b818181600390805190602001906200005192919062000091565b5080600490805190602001906200006a92919062000091565b506012600560006101000a81548160ff021916908360ff1602179055505050505062000297565b828054600181600116156101000203166002900490600052602060002090601f016020900481019282601f10620000d457805160ff191683800117855562000105565b8280016001018555821562000105579182015b8281111562000104578251825591602001919060010190620000e7565b5b50905062000114919062000118565b5090565b5b808211156200013357600081600090555060010162000119565b5090565b600082601f8301126200014957600080fd5b8151620001606200015a8262000234565b62000206565b915080825260208301602083018583830111156200017d57600080fd5b6200018a83828462000261565b50505092915050565b60008060408385031215620001a757600080fd5b600083015167ffffffffffffffff811115620001c257600080fd5b620001d08582860162000137565b925050602083015167ffffffffffffffff811115620001ee57600080fd5b620001fc8582860162000137565b9150509250929050565b6000604051905081810181811067ffffffffffffffff821117156200022a57600080fd5b8060405250919050565b600067ffffffffffffffff8211156200024c57600080fd5b601f19601f8301169050602081019050919050565b60005b838110156200028157808201518184015260208101905062000264565b8381111562000291576000848401525b50505050565b614bc780620002a76000396000f3fe60806040523480156200001157600080fd5b50600436106200016c5760003560e01c806351abb90a11620000d5578063a457c2d71162000087578063a457c2d714620004a8578063a9059cbb14620004de578063aa3053b01462000514578063abe743ff146200054a578063c4d66de8146200056a578063dd62ed3e146200058a576200016c565b806351abb90a1462000374578063701d9a4614620003ad57806370a0823114620003e3578063730d13551462000419578063834330cc146200044f57806395d89b411462000486576200016c565b8063198e2b8a116200012f578063198e2b8a146200025a5780631e9a6950146200027a57806323b872dd14620002b0578063313ce56714620002e657806339509351146200030857806340c10f19146200033e576200016c565b80630453e208146200017157806306fdde0314620001aa578063095ea7b314620001cc5780630b40495b146200020257806318160ddd1462000238575b600080fd5b6200018f600480360381019062000189919062002c95565b620005c0565b604051620001a194939291906200332f565b60405180910390f35b620001b462000756565b604051620001c39190620032d0565b60405180910390f35b620001ea6004803603810190620001e4919062002af7565b620007fc565b604051620001f99190620032b3565b60405180910390f35b6200022060048036038101906200021a91906200295a565b6200081e565b6040516200022f91906200359f565b60405180910390f35b6200024262000836565b6040516200025191906200359f565b60405180910390f35b62000278600480360381019062000272919062002c22565b62000840565b005b62000298600480360381019062000292919062002af7565b62000a55565b604051620002a791906200359f565b60405180910390f35b620002ce6004803603810190620002c89190620029c7565b62000cca565b604051620002dd9190620032b3565b60405180910390f35b620002f062000dae565b604051620002ff9190620035bc565b60405180910390f35b62000326600480360381019062000320919062002af7565b62000dc5565b604051620003359190620032b3565b60405180910390f35b6200035c600480360381019062000356919062002af7565b62000e80565b6040516200036b91906200359f565b60405180910390f35b6200039260048036038101906200038c91906200295a565b62000e97565b604051620003a494939291906200332f565b60405180910390f35b620003cb6004803603810190620003c5919062002986565b6200101f565b604051620003da91906200359f565b60405180910390f35b620004016004803603810190620003fb91906200295a565b62001044565b6040516200041091906200359f565b60405180910390f35b62000437600480360381019062000431919062002a1d565b6200108c565b6040516200044691906200359f565b60405180910390f35b6200046d600480360381019062000467919062002af7565b62001452565b6040516200047d92919062003286565b60405180910390f35b62000490620014b1565b6040516200049f9190620032d0565b60405180910390f35b620004c66004803603810190620004c0919062002af7565b62001557565b604051620004d59190620032b3565b60405180910390f35b620004fc6004803603810190620004f6919062002af7565b6200162d565b6040516200050b9190620032b3565b60405180910390f35b6200053260048036038101906200052c919062002b38565b6200164f565b6040516200054191906200359f565b60405180910390f35b62000568600480360381019062000562919062002ced565b620016eb565b005b6200058860048036038101906200058291906200295a565b620016fb565b005b620005a86004803603810190620005a2919062002986565b620016fe565b604051620005b791906200359f565b60405180910390f35b60068181548110620005ce57fe5b9060005260206000209060050201600091509050806000018054600181600116156101000203166002900480601f0160208091040260200160405190810160405280929190818152602001828054600181600116156101000203166002900480156200067e5780601f1062000652576101008083540402835291602001916200067e565b820191906000526020600020905b8154815290600101906020018083116200066057829003601f168201915b505050505090806001018054600181600116156101000203166002900480601f016020809104026020016040519081016040528092919081815260200182805460018160011615610100020316600290048015620007205780601f10620006f45761010080835404028352916020019162000720565b820191906000526020600020905b8154815290600101906020018083116200070257829003601f168201915b5050505050908060020160009054906101000a900473ffffffffffffffffffffffffffffffffffffffff16908060030154905084565b606060038054600181600116156101000203166002900480601f016020809104026020016040519081016040528092919081815260200182805460018160011615610100020316600290048015620007f25780601f10620007c657610100808354040283529160200191620007f2565b820191906000526020600020905b815481529060010190602001808311620007d457829003601f168201915b5050505050905090565b6000620008146200080c62001785565b84846200178d565b6001905092915050565b60096020528060005260406000206000915090505481565b6000600254905090565b60008282604051620008529062002659565b6200085f929190620032f4565b604051809103906000f0801580156200087c573d6000803e3d6000fd5b5090506060600167ffffffffffffffff811180156200089a57600080fd5b50604051908082528060200260200182016040528015620008ca5781602001602082028036833780820191505090505b509050600060019050620008dd62002667565b6040518060a001604052808781526020018681526020018573ffffffffffffffffffffffffffffffffffffffff16815260200183815260200184815250905080600760008673ffffffffffffffffffffffffffffffffffffffff1673ffffffffffffffffffffffffffffffffffffffff16815260200190815260200160002060008201518160000190805190602001906200097a929190620026ac565b50602082015181600101908051906020019062000999929190620026ac565b5060408201518160020160006101000a81548173ffffffffffffffffffffffffffffffffffffffff021916908373ffffffffffffffffffffffffffffffffffffffff16021790555060608201518160030155608082015181600401908051906020019062000a0992919062002733565b509050507f80500318e1044ee4ff02c497b5e6a5094e1941785784636d474f52c76b9cc0d1868660008760405162000a4594939291906200338a565b60405180910390a1505050505050565b600062000a6162002667565b600760008573ffffffffffffffffffffffffffffffffffffffff1673ffffffffffffffffffffffffffffffffffffffff1681526020019081526020016000206040518060a0016040529081600082018054600181600116156101000203166002900480601f01602080910402602001604051908101604052809291908181526020018280546001816001161561010002031660029004801562000b485780601f1062000b1c5761010080835404028352916020019162000b48565b820191906000526020600020905b81548152906001019060200180831162000b2a57829003601f168201915b50505050508152602001600182018054600181600116156101000203166002900480601f01602080910402602001604051908101604052809291908181526020018280546001816001161561010002031660029004801562000bee5780601f1062000bc25761010080835404028352916020019162000bee565b820191906000526020600020905b81548152906001019060200180831162000bd057829003601f168201915b505050505081526020016002820160009054906101000a900473ffffffffffffffffffffffffffffffffffffffff1673ffffffffffffffffffffffffffffffffffffffff1673ffffffffffffffffffffffffffffffffffffffff168152602001600382015481526020016004820180548060200260200160405190810160405280929190818152602001828054801562000ca857602002820191906000526020600020905b81548152602001906001019080831162000c93575b505050505081525050905062000cc18460013362001960565b91505092915050565b600062000cd984848462001a7a565b62000da38462000ce862001785565b62000d9d8560405180606001604052806028815260200162004b4560289139600160008b73ffffffffffffffffffffffffffffffffffffffff1673ffffffffffffffffffffffffffffffffffffffff168152602001908152602001600020600062000d5262001785565b73ffffffffffffffffffffffffffffffffffffffff1673ffffffffffffffffffffffffffffffffffffffff1681526020019081526020016000205462001d1e9092919063ffffffff16565b6200178d565b600190509392505050565b6000600560009054906101000a900460ff16905090565b600062000e7662000dd562001785565b8462000e70856001600062000de962001785565b73ffffffffffffffffffffffffffffffffffffffff1673ffffffffffffffffffffffffffffffffffffffff16815260200190815260200160002060008973ffffffffffffffffffffffffffffffffffffffff1673ffffffffffffffffffffffffffffffffffffffff1681526020019081526020016000205462001d7c90919063ffffffff16565b6200178d565b6001905092915050565b600062000e8f83833362001dd4565b905092915050565b6007602052806000526040600020600091509050806000018054600181600116156101000203166002900480601f01602080910402602001604051908101604052809291908181526020018280546001816001161561010002031660029004801562000f475780601f1062000f1b5761010080835404028352916020019162000f47565b820191906000526020600020905b81548152906001019060200180831162000f2957829003601f168201915b505050505090806001018054600181600116156101000203166002900480601f01602080910402602001604051908101604052809291908181526020018280546001816001161561010002031660029004801562000fe95780601f1062000fbd5761010080835404028352916020019162000fe9565b820191906000526020600020905b81548152906001019060200180831162000fcb57829003601f168201915b5050505050908060020160009054906101000a900473ffffffffffffffffffffffffffffffffffffffff16908060030154905084565b600a602052816000526040600020602052806000526040600020600091509150505481565b60008060008373ffffffffffffffffffffffffffffffffffffffff1673ffffffffffffffffffffffffffffffffffffffff168152602001908152602001600020549050919050565b6000808888905011620010d6576040517f08c379a0000000000000000000000000000000000000000000000000000000008152600401620010cd90620034d3565b60405180910390fd5b8585905088889050141562001122576040517f08c379a000000000000000000000000000000000000000000000000000000000815260040162001119906200355b565b60405180910390fd5b6200112c62002667565b600760008b73ffffffffffffffffffffffffffffffffffffffff1673ffffffffffffffffffffffffffffffffffffffff1681526020019081526020016000206040518060a0016040529081600082018054600181600116156101000203166002900480601f016020809104026020016040519081016040528092919081815260200182805460018160011615610100020316600290048015620012135780601f10620011e75761010080835404028352916020019162001213565b820191906000526020600020905b815481529060010190602001808311620011f557829003601f168201915b50505050508152602001600182018054600181600116156101000203166002900480601f016020809104026020016040519081016040528092919081815260200182805460018160011615610100020316600290048015620012b95780601f106200128d57610100808354040283529160200191620012b9565b820191906000526020600020905b8154815290600101906020018083116200129b57829003601f168201915b505050505081526020016002820160009054906101000a900473ffffffffffffffffffffffffffffffffffffffff1673ffffffffffffffffffffffffffffffffffffffff1673ffffffffffffffffffffffffffffffffffffffff16815260200160038201548152602001600482018054806020026020016040519081016040528092919081815260200182805480156200137357602002820191906000526020600020905b8154815260200190600101908083116200135e575b50505050508152505090506000816060015114156200139157600080fd5b600089899050905060005b81811015620014325760008b8b83818110620013b457fe5b9050602002016020810190620013cb91906200295a565b905060008a8a84818110620013dc57fe5b9050602002013590506000898985818110620013f457fe5b90506020020160208101906200140b919062002bca565b905060006200141e333086858762001de6565b90505050505080806001019150506200139c565b506200144033600162001faa565b60019250505098975050505050505050565b600860205281600052604060002081815481106200146c57fe5b9060005260206000209060020201600091509150508060000160009054906101000a900473ffffffffffffffffffffffffffffffffffffffff16908060010154905082565b606060048054600181600116156101000203166002900480601f0160208091040260200160405190810160405280929190818152602001828054600181600116156101000203166002900480156200154d5780601f1062001521576101008083540402835291602001916200154d565b820191906000526020600020905b8154815290600101906020018083116200152f57829003601f168201915b5050505050905090565b6000620016236200156762001785565b846200161d8560405180606001604052806025815260200162004b6d60259139600160006200159562001785565b73ffffffffffffffffffffffffffffffffffffffff1673ffffffffffffffffffffffffffffffffffffffff16815260200190815260200160002060008a73ffffffffffffffffffffffffffffffffffffffff1673ffffffffffffffffffffffffffffffffffffffff1681526020019081526020016000205462001d1e9092919063ffffffff16565b6200178d565b6001905092915050565b6000620016456200163d62001785565b848462001a7a565b6001905092915050565b6000620016e0868680806020026020016040519081016040528093929190818152602001838360200280828437600081840152601f19601f82011690508083019250505050505050858580806020026020016040519081016040528093929190818152602001838360200280828437600081840152601f19601f820116905080830192505050505050508462002149565b905095945050505050565b620016f7828262002224565b5050565b50565b6000600160008473ffffffffffffffffffffffffffffffffffffffff1673ffffffffffffffffffffffffffffffffffffffff16815260200190815260200160002060008373ffffffffffffffffffffffffffffffffffffffff1673ffffffffffffffffffffffffffffffffffffffff16815260200190815260200160002054905092915050565b600033905090565b600073ffffffffffffffffffffffffffffffffffffffff168373ffffffffffffffffffffffffffffffffffffffff16141562001800576040517f08c379a0000000000000000000000000000000000000000000000000000000008152600401620017f7906200348f565b60405180910390fd5b600073ffffffffffffffffffffffffffffffffffffffff168273ffffffffffffffffffffffffffffffffffffffff16141562001873576040517f08c379a00000000000000000000000000000000000000000000000000000000081526004016200186a9062003407565b60405180910390fd5b80600160008573ffffffffffffffffffffffffffffffffffffffff1673ffffffffffffffffffffffffffffffffffffffff16815260200190815260200160002060008473ffffffffffffffffffffffffffffffffffffffff1673ffffffffffffffffffffffffffffffffffffffff168152602001908152602001600020819055508173ffffffffffffffffffffffffffffffffffffffff168373ffffffffffffffffffffffffffffffffffffffff167f8c5be1e5ebec7d5bd14f71427d1e84f3dd0314c0f7b2291e5b200ac8c7c3b925836040516200195391906200359f565b60405180910390a3505050565b60006060600167ffffffffffffffff811180156200197d57600080fd5b50604051908082528060200260200182016040528015620019ad5781602001602082028036833780820191505090505b5090506060600167ffffffffffffffff81118015620019cb57600080fd5b50604051908082528060200260200182016040528015620019fb5781602001602082028036833780820191505090505b509050858260008151811062001a0d57fe5b602002602001019073ffffffffffffffffffffffffffffffffffffffff16908173ffffffffffffffffffffffffffffffffffffffff1681525050848160008151811062001a5657fe5b60200260200101818152505062001a6f82828662002149565b925050509392505050565b600073ffffffffffffffffffffffffffffffffffffffff168373ffffffffffffffffffffffffffffffffffffffff16141562001aed576040517f08c379a000000000000000000000000000000000000000000000000000000000815260040162001ae4906200346d565b60405180910390fd5b600073ffffffffffffffffffffffffffffffffffffffff168273ffffffffffffffffffffffffffffffffffffffff16141562001b60576040517f08c379a000000000000000000000000000000000000000000000000000000000815260040162001b5790620033e5565b60405180910390fd5b62001b6d83838362002333565b62001bdb8160405180606001604052806026815260200162004b1f602691396000808773ffffffffffffffffffffffffffffffffffffffff1673ffffffffffffffffffffffffffffffffffffffff1681526020019081526020016000205462001d1e9092919063ffffffff16565b6000808573ffffffffffffffffffffffffffffffffffffffff1673ffffffffffffffffffffffffffffffffffffffff1681526020019081526020016000208190555062001c70816000808573ffffffffffffffffffffffffffffffffffffffff1673ffffffffffffffffffffffffffffffffffffffff1681526020019081526020016000205462001d7c90919063ffffffff16565b6000808473ffffffffffffffffffffffffffffffffffffffff1673ffffffffffffffffffffffffffffffffffffffff168152602001908152602001600020819055508173ffffffffffffffffffffffffffffffffffffffff168373ffffffffffffffffffffffffffffffffffffffff167fddf252ad1be2c89b69c2b068fc378daa952ba7f163c4a11628f55a4df523b3ef8360405162001d1191906200359f565b60405180910390a3505050565b600083831115829062001d69576040517f08c379a000000000000000000000000000000000000000000000000000000000815260040162001d609190620032d0565b60405180910390fd5b5060008385039050809150509392505050565b60008082840190508381101562001dca576040517f08c379a000000000000000000000000000000000000000000000000000000000815260040162001dc19062003429565b60405180910390fd5b8091505092915050565b60008060019050809150509392505050565b6000819050821562001f715760008473ffffffffffffffffffffffffffffffffffffffff166370a08231876040518263ffffffff1660e01b815260040162001e2f91906200322c565b60206040518083038186803b15801562001e4857600080fd5b505afa15801562001e5d573d6000803e3d6000fd5b505050506040513d601f19601f8201168201806040525081019062001e83919062002cc1565b905062001eb48787858873ffffffffffffffffffffffffffffffffffffffff1662002338909392919063ffffffff16565b60008573ffffffffffffffffffffffffffffffffffffffff166370a08231886040518263ffffffff1660e01b815260040162001ef191906200322c565b60206040518083038186803b15801562001f0a57600080fd5b505afa15801562001f1f573d6000803e3d6000fd5b505050506040513d601f19601f8201168201806040525081019062001f45919062002cc1565b905062001f678462001f618484620023c590919063ffffffff16565b62002411565b9250505062001fa1565b62001fa08686848773ffffffffffffffffffffffffffffffffffffffff1662002338909392919063ffffffff16565b5b95945050505050565b600073ffffffffffffffffffffffffffffffffffffffff168273ffffffffffffffffffffffffffffffffffffffff1614156200201d576040517f08c379a000000000000000000000000000000000000000000000000000000000815260040162002014906200357d565b60405180910390fd5b6200202b6000838362002333565b620020428160025462001d7c90919063ffffffff16565b6002819055506200209b816000808573ffffffffffffffffffffffffffffffffffffffff1673ffffffffffffffffffffffffffffffffffffffff1681526020019081526020016000205462001d7c90919063ffffffff16565b6000808473ffffffffffffffffffffffffffffffffffffffff1673ffffffffffffffffffffffffffffffffffffffff168152602001908152602001600020819055508173ffffffffffffffffffffffffffffffffffffffff16600073ffffffffffffffffffffffffffffffffffffffff167fddf252ad1be2c89b69c2b068fc378daa952ba7f163c4a11628f55a4df523b3ef836040516200213d91906200359f565b60405180910390a35050565b60008073ffffffffffffffffffffffffffffffffffffffff168273ffffffffffffffffffffffffffffffffffffffff161415620021bd576040517f08c379a0000000000000000000000000000000000000000000000000000000008152600401620021b49062003539565b60405180910390fd5b600083519050600081118015620021d45750845181145b62002216576040517f08c379a00000000000000000000000000000000000000000000000000000000081526004016200220d906200344b565b60405180910390fd5b600081925050509392505050565b600073ffffffffffffffffffffffffffffffffffffffff168173ffffffffffffffffffffffffffffffffffffffff16141562002297576040517f08c379a00000000000000000000000000000000000000000000000000000000081526004016200228e9062003539565b60405180910390fd5b60008211620022dd576040517f08c379a0000000000000000000000000000000000000000000000000000000008152600401620022d49062003517565b60405180910390fd5b3373ffffffffffffffffffffffffffffffffffffffff167f6e8e3f900293b89801cb29bf5dc5c402c685e66d588bed50a3d83ffbf0bb903482846040516200232792919062003286565b60405180910390a25050565b505050565b620023bf846323b872dd60e01b8585856040516024016200235c9392919062003249565b604051602081830303815290604052907bffffffffffffffffffffffffffffffffffffffffffffffffffffffff19166020820180517bffffffffffffffffffffffffffffffffffffffffffffffffffffffff83818316178352505050506200242c565b50505050565b60006200240983836040518060400160405280601e81526020017f536166654d6174683a207375627472616374696f6e206f766572666c6f77000081525062001d1e565b905092915050565b600081831162002422578262002424565b815b905092915050565b606062002490826040518060400160405280602081526020017f5361666545524332303a206c6f772d6c6576656c2063616c6c206661696c65648152508573ffffffffffffffffffffffffffffffffffffffff16620024fb9092919063ffffffff16565b9050600081511115620024f65780806020019051810190620024b3919062002bf6565b620024f5576040517f08c379a0000000000000000000000000000000000000000000000000000000008152600401620024ec90620034f5565b60405180910390fd5b5b505050565b60606200250c848460008562002515565b90509392505050565b6060620025228562002646565b62002564576040517f08c379a00000000000000000000000000000000000000000000000000000000081526004016200255b90620034b1565b60405180910390fd5b600060608673ffffffffffffffffffffffffffffffffffffffff16858760405162002590919062003213565b60006040518083038185875af1925050503d8060008114620025cf576040519150601f19603f3d011682016040523d82523d6000602084013e620025d4565b606091505b50915091508115620025eb5780925050506200263e565b600081511115620025ff5780518082602001fd5b836040517f08c379a0000000000000000000000000000000000000000000000000000000008152600401620026359190620032d0565b60405180910390fd5b949350505050565b600080823b905060008111915050919050565b6113a9806200377683390190565b6040518060a001604052806060815260200160608152602001600073ffffffffffffffffffffffffffffffffffffffff16815260200160008152602001606081525090565b828054600181600116156101000203166002900490600052602060002090601f016020900481019282601f10620026ef57805160ff191683800117855562002720565b8280016001018555821562002720579182015b828111156200271f57825182559160200191906001019062002702565b5b5090506200272f919062002785565b5090565b82805482825590600052602060002090810192821562002772579160200282015b828111156200277157825182559160200191906001019062002754565b5b50905062002781919062002785565b5090565b5b80821115620027a057600081600090555060010162002786565b5090565b600081359050620027b58162003727565b92915050565b60008083601f840112620027ce57600080fd5b8235905067ffffffffffffffff811115620027e857600080fd5b6020830191508360208202830111156200280157600080fd5b9250929050565b60008083601f8401126200281b57600080fd5b8235905067ffffffffffffffff8111156200283557600080fd5b6020830191508360208202830111156200284e57600080fd5b9250929050565b60008083601f8401126200286857600080fd5b8235905067ffffffffffffffff8111156200288257600080fd5b6020830191508360208202830111156200289b57600080fd5b9250929050565b600081359050620028b38162003741565b92915050565b600081519050620028ca8162003741565b92915050565b600082601f830112620028e257600080fd5b8135620028f9620028f38262003607565b620035d9565b915080825260208301602083018583830111156200291657600080fd5b62002923838284620036d1565b50505092915050565b6000813590506200293d816200375b565b92915050565b60008151905062002954816200375b565b92915050565b6000602082840312156200296d57600080fd5b60006200297d84828501620027a4565b91505092915050565b600080604083850312156200299a57600080fd5b6000620029aa85828601620027a4565b9250506020620029bd85828601620027a4565b9150509250929050565b600080600060608486031215620029dd57600080fd5b6000620029ed86828701620027a4565b935050602062002a0086828701620027a4565b925050604062002a13868287016200292c565b9150509250925092565b60008060008060008060008060a0898b03121562002a3a57600080fd5b600062002a4a8b828c01620027a4565b985050602089013567ffffffffffffffff81111562002a6857600080fd5b62002a768b828c01620027bb565b9750975050604089013567ffffffffffffffff81111562002a9657600080fd5b62002aa48b828c0162002855565b9550955050606089013567ffffffffffffffff81111562002ac457600080fd5b62002ad28b828c0162002808565b9350935050608062002ae78b828c01620027a4565b9150509295985092959890939650565b6000806040838503121562002b0b57600080fd5b600062002b1b85828601620027a4565b925050602062002b2e858286016200292c565b9150509250929050565b60008060008060006060868803121562002b5157600080fd5b600086013567ffffffffffffffff81111562002b6c57600080fd5b62002b7a88828901620027bb565b9550955050602086013567ffffffffffffffff81111562002b9a57600080fd5b62002ba88882890162002855565b9350935050604062002bbd88828901620027a4565b9150509295509295909350565b60006020828403121562002bdd57600080fd5b600062002bed84828501620028a2565b91505092915050565b60006020828403121562002c0957600080fd5b600062002c1984828501620028b9565b91505092915050565b6000806040838503121562002c3657600080fd5b600083013567ffffffffffffffff81111562002c5157600080fd5b62002c5f85828601620028d0565b925050602083013567ffffffffffffffff81111562002c7d57600080fd5b62002c8b85828601620028d0565b9150509250929050565b60006020828403121562002ca857600080fd5b600062002cb8848285016200292c565b91505092915050565b60006020828403121562002cd457600080fd5b600062002ce48482850162002943565b91505092915050565b6000806040838503121562002d0157600080fd5b600062002d11858286016200292c565b925050602062002d2485828601620027a4565b9150509250929050565b62002d398162003666565b82525050565b62002d4a816200367a565b82525050565b600062002d5d8262003634565b62002d6981856200364a565b935062002d7b818560208601620036e0565b80840191505092915050565b62002d9281620036bd565b82525050565b600062002da5826200363f565b62002db1818562003655565b935062002dc3818560208601620036e0565b62002dce8162003716565b840191505092915050565b600062002de860238362003655565b91507f45524332303a207472616e7366657220746f20746865207a65726f206164647260008301527f65737300000000000000000000000000000000000000000000000000000000006020830152604082019050919050565b600062002e5060228362003655565b91507f45524332303a20617070726f766520746f20746865207a65726f20616464726560008301527f73730000000000000000000000000000000000000000000000000000000000006020830152604082019050919050565b600062002eb8601b8362003655565b91507f536166654d6174683a206164646974696f6e206f766572666c6f7700000000006000830152602082019050919050565b600062002efa60148362003655565b91507f496e707574206172726179206d69736d617463680000000000000000000000006000830152602082019050919050565b600062002f3c60258362003655565b91507f45524332303a207472616e736665722066726f6d20746865207a65726f20616460008301527f64726573730000000000000000000000000000000000000000000000000000006020830152604082019050919050565b600062002fa460248362003655565b91507f45524332303a20617070726f76652066726f6d20746865207a65726f2061646460008301527f72657373000000000000000000000000000000000000000000000000000000006020830152604082019050919050565b60006200300c601d8362003655565b91507f416464726573733a2063616c6c20746f206e6f6e2d636f6e74726163740000006000830152602082019050919050565b60006200304e601e8362003655565b91507f5f707265546f6b656e206c656e676874206d757374206e6f74206265203000006000830152602082019050919050565b600062003090602a8362003655565b91507f5361666545524332303a204552433230206f7065726174696f6e20646964206e60008301527f6f742073756363656564000000000000000000000000000000000000000000006020830152604082019050919050565b6000620030f8601b8362003655565b91507f496e76616c696420726564656d7074696f6e207175616e7469747900000000006000830152602082019050919050565b60006200313a60198362003655565b91507f4d75737420626520612076616c696420726563697069656e74000000000000006000830152602082019050919050565b60006200317c60148362003655565b91507f6c656e676874206d75737420626520657175616c0000000000000000000000006000830152602082019050919050565b6000620031be601f8362003655565b91507f45524332303a206d696e7420746f20746865207a65726f2061646472657373006000830152602082019050919050565b620031fc81620036a6565b82525050565b6200320d81620036b0565b82525050565b600062003221828462002d50565b915081905092915050565b600060208201905062003243600083018462002d2e565b92915050565b600060608201905062003260600083018662002d2e565b6200326f602083018562002d2e565b6200327e6040830184620031f1565b949350505050565b60006040820190506200329d600083018562002d2e565b620032ac6020830184620031f1565b9392505050565b6000602082019050620032ca600083018462002d3f565b92915050565b60006020820190508181036000830152620032ec818462002d98565b905092915050565b6000604082019050818103600083015262003310818562002d98565b9050818103602083015262003326818462002d98565b90509392505050565b600060808201905081810360008301526200334b818762002d98565b9050818103602083015262003361818662002d98565b905062003372604083018562002d2e565b620033816060830184620031f1565b95945050505050565b60006080820190508181036000830152620033a6818762002d98565b90508181036020830152620033bc818662002d98565b9050620033cd604083018562002d87565b620033dc606083018462002d2e565b95945050505050565b60006020820190508181036000830152620034008162002dd9565b9050919050565b60006020820190508181036000830152620034228162002e41565b9050919050565b60006020820190508181036000830152620034448162002ea9565b9050919050565b60006020820190508181036000830152620034668162002eeb565b9050919050565b60006020820190508181036000830152620034888162002f2d565b9050919050565b60006020820190508181036000830152620034aa8162002f95565b9050919050565b60006020820190508181036000830152620034cc8162002ffd565b9050919050565b60006020820190508181036000830152620034ee816200303f565b9050919050565b60006020820190508181036000830152620035108162003081565b9050919050565b600060208201905081810360008301526200353281620030e9565b9050919050565b6000602082019050818103600083015262003554816200312b565b9050919050565b6000602082019050818103600083015262003576816200316d565b9050919050565b600060208201905081810360008301526200359881620031af565b9050919050565b6000602082019050620035b66000830184620031f1565b92915050565b6000602082019050620035d3600083018462003202565b92915050565b6000604051905081810181811067ffffffffffffffff82111715620035fd57600080fd5b8060405250919050565b600067ffffffffffffffff8211156200361f57600080fd5b601f19601f8301169050602081019050919050565b600081519050919050565b600081519050919050565b600081905092915050565b600082825260208201905092915050565b6000620036738262003686565b9050919050565b60008115159050919050565b600073ffffffffffffffffffffffffffffffffffffffff82169050919050565b6000819050919050565b600060ff82169050919050565b6000620036ca82620036a6565b9050919050565b82818337600083830152505050565b60005b8381101562003700578082015181840152602081019050620036e3565b8381111562003710576000848401525b50505050565b6000601f19601f8301169050919050565b620037328162003666565b81146200373e57600080fd5b50565b6200374c816200367a565b81146200375857600080fd5b50565b6200376681620036a6565b81146200377257600080fd5b5056fe60806040523480156200001157600080fd5b50604051620013a9380380620013a9833981810160405260408110156200003757600080fd5b81019080805160405193929190846401000000008211156200005857600080fd5b838201915060208201858111156200006f57600080fd5b82518660018202830111640100000000821117156200008d57600080fd5b8083526020830192505050908051906020019080838360005b83811015620000c3578082015181840152602081019050620000a6565b50505050905090810190601f168015620000f15780820380516001836020036101000a031916815260200191505b50604052602001805160405193929190846401000000008211156200011557600080fd5b838201915060208201858111156200012c57600080fd5b82518660018202830111640100000000821117156200014a57600080fd5b8083526020830192505050908051906020019080838360005b838110156200018057808201518184015260208101905062000163565b50505050905090810190601f168015620001ae5780820380516001836020036101000a031916815260200191505b5060405250505081818160039080519060200190620001cf9291906200020f565b508060049080519060200190620001e89291906200020f565b506012600560006101000a81548160ff021916908360ff16021790555050505050620002b5565b828054600181600116156101000203166002900490600052602060002090601f016020900481019282601f106200025257805160ff191683800117855562000283565b8280016001018555821562000283579182015b828111156200028257825182559160200191906001019062000265565b5b50905062000292919062000296565b5090565b5b80821115620002b157600081600090555060010162000297565b5090565b6110e480620002c56000396000f3fe608060405234801561001057600080fd5b50600436106100a95760003560e01c80633950935111610071578063395093511461025857806370a08231146102bc57806395d89b4114610314578063a457c2d714610397578063a9059cbb146103fb578063dd62ed3e1461045f576100a9565b806306fdde03146100ae578063095ea7b31461013157806318160ddd1461019557806323b872dd146101b3578063313ce56714610237575b600080fd5b6100b66104d7565b6040518080602001828103825283818151815260200191508051906020019080838360005b838110156100f65780820151818401526020810190506100db565b50505050905090810190601f1680156101235780820380516001836020036101000a031916815260200191505b509250505060405180910390f35b61017d6004803603604081101561014757600080fd5b81019080803573ffffffffffffffffffffffffffffffffffffffff16906020019092919080359060200190929190505050610579565b60405180821515815260200191505060405180910390f35b61019d610597565b6040518082815260200191505060405180910390f35b61021f600480360360608110156101c957600080fd5b81019080803573ffffffffffffffffffffffffffffffffffffffff169060200190929190803573ffffffffffffffffffffffffffffffffffffffff169060200190929190803590602001909291905050506105a1565b60405180821515815260200191505060405180910390f35b61023f61067a565b604051808260ff16815260200191505060405180910390f35b6102a46004803603604081101561026e57600080fd5b81019080803573ffffffffffffffffffffffffffffffffffffffff16906020019092919080359060200190929190505050610691565b60405180821515815260200191505060405180910390f35b6102fe600480360360208110156102d257600080fd5b81019080803573ffffffffffffffffffffffffffffffffffffffff169060200190929190505050610744565b6040518082815260200191505060405180910390f35b61031c61078c565b6040518080602001828103825283818151815260200191508051906020019080838360005b8381101561035c578082015181840152602081019050610341565b50505050905090810190601f1680156103895780820380516001836020036101000a031916815260200191505b509250505060405180910390f35b6103e3600480360360408110156103ad57600080fd5b81019080803573ffffffffffffffffffffffffffffffffffffffff1690602001909291908035906020019092919050505061082e565b60405180821515815260200191505060405180910390f35b6104476004803603604081101561041157600080fd5b81019080803573ffffffffffffffffffffffffffffffffffffffff169060200190929190803590602001909291905050506108fb565b60405180821515815260200191505060405180910390f35b6104c16004803603604081101561047557600080fd5b81019080803573ffffffffffffffffffffffffffffffffffffffff169060200190929190803573ffffffffffffffffffffffffffffffffffffffff169060200190929190505050610919565b6040518082815260200191505060405180910390f35b606060038054600181600116156101000203166002900480601f01602080910402602001604051908101604052809291908181526020018280546001816001161561010002031660029004801561056f5780601f106105445761010080835404028352916020019161056f565b820191906000526020600020905b81548152906001019060200180831161055257829003601f168201915b5050505050905090565b600061058d6105866109a0565b84846109a8565b6001905092915050565b6000600254905090565b60006105ae848484610b9f565b61066f846105ba6109a0565b61066a8560405180606001604052806028815260200161101960289139600160008b73ffffffffffffffffffffffffffffffffffffffff1673ffffffffffffffffffffffffffffffffffffffff16815260200190815260200160002060006106206109a0565b73ffffffffffffffffffffffffffffffffffffffff1673ffffffffffffffffffffffffffffffffffffffff16815260200190815260200160002054610e609092919063ffffffff16565b6109a8565b600190509392505050565b6000600560009054906101000a900460ff16905090565b600061073a61069e6109a0565b8461073585600160006106af6109a0565b73ffffffffffffffffffffffffffffffffffffffff1673ffffffffffffffffffffffffffffffffffffffff16815260200190815260200160002060008973ffffffffffffffffffffffffffffffffffffffff1673ffffffffffffffffffffffffffffffffffffffff16815260200190815260200160002054610f2090919063ffffffff16565b6109a8565b6001905092915050565b60008060008373ffffffffffffffffffffffffffffffffffffffff1673ffffffffffffffffffffffffffffffffffffffff168152602001908152602001600020549050919050565b606060048054600181600116156101000203166002900480601f0160208091040260200160405190810160405280929190818152602001828054600181600116156101000203166002900480156108245780601f106107f957610100808354040283529160200191610824565b820191906000526020600020905b81548152906001019060200180831161080757829003601f168201915b5050505050905090565b60006108f161083b6109a0565b846108ec8560405180606001604052806025815260200161108a60259139600160006108656109a0565b73ffffffffffffffffffffffffffffffffffffffff1673ffffffffffffffffffffffffffffffffffffffff16815260200190815260200160002060008a73ffffffffffffffffffffffffffffffffffffffff1673ffffffffffffffffffffffffffffffffffffffff16815260200190815260200160002054610e609092919063ffffffff16565b6109a8565b6001905092915050565b600061090f6109086109a0565b8484610b9f565b6001905092915050565b6000600160008473ffffffffffffffffffffffffffffffffffffffff1673ffffffffffffffffffffffffffffffffffffffff16815260200190815260200160002060008373ffffffffffffffffffffffffffffffffffffffff1673ffffffffffffffffffffffffffffffffffffffff16815260200190815260200160002054905092915050565b600033905090565b600073ffffffffffffffffffffffffffffffffffffffff168373ffffffffffffffffffffffffffffffffffffffff161415610a2e576040517f08c379a00000000000000000000000000000000000000000000000000000000081526004018080602001828103825260248152602001806110666024913960400191505060405180910390fd5b600073ffffffffffffffffffffffffffffffffffffffff168273ffffffffffffffffffffffffffffffffffffffff161415610ab4576040517f08c379a0000000000000000000000000000000000000000000000000000000008152600401808060200182810382526022815260200180610fd16022913960400191505060405180910390fd5b80600160008573ffffffffffffffffffffffffffffffffffffffff1673ffffffffffffffffffffffffffffffffffffffff16815260200190815260200160002060008473ffffffffffffffffffffffffffffffffffffffff1673ffffffffffffffffffffffffffffffffffffffff168152602001908152602001600020819055508173ffffffffffffffffffffffffffffffffffffffff168373ffffffffffffffffffffffffffffffffffffffff167f8c5be1e5ebec7d5bd14f71427d1e84f3dd0314c0f7b2291e5b200ac8c7c3b925836040518082815260200191505060405180910390a3505050565b600073ffffffffffffffffffffffffffffffffffffffff168373ffffffffffffffffffffffffffffffffffffffff161415610c25576040517f08c379a00000000000000000000000000000000000000000000000000000000081526004018080602001828103825260258152602001806110416025913960400191505060405180910390fd5b600073ffffffffffffffffffffffffffffffffffffffff168273ffffffffffffffffffffffffffffffffffffffff161415610cab576040517f08c379a0000000000000000000000000000000000000000000000000000000008152600401808060200182810382526023815260200180610fae6023913960400191505060405180910390fd5b610cb6838383610fa8565b610d2181604051806060016040528060268152602001610ff3602691396000808773ffffffffffffffffffffffffffffffffffffffff1673ffffffffffffffffffffffffffffffffffffffff16815260200190815260200160002054610e609092919063ffffffff16565b6000808573ffffffffffffffffffffffffffffffffffffffff1673ffffffffffffffffffffffffffffffffffffffff16815260200190815260200160002081905550610db4816000808573ffffffffffffffffffffffffffffffffffffffff1673ffffffffffffffffffffffffffffffffffffffff16815260200190815260200160002054610f2090919063ffffffff16565b6000808473ffffffffffffffffffffffffffffffffffffffff1673ffffffffffffffffffffffffffffffffffffffff168152602001908152602001600020819055508173ffffffffffffffffffffffffffffffffffffffff168373ffffffffffffffffffffffffffffffffffffffff167fddf252ad1be2c89b69c2b068fc378daa952ba7f163c4a11628f55a4df523b3ef836040518082815260200191505060405180910390a3505050565b6000838311158290610f0d576040517f08c379a00000000000000000000000000000000000000000000000000000000081526004018080602001828103825283818151815260200191508051906020019080838360005b83811015610ed2578082015181840152602081019050610eb7565b50505050905090810190601f168015610eff5780820380516001836020036101000a031916815260200191505b509250505060405180910390fd5b5060008385039050809150509392505050565b600080828401905083811015610f9e576040517f08c379a000000000000000000000000000000000000000000000000000000000815260040180806020018281038252601b8152602001807f536166654d6174683a206164646974696f6e206f766572666c6f77000000000081525060200191505060405180910390fd5b8091505092915050565b50505056fe45524332303a207472616e7366657220746f20746865207a65726f206164647265737345524332303a20617070726f766520746f20746865207a65726f206164647265737345524332303a207472616e7366657220616d6f756e7420657863656564732062616c616e636545524332303a207472616e7366657220616d6f756e74206578636565647320616c6c6f77616e636545524332303a207472616e736665722066726f6d20746865207a65726f206164647265737345524332303a20617070726f76652066726f6d20746865207a65726f206164647265737345524332303a2064656372656173656420616c6c6f77616e63652062656c6f77207a65726fa2646970667358221220a6a13fcb3a6f481548943880251245179a3cfc813d2892a6589dab1120cc98bd64736f6c634300060c003345524332303a207472616e7366657220616d6f756e7420657863656564732062616c616e636545524332303a207472616e7366657220616d6f756e74206578636565647320616c6c6f77616e636545524332303a2064656372656173656420616c6c6f77616e63652062656c6f77207a65726fa26469706673582212204a847a4fe74af42def2be80f9b6669314adfd765fcc7ab65919f20fa141d989b64736f6c634300060c0033",
  "immutableReferences": {},
  "source": "// SPDX-License-Identifier: SimPL-2.0\npragma solidity 0.6.12;\npragma experimental ABIEncoderV2;\n\n// External\nimport { ITokenManager } from \"./ITokenManager.sol\";\nimport { IDataManager } from \"./IDataManager.sol\";\n\n// Internal\nimport { TokenStructs } from \"./TokenStructs.sol\";\nimport { CustomToken } from \"./CustomToken.sol\";\n\nimport \"@openzeppelin/contracts/token/ERC20/ERC20.sol\";\n\nimport { StableMath } from \"./shared/StableMath.sol\";\nimport { MassetHelpers } from \"./shared/MassetHelpers.sol\";\n\ncontract TokenManager is ITokenManager, ERC20 {\n\n    using StableMath for uint256;\n\n    // \n    event Created(string name, string symbol, uint256 supply, address token_addr);\n    // \n    event Minted(address indexed minter, address recipient, uint256 mAssetQuantity, address bAsset, uint256 bAssetQuantity);\n    event MintedMulti(address indexed minter, address recipient, uint256 mAssetQuantity, address[] bAssets, uint256[] bAssetQuantities);\n    // \n    event Redeemed(address indexed redeemer, address recipient, uint256 mAssetQuantity, address[] bAssets, uint256[] bAssetQuantities);\n    event RedeemedMasset(address indexed redeemer, address recipient, uint256 mAssetQuantity);\n    // \n    event PaidFee(address indexed payer, address asset, uint256 feeQuantity);\n\n    CustomAsset[] public CustomAssets;\n\n    // \n    mapping(address => CustomAsset) public ercAddrToCustomToken;\n\n    // \n    mapping(address => PreToken[]) public preTokens;\n\n    mapping(address => uint256) public ratio;\n\n    mapping(address => mapping(address => uint256)) public tokenRadio;\n\n    // \n    constructor(string memory name, string memory symbol) public ERC20(name, symbol) {}\n\n    // \n    function initialize(\n        address _dataManager\n    )\n        external\n    {\n        // basketManager = IBasketManager(_basketManager);\n    }\n\n    // \n    function create(\n        string memory _name, \n        string memory _symbol\n    )\n        override\n        external\n    {\n        CustomToken token = new CustomToken(_name, _symbol);\n        uint256[] memory ratios = new uint256[](1);\n        uint256 status = 1;\n        CustomAsset memory asset = CustomAsset(\n            _name,\n            _symbol,\n            address(token),\n            status,\n            ratios\n        );\n\n        ercAddrToCustomToken[address(token)] = asset;\n\n        emit Created(_name, _symbol, 0, address(token));\n    }\n\n    // \n    function mintMulti(\n        address erc20Addr,\n        address[] calldata _preToken, \n        uint256[] calldata _bassetAmount, \n        bool[] calldata _isTransferFee,\n        address receipt\n    )\n        override\n        external\n        returns (uint256 massetMinted) \n    {\n        require(_preToken.length > 0, \"_preToken lenght must not be 0\");\n        require(_preToken.length != _bassetAmount.length, \"lenght must be equal\");\n\n        // TODO \n\n        CustomAsset memory customAsset = ercAddrToCustomToken[erc20Addr];\n        require(customAsset.status != 0);\n\n        uint256 len = _preToken.length;\n        // \n        for(uint256 i = 0; i < len; i++) {\n            address tokenAddr = _preToken[i];\n            uint256 amount = _bassetAmount[i];\n            bool isTransferFee = _isTransferFee[i];\n            uint256 quantityTransferred = MassetHelpers.transferTokens(msg.sender, address(this), tokenAddr, isTransferFee, amount);\n        }\n        _mint(msg.sender, 1);\n        return 1;\n    }\n\n    // \n    function redeem(\n        address _targetAddr,\n        uint256 _bAssetQuantity\n    )\n        override\n        external\n        returns (uint256 massetRedeemed)\n    {\n        // \n        CustomAsset memory asset = ercAddrToCustomToken[_targetAddr];\n\n        return _redeemTo(_targetAddr, 1, msg.sender);\n    }\n\n    /**\n     * 1:1 XSDT\n     * \n     * _bAsset         \n     * _bAssetQuantity \n     * massetMinted    XSDT\n     */\n    function mint(address _bAsset, uint256 _bAssetAmount) external returns (uint256 massetMinted){\n        return _mintTo(_bAsset, _bAssetAmount, msg.sender);\n    }\n\n    // XSDT\n    function _mintTo(address _bAsset, uint256 _bAssetAmount, address _recipient) internal returns (uint256 massetMinted){\n        // // \n        // require(_recipient != address(0), \"Must be a valid recipient\");\n        // // 0\n        // require(_bAssetAmount > 0, \"Quantity must not be 0\");\n\n        // (bool isValid, BassetDetails memory bInfo) = basketManager.prepareForgeBasset(_bAsset, _bAssetAmount, true);\n        // if(!isValid) return 0;\n\n        // Transfer collateral to the platform integration address and call deposit\n        // address integrator = bInfo.integrator;\n        // (uint256 quantityDeposited, uint256 ratioedDeposit) =\n        //     _depositTokens(_bAsset, bInfo.bAsset.ratio, integrator, bInfo.bAsset.isTransferFeeCharged, _bAssetAmount);\n\n        // Validation should be after token transfer, as bAssetQty is unknown before\n        // (bool mintValid, string memory reason) = forgeValidator.validateMint(totalSupply(), bInfo.bAsset, quantityDeposited);\n        // require(mintValid, reason);\n\n        // ,  basket \n        // basketManager.increaseVaultBalance(0, integrator, quantityDeposited);\n\n        // XSDT\n        // _mint(_recipient, ratioedDeposit);\n        // emit Minted(msg.sender, _recipient, ratioedDeposit, _bAsset, quantityDeposited);\n        uint256 ratioedDeposit = 1;\n        return ratioedDeposit;\n    }\n\n    /**\n     * Mint with multiple bAssets, at a 1:1 ratio to mAsset. This contract\n     *      must have approval to spend the senders bAssets\n     * _bAssets          Non-duplicate address array of bAssets with which to mint\n     * _bAssetQuantity   Quantity of each bAsset to mint. Order of array\n     *                          should mirror the above\n     * _recipient        Address to receive the newly minted mAsset tokens\n     * massetMinted     Number of newly minted mAssets\n     */\n    // function mintMulti(\n    //     address[] calldata _bAssets,\n    //     uint256[] calldata _bAssetQuantity,\n    //     address _recipient\n    // )   \n    //     external\n    //     returns(uint256 massetMinted)\n    // {\n    //     return _mintTo(_bAssets, _bAssetQuantity, _recipient);\n    // }\n\n    // \n    function _mintTo(\n        address[] memory _bAssets,\n        uint256[] memory _bAssetQuantities,\n        address _recipient\n    )\n        internal\n        returns (uint256 massetMinted)\n    {\n        require(_recipient != address(0), \"Must be a valid recipient\");\n        uint256 len = _bAssetQuantities.length;\n        require(len > 0 && len == _bAssets.length, \"Input array mismatch\");\n\n        // Load only needed bAssets in array\n        // ForgePropsMulti memory props\n        //     = basketManager.prepareForgeBassets(_bAssets, _bAssetQuantities, true);\n        // if(!props.isValid) return 0;\n\n        uint256 mAssetQuantity = 2;\n        uint256[] memory receivedQty = new uint256[](len);\n\n        // Transfer the Bassets to the integrator, update storage and calc MassetQ\n        // for(uint256 i = 0; i < len; i++){\n        //     uint256 bAssetQuantity = _bAssetQuantities[i];\n        //     if(bAssetQuantity > 0){\n        //         // bAsset == bAssets[i] == basket.bassets[indexes[i]]\n        //         Basset memory bAsset = props.bAssets[i];\n\n        //         (uint256 quantityDeposited, uint256 ratioedDeposit) =\n        //             _depositTokens(bAsset.addr, bAsset.ratio, props.integrators[i], bAsset.isTransferFeeCharged, bAssetQuantity);\n\n        //         receivedQty[i] = quantityDeposited;\n        //         mAssetQuantity = mAssetQuantity.add(ratioedDeposit);\n        //     }\n        // }\n        require(mAssetQuantity > 0, \"No masset quantity to mint\");\n\n        // basketManager.increaseVaultBalances(props.indexes, props.integrators, receivedQty);\n\n        // Validate the proposed mint, after token transfer\n        // (bool mintValid, string memory reason) = \n        //             forgeValidator.validateMintMulti(totalSupply(), props.bAssets, receivedQty);\n        // require(mintValid, reason);\n\n        // Mint the Masset\n        // _mint(_recipient, mAssetQuantity);\n        // emit MintedMulti(msg.sender, _recipient, mAssetQuantity, _bAssets, _bAssetQuantities);\n\n        return mAssetQuantity;\n    }\n\n    // Deposits tokens into the platform integration and returns the ratioed amount\n    function _depositTokens(\n        address _bAsset,\n        uint256 _bAssetRatio,\n        address _integrator,\n        bool _erc20TransferFeeCharged,\n        uint256 _quantity\n    )\n        internal\n        returns (uint256 quantityDeposited, uint256 ratioedDeposit)\n    {\n        quantityDeposited = _depositTokens(_bAsset, _integrator, _erc20TransferFeeCharged, _quantity);\n        ratioedDeposit = quantityDeposited.mulRatioTruncate(_bAssetRatio);\n    }\n\n    // Deposits tokens into the platform integration and returns the deposited amount\n    function _depositTokens(\n        address _bAsset,\n        address _integrator,\n        bool _erc20TransferFeeCharged,\n        uint256 _quantity\n    )\n        internal\n        returns (uint256 quantityDeposited)\n    {\n        uint256 quantityTransferred = MassetHelpers.transferTokens(msg.sender, _integrator, _bAsset, _erc20TransferFeeCharged, _quantity);\n        // uint256 deposited = IPlatformIntegration(_integrator).deposit(_bAsset, quantityTransferred, _erc20TransferFeeCharged);\n        // quantityDeposited = StableMath.min(deposited, _quantity);\n    }\n\n    function redeemMulti(\n        address[] calldata _bAssets,\n        uint256[] calldata _bAssetQuantities,\n        address _recipient\n    )\n        external\n        returns (uint256 massetRedeemed)\n    {\n        return _redeemTo(_bAssets, _bAssetQuantities, _recipient);\n    }\n\n    /**\n     * Credits a recipient with a proportionate amount of bAssets, relative to current vault\n     * balance levels and desired mAsset quantity. Burns the mAsset as payment.\n     * _mAssetQuantity   Quantity of mAsset to redeem\n     * _recipient        Address to credit the withdrawn bAssets\n     */\n    function redeemMasset(\n        uint256 _mAssetQuantity,\n        address _recipient\n    )\n        external\n    {\n        _redeemMasset(_mAssetQuantity, _recipient);\n    }\n\n    /** @dev Casting to arrays for use in redeemMulti func */\n    function _redeemTo(\n        address _bAsset,\n        uint256 _bAssetQuantity,\n        address _recipient\n    )\n        internal\n        returns (uint256 massetRedeemed)\n    {\n        address[] memory bAssets = new address[](1);\n        uint256[] memory quantities = new uint256[](1);\n        bAssets[0] = _bAsset;\n        quantities[0] = _bAssetQuantity;\n        return _redeemTo(bAssets, quantities, _recipient);\n    }\n\n    // Redeem mAsset for one or more bAssets\n    function _redeemTo(\n        address[] memory _bAssets,\n        uint256[] memory _bAssetQuantities,\n        address _recipient\n    )\n        internal\n        returns (uint256 massetRedeemed)\n    {\n        require(_recipient != address(0), \"Must be a valid recipient\");\n        uint256 bAssetCount = _bAssetQuantities.length;\n        require(bAssetCount > 0 && bAssetCount == _bAssets.length, \"Input array mismatch\");\n\n        // basket\n        // Basket memory basket = basketManager.getBasket();\n\n        // \n        // ForgePropsMulti memory props = basketManager.prepareForgeBassets(_bAssets, _bAssetQuantities, false);\n        // if(!props.isValid) return 0;\n\n        // Validate redemption\n        // (bool redemptionValid, string memory reason, bool applyFee) =\n        //     forgeValidator.validateRedemption(basket.failed, totalSupply(), basket.bassets, props.indexes, _bAssetQuantities);\n        // require(redemptionValid, reason);\n\n        // Calc total redeemed mAsset quantity\n        // XSDT\n        // for(uint256 i = 0; i < bAssetCount; i++){\n        //     uint256 bAssetQuantity = _bAssetQuantities[i];\n        //     if(bAssetQuantity > 0){\n        //         // Calc equivalent mAsset amount\n        //         uint256 ratioedBasset = bAssetQuantity.mulRatioTruncateCeil(props.bAssets[i].ratio);\n        //         bAssetCount = bAssetCount.add(ratioedBasset);\n        //     }\n        // }\n        // require(bAssetCount > 0, \"Must redeem some bAssets\");\n\n        // Redemption has fee? Fetch the rate\n        // uint256 fee = applyFee ? swapFee : 0;\n        // \n        uint256 fee = 0;\n\n        // Apply fees, burn mAsset and return bAsset to recipient\n        // _settleRedemption(_recipient, bAssetCount, props.bAssets, _bAssetQuantities, props.indexes, props.integrators, fee);\n\n        // emit Redeemed(msg.sender, _recipient, bAssetCount, _bAssets, _bAssetQuantities);\n\n        return bAssetCount;\n    }\n\n    // XSDT\n    function _redeemMasset(\n        uint256 _mAssetQuantity,\n        address _recipient\n    )\n        internal\n    {\n        require(_recipient != address(0), \"Must be a valid recipient\");\n        require(_mAssetQuantity > 0, \"Invalid redemption quantity\");\n\n        // Fetch high level details\n        // RedeemPropsMulti memory props = basketManager.prepareRedeemMulti();\n        // uint256 colRatio = StableMath.min(props.colRatio, StableMath.getFullScale());\n\n        // Ensure payout is related to the collateralised mAsset quantity\n        // uint256 collateralisedMassetQuantity = _mAssetQuantity.mulTruncate(colRatio);\n\n        // // Calculate redemption quantities\n        // (bool redemptionValid, string memory reason, uint256[] memory bAssetQuantities) =\n        //     forgeValidator.calculateRedemptionMulti(collateralisedMassetQuantity, props.bAssets);\n        // require(redemptionValid, reason);\n\n        // // 0\n        // uint256 redemptionFee = 0;\n\n        // // Apply fees, burn mAsset and return bAsset to recipient\n        // _settleRedemption(_recipient, _mAssetQuantity, props.bAssets, bAssetQuantities, props.indexes, props.integrators, redemptionFee);\n\n        emit RedeemedMasset(msg.sender, _recipient, _mAssetQuantity);\n    }\n\n    /**\n     * Internal func to update contract state post-redemption\n     * @param _recipient        Recipient of the bAssets\n     * @param _mAssetQuantity   Total amount of mAsset to burn from sender\n     * @param _bAssets          Array of bAssets to redeem\n     * @param _bAssetQuantities Array of bAsset quantities\n     * @param _indices          Matching indices for the bAsset array\n     * @param _integrators      Matching integrators for the bAsset array\n     * @param _feeRate          Fee rate to be applied to this redemption\n     */\n    function _settleRedemption(\n        address _recipient,\n        uint256 _mAssetQuantity,\n        Basset[] memory _bAssets,\n        uint256[] memory _bAssetQuantities,\n        uint8[] memory _indices,\n        address[] memory _integrators,\n        uint256 _feeRate\n    ) \n        internal \n    {\n        // Burn the full amount of Masset\n        _burn(msg.sender, _mAssetQuantity);\n\n        // Reduce the amount of bAssets marked in the vault\n        // basketManager.decreaseVaultBalances(_indices, _integrators, _bAssetQuantities);\n\n        // Transfer the Bassets to the recipient\n        // uint256 bAssetCount = _bAssets.length;\n        // for(uint256 i = 0; i < bAssetCount; i++){\n        //     address bAsset = _bAssets[i].addr;\n        //     uint256 q = _bAssetQuantities[i];\n        //     if(q > 0){\n        //         // Deduct the redemption fee, if any\n        //         q = _deductSwapFee(bAsset, q, _feeRate);\n        //         // Transfer the Bassets to the user\n        //         IPlatformIntegration(_integrators[i]).withdraw(_recipient, bAsset, q, _bAssets[i].isTransferFeeCharged);\n        //     }\n        // }\n    }\n\n    /**\n     * Pay the forging fee by burning relative amount of mAsset\n     * @param _bAssetQuantity     Exact amount of bAsset being swapped out\n     */\n    function _deductSwapFee(address _asset, uint256 _bAssetQuantity, uint256 _feeRate)\n        private\n        returns (uint256 outputMinusFee)\n    {\n        outputMinusFee = _bAssetQuantity;\n        if(_feeRate > 0){\n            (uint256 fee, uint256 output) = _calcSwapFee(_bAssetQuantity, _feeRate);\n            outputMinusFee = output;\n            emit PaidFee(msg.sender, _asset, fee);\n        }\n    }\n\n    /**\n     * Pay the forging fee by burning relative amount of mAsset\n     * @param _bAssetQuantity     Exact amount of bAsset being swapped out\n     */\n    function _calcSwapFee(uint256 _bAssetQuantity, uint256 _feeRate)\n        private\n        pure\n        returns (uint256 feeAmount, uint256 outputMinusFee)\n    {\n        // e.g. for 500 massets.\n        // feeRate == 1% == 1e16. _quantity == 5e20.\n        // (5e20 * 1e16) / 1e18 = 5e18\n        feeAmount = _bAssetQuantity.mulTruncate(_feeRate);\n        outputMinusFee = _bAssetQuantity.sub(feeAmount);\n    }\n\n}",
  "sourcePath": "/Users/zhangxuesong/mysoft/defi/XStableDollar-contracts/stabledollar/contracts/TokenManager.sol",
  "compiler": {
    "name": "solc",
    "version": "0.6.12+commit.27d51765.Emscripten.clang"
  },
  "schemaVersion": "3.3.2",
  "updatedAt": "2020-11-14T11:22:23.818Z",
  "devdoc": {
    "kind": "dev",
    "methods": {
      "allowance(address,address)": {
        "details": "See {IERC20-allowance}."
      },
      "approve(address,uint256)": {
        "details": "See {IERC20-approve}. Requirements: - `spender` cannot be the zero address."
      },
      "balanceOf(address)": {
        "details": "See {IERC20-balanceOf}."
      },
      "decimals()": {
        "details": "Returns the number of decimals used to get its user representation. For example, if `decimals` equals `2`, a balance of `505` tokens should be displayed to a user as `5,05` (`505 / 10 ** 2`). Tokens usually opt for a value of 18, imitating the relationship between Ether and Wei. This is the value {ERC20} uses, unless {_setupDecimals} is called. NOTE: This information is only used for _display_ purposes: it in no way affects any of the arithmetic of the contract, including {IERC20-balanceOf} and {IERC20-transfer}."
      },
      "decreaseAllowance(address,uint256)": {
        "details": "Atomically decreases the allowance granted to `spender` by the caller. This is an alternative to {approve} that can be used as a mitigation for problems described in {IERC20-approve}. Emits an {Approval} event indicating the updated allowance. Requirements: - `spender` cannot be the zero address. - `spender` must have allowance for the caller of at least `subtractedValue`."
      },
      "increaseAllowance(address,uint256)": {
        "details": "Atomically increases the allowance granted to `spender` by the caller. This is an alternative to {approve} that can be used as a mitigation for problems described in {IERC20-approve}. Emits an {Approval} event indicating the updated allowance. Requirements: - `spender` cannot be the zero address."
      },
      "name()": {
        "details": "Returns the name of the token."
      },
      "symbol()": {
        "details": "Returns the symbol of the token, usually a shorter version of the name."
      },
      "totalSupply()": {
        "details": "See {IERC20-totalSupply}."
      },
      "transfer(address,uint256)": {
        "details": "See {IERC20-transfer}. Requirements: - `recipient` cannot be the zero address. - the caller must have a balance of at least `amount`."
      },
      "transferFrom(address,address,uint256)": {
        "details": "See {IERC20-transferFrom}. Emits an {Approval} event indicating the updated allowance. This is not required by the EIP. See the note at the beginning of {ERC20}; Requirements: - `sender` and `recipient` cannot be the zero address. - `sender` must have a balance of at least `amount`. - the caller must have allowance for ``sender``'s tokens of at least `amount`."
      }
    },
    "version": 1
  },
  "userdoc": {
    "kind": "user",
    "methods": {
      "mint(address,uint256)": {
        "notice": "1:1 XSDT  _bAsset          _bAssetQuantity  massetMinted    XSDT"
      },
      "redeemMasset(uint256,address)": {
        "notice": "Credits a recipient with a proportionate amount of bAssets, relative to current vault balance levels and desired mAsset quantity. Burns the mAsset as payment. _mAssetQuantity   Quantity of mAsset to redeem _recipient        Address to credit the withdrawn bAssets"
      }
    },
    "version": 1
  }
}