{
  "contractName": "TokenManager",
  "abi": [
    {
      "inputs": [
        {
          "internalType": "string",
          "name": "name",
          "type": "string"
        },
        {
          "internalType": "string",
          "name": "symbol",
          "type": "string"
        }
      ],
      "stateMutability": "nonpayable",
      "type": "constructor"
    },
    {
      "anonymous": false,
      "inputs": [
        {
          "indexed": true,
          "internalType": "address",
          "name": "owner",
          "type": "address"
        },
        {
          "indexed": true,
          "internalType": "address",
          "name": "spender",
          "type": "address"
        },
        {
          "indexed": false,
          "internalType": "uint256",
          "name": "value",
          "type": "uint256"
        }
      ],
      "name": "Approval",
      "type": "event"
    },
    {
      "anonymous": false,
      "inputs": [
        {
          "indexed": false,
          "internalType": "string",
          "name": "name",
          "type": "string"
        },
        {
          "indexed": false,
          "internalType": "string",
          "name": "symbol",
          "type": "string"
        },
        {
          "indexed": false,
          "internalType": "uint256",
          "name": "supply",
          "type": "uint256"
        },
        {
          "indexed": false,
          "internalType": "address",
          "name": "token_addr",
          "type": "address"
        }
      ],
      "name": "Created",
      "type": "event"
    },
    {
      "anonymous": false,
      "inputs": [
        {
          "indexed": true,
          "internalType": "address",
          "name": "minter",
          "type": "address"
        },
        {
          "indexed": false,
          "internalType": "address",
          "name": "recipient",
          "type": "address"
        },
        {
          "indexed": false,
          "internalType": "uint256",
          "name": "mAssetQuantity",
          "type": "uint256"
        },
        {
          "indexed": false,
          "internalType": "address",
          "name": "bAsset",
          "type": "address"
        },
        {
          "indexed": false,
          "internalType": "uint256",
          "name": "bAssetQuantity",
          "type": "uint256"
        }
      ],
      "name": "Minted",
      "type": "event"
    },
    {
      "anonymous": false,
      "inputs": [
        {
          "indexed": true,
          "internalType": "address",
          "name": "minter",
          "type": "address"
        },
        {
          "indexed": false,
          "internalType": "address",
          "name": "recipient",
          "type": "address"
        },
        {
          "indexed": false,
          "internalType": "uint256",
          "name": "mAssetQuantity",
          "type": "uint256"
        },
        {
          "indexed": false,
          "internalType": "address[]",
          "name": "bAssets",
          "type": "address[]"
        },
        {
          "indexed": false,
          "internalType": "uint256[]",
          "name": "bAssetQuantities",
          "type": "uint256[]"
        }
      ],
      "name": "MintedMulti",
      "type": "event"
    },
    {
      "anonymous": false,
      "inputs": [
        {
          "indexed": true,
          "internalType": "address",
          "name": "payer",
          "type": "address"
        },
        {
          "indexed": false,
          "internalType": "address",
          "name": "asset",
          "type": "address"
        },
        {
          "indexed": false,
          "internalType": "uint256",
          "name": "feeQuantity",
          "type": "uint256"
        }
      ],
      "name": "PaidFee",
      "type": "event"
    },
    {
      "anonymous": false,
      "inputs": [
        {
          "indexed": true,
          "internalType": "address",
          "name": "redeemer",
          "type": "address"
        },
        {
          "indexed": false,
          "internalType": "address",
          "name": "recipient",
          "type": "address"
        },
        {
          "indexed": false,
          "internalType": "uint256",
          "name": "mAssetQuantity",
          "type": "uint256"
        },
        {
          "indexed": false,
          "internalType": "address[]",
          "name": "bAssets",
          "type": "address[]"
        },
        {
          "indexed": false,
          "internalType": "uint256[]",
          "name": "bAssetQuantities",
          "type": "uint256[]"
        }
      ],
      "name": "Redeemed",
      "type": "event"
    },
    {
      "anonymous": false,
      "inputs": [
        {
          "indexed": true,
          "internalType": "address",
          "name": "redeemer",
          "type": "address"
        },
        {
          "indexed": false,
          "internalType": "address",
          "name": "recipient",
          "type": "address"
        },
        {
          "indexed": false,
          "internalType": "uint256",
          "name": "mAssetQuantity",
          "type": "uint256"
        }
      ],
      "name": "RedeemedMasset",
      "type": "event"
    },
    {
      "anonymous": false,
      "inputs": [
        {
          "indexed": true,
          "internalType": "address",
          "name": "from",
          "type": "address"
        },
        {
          "indexed": true,
          "internalType": "address",
          "name": "to",
          "type": "address"
        },
        {
          "indexed": false,
          "internalType": "uint256",
          "name": "value",
          "type": "uint256"
        }
      ],
      "name": "Transfer",
      "type": "event"
    },
    {
      "inputs": [
        {
          "internalType": "address",
          "name": "owner",
          "type": "address"
        },
        {
          "internalType": "address",
          "name": "spender",
          "type": "address"
        }
      ],
      "name": "allowance",
      "outputs": [
        {
          "internalType": "uint256",
          "name": "",
          "type": "uint256"
        }
      ],
      "stateMutability": "view",
      "type": "function"
    },
    {
      "inputs": [
        {
          "internalType": "address",
          "name": "spender",
          "type": "address"
        },
        {
          "internalType": "uint256",
          "name": "amount",
          "type": "uint256"
        }
      ],
      "name": "approve",
      "outputs": [
        {
          "internalType": "bool",
          "name": "",
          "type": "bool"
        }
      ],
      "stateMutability": "nonpayable",
      "type": "function"
    },
    {
      "inputs": [
        {
          "internalType": "address",
          "name": "account",
          "type": "address"
        }
      ],
      "name": "balanceOf",
      "outputs": [
        {
          "internalType": "uint256",
          "name": "",
          "type": "uint256"
        }
      ],
      "stateMutability": "view",
      "type": "function"
    },
    {
      "inputs": [
        {
          "internalType": "uint256",
          "name": "",
          "type": "uint256"
        }
      ],
      "name": "customAssets",
      "outputs": [
        {
          "internalType": "address",
          "name": "",
          "type": "address"
        }
      ],
      "stateMutability": "view",
      "type": "function"
    },
    {
      "inputs": [],
      "name": "decimals",
      "outputs": [
        {
          "internalType": "uint8",
          "name": "",
          "type": "uint8"
        }
      ],
      "stateMutability": "view",
      "type": "function"
    },
    {
      "inputs": [
        {
          "internalType": "address",
          "name": "spender",
          "type": "address"
        },
        {
          "internalType": "uint256",
          "name": "subtractedValue",
          "type": "uint256"
        }
      ],
      "name": "decreaseAllowance",
      "outputs": [
        {
          "internalType": "bool",
          "name": "",
          "type": "bool"
        }
      ],
      "stateMutability": "nonpayable",
      "type": "function"
    },
    {
      "inputs": [
        {
          "internalType": "address",
          "name": "",
          "type": "address"
        }
      ],
      "name": "ercAddrToCustomToken",
      "outputs": [
        {
          "internalType": "string",
          "name": "name",
          "type": "string"
        },
        {
          "internalType": "string",
          "name": "symbol",
          "type": "string"
        },
        {
          "internalType": "address",
          "name": "target",
          "type": "address"
        },
        {
          "internalType": "uint256",
          "name": "status",
          "type": "uint256"
        }
      ],
      "stateMutability": "view",
      "type": "function"
    },
    {
      "inputs": [
        {
          "internalType": "address",
          "name": "spender",
          "type": "address"
        },
        {
          "internalType": "uint256",
          "name": "addedValue",
          "type": "uint256"
        }
      ],
      "name": "increaseAllowance",
      "outputs": [
        {
          "internalType": "bool",
          "name": "",
          "type": "bool"
        }
      ],
      "stateMutability": "nonpayable",
      "type": "function"
    },
    {
      "inputs": [],
      "name": "name",
      "outputs": [
        {
          "internalType": "string",
          "name": "",
          "type": "string"
        }
      ],
      "stateMutability": "view",
      "type": "function"
    },
    {
      "inputs": [
        {
          "internalType": "address",
          "name": "",
          "type": "address"
        },
        {
          "internalType": "uint256",
          "name": "",
          "type": "uint256"
        }
      ],
      "name": "preTokens",
      "outputs": [
        {
          "internalType": "address",
          "name": "tokenAddr",
          "type": "address"
        },
        {
          "internalType": "uint256",
          "name": "amount",
          "type": "uint256"
        }
      ],
      "stateMutability": "view",
      "type": "function"
    },
    {
      "inputs": [],
      "name": "symbol",
      "outputs": [
        {
          "internalType": "string",
          "name": "",
          "type": "string"
        }
      ],
      "stateMutability": "view",
      "type": "function"
    },
    {
      "inputs": [
        {
          "internalType": "address",
          "name": "",
          "type": "address"
        },
        {
          "internalType": "uint256",
          "name": "",
          "type": "uint256"
        }
      ],
      "name": "token2ratio",
      "outputs": [
        {
          "internalType": "uint256",
          "name": "",
          "type": "uint256"
        }
      ],
      "stateMutability": "view",
      "type": "function"
    },
    {
      "inputs": [
        {
          "internalType": "address",
          "name": "",
          "type": "address"
        },
        {
          "internalType": "uint256",
          "name": "",
          "type": "uint256"
        }
      ],
      "name": "token2symbol",
      "outputs": [
        {
          "internalType": "address",
          "name": "",
          "type": "address"
        }
      ],
      "stateMutability": "view",
      "type": "function"
    },
    {
      "inputs": [],
      "name": "totalAssets",
      "outputs": [
        {
          "internalType": "uint256",
          "name": "",
          "type": "uint256"
        }
      ],
      "stateMutability": "view",
      "type": "function"
    },
    {
      "inputs": [],
      "name": "totalSupply",
      "outputs": [
        {
          "internalType": "uint256",
          "name": "",
          "type": "uint256"
        }
      ],
      "stateMutability": "view",
      "type": "function"
    },
    {
      "inputs": [
        {
          "internalType": "address",
          "name": "recipient",
          "type": "address"
        },
        {
          "internalType": "uint256",
          "name": "amount",
          "type": "uint256"
        }
      ],
      "name": "transfer",
      "outputs": [
        {
          "internalType": "bool",
          "name": "",
          "type": "bool"
        }
      ],
      "stateMutability": "nonpayable",
      "type": "function"
    },
    {
      "inputs": [
        {
          "internalType": "address",
          "name": "sender",
          "type": "address"
        },
        {
          "internalType": "address",
          "name": "recipient",
          "type": "address"
        },
        {
          "internalType": "uint256",
          "name": "amount",
          "type": "uint256"
        }
      ],
      "name": "transferFrom",
      "outputs": [
        {
          "internalType": "bool",
          "name": "",
          "type": "bool"
        }
      ],
      "stateMutability": "nonpayable",
      "type": "function"
    },
    {
      "inputs": [],
      "name": "initialize",
      "outputs": [],
      "stateMutability": "nonpayable",
      "type": "function"
    },
    {
      "inputs": [
        {
          "internalType": "string",
          "name": "_name",
          "type": "string"
        },
        {
          "internalType": "string",
          "name": "_symbol",
          "type": "string"
        }
      ],
      "name": "create",
      "outputs": [
        {
          "internalType": "address",
          "name": "",
          "type": "address"
        }
      ],
      "stateMutability": "nonpayable",
      "type": "function"
    },
    {
      "inputs": [
        {
          "internalType": "address",
          "name": "erc20Addr",
          "type": "address"
        },
        {
          "internalType": "address[]",
          "name": "_preToken",
          "type": "address[]"
        },
        {
          "internalType": "uint256[]",
          "name": "_bassetAmount",
          "type": "uint256[]"
        },
        {
          "internalType": "bool[]",
          "name": "_isTransferFee",
          "type": "bool[]"
        },
        {
          "internalType": "address",
          "name": "receipt",
          "type": "address"
        }
      ],
      "name": "mintMulti",
      "outputs": [
        {
          "internalType": "uint256",
          "name": "massetMinted",
          "type": "uint256"
        }
      ],
      "stateMutability": "nonpayable",
      "type": "function"
    },
    {
      "inputs": [
        {
          "internalType": "address",
          "name": "_targetAddr",
          "type": "address"
        },
        {
          "internalType": "uint256",
          "name": "_backAmount",
          "type": "uint256"
        }
      ],
      "name": "redeem",
      "outputs": [
        {
          "internalType": "uint256",
          "name": "massetRedeemed",
          "type": "uint256"
        }
      ],
      "stateMutability": "nonpayable",
      "type": "function"
    }
  ],
  "bytecode": "0x60806040523480156200001157600080fd5b5060405162004d4838038062004d48833981810160405281019062000037919062000193565b818181600390805190602001906200005192919062000091565b5080600490805190602001906200006a92919062000091565b506012600560006101000a81548160ff021916908360ff1602179055505050505062000297565b828054600181600116156101000203166002900490600052602060002090601f016020900481019282601f10620000d457805160ff191683800117855562000105565b8280016001018555821562000105579182015b8281111562000104578251825591602001919060010190620000e7565b5b50905062000114919062000118565b5090565b5b808211156200013357600081600090555060010162000119565b5090565b600082601f8301126200014957600080fd5b8151620001606200015a8262000234565b62000206565b915080825260208301602083018583830111156200017d57600080fd5b6200018a83828462000261565b50505092915050565b60008060408385031215620001a757600080fd5b600083015167ffffffffffffffff811115620001c257600080fd5b620001d08582860162000137565b925050602083015167ffffffffffffffff811115620001ee57600080fd5b620001fc8582860162000137565b9150509250929050565b6000604051905081810181811067ffffffffffffffff821117156200022a57600080fd5b8060405250919050565b600067ffffffffffffffff8211156200024c57600080fd5b601f19601f8301169050602081019050919050565b60005b838110156200028157808201518184015260208101905062000264565b8381111562000291576000848401525b50505050565b614aa180620002a76000396000f3fe60806040523480156200001157600080fd5b5060043610620001545760003560e01c806351abb90a11620000c95780638942f73211620000875780638942f732146200040d57806395d89b411462000443578063a457c2d71462000465578063a9059cbb146200049b578063dd62ed3e14620004d1578063f681ce2414620005075762000154565b806351abb90a146200032557806370a08231146200035e578063730d135514620003945780638129fc1c14620003ca578063834330cc14620003d65762000154565b80631e9a695011620001175780631e9a6950146200022b57806323b872dd1462000261578063297243f71462000297578063313ce56714620002cd5780633950935114620002ef5762000154565b806301e1d114146200015957806306fdde03146200017b578063095ea7b3146200019d57806318160ddd14620001d3578063198e2b8a14620001f5575b600080fd5b620001636200053d565b604051620001729190620031d9565b60405180910390f35b6200018562000543565b60405162000194919062002f70565b60405180910390f35b620001bb6004803603810190620001b59190620028bb565b620005e9565b604051620001ca919062002f53565b60405180910390f35b620001dd6200060b565b604051620001ec9190620031d9565b60405180910390f35b6200021360048036038101906200020d919062002954565b62000615565b60405162000222919062002e9f565b60405180910390f35b620002496004803603810190620002439190620028bb565b620008a5565b604051620002589190620031d9565b60405180910390f35b6200027f60048036038101906200027991906200278b565b62000b80565b6040516200028e919062002f53565b60405180910390f35b620002b56004803603810190620002af9190620028bb565b62000c64565b604051620002c49190620031d9565b60405180910390f35b620002d762000c93565b604051620002e69190620031f6565b60405180910390f35b6200030d6004803603810190620003079190620028bb565b62000caa565b6040516200031c919062002f53565b60405180910390f35b6200034360048036038101906200033d91906200271e565b62000d65565b60405162000355949392919062002fcf565b60405180910390f35b6200037c60048036038101906200037691906200271e565b62000eed565b6040516200038b9190620031d9565b60405180910390f35b620003b26004803603810190620003ac9190620027e1565b62000f35565b604051620003c19190620031d9565b60405180910390f35b620003d462001401565b005b620003f46004803603810190620003ee9190620028bb565b62001403565b6040516200040492919062002f26565b60405180910390f35b6200042b6004803603810190620004259190620028bb565b62001462565b6040516200043a919062002e9f565b60405180910390f35b6200044d620014ae565b6040516200045c919062002f70565b60405180910390f35b6200048360048036038101906200047d9190620028bb565b62001554565b60405162000492919062002f53565b60405180910390f35b620004b96004803603810190620004b39190620028bb565b6200162a565b604051620004c8919062002f53565b60405180910390f35b620004ef6004803603810190620004e991906200274a565b6200164c565b604051620004fe9190620031d9565b60405180910390f35b6200052560048036038101906200051f9190620029c7565b620016d3565b60405162000534919062002e9f565b60405180910390f35b60075481565b606060038054600181600116156101000203166002900480601f016020809104026020016040519081016040528092919081815260200182805460018160011615610100020316600290048015620005df5780601f10620005b357610100808354040283529160200191620005df565b820191906000526020600020905b815481529060010190602001808311620005c157829003601f168201915b5050505050905090565b600062000601620005f962001710565b848462001718565b6001905092915050565b6000600254905090565b60008083836040516200062890620022e9565b6200063592919062002f94565b604051809103906000f08015801562000652573d6000803e3d6000fd5b5090506060600167ffffffffffffffff811180156200067057600080fd5b50604051908082528060200260200182016040528015620006a05781602001602082028036833780820191505090505b509050600060019050620006b3620022f7565b6040518060a001604052808881526020018781526020018573ffffffffffffffffffffffffffffffffffffffff16815260200183815260200184815250905080600860008673ffffffffffffffffffffffffffffffffffffffff1673ffffffffffffffffffffffffffffffffffffffff1681526020019081526020016000206000820151816000019080519060200190620007509291906200233c565b5060208201518160010190805190602001906200076f9291906200233c565b5060408201518160020160006101000a81548173ffffffffffffffffffffffffffffffffffffffff021916908373ffffffffffffffffffffffffffffffffffffffff160217905550606082015181600301556080820151816004019080519060200190620007df929190620023c3565b509050506006849080600181540180825580915050600190039060005260206000200160009091909190916101000a81548173ffffffffffffffffffffffffffffffffffffffff021916908373ffffffffffffffffffffffffffffffffffffffff1602179055506007600081548092919060010191905055507f80500318e1044ee4ff02c497b5e6a5094e1941785784636d474f52c76b9cc0d187876000876040516200089094939291906200302a565b60405180910390a18394505050505092915050565b60006060600960008573ffffffffffffffffffffffffffffffffffffffff1673ffffffffffffffffffffffffffffffffffffffff168152602001908152602001600020805480602002602001604051908101604052809291908181526020016000905b828210156200099c57838290600052602060002090600202016040518060400160405290816000820160009054906101000a900473ffffffffffffffffffffffffffffffffffffffff1673ffffffffffffffffffffffffffffffffffffffff1673ffffffffffffffffffffffffffffffffffffffff1681526020016001820154815250508152602001906001019062000908565b5050505090506060600b60008673ffffffffffffffffffffffffffffffffffffffff1673ffffffffffffffffffffffffffffffffffffffff16815260200190815260200160002080548060200260200160405190810160405280929190818152602001828054801562000a6557602002820191906000526020600020905b8160009054906101000a900473ffffffffffffffffffffffffffffffffffffffff1673ffffffffffffffffffffffffffffffffffffffff168152602001906001019080831162000a1a575b505050505090506060600a60008773ffffffffffffffffffffffffffffffffffffffff1673ffffffffffffffffffffffffffffffffffffffff16815260200190815260200160002080548060200260200160405190810160405280929190818152602001828054801562000af957602002820191906000526020600020905b81548152602001906001019080831162000ae4575b5050505050905060005b825181101562000b6757600083828151811062000b1c57fe5b6020026020010151905060008784848151811062000b3657fe5b602002602001015102905060008062000b533033868587620018eb565b905050505050808060010191505062000b03565b5062000b74868662001aaf565b84935050505092915050565b600062000b8f84848462001c69565b62000c598462000b9e62001710565b62000c538560405180606001604052806028815260200162004a1f60289139600160008b73ffffffffffffffffffffffffffffffffffffffff1673ffffffffffffffffffffffffffffffffffffffff168152602001908152602001600020600062000c0862001710565b73ffffffffffffffffffffffffffffffffffffffff1673ffffffffffffffffffffffffffffffffffffffff1681526020019081526020016000205462001f0d9092919063ffffffff16565b62001718565b600190509392505050565b600a602052816000526040600020818154811062000c7e57fe5b90600052602060002001600091509150505481565b6000600560009054906101000a900460ff16905090565b600062000d5b62000cba62001710565b8462000d55856001600062000cce62001710565b73ffffffffffffffffffffffffffffffffffffffff1673ffffffffffffffffffffffffffffffffffffffff16815260200190815260200160002060008973ffffffffffffffffffffffffffffffffffffffff1673ffffffffffffffffffffffffffffffffffffffff1681526020019081526020016000205462001f6b90919063ffffffff16565b62001718565b6001905092915050565b6008602052806000526040600020600091509050806000018054600181600116156101000203166002900480601f01602080910402602001604051908101604052809291908181526020018280546001816001161561010002031660029004801562000e155780601f1062000de95761010080835404028352916020019162000e15565b820191906000526020600020905b81548152906001019060200180831162000df757829003601f168201915b505050505090806001018054600181600116156101000203166002900480601f01602080910402602001604051908101604052809291908181526020018280546001816001161561010002031660029004801562000eb75780601f1062000e8b5761010080835404028352916020019162000eb7565b820191906000526020600020905b81548152906001019060200180831162000e9957829003601f168201915b5050505050908060020160009054906101000a900473ffffffffffffffffffffffffffffffffffffffff16908060030154905084565b60008060008373ffffffffffffffffffffffffffffffffffffffff1673ffffffffffffffffffffffffffffffffffffffff168152602001908152602001600020549050919050565b600080888890501162000f7f576040517f08c379a000000000000000000000000000000000000000000000000000000000815260040162000f769062003173565b60405180910390fd5b85859050888890501462000fca576040517f08c379a000000000000000000000000000000000000000000000000000000000815260040162000fc190620031b7565b60405180910390fd5b62000fd4620022f7565b600860008b73ffffffffffffffffffffffffffffffffffffffff1673ffffffffffffffffffffffffffffffffffffffff1681526020019081526020016000206040518060a0016040529081600082018054600181600116156101000203166002900480601f016020809104026020016040519081016040528092919081815260200182805460018160011615610100020316600290048015620010bb5780601f106200108f57610100808354040283529160200191620010bb565b820191906000526020600020905b8154815290600101906020018083116200109d57829003601f168201915b50505050508152602001600182018054600181600116156101000203166002900480601f016020809104026020016040519081016040528092919081815260200182805460018160011615610100020316600290048015620011615780601f10620011355761010080835404028352916020019162001161565b820191906000526020600020905b8154815290600101906020018083116200114357829003601f168201915b505050505081526020016002820160009054906101000a900473ffffffffffffffffffffffffffffffffffffffff1673ffffffffffffffffffffffffffffffffffffffff1673ffffffffffffffffffffffffffffffffffffffff16815260200160038201548152602001600482018054806020026020016040519081016040528092919081815260200182805480156200121b57602002820191906000526020600020905b81548152602001906001019080831162001206575b50505050508152505090506000816060015114156200123957600080fd5b600089899050905060005b81811015620012da5760008b8b838181106200125c57fe5b90506020020160208101906200127391906200271e565b905060008a8a848181106200128457fe5b90506020020135905060008989858181106200129c57fe5b9050602002016020810190620012b39190620028fc565b90506000620012c63330868587620018eb565b905050505050808060010191505062001244565b508787600a60008e73ffffffffffffffffffffffffffffffffffffffff1673ffffffffffffffffffffffffffffffffffffffff16815260200190815260200160002091906200132b92919062002415565b508989600b60008e73ffffffffffffffffffffffffffffffffffffffff1673ffffffffffffffffffffffffffffffffffffffff16815260200190815260200160002091906200137c92919062002467565b508a73ffffffffffffffffffffffffffffffffffffffff166340c10f193360016040518363ffffffff1660e01b8152600401620013bb92919062002ebc565b600060405180830381600087803b158015620013d657600080fd5b505af1158015620013eb573d6000803e3d6000fd5b5050505060019250505098975050505050505050565b565b600960205281600052604060002081815481106200141d57fe5b9060005260206000209060020201600091509150508060000160009054906101000a900473ffffffffffffffffffffffffffffffffffffffff16908060010154905082565b600b60205281600052604060002081815481106200147c57fe5b906000526020600020016000915091509054906101000a900473ffffffffffffffffffffffffffffffffffffffff1681565b606060048054600181600116156101000203166002900480601f0160208091040260200160405190810160405280929190818152602001828054600181600116156101000203166002900480156200154a5780601f106200151e576101008083540402835291602001916200154a565b820191906000526020600020905b8154815290600101906020018083116200152c57829003601f168201915b5050505050905090565b6000620016206200156462001710565b846200161a8560405180606001604052806025815260200162004a4760259139600160006200159262001710565b73ffffffffffffffffffffffffffffffffffffffff1673ffffffffffffffffffffffffffffffffffffffff16815260200190815260200160002060008a73ffffffffffffffffffffffffffffffffffffffff1673ffffffffffffffffffffffffffffffffffffffff1681526020019081526020016000205462001f0d9092919063ffffffff16565b62001718565b6001905092915050565b6000620016426200163a62001710565b848462001c69565b6001905092915050565b6000600160008473ffffffffffffffffffffffffffffffffffffffff1673ffffffffffffffffffffffffffffffffffffffff16815260200190815260200160002060008373ffffffffffffffffffffffffffffffffffffffff1673ffffffffffffffffffffffffffffffffffffffff16815260200190815260200160002054905092915050565b60068181548110620016e157fe5b906000526020600020016000915054906101000a900473ffffffffffffffffffffffffffffffffffffffff1681565b600033905090565b600073ffffffffffffffffffffffffffffffffffffffff168373ffffffffffffffffffffffffffffffffffffffff1614156200178b576040517f08c379a000000000000000000000000000000000000000000000000000000000815260040162001782906200312f565b60405180910390fd5b600073ffffffffffffffffffffffffffffffffffffffff168273ffffffffffffffffffffffffffffffffffffffff161415620017fe576040517f08c379a0000000000000000000000000000000000000000000000000000000008152600401620017f590620030a7565b60405180910390fd5b80600160008573ffffffffffffffffffffffffffffffffffffffff1673ffffffffffffffffffffffffffffffffffffffff16815260200190815260200160002060008473ffffffffffffffffffffffffffffffffffffffff1673ffffffffffffffffffffffffffffffffffffffff168152602001908152602001600020819055508173ffffffffffffffffffffffffffffffffffffffff168373ffffffffffffffffffffffffffffffffffffffff167f8c5be1e5ebec7d5bd14f71427d1e84f3dd0314c0f7b2291e5b200ac8c7c3b92583604051620018de9190620031d9565b60405180910390a3505050565b6000819050821562001a765760008473ffffffffffffffffffffffffffffffffffffffff166370a08231876040518263ffffffff1660e01b815260040162001934919062002e9f565b60206040518083038186803b1580156200194d57600080fd5b505afa15801562001962573d6000803e3d6000fd5b505050506040513d601f19601f82011682018060405250810190620019889190620029f3565b9050620019b98787858873ffffffffffffffffffffffffffffffffffffffff1662001fc3909392919063ffffffff16565b60008573ffffffffffffffffffffffffffffffffffffffff166370a08231886040518263ffffffff1660e01b8152600401620019f6919062002e9f565b60206040518083038186803b15801562001a0f57600080fd5b505afa15801562001a24573d6000803e3d6000fd5b505050506040513d601f19601f8201168201806040525081019062001a4a9190620029f3565b905062001a6c8462001a6684846200205090919063ffffffff16565b6200209c565b9250505062001aa6565b62001aa58686848773ffffffffffffffffffffffffffffffffffffffff1662001fc3909392919063ffffffff16565b5b95945050505050565b600073ffffffffffffffffffffffffffffffffffffffff168273ffffffffffffffffffffffffffffffffffffffff16141562001b22576040517f08c379a000000000000000000000000000000000000000000000000000000000815260040162001b1990620030eb565b60405180910390fd5b62001b3082600083620020b7565b62001b9e81604051806060016040528060228152602001620049d7602291396000808673ffffffffffffffffffffffffffffffffffffffff1673ffffffffffffffffffffffffffffffffffffffff1681526020019081526020016000205462001f0d9092919063ffffffff16565b6000808473ffffffffffffffffffffffffffffffffffffffff1673ffffffffffffffffffffffffffffffffffffffff1681526020019081526020016000208190555062001bf7816002546200205090919063ffffffff16565b600281905550600073ffffffffffffffffffffffffffffffffffffffff168273ffffffffffffffffffffffffffffffffffffffff167fddf252ad1be2c89b69c2b068fc378daa952ba7f163c4a11628f55a4df523b3ef8360405162001c5d9190620031d9565b60405180910390a35050565b600073ffffffffffffffffffffffffffffffffffffffff168373ffffffffffffffffffffffffffffffffffffffff16141562001cdc576040517f08c379a000000000000000000000000000000000000000000000000000000000815260040162001cd3906200310d565b60405180910390fd5b600073ffffffffffffffffffffffffffffffffffffffff168273ffffffffffffffffffffffffffffffffffffffff16141562001d4f576040517f08c379a000000000000000000000000000000000000000000000000000000000815260040162001d469062003085565b60405180910390fd5b62001d5c838383620020b7565b62001dca81604051806060016040528060268152602001620049f9602691396000808773ffffffffffffffffffffffffffffffffffffffff1673ffffffffffffffffffffffffffffffffffffffff1681526020019081526020016000205462001f0d9092919063ffffffff16565b6000808573ffffffffffffffffffffffffffffffffffffffff1673ffffffffffffffffffffffffffffffffffffffff1681526020019081526020016000208190555062001e5f816000808573ffffffffffffffffffffffffffffffffffffffff1673ffffffffffffffffffffffffffffffffffffffff1681526020019081526020016000205462001f6b90919063ffffffff16565b6000808473ffffffffffffffffffffffffffffffffffffffff1673ffffffffffffffffffffffffffffffffffffffff168152602001908152602001600020819055508173ffffffffffffffffffffffffffffffffffffffff168373ffffffffffffffffffffffffffffffffffffffff167fddf252ad1be2c89b69c2b068fc378daa952ba7f163c4a11628f55a4df523b3ef8360405162001f009190620031d9565b60405180910390a3505050565b600083831115829062001f58576040517f08c379a000000000000000000000000000000000000000000000000000000000815260040162001f4f919062002f70565b60405180910390fd5b5060008385039050809150509392505050565b60008082840190508381101562001fb9576040517f08c379a000000000000000000000000000000000000000000000000000000000815260040162001fb090620030c9565b60405180910390fd5b8091505092915050565b6200204a846323b872dd60e01b85858560405160240162001fe79392919062002ee9565b604051602081830303815290604052907bffffffffffffffffffffffffffffffffffffffffffffffffffffffff19166020820180517bffffffffffffffffffffffffffffffffffffffffffffffffffffffff8381831617835250505050620020bc565b50505050565b60006200209483836040518060400160405280601e81526020017f536166654d6174683a207375627472616374696f6e206f766572666c6f77000081525062001f0d565b905092915050565b6000818311620020ad5782620020af565b815b905092915050565b505050565b606062002120826040518060400160405280602081526020017f5361666545524332303a206c6f772d6c6576656c2063616c6c206661696c65648152508573ffffffffffffffffffffffffffffffffffffffff166200218b9092919063ffffffff16565b905060008151111562002186578080602001905181019062002143919062002928565b62002185576040517f08c379a00000000000000000000000000000000000000000000000000000000081526004016200217c9062003195565b60405180910390fd5b5b505050565b60606200219c8484600085620021a5565b90509392505050565b6060620021b285620022d6565b620021f4576040517f08c379a0000000000000000000000000000000000000000000000000000000008152600401620021eb9062003151565b60405180910390fd5b600060608673ffffffffffffffffffffffffffffffffffffffff16858760405162002220919062002e86565b60006040518083038185875af1925050503d80600081146200225f576040519150601f19603f3d011682016040523d82523d6000602084013e62002264565b606091505b509150915081156200227b578092505050620022ce565b6000815111156200228f5780518082602001fd5b836040517f08c379a0000000000000000000000000000000000000000000000000000000008152600401620022c5919062002f70565b60405180910390fd5b949350505050565b600080823b905060008111915050919050565b6115d7806200340083390190565b6040518060a001604052806060815260200160608152602001600073ffffffffffffffffffffffffffffffffffffffff16815260200160008152602001606081525090565b828054600181600116156101000203166002900490600052602060002090601f016020900481019282601f106200237f57805160ff1916838001178555620023b0565b82800160010185558215620023b0579182015b82811115620023af57825182559160200191906001019062002392565b5b509050620023bf91906200250c565b5090565b82805482825590600052602060002090810192821562002402579160200282015b8281111562002401578251825591602001919060010190620023e4565b5b5090506200241191906200250c565b5090565b82805482825590600052602060002090810192821562002454579160200282015b828111156200245357823582559160200191906001019062002436565b5b5090506200246391906200250c565b5090565b828054828255906000526020600020908101928215620024f9579160200282015b82811115620024f857823573ffffffffffffffffffffffffffffffffffffffff168260006101000a81548173ffffffffffffffffffffffffffffffffffffffff021916908373ffffffffffffffffffffffffffffffffffffffff1602179055509160200191906001019062002488565b5b5090506200250891906200252b565b5090565b5b80821115620025275760008160009055506001016200250d565b5090565b5b808211156200256457600081816101000a81549073ffffffffffffffffffffffffffffffffffffffff0219169055506001016200252c565b5090565b6000813590506200257981620033b1565b92915050565b60008083601f8401126200259257600080fd5b8235905067ffffffffffffffff811115620025ac57600080fd5b602083019150836020820283011115620025c557600080fd5b9250929050565b60008083601f840112620025df57600080fd5b8235905067ffffffffffffffff811115620025f957600080fd5b6020830191508360208202830111156200261257600080fd5b9250929050565b60008083601f8401126200262c57600080fd5b8235905067ffffffffffffffff8111156200264657600080fd5b6020830191508360208202830111156200265f57600080fd5b9250929050565b6000813590506200267781620033cb565b92915050565b6000815190506200268e81620033cb565b92915050565b600082601f830112620026a657600080fd5b8135620026bd620026b78262003241565b62003213565b91508082526020830160208301858383011115620026da57600080fd5b620026e78382846200335b565b50505092915050565b6000813590506200270181620033e5565b92915050565b6000815190506200271881620033e5565b92915050565b6000602082840312156200273157600080fd5b6000620027418482850162002568565b91505092915050565b600080604083850312156200275e57600080fd5b60006200276e8582860162002568565b9250506020620027818582860162002568565b9150509250929050565b600080600060608486031215620027a157600080fd5b6000620027b18682870162002568565b9350506020620027c48682870162002568565b9250506040620027d786828701620026f0565b9150509250925092565b60008060008060008060008060a0898b031215620027fe57600080fd5b60006200280e8b828c0162002568565b985050602089013567ffffffffffffffff8111156200282c57600080fd5b6200283a8b828c016200257f565b9750975050604089013567ffffffffffffffff8111156200285a57600080fd5b620028688b828c0162002619565b9550955050606089013567ffffffffffffffff8111156200288857600080fd5b620028968b828c01620025cc565b93509350506080620028ab8b828c0162002568565b9150509295985092959890939650565b60008060408385031215620028cf57600080fd5b6000620028df8582860162002568565b9250506020620028f285828601620026f0565b9150509250929050565b6000602082840312156200290f57600080fd5b60006200291f8482850162002666565b91505092915050565b6000602082840312156200293b57600080fd5b60006200294b848285016200267d565b91505092915050565b600080604083850312156200296857600080fd5b600083013567ffffffffffffffff8111156200298357600080fd5b620029918582860162002694565b925050602083013567ffffffffffffffff811115620029af57600080fd5b620029bd8582860162002694565b9150509250929050565b600060208284031215620029da57600080fd5b6000620029ea84828501620026f0565b91505092915050565b60006020828403121562002a0657600080fd5b600062002a168482850162002707565b91505092915050565b62002a2a81620032f7565b82525050565b62002a3b81620032a0565b82525050565b62002a4c81620032b4565b82525050565b600062002a5f826200326e565b62002a6b818562003284565b935062002a7d8185602086016200336a565b80840191505092915050565b62002a94816200330b565b82525050565b62002aa5816200331f565b82525050565b600062002ab88262003279565b62002ac481856200328f565b935062002ad68185602086016200336a565b62002ae181620033a0565b840191505092915050565b600062002afb6023836200328f565b91507f45524332303a207472616e7366657220746f20746865207a65726f206164647260008301527f65737300000000000000000000000000000000000000000000000000000000006020830152604082019050919050565b600062002b636022836200328f565b91507f45524332303a20617070726f766520746f20746865207a65726f20616464726560008301527f73730000000000000000000000000000000000000000000000000000000000006020830152604082019050919050565b600062002bcb601b836200328f565b91507f536166654d6174683a206164646974696f6e206f766572666c6f7700000000006000830152602082019050919050565b600062002c0d6021836200328f565b91507f45524332303a206275726e2066726f6d20746865207a65726f2061646472657360008301527f73000000000000000000000000000000000000000000000000000000000000006020830152604082019050919050565b600062002c756025836200328f565b91507f45524332303a207472616e736665722066726f6d20746865207a65726f20616460008301527f64726573730000000000000000000000000000000000000000000000000000006020830152604082019050919050565b600062002cdd6024836200328f565b91507f45524332303a20617070726f76652066726f6d20746865207a65726f2061646460008301527f72657373000000000000000000000000000000000000000000000000000000006020830152604082019050919050565b600062002d45601d836200328f565b91507f416464726573733a2063616c6c20746f206e6f6e2d636f6e74726163740000006000830152602082019050919050565b600062002d87601e836200328f565b91507f5f707265546f6b656e206c656e676874206d757374206e6f74206265203000006000830152602082019050919050565b600062002dc9602a836200328f565b91507f5361666545524332303a204552433230206f7065726174696f6e20646964206e60008301527f6f742073756363656564000000000000000000000000000000000000000000006020830152604082019050919050565b600062002e316014836200328f565b91507f6c656e676874206d75737420626520657175616c0000000000000000000000006000830152602082019050919050565b62002e6f81620032e0565b82525050565b62002e8081620032ea565b82525050565b600062002e94828462002a52565b915081905092915050565b600060208201905062002eb6600083018462002a30565b92915050565b600060408201905062002ed3600083018562002a1f565b62002ee2602083018462002a9a565b9392505050565b600060608201905062002f00600083018662002a30565b62002f0f602083018562002a30565b62002f1e604083018462002e64565b949350505050565b600060408201905062002f3d600083018562002a30565b62002f4c602083018462002e64565b9392505050565b600060208201905062002f6a600083018462002a41565b92915050565b6000602082019050818103600083015262002f8c818462002aab565b905092915050565b6000604082019050818103600083015262002fb0818562002aab565b9050818103602083015262002fc6818462002aab565b90509392505050565b6000608082019050818103600083015262002feb818762002aab565b9050818103602083015262003001818662002aab565b905062003012604083018562002a30565b62003021606083018462002e64565b95945050505050565b6000608082019050818103600083015262003046818762002aab565b905081810360208301526200305c818662002aab565b90506200306d604083018562002a89565b6200307c606083018462002a30565b95945050505050565b60006020820190508181036000830152620030a08162002aec565b9050919050565b60006020820190508181036000830152620030c28162002b54565b9050919050565b60006020820190508181036000830152620030e48162002bbc565b9050919050565b60006020820190508181036000830152620031068162002bfe565b9050919050565b60006020820190508181036000830152620031288162002c66565b9050919050565b600060208201905081810360008301526200314a8162002cce565b9050919050565b600060208201905081810360008301526200316c8162002d36565b9050919050565b600060208201905081810360008301526200318e8162002d78565b9050919050565b60006020820190508181036000830152620031b08162002dba565b9050919050565b60006020820190508181036000830152620031d28162002e22565b9050919050565b6000602082019050620031f0600083018462002e64565b92915050565b60006020820190506200320d600083018462002e75565b92915050565b6000604051905081810181811067ffffffffffffffff821117156200323757600080fd5b8060405250919050565b600067ffffffffffffffff8211156200325957600080fd5b601f19601f8301169050602081019050919050565b600081519050919050565b600081519050919050565b600081905092915050565b600082825260208201905092915050565b6000620032ad82620032c0565b9050919050565b60008115159050919050565b600073ffffffffffffffffffffffffffffffffffffffff82169050919050565b6000819050919050565b600060ff82169050919050565b6000620033048262003333565b9050919050565b60006200331882620032e0565b9050919050565b60006200332c82620032e0565b9050919050565b6000620033408262003347565b9050919050565b60006200335482620032c0565b9050919050565b82818337600083830152505050565b60005b838110156200338a5780820151818401526020810190506200336d565b838111156200339a576000848401525b50505050565b6000601f19601f8301169050919050565b620033bc81620032a0565b8114620033c857600080fd5b50565b620033d681620032b4565b8114620033e257600080fd5b50565b620033f081620032e0565b8114620033fc57600080fd5b5056fe60806040523480156200001157600080fd5b50604051620015d7380380620015d7833981810160405260408110156200003757600080fd5b81019080805160405193929190846401000000008211156200005857600080fd5b838201915060208201858111156200006f57600080fd5b82518660018202830111640100000000821117156200008d57600080fd5b8083526020830192505050908051906020019080838360005b83811015620000c3578082015181840152602081019050620000a6565b50505050905090810190601f168015620000f15780820380516001836020036101000a031916815260200191505b50604052602001805160405193929190846401000000008211156200011557600080fd5b838201915060208201858111156200012c57600080fd5b82518660018202830111640100000000821117156200014a57600080fd5b8083526020830192505050908051906020019080838360005b838110156200018057808201518184015260208101905062000163565b50505050905090810190601f168015620001ae5780820380516001836020036101000a031916815260200191505b5060405250505081818160039080519060200190620001cf9291906200020f565b508060049080519060200190620001e89291906200020f565b506012600560006101000a81548160ff021916908360ff16021790555050505050620002b5565b828054600181600116156101000203166002900490600052602060002090601f016020900481019282601f106200025257805160ff191683800117855562000283565b8280016001018555821562000283579182015b828111156200028257825182559160200191906001019062000265565b5b50905062000292919062000296565b5090565b5b80821115620002b157600081600090555060010162000297565b5090565b61131280620002c56000396000f3fe608060405234801561001057600080fd5b50600436106100b45760003560e01c806340c10f191161007157806340c10f19146102c757806370a082311461031557806395d89b411461036d578063a457c2d7146103f0578063a9059cbb14610454578063dd62ed3e146104b8576100b4565b806306fdde03146100b9578063095ea7b31461013c57806318160ddd146101a057806323b872dd146101be578063313ce567146102425780633950935114610263575b600080fd5b6100c1610530565b6040518080602001828103825283818151815260200191508051906020019080838360005b838110156101015780820151818401526020810190506100e6565b50505050905090810190601f16801561012e5780820380516001836020036101000a031916815260200191505b509250505060405180910390f35b6101886004803603604081101561015257600080fd5b81019080803573ffffffffffffffffffffffffffffffffffffffff169060200190929190803590602001909291905050506105d2565b60405180821515815260200191505060405180910390f35b6101a86105f0565b6040518082815260200191505060405180910390f35b61022a600480360360608110156101d457600080fd5b81019080803573ffffffffffffffffffffffffffffffffffffffff169060200190929190803573ffffffffffffffffffffffffffffffffffffffff169060200190929190803590602001909291905050506105fa565b60405180821515815260200191505060405180910390f35b61024a6106d3565b604051808260ff16815260200191505060405180910390f35b6102af6004803603604081101561027957600080fd5b81019080803573ffffffffffffffffffffffffffffffffffffffff169060200190929190803590602001909291905050506106ea565b60405180821515815260200191505060405180910390f35b610313600480360360408110156102dd57600080fd5b81019080803573ffffffffffffffffffffffffffffffffffffffff1690602001909291908035906020019092919050505061079d565b005b6103576004803603602081101561032b57600080fd5b81019080803573ffffffffffffffffffffffffffffffffffffffff1690602001909291905050506107ab565b6040518082815260200191505060405180910390f35b6103756107f3565b6040518080602001828103825283818151815260200191508051906020019080838360005b838110156103b557808201518184015260208101905061039a565b50505050905090810190601f1680156103e25780820380516001836020036101000a031916815260200191505b509250505060405180910390f35b61043c6004803603604081101561040657600080fd5b81019080803573ffffffffffffffffffffffffffffffffffffffff16906020019092919080359060200190929190505050610895565b60405180821515815260200191505060405180910390f35b6104a06004803603604081101561046a57600080fd5b81019080803573ffffffffffffffffffffffffffffffffffffffff16906020019092919080359060200190929190505050610962565b60405180821515815260200191505060405180910390f35b61051a600480360360408110156104ce57600080fd5b81019080803573ffffffffffffffffffffffffffffffffffffffff169060200190929190803573ffffffffffffffffffffffffffffffffffffffff169060200190929190505050610980565b6040518082815260200191505060405180910390f35b606060038054600181600116156101000203166002900480601f0160208091040260200160405190810160405280929190818152602001828054600181600116156101000203166002900480156105c85780601f1061059d576101008083540402835291602001916105c8565b820191906000526020600020905b8154815290600101906020018083116105ab57829003601f168201915b5050505050905090565b60006105e66105df610a07565b8484610a0f565b6001905092915050565b6000600254905090565b6000610607848484610c06565b6106c884610613610a07565b6106c38560405180606001604052806028815260200161124760289139600160008b73ffffffffffffffffffffffffffffffffffffffff1673ffffffffffffffffffffffffffffffffffffffff1681526020019081526020016000206000610679610a07565b73ffffffffffffffffffffffffffffffffffffffff1673ffffffffffffffffffffffffffffffffffffffff16815260200190815260200160002054610ec79092919063ffffffff16565b610a0f565b600190509392505050565b6000600560009054906101000a900460ff16905090565b60006107936106f7610a07565b8461078e8560016000610708610a07565b73ffffffffffffffffffffffffffffffffffffffff1673ffffffffffffffffffffffffffffffffffffffff16815260200190815260200160002060008973ffffffffffffffffffffffffffffffffffffffff1673ffffffffffffffffffffffffffffffffffffffff16815260200190815260200160002054610f8790919063ffffffff16565b610a0f565b6001905092915050565b6107a7828261100f565b5050565b60008060008373ffffffffffffffffffffffffffffffffffffffff1673ffffffffffffffffffffffffffffffffffffffff168152602001908152602001600020549050919050565b606060048054600181600116156101000203166002900480601f01602080910402602001604051908101604052809291908181526020018280546001816001161561010002031660029004801561088b5780601f106108605761010080835404028352916020019161088b565b820191906000526020600020905b81548152906001019060200180831161086e57829003601f168201915b5050505050905090565b60006109586108a2610a07565b84610953856040518060600160405280602581526020016112b860259139600160006108cc610a07565b73ffffffffffffffffffffffffffffffffffffffff1673ffffffffffffffffffffffffffffffffffffffff16815260200190815260200160002060008a73ffffffffffffffffffffffffffffffffffffffff1673ffffffffffffffffffffffffffffffffffffffff16815260200190815260200160002054610ec79092919063ffffffff16565b610a0f565b6001905092915050565b600061097661096f610a07565b8484610c06565b6001905092915050565b6000600160008473ffffffffffffffffffffffffffffffffffffffff1673ffffffffffffffffffffffffffffffffffffffff16815260200190815260200160002060008373ffffffffffffffffffffffffffffffffffffffff1673ffffffffffffffffffffffffffffffffffffffff16815260200190815260200160002054905092915050565b600033905090565b600073ffffffffffffffffffffffffffffffffffffffff168373ffffffffffffffffffffffffffffffffffffffff161415610a95576040517f08c379a00000000000000000000000000000000000000000000000000000000081526004018080602001828103825260248152602001806112946024913960400191505060405180910390fd5b600073ffffffffffffffffffffffffffffffffffffffff168273ffffffffffffffffffffffffffffffffffffffff161415610b1b576040517f08c379a00000000000000000000000000000000000000000000000000000000081526004018080602001828103825260228152602001806111ff6022913960400191505060405180910390fd5b80600160008573ffffffffffffffffffffffffffffffffffffffff1673ffffffffffffffffffffffffffffffffffffffff16815260200190815260200160002060008473ffffffffffffffffffffffffffffffffffffffff1673ffffffffffffffffffffffffffffffffffffffff168152602001908152602001600020819055508173ffffffffffffffffffffffffffffffffffffffff168373ffffffffffffffffffffffffffffffffffffffff167f8c5be1e5ebec7d5bd14f71427d1e84f3dd0314c0f7b2291e5b200ac8c7c3b925836040518082815260200191505060405180910390a3505050565b600073ffffffffffffffffffffffffffffffffffffffff168373ffffffffffffffffffffffffffffffffffffffff161415610c8c576040517f08c379a000000000000000000000000000000000000000000000000000000000815260040180806020018281038252602581526020018061126f6025913960400191505060405180910390fd5b600073ffffffffffffffffffffffffffffffffffffffff168273ffffffffffffffffffffffffffffffffffffffff161415610d12576040517f08c379a00000000000000000000000000000000000000000000000000000000081526004018080602001828103825260238152602001806111dc6023913960400191505060405180910390fd5b610d1d8383836111d6565b610d8881604051806060016040528060268152602001611221602691396000808773ffffffffffffffffffffffffffffffffffffffff1673ffffffffffffffffffffffffffffffffffffffff16815260200190815260200160002054610ec79092919063ffffffff16565b6000808573ffffffffffffffffffffffffffffffffffffffff1673ffffffffffffffffffffffffffffffffffffffff16815260200190815260200160002081905550610e1b816000808573ffffffffffffffffffffffffffffffffffffffff1673ffffffffffffffffffffffffffffffffffffffff16815260200190815260200160002054610f8790919063ffffffff16565b6000808473ffffffffffffffffffffffffffffffffffffffff1673ffffffffffffffffffffffffffffffffffffffff168152602001908152602001600020819055508173ffffffffffffffffffffffffffffffffffffffff168373ffffffffffffffffffffffffffffffffffffffff167fddf252ad1be2c89b69c2b068fc378daa952ba7f163c4a11628f55a4df523b3ef836040518082815260200191505060405180910390a3505050565b6000838311158290610f74576040517f08c379a00000000000000000000000000000000000000000000000000000000081526004018080602001828103825283818151815260200191508051906020019080838360005b83811015610f39578082015181840152602081019050610f1e565b50505050905090810190601f168015610f665780820380516001836020036101000a031916815260200191505b509250505060405180910390fd5b5060008385039050809150509392505050565b600080828401905083811015611005576040517f08c379a000000000000000000000000000000000000000000000000000000000815260040180806020018281038252601b8152602001807f536166654d6174683a206164646974696f6e206f766572666c6f77000000000081525060200191505060405180910390fd5b8091505092915050565b600073ffffffffffffffffffffffffffffffffffffffff168273ffffffffffffffffffffffffffffffffffffffff1614156110b2576040517f08c379a000000000000000000000000000000000000000000000000000000000815260040180806020018281038252601f8152602001807f45524332303a206d696e7420746f20746865207a65726f20616464726573730081525060200191505060405180910390fd5b6110be600083836111d6565b6110d381600254610f8790919063ffffffff16565b60028190555061112a816000808573ffffffffffffffffffffffffffffffffffffffff1673ffffffffffffffffffffffffffffffffffffffff16815260200190815260200160002054610f8790919063ffffffff16565b6000808473ffffffffffffffffffffffffffffffffffffffff1673ffffffffffffffffffffffffffffffffffffffff168152602001908152602001600020819055508173ffffffffffffffffffffffffffffffffffffffff16600073ffffffffffffffffffffffffffffffffffffffff167fddf252ad1be2c89b69c2b068fc378daa952ba7f163c4a11628f55a4df523b3ef836040518082815260200191505060405180910390a35050565b50505056fe45524332303a207472616e7366657220746f20746865207a65726f206164647265737345524332303a20617070726f766520746f20746865207a65726f206164647265737345524332303a207472616e7366657220616d6f756e7420657863656564732062616c616e636545524332303a207472616e7366657220616d6f756e74206578636565647320616c6c6f77616e636545524332303a207472616e736665722066726f6d20746865207a65726f206164647265737345524332303a20617070726f76652066726f6d20746865207a65726f206164647265737345524332303a2064656372656173656420616c6c6f77616e63652062656c6f77207a65726fa2646970667358221220faaa26affe2aae8677053d7d201163f9120b5265fbfbec84c13ca32f42da6acf64736f6c634300060c003345524332303a206275726e20616d6f756e7420657863656564732062616c616e636545524332303a207472616e7366657220616d6f756e7420657863656564732062616c616e636545524332303a207472616e7366657220616d6f756e74206578636565647320616c6c6f77616e636545524332303a2064656372656173656420616c6c6f77616e63652062656c6f77207a65726fa2646970667358221220ada7f5a2480a8e87638ae1870a94de18da59b64bb5abc5066c448dfba2e4085264736f6c634300060c0033",
  "immutableReferences": {},
  "source": "// SPDX-License-Identifier: SimPL-2.0\npragma solidity 0.6.12;\npragma experimental ABIEncoderV2;\n\n// External\nimport { ITokenManager } from \"./ITokenManager.sol\";\nimport { IDataManager } from \"./IDataManager.sol\";\n\n// Internal\nimport { TokenStructs } from \"./TokenStructs.sol\";\nimport { CustomToken } from \"./CustomToken.sol\";\n\nimport \"@openzeppelin/contracts/token/ERC20/ERC20.sol\";\n\nimport { StableMath } from \"./shared/StableMath.sol\";\nimport { MassetHelpers } from \"./shared/MassetHelpers.sol\";\n\ncontract TokenManager is ITokenManager, ERC20 {\n\n    using StableMath for uint256;\n\n    address[] public customAssets;\n    uint256 public totalAssets;\n\n    // \n    event Created(string name, string symbol, uint256 supply, address token_addr);\n    // \n    event Minted(address indexed minter, address recipient, uint256 mAssetQuantity, address bAsset, uint256 bAssetQuantity);\n    event MintedMulti(address indexed minter, address recipient, uint256 mAssetQuantity, address[] bAssets, uint256[] bAssetQuantities);\n    // \n    event Redeemed(address indexed redeemer, address recipient, uint256 mAssetQuantity, address[] bAssets, uint256[] bAssetQuantities);\n    event RedeemedMasset(address indexed redeemer, address recipient, uint256 mAssetQuantity);\n    // \n    event PaidFee(address indexed payer, address asset, uint256 feeQuantity);\n\n    // CustomAsset[] public customAssets;\n\n    // \n    mapping(address => CustomAsset) public ercAddrToCustomToken;\n\n    // \n    mapping(address => PreToken[]) public preTokens;\n\n    // \n    mapping(address => uint256[]) public token2ratio;\n    // \n    mapping(address => address[]) public token2symbol;\n\n    // \n    constructor(string memory name, string memory symbol) public ERC20(name, symbol) {}\n\n    // \n    function initialize()\n        external\n    {\n\n    }\n\n    // \n    function create(\n        string memory _name,\n        string memory _symbol\n    )\n        override\n        external\n        returns (address)\n    {\n        CustomToken token = new CustomToken(_name, _symbol);\n        uint256[] memory ratios = new uint256[](1);\n        uint256 status = 1;\n        CustomAsset memory asset = CustomAsset(\n            _name,\n            _symbol,\n            address(token),\n            status,\n            ratios\n        );\n\n        ercAddrToCustomToken[address(token)] = asset;\n        customAssets.push(address(token));\n        totalAssets++;\n\n        emit Created(_name, _symbol, 0, address(token));\n        return address(token);\n    }\n\n    // \n    function mintMulti(\n        address erc20Addr,\n        address[] calldata _preToken,\n        uint256[] calldata _bassetAmount,\n        bool[] calldata _isTransferFee,\n        address receipt\n    )\n        override\n        external\n        returns (uint256 massetMinted)\n    {\n        require(_preToken.length > 0, \"_preToken lenght must not be 0\");\n        require(_preToken.length == _bassetAmount.length, \"lenght must be equal\");\n\n        // TODO \n\n        CustomAsset memory customAsset = ercAddrToCustomToken[erc20Addr];\n        require(customAsset.status != 0);\n\n        uint256 len = _preToken.length;\n        // \n        for(uint256 i = 0; i < len; i++) {\n            address tokenAddr = _preToken[i];\n            uint256 amount = _bassetAmount[i];\n            bool isTransferFee = _isTransferFee[i];\n            uint256 quantityTransferred = MassetHelpers.transferTokens(msg.sender, address(this), tokenAddr, isTransferFee, amount);\n        }\n\n        token2ratio[erc20Addr] = _bassetAmount;\n        token2symbol[erc20Addr] = _preToken;\n\n        CustomToken(erc20Addr).mint(msg.sender, 1);\n        return 1;\n    }\n\n    // \n    function redeem(\n        address _targetAddr,\n        uint256 _backAmount\n    )\n        override\n        external\n        returns (uint256 massetRedeemed)\n    {\n        // \n        // \n        PreToken[] memory pre_tokens = preTokens[_targetAddr];\n\n        // mapping\n        address[] memory mapSymbol = token2symbol[_targetAddr];\n        uint256[] memory mapRadio = token2ratio[_targetAddr];\n\n        // \n        for(uint256 i = 0; i < mapSymbol.length; i++) {\n            address tokenAddr = mapSymbol[i];\n            uint256 amount = mapRadio[i] * _backAmount;\n            bool isTransferFee = false;\n            uint256 quantityTransferred = MassetHelpers.transferTokens(address(this), msg.sender, tokenAddr, isTransferFee, amount);\n        }\n\n        _burn(_targetAddr, _backAmount);\n        return _backAmount;\n    }\n\n}",
  "sourcePath": "/Users/zhangxuesong/mysoft/defi/XStableDollar-contracts/stabledollar/contracts/TokenManager.sol",
  "compiler": {
    "name": "solc",
    "version": "0.6.12+commit.27d51765.Emscripten.clang"
  },
  "schemaVersion": "3.3.2",
  "updatedAt": "2020-11-14T14:51:12.712Z",
  "devdoc": {
    "kind": "dev",
    "methods": {
      "allowance(address,address)": {
        "details": "See {IERC20-allowance}."
      },
      "approve(address,uint256)": {
        "details": "See {IERC20-approve}. Requirements: - `spender` cannot be the zero address."
      },
      "balanceOf(address)": {
        "details": "See {IERC20-balanceOf}."
      },
      "decimals()": {
        "details": "Returns the number of decimals used to get its user representation. For example, if `decimals` equals `2`, a balance of `505` tokens should be displayed to a user as `5,05` (`505 / 10 ** 2`). Tokens usually opt for a value of 18, imitating the relationship between Ether and Wei. This is the value {ERC20} uses, unless {_setupDecimals} is called. NOTE: This information is only used for _display_ purposes: it in no way affects any of the arithmetic of the contract, including {IERC20-balanceOf} and {IERC20-transfer}."
      },
      "decreaseAllowance(address,uint256)": {
        "details": "Atomically decreases the allowance granted to `spender` by the caller. This is an alternative to {approve} that can be used as a mitigation for problems described in {IERC20-approve}. Emits an {Approval} event indicating the updated allowance. Requirements: - `spender` cannot be the zero address. - `spender` must have allowance for the caller of at least `subtractedValue`."
      },
      "increaseAllowance(address,uint256)": {
        "details": "Atomically increases the allowance granted to `spender` by the caller. This is an alternative to {approve} that can be used as a mitigation for problems described in {IERC20-approve}. Emits an {Approval} event indicating the updated allowance. Requirements: - `spender` cannot be the zero address."
      },
      "name()": {
        "details": "Returns the name of the token."
      },
      "symbol()": {
        "details": "Returns the symbol of the token, usually a shorter version of the name."
      },
      "totalSupply()": {
        "details": "See {IERC20-totalSupply}."
      },
      "transfer(address,uint256)": {
        "details": "See {IERC20-transfer}. Requirements: - `recipient` cannot be the zero address. - the caller must have a balance of at least `amount`."
      },
      "transferFrom(address,address,uint256)": {
        "details": "See {IERC20-transferFrom}. Emits an {Approval} event indicating the updated allowance. This is not required by the EIP. See the note at the beginning of {ERC20}; Requirements: - `sender` and `recipient` cannot be the zero address. - `sender` must have a balance of at least `amount`. - the caller must have allowance for ``sender``'s tokens of at least `amount`."
      }
    },
    "version": 1
  },
  "userdoc": {
    "kind": "user",
    "methods": {},
    "version": 1
  }
}