{
  "contractName": "TokenManager",
  "abi": [
    {
      "inputs": [
        {
          "internalType": "string",
          "name": "name",
          "type": "string"
        },
        {
          "internalType": "string",
          "name": "symbol",
          "type": "string"
        }
      ],
      "stateMutability": "nonpayable",
      "type": "constructor"
    },
    {
      "anonymous": false,
      "inputs": [
        {
          "indexed": true,
          "internalType": "address",
          "name": "owner",
          "type": "address"
        },
        {
          "indexed": true,
          "internalType": "address",
          "name": "spender",
          "type": "address"
        },
        {
          "indexed": false,
          "internalType": "uint256",
          "name": "value",
          "type": "uint256"
        }
      ],
      "name": "Approval",
      "type": "event"
    },
    {
      "anonymous": false,
      "inputs": [
        {
          "indexed": true,
          "internalType": "address",
          "name": "minter",
          "type": "address"
        },
        {
          "indexed": false,
          "internalType": "address",
          "name": "recipient",
          "type": "address"
        },
        {
          "indexed": false,
          "internalType": "uint256",
          "name": "mAssetQuantity",
          "type": "uint256"
        },
        {
          "indexed": false,
          "internalType": "address",
          "name": "bAsset",
          "type": "address"
        },
        {
          "indexed": false,
          "internalType": "uint256",
          "name": "bAssetQuantity",
          "type": "uint256"
        }
      ],
      "name": "Minted",
      "type": "event"
    },
    {
      "anonymous": false,
      "inputs": [
        {
          "indexed": true,
          "internalType": "address",
          "name": "minter",
          "type": "address"
        },
        {
          "indexed": false,
          "internalType": "address",
          "name": "recipient",
          "type": "address"
        },
        {
          "indexed": false,
          "internalType": "uint256",
          "name": "mAssetQuantity",
          "type": "uint256"
        },
        {
          "indexed": false,
          "internalType": "address[]",
          "name": "bAssets",
          "type": "address[]"
        },
        {
          "indexed": false,
          "internalType": "uint256[]",
          "name": "bAssetQuantities",
          "type": "uint256[]"
        }
      ],
      "name": "MintedMulti",
      "type": "event"
    },
    {
      "anonymous": false,
      "inputs": [
        {
          "indexed": true,
          "internalType": "address",
          "name": "payer",
          "type": "address"
        },
        {
          "indexed": false,
          "internalType": "address",
          "name": "asset",
          "type": "address"
        },
        {
          "indexed": false,
          "internalType": "uint256",
          "name": "feeQuantity",
          "type": "uint256"
        }
      ],
      "name": "PaidFee",
      "type": "event"
    },
    {
      "anonymous": false,
      "inputs": [
        {
          "indexed": true,
          "internalType": "address",
          "name": "redeemer",
          "type": "address"
        },
        {
          "indexed": false,
          "internalType": "address",
          "name": "recipient",
          "type": "address"
        },
        {
          "indexed": false,
          "internalType": "uint256",
          "name": "mAssetQuantity",
          "type": "uint256"
        },
        {
          "indexed": false,
          "internalType": "address[]",
          "name": "bAssets",
          "type": "address[]"
        },
        {
          "indexed": false,
          "internalType": "uint256[]",
          "name": "bAssetQuantities",
          "type": "uint256[]"
        }
      ],
      "name": "Redeemed",
      "type": "event"
    },
    {
      "anonymous": false,
      "inputs": [
        {
          "indexed": true,
          "internalType": "address",
          "name": "redeemer",
          "type": "address"
        },
        {
          "indexed": false,
          "internalType": "address",
          "name": "recipient",
          "type": "address"
        },
        {
          "indexed": false,
          "internalType": "uint256",
          "name": "mAssetQuantity",
          "type": "uint256"
        }
      ],
      "name": "RedeemedMasset",
      "type": "event"
    },
    {
      "anonymous": false,
      "inputs": [
        {
          "indexed": true,
          "internalType": "address",
          "name": "from",
          "type": "address"
        },
        {
          "indexed": true,
          "internalType": "address",
          "name": "to",
          "type": "address"
        },
        {
          "indexed": false,
          "internalType": "uint256",
          "name": "value",
          "type": "uint256"
        }
      ],
      "name": "Transfer",
      "type": "event"
    },
    {
      "inputs": [
        {
          "internalType": "address",
          "name": "owner",
          "type": "address"
        },
        {
          "internalType": "address",
          "name": "spender",
          "type": "address"
        }
      ],
      "name": "allowance",
      "outputs": [
        {
          "internalType": "uint256",
          "name": "",
          "type": "uint256"
        }
      ],
      "stateMutability": "view",
      "type": "function"
    },
    {
      "inputs": [
        {
          "internalType": "address",
          "name": "spender",
          "type": "address"
        },
        {
          "internalType": "uint256",
          "name": "amount",
          "type": "uint256"
        }
      ],
      "name": "approve",
      "outputs": [
        {
          "internalType": "bool",
          "name": "",
          "type": "bool"
        }
      ],
      "stateMutability": "nonpayable",
      "type": "function"
    },
    {
      "inputs": [
        {
          "internalType": "address",
          "name": "account",
          "type": "address"
        }
      ],
      "name": "balanceOf",
      "outputs": [
        {
          "internalType": "uint256",
          "name": "",
          "type": "uint256"
        }
      ],
      "stateMutability": "view",
      "type": "function"
    },
    {
      "inputs": [],
      "name": "decimals",
      "outputs": [
        {
          "internalType": "uint8",
          "name": "",
          "type": "uint8"
        }
      ],
      "stateMutability": "view",
      "type": "function"
    },
    {
      "inputs": [
        {
          "internalType": "address",
          "name": "spender",
          "type": "address"
        },
        {
          "internalType": "uint256",
          "name": "subtractedValue",
          "type": "uint256"
        }
      ],
      "name": "decreaseAllowance",
      "outputs": [
        {
          "internalType": "bool",
          "name": "",
          "type": "bool"
        }
      ],
      "stateMutability": "nonpayable",
      "type": "function"
    },
    {
      "inputs": [
        {
          "internalType": "address",
          "name": "spender",
          "type": "address"
        },
        {
          "internalType": "uint256",
          "name": "addedValue",
          "type": "uint256"
        }
      ],
      "name": "increaseAllowance",
      "outputs": [
        {
          "internalType": "bool",
          "name": "",
          "type": "bool"
        }
      ],
      "stateMutability": "nonpayable",
      "type": "function"
    },
    {
      "inputs": [],
      "name": "name",
      "outputs": [
        {
          "internalType": "string",
          "name": "",
          "type": "string"
        }
      ],
      "stateMutability": "view",
      "type": "function"
    },
    {
      "inputs": [],
      "name": "symbol",
      "outputs": [
        {
          "internalType": "string",
          "name": "",
          "type": "string"
        }
      ],
      "stateMutability": "view",
      "type": "function"
    },
    {
      "inputs": [],
      "name": "totalSupply",
      "outputs": [
        {
          "internalType": "uint256",
          "name": "",
          "type": "uint256"
        }
      ],
      "stateMutability": "view",
      "type": "function"
    },
    {
      "inputs": [
        {
          "internalType": "address",
          "name": "recipient",
          "type": "address"
        },
        {
          "internalType": "uint256",
          "name": "amount",
          "type": "uint256"
        }
      ],
      "name": "transfer",
      "outputs": [
        {
          "internalType": "bool",
          "name": "",
          "type": "bool"
        }
      ],
      "stateMutability": "nonpayable",
      "type": "function"
    },
    {
      "inputs": [
        {
          "internalType": "address",
          "name": "sender",
          "type": "address"
        },
        {
          "internalType": "address",
          "name": "recipient",
          "type": "address"
        },
        {
          "internalType": "uint256",
          "name": "amount",
          "type": "uint256"
        }
      ],
      "name": "transferFrom",
      "outputs": [
        {
          "internalType": "bool",
          "name": "",
          "type": "bool"
        }
      ],
      "stateMutability": "nonpayable",
      "type": "function"
    },
    {
      "inputs": [
        {
          "internalType": "address",
          "name": "_basketManager",
          "type": "address"
        },
        {
          "internalType": "address",
          "name": "_forgeValidator",
          "type": "address"
        }
      ],
      "name": "initialize",
      "outputs": [],
      "stateMutability": "nonpayable",
      "type": "function"
    },
    {
      "inputs": [
        {
          "internalType": "address",
          "name": "_bAsset",
          "type": "address"
        },
        {
          "internalType": "uint256",
          "name": "_bAssetAmount",
          "type": "uint256"
        }
      ],
      "name": "mint",
      "outputs": [
        {
          "internalType": "uint256",
          "name": "massetMinted",
          "type": "uint256"
        }
      ],
      "stateMutability": "nonpayable",
      "type": "function"
    },
    {
      "inputs": [
        {
          "internalType": "address[]",
          "name": "_preToken",
          "type": "address[]"
        },
        {
          "internalType": "uint256[]",
          "name": "_bassetAmount",
          "type": "uint256[]"
        }
      ],
      "name": "mintMulti",
      "outputs": [
        {
          "internalType": "uint256",
          "name": "massetMinted",
          "type": "uint256"
        }
      ],
      "stateMutability": "nonpayable",
      "type": "function"
    },
    {
      "inputs": [
        {
          "internalType": "address[]",
          "name": "_bAssets",
          "type": "address[]"
        },
        {
          "internalType": "uint256[]",
          "name": "_bAssetQuantity",
          "type": "uint256[]"
        },
        {
          "internalType": "address",
          "name": "_recipient",
          "type": "address"
        }
      ],
      "name": "mintMulti",
      "outputs": [
        {
          "internalType": "uint256",
          "name": "massetMinted",
          "type": "uint256"
        }
      ],
      "stateMutability": "nonpayable",
      "type": "function"
    },
    {
      "inputs": [
        {
          "internalType": "address",
          "name": "_bAsset",
          "type": "address"
        },
        {
          "internalType": "uint256",
          "name": "_bAssetQuantity",
          "type": "uint256"
        }
      ],
      "name": "redeem",
      "outputs": [
        {
          "internalType": "uint256",
          "name": "massetRedeemed",
          "type": "uint256"
        }
      ],
      "stateMutability": "nonpayable",
      "type": "function"
    },
    {
      "inputs": [
        {
          "internalType": "address[]",
          "name": "_bAssets",
          "type": "address[]"
        },
        {
          "internalType": "uint256[]",
          "name": "_bAssetQuantities",
          "type": "uint256[]"
        },
        {
          "internalType": "address",
          "name": "_recipient",
          "type": "address"
        }
      ],
      "name": "redeemMulti",
      "outputs": [
        {
          "internalType": "uint256",
          "name": "massetRedeemed",
          "type": "uint256"
        }
      ],
      "stateMutability": "nonpayable",
      "type": "function"
    },
    {
      "inputs": [
        {
          "internalType": "uint256",
          "name": "_mAssetQuantity",
          "type": "uint256"
        },
        {
          "internalType": "address",
          "name": "_recipient",
          "type": "address"
        }
      ],
      "name": "redeemMasset",
      "outputs": [],
      "stateMutability": "nonpayable",
      "type": "function"
    }
  ],
  "bytecode": "0x60806040523480156200001157600080fd5b5060405162001ff938038062001ff9833981810160405281019062000037919062000193565b818181600390805190602001906200005192919062000091565b5080600490805190602001906200006a92919062000091565b506012600560006101000a81548160ff021916908360ff1602179055505050505062000297565b828054600181600116156101000203166002900490600052602060002090601f016020900481019282601f10620000d457805160ff191683800117855562000105565b8280016001018555821562000105579182015b8281111562000104578251825591602001919060010190620000e7565b5b50905062000114919062000118565b5090565b5b808211156200013357600081600090555060010162000119565b5090565b600082601f8301126200014957600080fd5b8151620001606200015a8262000234565b62000206565b915080825260208301602083018583830111156200017d57600080fd5b6200018a83828462000261565b50505092915050565b60008060408385031215620001a757600080fd5b600083015167ffffffffffffffff811115620001c257600080fd5b620001d08582860162000137565b925050602083015167ffffffffffffffff811115620001ee57600080fd5b620001fc8582860162000137565b9150509250929050565b6000604051905081810181811067ffffffffffffffff821117156200022a57600080fd5b8060405250919050565b600067ffffffffffffffff8211156200024c57600080fd5b601f19601f8301169050602081019050919050565b60005b838110156200028157808201518184015260208101905062000264565b8381111562000291576000848401525b50505050565b611d5280620002a76000396000f3fe608060405234801561001057600080fd5b50600436106101165760003560e01c8063485cc955116100a2578063a457c2d711610071578063a457c2d71461032f578063a9059cbb1461035f578063aa3053b01461038f578063abe743ff146103bf578063dd62ed3e146103db57610116565b8063485cc9551461029557806370a08231146102b157806384f9378a146102e157806395d89b411461031157610116565b806323b872dd116100e957806323b872dd146101b7578063313ce567146101e7578063395093511461020557806340c10f191461023557806346e4959d1461026557610116565b806306fdde031461011b578063095ea7b31461013957806318160ddd146101695780631e9a695014610187575b600080fd5b61012361040b565b6040516101309190611a4e565b60405180910390f35b610153600480360381019061014e9190611547565b6104ad565b6040516101609190611a33565b60405180910390f35b6101716104cb565b60405161017e9190611b90565b60405180910390f35b6101a1600480360381019061019c9190611547565b6104d5565b6040516101ae9190611b90565b60405180910390f35b6101d160048036038101906101cc91906114f8565b6104ea565b6040516101de9190611a33565b60405180910390f35b6101ef6105c3565b6040516101fc9190611bab565b60405180910390f35b61021f600480360381019061021a9190611547565b6105da565b60405161022c9190611a33565b60405180910390f35b61024f600480360381019061024a9190611547565b61068d565b60405161025c9190611b90565b60405180910390f35b61027f600480360381019061027a9190611583565b6106a2565b60405161028c9190611b90565b60405180910390f35b6102af60048036038101906102aa91906114bc565b6106b0565b005b6102cb60048036038101906102c69190611493565b6106b4565b6040516102d89190611b90565b60405180910390f35b6102fb60048036038101906102f691906115f8565b6106fc565b6040516103089190611b90565b60405180910390f35b610319610796565b6040516103269190611a4e565b60405180910390f35b61034960048036038101906103449190611547565b610838565b6040516103569190611a33565b60405180910390f35b61037960048036038101906103749190611547565b610905565b6040516103869190611a33565b60405180910390f35b6103a960048036038101906103a491906115f8565b610923565b6040516103b69190611b90565b60405180910390f35b6103d960048036038101906103d49190611681565b6109bd565b005b6103f560048036038101906103f091906114bc565b6109cb565b6040516104029190611b90565b60405180910390f35b606060038054600181600116156101000203166002900480601f0160208091040260200160405190810160405280929190818152602001828054600181600116156101000203166002900480156104a35780601f10610478576101008083540402835291602001916104a3565b820191906000526020600020905b81548152906001019060200180831161048657829003601f168201915b5050505050905090565b60006104c16104ba610a52565b8484610a5a565b6001905092915050565b6000600254905090565b60006104e2838333610c25565b905092915050565b60006104f7848484610d37565b6105b884610503610a52565b6105b385604051806060016040528060288152602001611cd060289139600160008b73ffffffffffffffffffffffffffffffffffffffff1673ffffffffffffffffffffffffffffffffffffffff1681526020019081526020016000206000610569610a52565b73ffffffffffffffffffffffffffffffffffffffff1673ffffffffffffffffffffffffffffffffffffffff16815260200190815260200160002054610fcc9092919063ffffffff16565b610a5a565b600190509392505050565b6000600560009054906101000a900460ff16905090565b60006106836105e7610a52565b8461067e85600160006105f8610a52565b73ffffffffffffffffffffffffffffffffffffffff1673ffffffffffffffffffffffffffffffffffffffff16815260200190815260200160002060008973ffffffffffffffffffffffffffffffffffffffff1673ffffffffffffffffffffffffffffffffffffffff1681526020019081526020016000205461102790919063ffffffff16565b610a5a565b6001905092915050565b600061069a83833361107c565b905092915050565b600060019050949350505050565b5050565b60008060008373ffffffffffffffffffffffffffffffffffffffff1673ffffffffffffffffffffffffffffffffffffffff168152602001908152602001600020549050919050565b600061078b868680806020026020016040519081016040528093929190818152602001838360200280828437600081840152601f19601f82011690508083019250505050505050858580806020026020016040519081016040528093929190818152602001838360200280828437600081840152601f19601f820116905080830192505050505050508461108e565b905095945050505050565b606060048054600181600116156101000203166002900480601f01602080910402602001604051908101604052809291908181526020018280546001816001161561010002031660029004801561082e5780601f106108035761010080835404028352916020019161082e565b820191906000526020600020905b81548152906001019060200180831161081157829003601f168201915b5050505050905090565b60006108fb610845610a52565b846108f685604051806060016040528060258152602001611cf8602591396001600061086f610a52565b73ffffffffffffffffffffffffffffffffffffffff1673ffffffffffffffffffffffffffffffffffffffff16815260200190815260200160002060008a73ffffffffffffffffffffffffffffffffffffffff1673ffffffffffffffffffffffffffffffffffffffff16815260200190815260200160002054610fcc9092919063ffffffff16565b610a5a565b6001905092915050565b6000610919610912610a52565b8484610d37565b6001905092915050565b60006109b2868680806020026020016040519081016040528093929190818152602001838360200280828437600081840152601f19601f82011690508083019250505050505050858580806020026020016040519081016040528093929190818152602001838360200280828437600081840152601f19601f82011690508083019250505050505050846111f5565b905095945050505050565b6109c782826112c9565b5050565b6000600160008473ffffffffffffffffffffffffffffffffffffffff1673ffffffffffffffffffffffffffffffffffffffff16815260200190815260200160002060008373ffffffffffffffffffffffffffffffffffffffff1673ffffffffffffffffffffffffffffffffffffffff16815260200190815260200160002054905092915050565b600033905090565b600073ffffffffffffffffffffffffffffffffffffffff168373ffffffffffffffffffffffffffffffffffffffff161415610aca576040517f08c379a0000000000000000000000000000000000000000000000000000000008152600401610ac190611b30565b60405180910390fd5b600073ffffffffffffffffffffffffffffffffffffffff168273ffffffffffffffffffffffffffffffffffffffff161415610b3a576040517f08c379a0000000000000000000000000000000000000000000000000000000008152600401610b3190611a90565b60405180910390fd5b80600160008573ffffffffffffffffffffffffffffffffffffffff1673ffffffffffffffffffffffffffffffffffffffff16815260200190815260200160002060008473ffffffffffffffffffffffffffffffffffffffff1673ffffffffffffffffffffffffffffffffffffffff168152602001908152602001600020819055508173ffffffffffffffffffffffffffffffffffffffff168373ffffffffffffffffffffffffffffffffffffffff167f8c5be1e5ebec7d5bd14f71427d1e84f3dd0314c0f7b2291e5b200ac8c7c3b92583604051610c189190611b90565b60405180910390a3505050565b60006060600167ffffffffffffffff81118015610c4157600080fd5b50604051908082528060200260200182016040528015610c705781602001602082028036833780820191505090505b5090506060600167ffffffffffffffff81118015610c8d57600080fd5b50604051908082528060200260200182016040528015610cbc5781602001602082028036833780820191505090505b5090508582600081518110610ccd57fe5b602002602001019073ffffffffffffffffffffffffffffffffffffffff16908173ffffffffffffffffffffffffffffffffffffffff16815250508481600081518110610d1557fe5b602002602001018181525050610d2c8282866111f5565b925050509392505050565b600073ffffffffffffffffffffffffffffffffffffffff168373ffffffffffffffffffffffffffffffffffffffff161415610da7576040517f08c379a0000000000000000000000000000000000000000000000000000000008152600401610d9e90611b10565b60405180910390fd5b600073ffffffffffffffffffffffffffffffffffffffff168273ffffffffffffffffffffffffffffffffffffffff161415610e17576040517f08c379a0000000000000000000000000000000000000000000000000000000008152600401610e0e90611a70565b60405180910390fd5b610e228383836113d0565b610e8d81604051806060016040528060268152602001611caa602691396000808773ffffffffffffffffffffffffffffffffffffffff1673ffffffffffffffffffffffffffffffffffffffff16815260200190815260200160002054610fcc9092919063ffffffff16565b6000808573ffffffffffffffffffffffffffffffffffffffff1673ffffffffffffffffffffffffffffffffffffffff16815260200190815260200160002081905550610f20816000808573ffffffffffffffffffffffffffffffffffffffff1673ffffffffffffffffffffffffffffffffffffffff1681526020019081526020016000205461102790919063ffffffff16565b6000808473ffffffffffffffffffffffffffffffffffffffff1673ffffffffffffffffffffffffffffffffffffffff168152602001908152602001600020819055508173ffffffffffffffffffffffffffffffffffffffff168373ffffffffffffffffffffffffffffffffffffffff167fddf252ad1be2c89b69c2b068fc378daa952ba7f163c4a11628f55a4df523b3ef83604051610fbf9190611b90565b60405180910390a3505050565b6000838311158290611014576040517f08c379a000000000000000000000000000000000000000000000000000000000815260040161100b9190611a4e565b60405180910390fd5b5060008385039050809150509392505050565b600080828401905083811015611072576040517f08c379a000000000000000000000000000000000000000000000000000000000815260040161106990611ab0565b60405180910390fd5b8091505092915050565b60008060019050809150509392505050565b60008073ffffffffffffffffffffffffffffffffffffffff168273ffffffffffffffffffffffffffffffffffffffff1614156110ff576040517f08c379a00000000000000000000000000000000000000000000000000000000081526004016110f690611b70565b60405180910390fd5b6000835190506000811180156111155750845181145b611154576040517f08c379a000000000000000000000000000000000000000000000000000000000815260040161114b90611ad0565b60405180910390fd5b60006002905060608267ffffffffffffffff8111801561117357600080fd5b506040519080825280602002602001820160405280156111a25781602001602082028036833780820191505090505b509050600082116111e8576040517f08c379a00000000000000000000000000000000000000000000000000000000081526004016111df90611af0565b60405180910390fd5b8193505050509392505050565b60008073ffffffffffffffffffffffffffffffffffffffff168273ffffffffffffffffffffffffffffffffffffffff161415611266576040517f08c379a000000000000000000000000000000000000000000000000000000000815260040161125d90611b70565b60405180910390fd5b60008351905060008111801561127c5750845181145b6112bb576040517f08c379a00000000000000000000000000000000000000000000000000000000081526004016112b290611ad0565b60405180910390fd5b600081925050509392505050565b600073ffffffffffffffffffffffffffffffffffffffff168173ffffffffffffffffffffffffffffffffffffffff161415611339576040517f08c379a000000000000000000000000000000000000000000000000000000000815260040161133090611b70565b60405180910390fd5b6000821161137c576040517f08c379a000000000000000000000000000000000000000000000000000000000815260040161137390611b50565b60405180910390fd5b3373ffffffffffffffffffffffffffffffffffffffff167f6e8e3f900293b89801cb29bf5dc5c402c685e66d588bed50a3d83ffbf0bb903482846040516113c4929190611a0a565b60405180910390a25050565b505050565b6000813590506113e481611c7b565b92915050565b60008083601f8401126113fc57600080fd5b8235905067ffffffffffffffff81111561141557600080fd5b60208301915083602082028301111561142d57600080fd5b9250929050565b60008083601f84011261144657600080fd5b8235905067ffffffffffffffff81111561145f57600080fd5b60208301915083602082028301111561147757600080fd5b9250929050565b60008135905061148d81611c92565b92915050565b6000602082840312156114a557600080fd5b60006114b3848285016113d5565b91505092915050565b600080604083850312156114cf57600080fd5b60006114dd858286016113d5565b92505060206114ee858286016113d5565b9150509250929050565b60008060006060848603121561150d57600080fd5b600061151b868287016113d5565b935050602061152c868287016113d5565b925050604061153d8682870161147e565b9150509250925092565b6000806040838503121561155a57600080fd5b6000611568858286016113d5565b92505060206115798582860161147e565b9150509250929050565b6000806000806040858703121561159957600080fd5b600085013567ffffffffffffffff8111156115b357600080fd5b6115bf878288016113ea565b9450945050602085013567ffffffffffffffff8111156115de57600080fd5b6115ea87828801611434565b925092505092959194509250565b60008060008060006060868803121561161057600080fd5b600086013567ffffffffffffffff81111561162a57600080fd5b611636888289016113ea565b9550955050602086013567ffffffffffffffff81111561165557600080fd5b61166188828901611434565b93509350506040611674888289016113d5565b9150509295509295909350565b6000806040838503121561169457600080fd5b60006116a28582860161147e565b92505060206116b3858286016113d5565b9150509250929050565b6116c681611be2565b82525050565b6116d581611bf4565b82525050565b60006116e682611bc6565b6116f08185611bd1565b9350611700818560208601611c37565b61170981611c6a565b840191505092915050565b6000611721602383611bd1565b91507f45524332303a207472616e7366657220746f20746865207a65726f206164647260008301527f65737300000000000000000000000000000000000000000000000000000000006020830152604082019050919050565b6000611787602283611bd1565b91507f45524332303a20617070726f766520746f20746865207a65726f20616464726560008301527f73730000000000000000000000000000000000000000000000000000000000006020830152604082019050919050565b60006117ed601b83611bd1565b91507f536166654d6174683a206164646974696f6e206f766572666c6f7700000000006000830152602082019050919050565b600061182d601483611bd1565b91507f496e707574206172726179206d69736d617463680000000000000000000000006000830152602082019050919050565b600061186d601a83611bd1565b91507f4e6f206d6173736574207175616e7469747920746f206d696e740000000000006000830152602082019050919050565b60006118ad602583611bd1565b91507f45524332303a207472616e736665722066726f6d20746865207a65726f20616460008301527f64726573730000000000000000000000000000000000000000000000000000006020830152604082019050919050565b6000611913602483611bd1565b91507f45524332303a20617070726f76652066726f6d20746865207a65726f2061646460008301527f72657373000000000000000000000000000000000000000000000000000000006020830152604082019050919050565b6000611979601b83611bd1565b91507f496e76616c696420726564656d7074696f6e207175616e7469747900000000006000830152602082019050919050565b60006119b9601983611bd1565b91507f4d75737420626520612076616c696420726563697069656e74000000000000006000830152602082019050919050565b6119f581611c20565b82525050565b611a0481611c2a565b82525050565b6000604082019050611a1f60008301856116bd565b611a2c60208301846119ec565b9392505050565b6000602082019050611a4860008301846116cc565b92915050565b60006020820190508181036000830152611a6881846116db565b905092915050565b60006020820190508181036000830152611a8981611714565b9050919050565b60006020820190508181036000830152611aa98161177a565b9050919050565b60006020820190508181036000830152611ac9816117e0565b9050919050565b60006020820190508181036000830152611ae981611820565b9050919050565b60006020820190508181036000830152611b0981611860565b9050919050565b60006020820190508181036000830152611b29816118a0565b9050919050565b60006020820190508181036000830152611b4981611906565b9050919050565b60006020820190508181036000830152611b698161196c565b9050919050565b60006020820190508181036000830152611b89816119ac565b9050919050565b6000602082019050611ba560008301846119ec565b92915050565b6000602082019050611bc060008301846119fb565b92915050565b600081519050919050565b600082825260208201905092915050565b6000611bed82611c00565b9050919050565b60008115159050919050565b600073ffffffffffffffffffffffffffffffffffffffff82169050919050565b6000819050919050565b600060ff82169050919050565b60005b83811015611c55578082015181840152602081019050611c3a565b83811115611c64576000848401525b50505050565b6000601f19601f8301169050919050565b611c8481611be2565b8114611c8f57600080fd5b50565b611c9b81611c20565b8114611ca657600080fd5b5056fe45524332303a207472616e7366657220616d6f756e7420657863656564732062616c616e636545524332303a207472616e7366657220616d6f756e74206578636565647320616c6c6f77616e636545524332303a2064656372656173656420616c6c6f77616e63652062656c6f77207a65726fa264697066735822122043b94837549be6c44f47a4bd4f592f10edcf0eebc528fd5b7e121b383c0add7d64736f6c634300060c0033",
  "immutableReferences": {},
  "source": "// SPDX-License-Identifier: SimPL-2.0\npragma solidity 0.6.12;\npragma experimental ABIEncoderV2;\n\n// External\nimport { ITokenManager } from \"./ITokenManager.sol\";\nimport { IPlatformIntegration } from \"./interfaces/IPlatformIntegration.sol\";\nimport { IForgeValidator } from \"./forge-validator/IForgeValidator.sol\";\n\n// Internal\nimport { TokenStructs } from \"./TokenStructs.sol\";\n\nimport \"@openzeppelin/contracts/token/ERC20/ERC20.sol\";\n\nimport { StableMath } from \"./shared/StableMath.sol\";\nimport { MassetHelpers } from \"./shared/MassetHelpers.sol\";\n\ncontract TokenManager is ITokenManager, ERC20 {\n\n    using StableMath for uint256;\n\n    // \n    event Minted(address indexed minter, address recipient, uint256 mAssetQuantity, address bAsset, uint256 bAssetQuantity);\n    event MintedMulti(address indexed minter, address recipient, uint256 mAssetQuantity, address[] bAssets, uint256[] bAssetQuantities);\n    // \n    event Redeemed(address indexed redeemer, address recipient, uint256 mAssetQuantity, address[] bAssets, uint256[] bAssetQuantities);\n    event RedeemedMasset(address indexed redeemer, address recipient, uint256 mAssetQuantity);\n    // \n    event PaidFee(address indexed payer, address asset, uint256 feeQuantity);\n\n    // \n    constructor(string memory name, string memory symbol) public ERC20(name, symbol) {}\n\n    // \n    function initialize(\n        address _basketManager,\n        address _forgeValidator\n    )\n        external\n    {\n        // basketManager = IBasketManager(_basketManager);\n        // forgeValidator = IForgeValidator(_forgeValidator);\n    }\n\n    function mintMulti(address[] calldata _preToken, uint256[] calldata _bassetAmount) override external returns (uint256 massetMinted) {\n        return 1;\n    }\n\n    /**\n     * 1:1 XSDT\n     * \n     * _bAsset         \n     * _bAssetQuantity \n     * massetMinted    XSDT\n     */\n    function mint(address _bAsset, uint256 _bAssetAmount) external returns (uint256 massetMinted){\n        return _mintTo(_bAsset, _bAssetAmount, msg.sender);\n    }\n\n    // XSDT\n    function _mintTo(address _bAsset, uint256 _bAssetAmount, address _recipient) internal returns (uint256 massetMinted){\n        // // \n        // require(_recipient != address(0), \"Must be a valid recipient\");\n        // // 0\n        // require(_bAssetAmount > 0, \"Quantity must not be 0\");\n\n        // (bool isValid, BassetDetails memory bInfo) = basketManager.prepareForgeBasset(_bAsset, _bAssetAmount, true);\n        // if(!isValid) return 0;\n\n        // Transfer collateral to the platform integration address and call deposit\n        // address integrator = bInfo.integrator;\n        // (uint256 quantityDeposited, uint256 ratioedDeposit) =\n        //     _depositTokens(_bAsset, bInfo.bAsset.ratio, integrator, bInfo.bAsset.isTransferFeeCharged, _bAssetAmount);\n\n        // Validation should be after token transfer, as bAssetQty is unknown before\n        // (bool mintValid, string memory reason) = forgeValidator.validateMint(totalSupply(), bInfo.bAsset, quantityDeposited);\n        // require(mintValid, reason);\n\n        // ,  basket \n        // basketManager.increaseVaultBalance(0, integrator, quantityDeposited);\n\n        // XSDT\n        // _mint(_recipient, ratioedDeposit);\n        // emit Minted(msg.sender, _recipient, ratioedDeposit, _bAsset, quantityDeposited);\n        uint256 ratioedDeposit = 1;\n        return ratioedDeposit;\n    }\n\n    /**\n     * Mint with multiple bAssets, at a 1:1 ratio to mAsset. This contract\n     *      must have approval to spend the senders bAssets\n     * _bAssets          Non-duplicate address array of bAssets with which to mint\n     * _bAssetQuantity   Quantity of each bAsset to mint. Order of array\n     *                          should mirror the above\n     * _recipient        Address to receive the newly minted mAsset tokens\n     * massetMinted     Number of newly minted mAssets\n     */\n    function mintMulti(\n        address[] calldata _bAssets,\n        uint256[] calldata _bAssetQuantity,\n        address _recipient\n    )   \n        external\n        returns(uint256 massetMinted)\n    {\n        return _mintTo(_bAssets, _bAssetQuantity, _recipient);\n    }\n\n    // \n    function _mintTo(\n        address[] memory _bAssets,\n        uint256[] memory _bAssetQuantities,\n        address _recipient\n    )\n        internal\n        returns (uint256 massetMinted)\n    {\n        require(_recipient != address(0), \"Must be a valid recipient\");\n        uint256 len = _bAssetQuantities.length;\n        require(len > 0 && len == _bAssets.length, \"Input array mismatch\");\n\n        // Load only needed bAssets in array\n        // ForgePropsMulti memory props\n        //     = basketManager.prepareForgeBassets(_bAssets, _bAssetQuantities, true);\n        // if(!props.isValid) return 0;\n\n        uint256 mAssetQuantity = 2;\n        uint256[] memory receivedQty = new uint256[](len);\n\n        // Transfer the Bassets to the integrator, update storage and calc MassetQ\n        // for(uint256 i = 0; i < len; i++){\n        //     uint256 bAssetQuantity = _bAssetQuantities[i];\n        //     if(bAssetQuantity > 0){\n        //         // bAsset == bAssets[i] == basket.bassets[indexes[i]]\n        //         Basset memory bAsset = props.bAssets[i];\n\n        //         (uint256 quantityDeposited, uint256 ratioedDeposit) =\n        //             _depositTokens(bAsset.addr, bAsset.ratio, props.integrators[i], bAsset.isTransferFeeCharged, bAssetQuantity);\n\n        //         receivedQty[i] = quantityDeposited;\n        //         mAssetQuantity = mAssetQuantity.add(ratioedDeposit);\n        //     }\n        // }\n        require(mAssetQuantity > 0, \"No masset quantity to mint\");\n\n        // basketManager.increaseVaultBalances(props.indexes, props.integrators, receivedQty);\n\n        // Validate the proposed mint, after token transfer\n        // (bool mintValid, string memory reason) = \n        //             forgeValidator.validateMintMulti(totalSupply(), props.bAssets, receivedQty);\n        // require(mintValid, reason);\n\n        // Mint the Masset\n        // _mint(_recipient, mAssetQuantity);\n        // emit MintedMulti(msg.sender, _recipient, mAssetQuantity, _bAssets, _bAssetQuantities);\n\n        return mAssetQuantity;\n    }\n\n    // Deposits tokens into the platform integration and returns the ratioed amount\n    function _depositTokens(\n        address _bAsset,\n        uint256 _bAssetRatio,\n        address _integrator,\n        bool _erc20TransferFeeCharged,\n        uint256 _quantity\n    )\n        internal\n        returns (uint256 quantityDeposited, uint256 ratioedDeposit)\n    {\n        quantityDeposited = _depositTokens(_bAsset, _integrator, _erc20TransferFeeCharged, _quantity);\n        ratioedDeposit = quantityDeposited.mulRatioTruncate(_bAssetRatio);\n    }\n\n    // Deposits tokens into the platform integration and returns the deposited amount\n    function _depositTokens(\n        address _bAsset,\n        address _integrator,\n        bool _erc20TransferFeeCharged,\n        uint256 _quantity\n    )\n        internal\n        returns (uint256 quantityDeposited)\n    {\n        uint256 quantityTransferred = MassetHelpers.transferTokens(msg.sender, _integrator, _bAsset, _erc20TransferFeeCharged, _quantity);\n        uint256 deposited = IPlatformIntegration(_integrator).deposit(_bAsset, quantityTransferred, _erc20TransferFeeCharged);\n        quantityDeposited = StableMath.min(deposited, _quantity);\n    }\n\n    /**\n     * Credits the sender with a certain quantity of selected bAsset, in exchange for burning the\n     *      relative mAsset quantity from the sender. Sender also incurs a small mAsset fee, if any.\n     * _bAsset           Address of the bAsset to redeem\n     * _bAssetQuantity   Units of the bAsset to redeem\n     * massetMinted     Relative number of mAsset units burned to pay for the bAssets\n     */\n    function redeem(\n        address _bAsset,\n        uint256 _bAssetQuantity\n    )\n        override\n        external\n        returns (uint256 massetRedeemed)\n    {\n        return _redeemTo(_bAsset, _bAssetQuantity, msg.sender);\n    }\n\n    function redeemMulti(\n        address[] calldata _bAssets,\n        uint256[] calldata _bAssetQuantities,\n        address _recipient\n    )\n        external\n        returns (uint256 massetRedeemed)\n    {\n        return _redeemTo(_bAssets, _bAssetQuantities, _recipient);\n    }\n\n    /**\n     * Credits a recipient with a proportionate amount of bAssets, relative to current vault\n     * balance levels and desired mAsset quantity. Burns the mAsset as payment.\n     * _mAssetQuantity   Quantity of mAsset to redeem\n     * _recipient        Address to credit the withdrawn bAssets\n     */\n    function redeemMasset(\n        uint256 _mAssetQuantity,\n        address _recipient\n    )\n        external\n    {\n        _redeemMasset(_mAssetQuantity, _recipient);\n    }\n\n    /** @dev Casting to arrays for use in redeemMulti func */\n    function _redeemTo(\n        address _bAsset,\n        uint256 _bAssetQuantity,\n        address _recipient\n    )\n        internal\n        returns (uint256 massetRedeemed)\n    {\n        address[] memory bAssets = new address[](1);\n        uint256[] memory quantities = new uint256[](1);\n        bAssets[0] = _bAsset;\n        quantities[0] = _bAssetQuantity;\n        return _redeemTo(bAssets, quantities, _recipient);\n    }\n\n    // Redeem mAsset for one or more bAssets\n    function _redeemTo(\n        address[] memory _bAssets,\n        uint256[] memory _bAssetQuantities,\n        address _recipient\n    )\n        internal\n        returns (uint256 massetRedeemed)\n    {\n        require(_recipient != address(0), \"Must be a valid recipient\");\n        uint256 bAssetCount = _bAssetQuantities.length;\n        require(bAssetCount > 0 && bAssetCount == _bAssets.length, \"Input array mismatch\");\n\n        // basket\n        // Basket memory basket = basketManager.getBasket();\n\n        // \n        // ForgePropsMulti memory props = basketManager.prepareForgeBassets(_bAssets, _bAssetQuantities, false);\n        // if(!props.isValid) return 0;\n\n        // Validate redemption\n        // (bool redemptionValid, string memory reason, bool applyFee) =\n        //     forgeValidator.validateRedemption(basket.failed, totalSupply(), basket.bassets, props.indexes, _bAssetQuantities);\n        // require(redemptionValid, reason);\n\n        // Calc total redeemed mAsset quantity\n        // XSDT\n        // for(uint256 i = 0; i < bAssetCount; i++){\n        //     uint256 bAssetQuantity = _bAssetQuantities[i];\n        //     if(bAssetQuantity > 0){\n        //         // Calc equivalent mAsset amount\n        //         uint256 ratioedBasset = bAssetQuantity.mulRatioTruncateCeil(props.bAssets[i].ratio);\n        //         bAssetCount = bAssetCount.add(ratioedBasset);\n        //     }\n        // }\n        // require(bAssetCount > 0, \"Must redeem some bAssets\");\n\n        // Redemption has fee? Fetch the rate\n        // uint256 fee = applyFee ? swapFee : 0;\n        // \n        uint256 fee = 0;\n\n        // Apply fees, burn mAsset and return bAsset to recipient\n        // _settleRedemption(_recipient, bAssetCount, props.bAssets, _bAssetQuantities, props.indexes, props.integrators, fee);\n\n        // emit Redeemed(msg.sender, _recipient, bAssetCount, _bAssets, _bAssetQuantities);\n\n        return bAssetCount;\n    }\n\n    // XSDT\n    function _redeemMasset(\n        uint256 _mAssetQuantity,\n        address _recipient\n    )\n        internal\n    {\n        require(_recipient != address(0), \"Must be a valid recipient\");\n        require(_mAssetQuantity > 0, \"Invalid redemption quantity\");\n\n        // Fetch high level details\n        // RedeemPropsMulti memory props = basketManager.prepareRedeemMulti();\n        // uint256 colRatio = StableMath.min(props.colRatio, StableMath.getFullScale());\n\n        // Ensure payout is related to the collateralised mAsset quantity\n        // uint256 collateralisedMassetQuantity = _mAssetQuantity.mulTruncate(colRatio);\n\n        // // Calculate redemption quantities\n        // (bool redemptionValid, string memory reason, uint256[] memory bAssetQuantities) =\n        //     forgeValidator.calculateRedemptionMulti(collateralisedMassetQuantity, props.bAssets);\n        // require(redemptionValid, reason);\n\n        // // 0\n        // uint256 redemptionFee = 0;\n\n        // // Apply fees, burn mAsset and return bAsset to recipient\n        // _settleRedemption(_recipient, _mAssetQuantity, props.bAssets, bAssetQuantities, props.indexes, props.integrators, redemptionFee);\n\n        emit RedeemedMasset(msg.sender, _recipient, _mAssetQuantity);\n    }\n\n    /**\n     * Internal func to update contract state post-redemption\n     * @param _recipient        Recipient of the bAssets\n     * @param _mAssetQuantity   Total amount of mAsset to burn from sender\n     * @param _bAssets          Array of bAssets to redeem\n     * @param _bAssetQuantities Array of bAsset quantities\n     * @param _indices          Matching indices for the bAsset array\n     * @param _integrators      Matching integrators for the bAsset array\n     * @param _feeRate          Fee rate to be applied to this redemption\n     */\n    function _settleRedemption(\n        address _recipient,\n        uint256 _mAssetQuantity,\n        Basset[] memory _bAssets,\n        uint256[] memory _bAssetQuantities,\n        uint8[] memory _indices,\n        address[] memory _integrators,\n        uint256 _feeRate\n    ) \n        internal \n    {\n        // Burn the full amount of Masset\n        _burn(msg.sender, _mAssetQuantity);\n\n        // Reduce the amount of bAssets marked in the vault\n        // basketManager.decreaseVaultBalances(_indices, _integrators, _bAssetQuantities);\n\n        // Transfer the Bassets to the recipient\n        // uint256 bAssetCount = _bAssets.length;\n        // for(uint256 i = 0; i < bAssetCount; i++){\n        //     address bAsset = _bAssets[i].addr;\n        //     uint256 q = _bAssetQuantities[i];\n        //     if(q > 0){\n        //         // Deduct the redemption fee, if any\n        //         q = _deductSwapFee(bAsset, q, _feeRate);\n        //         // Transfer the Bassets to the user\n        //         IPlatformIntegration(_integrators[i]).withdraw(_recipient, bAsset, q, _bAssets[i].isTransferFeeCharged);\n        //     }\n        // }\n    }\n\n    /**\n     * Pay the forging fee by burning relative amount of mAsset\n     * @param _bAssetQuantity     Exact amount of bAsset being swapped out\n     */\n    function _deductSwapFee(address _asset, uint256 _bAssetQuantity, uint256 _feeRate)\n        private\n        returns (uint256 outputMinusFee)\n    {\n        outputMinusFee = _bAssetQuantity;\n        if(_feeRate > 0){\n            (uint256 fee, uint256 output) = _calcSwapFee(_bAssetQuantity, _feeRate);\n            outputMinusFee = output;\n            emit PaidFee(msg.sender, _asset, fee);\n        }\n    }\n\n    /**\n     * Pay the forging fee by burning relative amount of mAsset\n     * @param _bAssetQuantity     Exact amount of bAsset being swapped out\n     */\n    function _calcSwapFee(uint256 _bAssetQuantity, uint256 _feeRate)\n        private\n        pure\n        returns (uint256 feeAmount, uint256 outputMinusFee)\n    {\n        // e.g. for 500 massets.\n        // feeRate == 1% == 1e16. _quantity == 5e20.\n        // (5e20 * 1e16) / 1e18 = 5e18\n        feeAmount = _bAssetQuantity.mulTruncate(_feeRate);\n        outputMinusFee = _bAssetQuantity.sub(feeAmount);\n    }\n\n}",
  "sourcePath": "/Users/zhangxuesong/mysoft/defi/XStableDollar-contracts/stabledollar/contracts/TokenManager.sol",
  "compiler": {
    "name": "solc",
    "version": "0.6.12+commit.27d51765.Emscripten.clang"
  },
  "schemaVersion": "3.3.2",
  "updatedAt": "2020-11-14T07:15:27.479Z",
  "devdoc": {
    "kind": "dev",
    "methods": {
      "allowance(address,address)": {
        "details": "See {IERC20-allowance}."
      },
      "approve(address,uint256)": {
        "details": "See {IERC20-approve}. Requirements: - `spender` cannot be the zero address."
      },
      "balanceOf(address)": {
        "details": "See {IERC20-balanceOf}."
      },
      "decimals()": {
        "details": "Returns the number of decimals used to get its user representation. For example, if `decimals` equals `2`, a balance of `505` tokens should be displayed to a user as `5,05` (`505 / 10 ** 2`). Tokens usually opt for a value of 18, imitating the relationship between Ether and Wei. This is the value {ERC20} uses, unless {_setupDecimals} is called. NOTE: This information is only used for _display_ purposes: it in no way affects any of the arithmetic of the contract, including {IERC20-balanceOf} and {IERC20-transfer}."
      },
      "decreaseAllowance(address,uint256)": {
        "details": "Atomically decreases the allowance granted to `spender` by the caller. This is an alternative to {approve} that can be used as a mitigation for problems described in {IERC20-approve}. Emits an {Approval} event indicating the updated allowance. Requirements: - `spender` cannot be the zero address. - `spender` must have allowance for the caller of at least `subtractedValue`."
      },
      "increaseAllowance(address,uint256)": {
        "details": "Atomically increases the allowance granted to `spender` by the caller. This is an alternative to {approve} that can be used as a mitigation for problems described in {IERC20-approve}. Emits an {Approval} event indicating the updated allowance. Requirements: - `spender` cannot be the zero address."
      },
      "name()": {
        "details": "Returns the name of the token."
      },
      "symbol()": {
        "details": "Returns the symbol of the token, usually a shorter version of the name."
      },
      "totalSupply()": {
        "details": "See {IERC20-totalSupply}."
      },
      "transfer(address,uint256)": {
        "details": "See {IERC20-transfer}. Requirements: - `recipient` cannot be the zero address. - the caller must have a balance of at least `amount`."
      },
      "transferFrom(address,address,uint256)": {
        "details": "See {IERC20-transferFrom}. Emits an {Approval} event indicating the updated allowance. This is not required by the EIP. See the note at the beginning of {ERC20}; Requirements: - `sender` and `recipient` cannot be the zero address. - `sender` must have a balance of at least `amount`. - the caller must have allowance for ``sender``'s tokens of at least `amount`."
      }
    },
    "version": 1
  },
  "userdoc": {
    "kind": "user",
    "methods": {
      "mint(address,uint256)": {
        "notice": "1:1 XSDT  _bAsset          _bAssetQuantity  massetMinted    XSDT"
      },
      "mintMulti(address[],uint256[],address)": {
        "notice": "Mint with multiple bAssets, at a 1:1 ratio to mAsset. This contract      must have approval to spend the senders bAssets _bAssets          Non-duplicate address array of bAssets with which to mint _bAssetQuantity   Quantity of each bAsset to mint. Order of array                          should mirror the above _recipient        Address to receive the newly minted mAsset tokens massetMinted     Number of newly minted mAssets"
      },
      "redeem(address,uint256)": {
        "notice": "Credits the sender with a certain quantity of selected bAsset, in exchange for burning the      relative mAsset quantity from the sender. Sender also incurs a small mAsset fee, if any. _bAsset           Address of the bAsset to redeem _bAssetQuantity   Units of the bAsset to redeem massetMinted     Relative number of mAsset units burned to pay for the bAssets"
      },
      "redeemMasset(uint256,address)": {
        "notice": "Credits a recipient with a proportionate amount of bAssets, relative to current vault balance levels and desired mAsset quantity. Burns the mAsset as payment. _mAssetQuantity   Quantity of mAsset to redeem _recipient        Address to credit the withdrawn bAssets"
      }
    },
    "version": 1
  }
}