{
  "contractName": "XSGTReward",
  "abi": [
    {
      "inputs": [
        {
          "internalType": "contract IERC20",
          "name": "_xsdt",
          "type": "address"
        },
        {
          "internalType": "contract XStableGovernanceToken",
          "name": "_xsgt",
          "type": "address"
        },
        {
          "internalType": "address",
          "name": "_devaddr",
          "type": "address"
        },
        {
          "internalType": "uint256",
          "name": "_xsgtPerBlock",
          "type": "uint256"
        },
        {
          "internalType": "uint256",
          "name": "_startBlock",
          "type": "uint256"
        },
        {
          "internalType": "uint256",
          "name": "_bonusEndBlock",
          "type": "uint256"
        }
      ],
      "stateMutability": "nonpayable",
      "type": "constructor"
    },
    {
      "anonymous": false,
      "inputs": [
        {
          "indexed": true,
          "internalType": "address",
          "name": "user",
          "type": "address"
        },
        {
          "indexed": true,
          "internalType": "uint256",
          "name": "pid",
          "type": "uint256"
        },
        {
          "indexed": false,
          "internalType": "uint256",
          "name": "amount",
          "type": "uint256"
        }
      ],
      "name": "Deposit",
      "type": "event"
    },
    {
      "anonymous": false,
      "inputs": [
        {
          "indexed": true,
          "internalType": "address",
          "name": "user",
          "type": "address"
        },
        {
          "indexed": true,
          "internalType": "uint256",
          "name": "pid",
          "type": "uint256"
        },
        {
          "indexed": false,
          "internalType": "uint256",
          "name": "amount",
          "type": "uint256"
        }
      ],
      "name": "EmergencyWithdraw",
      "type": "event"
    },
    {
      "anonymous": false,
      "inputs": [
        {
          "indexed": true,
          "internalType": "address",
          "name": "previousOwner",
          "type": "address"
        },
        {
          "indexed": true,
          "internalType": "address",
          "name": "newOwner",
          "type": "address"
        }
      ],
      "name": "OwnershipTransferred",
      "type": "event"
    },
    {
      "anonymous": false,
      "inputs": [
        {
          "indexed": true,
          "internalType": "address",
          "name": "user",
          "type": "address"
        },
        {
          "indexed": true,
          "internalType": "uint256",
          "name": "pid",
          "type": "uint256"
        },
        {
          "indexed": false,
          "internalType": "uint256",
          "name": "amount",
          "type": "uint256"
        }
      ],
      "name": "Withdraw",
      "type": "event"
    },
    {
      "inputs": [],
      "name": "BONUS_MULTIPLIER",
      "outputs": [
        {
          "internalType": "uint256",
          "name": "",
          "type": "uint256"
        }
      ],
      "stateMutability": "view",
      "type": "function"
    },
    {
      "inputs": [],
      "name": "bonusEndBlock",
      "outputs": [
        {
          "internalType": "uint256",
          "name": "",
          "type": "uint256"
        }
      ],
      "stateMutability": "view",
      "type": "function"
    },
    {
      "inputs": [],
      "name": "devaddr",
      "outputs": [
        {
          "internalType": "address",
          "name": "",
          "type": "address"
        }
      ],
      "stateMutability": "view",
      "type": "function"
    },
    {
      "inputs": [],
      "name": "owner",
      "outputs": [
        {
          "internalType": "address",
          "name": "",
          "type": "address"
        }
      ],
      "stateMutability": "view",
      "type": "function"
    },
    {
      "inputs": [
        {
          "internalType": "uint256",
          "name": "",
          "type": "uint256"
        }
      ],
      "name": "poolInfo",
      "outputs": [
        {
          "internalType": "contract IERC20",
          "name": "lpToken",
          "type": "address"
        },
        {
          "internalType": "uint256",
          "name": "lpTokenAmount",
          "type": "uint256"
        },
        {
          "internalType": "uint256",
          "name": "allocPoint",
          "type": "uint256"
        },
        {
          "internalType": "uint256",
          "name": "lastRewardBlock",
          "type": "uint256"
        },
        {
          "internalType": "uint256",
          "name": "accXSGTPerShare",
          "type": "uint256"
        }
      ],
      "stateMutability": "view",
      "type": "function"
    },
    {
      "inputs": [],
      "name": "renounceOwnership",
      "outputs": [],
      "stateMutability": "nonpayable",
      "type": "function"
    },
    {
      "inputs": [],
      "name": "startBlock",
      "outputs": [
        {
          "internalType": "uint256",
          "name": "",
          "type": "uint256"
        }
      ],
      "stateMutability": "view",
      "type": "function"
    },
    {
      "inputs": [],
      "name": "totalAllocPoint",
      "outputs": [
        {
          "internalType": "uint256",
          "name": "",
          "type": "uint256"
        }
      ],
      "stateMutability": "view",
      "type": "function"
    },
    {
      "inputs": [
        {
          "internalType": "address",
          "name": "newOwner",
          "type": "address"
        }
      ],
      "name": "transferOwnership",
      "outputs": [],
      "stateMutability": "nonpayable",
      "type": "function"
    },
    {
      "inputs": [
        {
          "internalType": "uint256",
          "name": "",
          "type": "uint256"
        },
        {
          "internalType": "address",
          "name": "",
          "type": "address"
        }
      ],
      "name": "userInfo",
      "outputs": [
        {
          "internalType": "uint256",
          "name": "amount",
          "type": "uint256"
        },
        {
          "internalType": "uint256",
          "name": "rewardDebt",
          "type": "uint256"
        }
      ],
      "stateMutability": "view",
      "type": "function"
    },
    {
      "inputs": [],
      "name": "xsdt",
      "outputs": [
        {
          "internalType": "contract IERC20",
          "name": "",
          "type": "address"
        }
      ],
      "stateMutability": "view",
      "type": "function"
    },
    {
      "inputs": [],
      "name": "xsgt",
      "outputs": [
        {
          "internalType": "contract XStableGovernanceToken",
          "name": "",
          "type": "address"
        }
      ],
      "stateMutability": "view",
      "type": "function"
    },
    {
      "inputs": [],
      "name": "xsgtPerBlock",
      "outputs": [
        {
          "internalType": "uint256",
          "name": "",
          "type": "uint256"
        }
      ],
      "stateMutability": "view",
      "type": "function"
    },
    {
      "inputs": [
        {
          "internalType": "contract IERC20",
          "name": "_xsdt",
          "type": "address"
        }
      ],
      "name": "setXSDTAddress",
      "outputs": [],
      "stateMutability": "nonpayable",
      "type": "function"
    },
    {
      "inputs": [
        {
          "internalType": "contract XStableGovernanceToken",
          "name": "_xsgt",
          "type": "address"
        }
      ],
      "name": "setXSGTAddress",
      "outputs": [],
      "stateMutability": "nonpayable",
      "type": "function"
    },
    {
      "inputs": [
        {
          "internalType": "uint256",
          "name": "_xsgtPerBlock",
          "type": "uint256"
        }
      ],
      "name": "setBonusPerBlock",
      "outputs": [],
      "stateMutability": "nonpayable",
      "type": "function"
    },
    {
      "inputs": [
        {
          "internalType": "uint256",
          "name": "_startBlock",
          "type": "uint256"
        }
      ],
      "name": "setBonusStartBlock",
      "outputs": [],
      "stateMutability": "nonpayable",
      "type": "function"
    },
    {
      "inputs": [
        {
          "internalType": "uint256",
          "name": "_bonusEndBlock",
          "type": "uint256"
        }
      ],
      "name": "setBonusEndBlock",
      "outputs": [],
      "stateMutability": "nonpayable",
      "type": "function"
    },
    {
      "inputs": [
        {
          "internalType": "address",
          "name": "_devaddr",
          "type": "address"
        }
      ],
      "name": "setDevAddr",
      "outputs": [],
      "stateMutability": "nonpayable",
      "type": "function"
    },
    {
      "inputs": [],
      "name": "poolLength",
      "outputs": [
        {
          "internalType": "uint256",
          "name": "",
          "type": "uint256"
        }
      ],
      "stateMutability": "view",
      "type": "function"
    },
    {
      "inputs": [
        {
          "internalType": "uint256",
          "name": "_allocPoint",
          "type": "uint256"
        },
        {
          "internalType": "contract IERC20",
          "name": "_lpToken",
          "type": "address"
        },
        {
          "internalType": "bool",
          "name": "_withUpdate",
          "type": "bool"
        }
      ],
      "name": "add",
      "outputs": [],
      "stateMutability": "nonpayable",
      "type": "function"
    },
    {
      "inputs": [
        {
          "internalType": "uint256",
          "name": "_pid",
          "type": "uint256"
        },
        {
          "internalType": "uint256",
          "name": "_allocPoint",
          "type": "uint256"
        },
        {
          "internalType": "bool",
          "name": "_withUpdate",
          "type": "bool"
        }
      ],
      "name": "set",
      "outputs": [],
      "stateMutability": "nonpayable",
      "type": "function"
    },
    {
      "inputs": [
        {
          "internalType": "uint256",
          "name": "_from",
          "type": "uint256"
        },
        {
          "internalType": "uint256",
          "name": "_to",
          "type": "uint256"
        }
      ],
      "name": "getMultiplier",
      "outputs": [
        {
          "internalType": "uint256",
          "name": "",
          "type": "uint256"
        }
      ],
      "stateMutability": "view",
      "type": "function"
    },
    {
      "inputs": [
        {
          "internalType": "address",
          "name": "_user",
          "type": "address"
        }
      ],
      "name": "pendingReward",
      "outputs": [
        {
          "internalType": "uint256",
          "name": "",
          "type": "uint256"
        }
      ],
      "stateMutability": "view",
      "type": "function"
    },
    {
      "inputs": [],
      "name": "massUpdatePools",
      "outputs": [],
      "stateMutability": "nonpayable",
      "type": "function"
    },
    {
      "inputs": [
        {
          "internalType": "uint256",
          "name": "_pid",
          "type": "uint256"
        }
      ],
      "name": "updatePool",
      "outputs": [],
      "stateMutability": "nonpayable",
      "type": "function"
    },
    {
      "inputs": [
        {
          "internalType": "address",
          "name": "_account",
          "type": "address"
        },
        {
          "internalType": "uint256",
          "name": "_amount",
          "type": "uint256"
        }
      ],
      "name": "deposit",
      "outputs": [],
      "stateMutability": "nonpayable",
      "type": "function"
    },
    {
      "inputs": [],
      "name": "withdraw",
      "outputs": [],
      "stateMutability": "nonpayable",
      "type": "function"
    },
    {
      "inputs": [
        {
          "internalType": "address",
          "name": "_account",
          "type": "address"
        },
        {
          "internalType": "uint256",
          "name": "_amount",
          "type": "uint256"
        }
      ],
      "name": "burn",
      "outputs": [],
      "stateMutability": "nonpayable",
      "type": "function"
    },
    {
      "inputs": [
        {
          "internalType": "uint256",
          "name": "_pid",
          "type": "uint256"
        }
      ],
      "name": "emergencyWithdraw",
      "outputs": [],
      "stateMutability": "nonpayable",
      "type": "function"
    },
    {
      "inputs": [
        {
          "internalType": "address",
          "name": "_devaddr",
          "type": "address"
        }
      ],
      "name": "dev",
      "outputs": [],
      "stateMutability": "nonpayable",
      "type": "function"
    }
  ],
  "bytecode": "0x6080604052600060085534801561001557600080fd5b5060405162002ba638038062002ba6833981810160405260c081101561003a57600080fd5b81019080805190602001909291908051906020019092919080519060200190929190805190602001909291908051906020019092919080519060200190929190505050600061008d61020e60201b60201c565b9050806000806101000a81548173ffffffffffffffffffffffffffffffffffffffff021916908373ffffffffffffffffffffffffffffffffffffffff1602179055508073ffffffffffffffffffffffffffffffffffffffff16600073ffffffffffffffffffffffffffffffffffffffff167f8be0079c531659141344cd1fd0a4f28419497f9722a3daafe3b4186f6b6457e060405160405180910390a35085600260006101000a81548173ffffffffffffffffffffffffffffffffffffffff021916908373ffffffffffffffffffffffffffffffffffffffff16021790555084600160006101000a81548173ffffffffffffffffffffffffffffffffffffffff021916908373ffffffffffffffffffffffffffffffffffffffff16021790555083600360006101000a81548173ffffffffffffffffffffffffffffffffffffffff021916908373ffffffffffffffffffffffffffffffffffffffff160217905550826005819055508060048190555081600981905550505050505050610216565b600033905090565b61298080620002266000396000f3fe608060405234801561001057600080fd5b50600436106101e55760003560e01c8063715018a61161010f5780639e0af234116100a2578063da0d921e11610071578063da0d921e1461076d578063f2fde38b146107a1578063f40f0f52146107e5578063f75676441461083d576101e5565b80639e0af234146106a95780639ed3c04d146106d7578063d49e77cd1461070b578063d5315fb21461073f576101e5565b80638dbb1e3a116100de5780638dbb1e3a1461058857806393516fa6146105d457806393f1a40b146105f25780639dc29fac1461065b576101e5565b8063715018a6146104e85780638aa28550146104f25780638d88a90e146105105780638da5cb5b14610554576101e5565b80633ccfd60b116101875780635312ea8e116101565780635312ea8e14610428578063630b5ba11461045657806364482f79146104605780636ebb64a2146104a4576101e5565b80633ccfd60b1461038457806347e7ef241461038e57806348cd4cb1146103dc57806351eb05a6146103fa576101e5565b80631aed6553116101c35780631aed65531461029a5780631eaaa045146102b85780633274488e1461031257806339e22d0114610340576101e5565b8063081e3eda146101ea5780631526fe271461020857806317caf6f11461027c575b600080fd5b6101f2610881565b6040518082815260200191505060405180910390f35b6102346004803603602081101561021e57600080fd5b810190808035906020019092919050505061088e565b604051808673ffffffffffffffffffffffffffffffffffffffff1681526020018581526020018481526020018381526020018281526020019550505050505060405180910390f35b6102846108f1565b6040518082815260200191505060405180910390f35b6102a26108f7565b6040518082815260200191505060405180910390f35b610310600480360360608110156102ce57600080fd5b8101908080359060200190929190803573ffffffffffffffffffffffffffffffffffffffff1690602001909291908035151590602001909291905050506108fd565b005b61033e6004803603602081101561032857600080fd5b8101908080359060200190929190505050610ae7565b005b6103826004803603602081101561035657600080fd5b81019080803573ffffffffffffffffffffffffffffffffffffffff169060200190929190505050610bb9565b005b61038c610cc5565b005b6103da600480360360408110156103a457600080fd5b81019080803573ffffffffffffffffffffffffffffffffffffffff16906020019092919080359060200190929190505050610e27565b005b6103e4611031565b6040518082815260200191505060405180910390f35b6104266004803603602081101561041057600080fd5b8101908080359060200190929190505050611037565b005b6104546004803603602081101561043e57600080fd5b81019080803590602001909291905050506112c2565b005b61045e611405565b005b6104a26004803603606081101561047657600080fd5b810190808035906020019092919080359060200190929190803515159060200190929190505050611432565b005b6104e6600480360360208110156104ba57600080fd5b81019080803573ffffffffffffffffffffffffffffffffffffffff16906020019092919050505061157c565b005b6104f0611688565b005b6104fa61180e565b6040518082815260200191505060405180910390f35b6105526004803603602081101561052657600080fd5b81019080803573ffffffffffffffffffffffffffffffffffffffff169060200190929190505050611813565b005b61055c61191a565b604051808273ffffffffffffffffffffffffffffffffffffffff16815260200191505060405180910390f35b6105be6004803603604081101561059e57600080fd5b810190808035906020019092919080359060200190929190505050611943565b6040518082815260200191505060405180910390f35b6105dc6119f5565b6040518082815260200191505060405180910390f35b61063e6004803603604081101561060857600080fd5b8101908080359060200190929190803573ffffffffffffffffffffffffffffffffffffffff1690602001909291905050506119fb565b604051808381526020018281526020019250505060405180910390f35b6106a76004803603604081101561067157600080fd5b81019080803573ffffffffffffffffffffffffffffffffffffffff16906020019092919080359060200190929190505050611a2c565b005b6106d5600480360360208110156106bf57600080fd5b8101908080359060200190929190505050611ca2565b005b6106df611d74565b604051808273ffffffffffffffffffffffffffffffffffffffff16815260200191505060405180910390f35b610713611d9a565b604051808273ffffffffffffffffffffffffffffffffffffffff16815260200191505060405180910390f35b61076b6004803603602081101561075557600080fd5b8101908080359060200190929190505050611dc0565b005b610775611e92565b604051808273ffffffffffffffffffffffffffffffffffffffff16815260200191505060405180910390f35b6107e3600480360360208110156107b757600080fd5b81019080803573ffffffffffffffffffffffffffffffffffffffff169060200190929190505050611eb8565b005b610827600480360360208110156107fb57600080fd5b81019080803573ffffffffffffffffffffffffffffffffffffffff1690602001909291905050506120c3565b6040518082815260200191505060405180910390f35b61087f6004803603602081101561085357600080fd5b81019080803573ffffffffffffffffffffffffffffffffffffffff16906020019092919050505061224e565b005b6000600680549050905090565b6006818154811061089b57fe5b90600052602060002090600502016000915090508060000160009054906101000a900473ffffffffffffffffffffffffffffffffffffffff16908060010154908060020154908060030154908060040154905085565b60085481565b60045481565b61090561235a565b73ffffffffffffffffffffffffffffffffffffffff1660008054906101000a900473ffffffffffffffffffffffffffffffffffffffff1673ffffffffffffffffffffffffffffffffffffffff16146109c5576040517f08c379a00000000000000000000000000000000000000000000000000000000081526004018080602001828103825260208152602001807f4f776e61626c653a2063616c6c6572206973206e6f7420746865206f776e657281525060200191505060405180910390fd5b80156109d4576109d3611405565b5b600060095443116109e7576009546109e9565b435b9050610a008460085461236290919063ffffffff16565b60088190555060066040518060a001604052808573ffffffffffffffffffffffffffffffffffffffff168152602001600081526020018681526020018381526020016000815250908060018154018082558091505060019003906000526020600020906005020160009091909190915060008201518160000160006101000a81548173ffffffffffffffffffffffffffffffffffffffff021916908373ffffffffffffffffffffffffffffffffffffffff16021790555060208201518160010155604082015181600201556060820151816003015560808201518160040155505050505050565b610aef61235a565b73ffffffffffffffffffffffffffffffffffffffff1660008054906101000a900473ffffffffffffffffffffffffffffffffffffffff1673ffffffffffffffffffffffffffffffffffffffff1614610baf576040517f08c379a00000000000000000000000000000000000000000000000000000000081526004018080602001828103825260208152602001807f4f776e61626c653a2063616c6c6572206973206e6f7420746865206f776e657281525060200191505060405180910390fd5b8060098190555050565b610bc161235a565b73ffffffffffffffffffffffffffffffffffffffff1660008054906101000a900473ffffffffffffffffffffffffffffffffffffffff1673ffffffffffffffffffffffffffffffffffffffff1614610c81576040517f08c379a00000000000000000000000000000000000000000000000000000000081526004018080602001828103825260208152602001807f4f776e61626c653a2063616c6c6572206973206e6f7420746865206f776e657281525060200191505060405180910390fd5b80600260006101000a81548173ffffffffffffffffffffffffffffffffffffffff021916908373ffffffffffffffffffffffffffffffffffffffff16021790555050565b60008060068281548110610cd557fe5b9060005260206000209060050201905060006007600084815260200190815260200160002060003373ffffffffffffffffffffffffffffffffffffffff1673ffffffffffffffffffffffffffffffffffffffff1681526020019081526020016000209050610d4283611037565b6000610d8c8260010154610d7e64e8d4a51000610d70876004015487600001546123ea90919063ffffffff16565b61247090919063ffffffff16565b6124ba90919063ffffffff16565b9050610d983382612504565b610dca64e8d4a51000610dbc856004015485600001546123ea90919063ffffffff16565b61247090919063ffffffff16565b8260010181905550833373ffffffffffffffffffffffffffffffffffffffff167ff279e6a1f5e320cca91135676d9cb6e44ca8a08c0b88342bcdb1144f6511b568836040518082815260200191505060405180910390a350505050565b600260009054906101000a900473ffffffffffffffffffffffffffffffffffffffff1673ffffffffffffffffffffffffffffffffffffffff163373ffffffffffffffffffffffffffffffffffffffff1614610e8157600080fd5b60008060068281548110610e9157fe5b9060005260206000209060050201905060006007600084815260200190815260200160002060008673ffffffffffffffffffffffffffffffffffffffff1673ffffffffffffffffffffffffffffffffffffffff1681526020019081526020016000209050610f0c84836001015461236290919063ffffffff16565b8260010181905550610f1d83611037565b600081600001541115610f82576000610f748260010154610f6664e8d4a51000610f58876004015487600001546123ea90919063ffffffff16565b61247090919063ffffffff16565b6124ba90919063ffffffff16565b9050610f808682612504565b505b610f9984826000015461236290919063ffffffff16565b8160000181905550610fd364e8d4a51000610fc5846004015484600001546123ea90919063ffffffff16565b61247090919063ffffffff16565b8160010181905550828573ffffffffffffffffffffffffffffffffffffffff167f90890809c654f11d6e72a28fa60149770a0d11ec6c92319d6ceb2bb0a4ea1a15866040518082815260200191505060405180910390a35050505050565b60095481565b60006006828154811061104657fe5b906000526020600020906005020190508060030154431161106757506112bf565b60008160010154905060008114156110895743826003018190555050506112bf565b6000611099836003015443611943565b905060006110dc6008546110ce86600201546110c0600554876123ea90919063ffffffff16565b6123ea90919063ffffffff16565b61247090919063ffffffff16565b9050600160009054906101000a900473ffffffffffffffffffffffffffffffffffffffff1673ffffffffffffffffffffffffffffffffffffffff166340c10f19600360009054906101000a900473ffffffffffffffffffffffffffffffffffffffff16611153600a8561247090919063ffffffff16565b6040518363ffffffff1660e01b8152600401808373ffffffffffffffffffffffffffffffffffffffff16815260200182815260200192505050600060405180830381600087803b1580156111a657600080fd5b505af11580156111ba573d6000803e3d6000fd5b50505050600160009054906101000a900473ffffffffffffffffffffffffffffffffffffffff1673ffffffffffffffffffffffffffffffffffffffff166340c10f1930836040518363ffffffff1660e01b8152600401808373ffffffffffffffffffffffffffffffffffffffff16815260200182815260200192505050600060405180830381600087803b15801561125157600080fd5b505af1158015611265573d6000803e3d6000fd5b505050506112a96112968461128864e8d4a51000856123ea90919063ffffffff16565b61247090919063ffffffff16565b856004015461236290919063ffffffff16565b8460040181905550438460030181905550505050505b50565b600260009054906101000a900473ffffffffffffffffffffffffffffffffffffffff1673ffffffffffffffffffffffffffffffffffffffff163373ffffffffffffffffffffffffffffffffffffffff161461131c57600080fd5b60006006828154811061132b57fe5b9060005260206000209060050201905060006007600084815260200190815260200160002060003373ffffffffffffffffffffffffffffffffffffffff1673ffffffffffffffffffffffffffffffffffffffff168152602001908152602001600020905060008260010181905550823373ffffffffffffffffffffffffffffffffffffffff167fbb757047c2b5f3974fe26b7c10f732e7bce710b0952a71082702781e62ae059583600001546040518082815260200191505060405180910390a36000816000018190555060008160010181905550505050565b6000600680549050905060005b8181101561142e5761142381611037565b806001019050611412565b5050565b61143a61235a565b73ffffffffffffffffffffffffffffffffffffffff1660008054906101000a900473ffffffffffffffffffffffffffffffffffffffff1673ffffffffffffffffffffffffffffffffffffffff16146114fa576040517f08c379a00000000000000000000000000000000000000000000000000000000081526004018080602001828103825260208152602001807f4f776e61626c653a2063616c6c6572206973206e6f7420746865206f776e657281525060200191505060405180910390fd5b801561150957611508611405565b5b61154e826115406006868154811061151d57fe5b9060005260206000209060050201600201546008546124ba90919063ffffffff16565b61236290919063ffffffff16565b600881905550816006848154811061156257fe5b906000526020600020906005020160020181905550505050565b61158461235a565b73ffffffffffffffffffffffffffffffffffffffff1660008054906101000a900473ffffffffffffffffffffffffffffffffffffffff1673ffffffffffffffffffffffffffffffffffffffff1614611644576040517f08c379a00000000000000000000000000000000000000000000000000000000081526004018080602001828103825260208152602001807f4f776e61626c653a2063616c6c6572206973206e6f7420746865206f776e657281525060200191505060405180910390fd5b80600360006101000a81548173ffffffffffffffffffffffffffffffffffffffff021916908373ffffffffffffffffffffffffffffffffffffffff16021790555050565b61169061235a565b73ffffffffffffffffffffffffffffffffffffffff1660008054906101000a900473ffffffffffffffffffffffffffffffffffffffff1673ffffffffffffffffffffffffffffffffffffffff1614611750576040517f08c379a00000000000000000000000000000000000000000000000000000000081526004018080602001828103825260208152602001807f4f776e61626c653a2063616c6c6572206973206e6f7420746865206f776e657281525060200191505060405180910390fd5b600073ffffffffffffffffffffffffffffffffffffffff1660008054906101000a900473ffffffffffffffffffffffffffffffffffffffff1673ffffffffffffffffffffffffffffffffffffffff167f8be0079c531659141344cd1fd0a4f28419497f9722a3daafe3b4186f6b6457e060405160405180910390a360008060006101000a81548173ffffffffffffffffffffffffffffffffffffffff021916908373ffffffffffffffffffffffffffffffffffffffff160217905550565b600a81565b600360009054906101000a900473ffffffffffffffffffffffffffffffffffffffff1673ffffffffffffffffffffffffffffffffffffffff163373ffffffffffffffffffffffffffffffffffffffff16146118d6576040517f08c379a00000000000000000000000000000000000000000000000000000000081526004018080602001828103825260098152602001807f6465763a207775743f000000000000000000000000000000000000000000000081525060200191505060405180910390fd5b80600360006101000a81548173ffffffffffffffffffffffffffffffffffffffff021916908373ffffffffffffffffffffffffffffffffffffffff16021790555050565b60008060009054906101000a900473ffffffffffffffffffffffffffffffffffffffff16905090565b6000600454821161197b57611974600a61196685856124ba90919063ffffffff16565b6123ea90919063ffffffff16565b90506119ef565b600454831061199e5761199783836124ba90919063ffffffff16565b90506119ef565b6119ec6119b6600454846124ba90919063ffffffff16565b6119de600a6119d0876004546124ba90919063ffffffff16565b6123ea90919063ffffffff16565b61236290919063ffffffff16565b90505b92915050565b60055481565b6007602052816000526040600020602052806000526040600020600091509150508060000154908060010154905082565b600260009054906101000a900473ffffffffffffffffffffffffffffffffffffffff1673ffffffffffffffffffffffffffffffffffffffff163373ffffffffffffffffffffffffffffffffffffffff1614611a8657600080fd5b60008060068281548110611a9657fe5b9060005260206000209060050201905060006007600084815260200190815260200160002060008673ffffffffffffffffffffffffffffffffffffffff1673ffffffffffffffffffffffffffffffffffffffff16815260200190815260200160002090508381600001541015611b74576040517f08c379a000000000000000000000000000000000000000000000000000000000815260040180806020018281038252600e8152602001807f6275726e3a206e6f7420676f6f6400000000000000000000000000000000000081525060200191505060405180910390fd5b611b7d83611037565b6000611bc78260010154611bb964e8d4a51000611bab876004015487600001546123ea90919063ffffffff16565b61247090919063ffffffff16565b6124ba90919063ffffffff16565b9050611bd38682612504565b611bea8583600001546124ba90919063ffffffff16565b8260000181905550611c2464e8d4a51000611c16856004015485600001546123ea90919063ffffffff16565b61247090919063ffffffff16565b8260010181905550611c438584600101546124ba90919063ffffffff16565b8360010181905550838673ffffffffffffffffffffffffffffffffffffffff167ff279e6a1f5e320cca91135676d9cb6e44ca8a08c0b88342bcdb1144f6511b568876040518082815260200191505060405180910390a3505050505050565b611caa61235a565b73ffffffffffffffffffffffffffffffffffffffff1660008054906101000a900473ffffffffffffffffffffffffffffffffffffffff1673ffffffffffffffffffffffffffffffffffffffff1614611d6a576040517f08c379a00000000000000000000000000000000000000000000000000000000081526004018080602001828103825260208152602001807f4f776e61626c653a2063616c6c6572206973206e6f7420746865206f776e657281525060200191505060405180910390fd5b8060048190555050565b600260009054906101000a900473ffffffffffffffffffffffffffffffffffffffff1681565b600360009054906101000a900473ffffffffffffffffffffffffffffffffffffffff1681565b611dc861235a565b73ffffffffffffffffffffffffffffffffffffffff1660008054906101000a900473ffffffffffffffffffffffffffffffffffffffff1673ffffffffffffffffffffffffffffffffffffffff1614611e88576040517f08c379a00000000000000000000000000000000000000000000000000000000081526004018080602001828103825260208152602001807f4f776e61626c653a2063616c6c6572206973206e6f7420746865206f776e657281525060200191505060405180910390fd5b8060058190555050565b600160009054906101000a900473ffffffffffffffffffffffffffffffffffffffff1681565b611ec061235a565b73ffffffffffffffffffffffffffffffffffffffff1660008054906101000a900473ffffffffffffffffffffffffffffffffffffffff1673ffffffffffffffffffffffffffffffffffffffff1614611f80576040517f08c379a00000000000000000000000000000000000000000000000000000000081526004018080602001828103825260208152602001807f4f776e61626c653a2063616c6c6572206973206e6f7420746865206f776e657281525060200191505060405180910390fd5b600073ffffffffffffffffffffffffffffffffffffffff168173ffffffffffffffffffffffffffffffffffffffff161415612006576040517f08c379a00000000000000000000000000000000000000000000000000000000081526004018080602001828103825260268152602001806129046026913960400191505060405180910390fd5b8073ffffffffffffffffffffffffffffffffffffffff1660008054906101000a900473ffffffffffffffffffffffffffffffffffffffff1673ffffffffffffffffffffffffffffffffffffffff167f8be0079c531659141344cd1fd0a4f28419497f9722a3daafe3b4186f6b6457e060405160405180910390a3806000806101000a81548173ffffffffffffffffffffffffffffffffffffffff021916908373ffffffffffffffffffffffffffffffffffffffff16021790555050565b600080600090506000600682815481106120d957fe5b9060005260206000209060050201905060006007600084815260200190815260200160002060008673ffffffffffffffffffffffffffffffffffffffff1673ffffffffffffffffffffffffffffffffffffffff1681526020019081526020016000209050600082600401549050600083600101549050836003015443118015612163575060008114155b156121fe576000612178856003015443611943565b905060006121bb6008546121ad886002015461219f600554876123ea90919063ffffffff16565b6123ea90919063ffffffff16565b61247090919063ffffffff16565b90506121f96121ea846121dc64e8d4a51000856123ea90919063ffffffff16565b61247090919063ffffffff16565b8561236290919063ffffffff16565b935050505b612242836001015461223464e8d4a510006122268688600001546123ea90919063ffffffff16565b61247090919063ffffffff16565b6124ba90919063ffffffff16565b95505050505050919050565b61225661235a565b73ffffffffffffffffffffffffffffffffffffffff1660008054906101000a900473ffffffffffffffffffffffffffffffffffffffff1673ffffffffffffffffffffffffffffffffffffffff1614612316576040517f08c379a00000000000000000000000000000000000000000000000000000000081526004018080602001828103825260208152602001807f4f776e61626c653a2063616c6c6572206973206e6f7420746865206f776e657281525060200191505060405180910390fd5b80600160006101000a81548173ffffffffffffffffffffffffffffffffffffffff021916908373ffffffffffffffffffffffffffffffffffffffff16021790555050565b600033905090565b6000808284019050838110156123e0576040517f08c379a000000000000000000000000000000000000000000000000000000000815260040180806020018281038252601b8152602001807f536166654d6174683a206164646974696f6e206f766572666c6f77000000000081525060200191505060405180910390fd5b8091505092915050565b6000808314156123fd576000905061246a565b600082840290508284828161240e57fe5b0414612465576040517f08c379a000000000000000000000000000000000000000000000000000000000815260040180806020018281038252602181526020018061292a6021913960400191505060405180910390fd5b809150505b92915050565b60006124b283836040518060400160405280601a81526020017f536166654d6174683a206469766973696f6e206279207a65726f00000000000081525061277d565b905092915050565b60006124fc83836040518060400160405280601e81526020017f536166654d6174683a207375627472616374696f6e206f766572666c6f770000815250612843565b905092915050565b6000600160009054906101000a900473ffffffffffffffffffffffffffffffffffffffff1673ffffffffffffffffffffffffffffffffffffffff166370a08231306040518263ffffffff1660e01b8152600401808273ffffffffffffffffffffffffffffffffffffffff16815260200191505060206040518083038186803b15801561258f57600080fd5b505afa1580156125a3573d6000803e3d6000fd5b505050506040513d60208110156125b957600080fd5b81019080805190602001909291905050509050808211156126a857600160009054906101000a900473ffffffffffffffffffffffffffffffffffffffff1673ffffffffffffffffffffffffffffffffffffffff1663a9059cbb84836040518363ffffffff1660e01b8152600401808373ffffffffffffffffffffffffffffffffffffffff16815260200182815260200192505050602060405180830381600087803b15801561266757600080fd5b505af115801561267b573d6000803e3d6000fd5b505050506040513d602081101561269157600080fd5b810190808051906020019092919050505050612778565b600160009054906101000a900473ffffffffffffffffffffffffffffffffffffffff1673ffffffffffffffffffffffffffffffffffffffff1663a9059cbb84846040518363ffffffff1660e01b8152600401808373ffffffffffffffffffffffffffffffffffffffff16815260200182815260200192505050602060405180830381600087803b15801561273b57600080fd5b505af115801561274f573d6000803e3d6000fd5b505050506040513d602081101561276557600080fd5b8101908080519060200190929190505050505b505050565b60008083118290612829576040517f08c379a00000000000000000000000000000000000000000000000000000000081526004018080602001828103825283818151815260200191508051906020019080838360005b838110156127ee5780820151818401526020810190506127d3565b50505050905090810190601f16801561281b5780820380516001836020036101000a031916815260200191505b509250505060405180910390fd5b50600083858161283557fe5b049050809150509392505050565b60008383111582906128f0576040517f08c379a00000000000000000000000000000000000000000000000000000000081526004018080602001828103825283818151815260200191508051906020019080838360005b838110156128b557808201518184015260208101905061289a565b50505050905090810190601f1680156128e25780820380516001836020036101000a031916815260200191505b509250505060405180910390fd5b506000838503905080915050939250505056fe4f776e61626c653a206e6577206f776e657220697320746865207a65726f2061646472657373536166654d6174683a206d756c7469706c69636174696f6e206f766572666c6f77a26469706673582212209ee4a2b44c9b42ef2a5cabbfa11c2c5fed39b27254b3eac525df5c625d915af864736f6c634300060c0033",
  "immutableReferences": {},
  "source": "pragma solidity 0.6.12;\n\n\nimport \"@openzeppelin/contracts/token/ERC20/IERC20.sol\";\nimport \"@openzeppelin/contracts/token/ERC20/SafeERC20.sol\";\nimport \"@openzeppelin/contracts/utils/EnumerableSet.sol\";\nimport \"@openzeppelin/contracts/math/SafeMath.sol\";\nimport \"@openzeppelin/contracts/access/Ownable.sol\";\nimport \"./XStableGovernanceToken.sol\";\n\n\n// XSGTReward is the master of XSGT. He can make XSGT and he is a fair guy.\n//\n// Note that it's ownable and the owner wields tremendous power. The ownership\n// will be transferred to a governance smart contract once XSGT is sufficiently\n// distributed and the community can show to govern itself.\n//\n// Have fun reading it. Hopefully it's bug-free. God bless.\ncontract XSGTReward is Ownable {\n    using SafeMath for uint256;\n    using SafeERC20 for IERC20;\n\n    // Info of each user.\n    struct UserInfo {\n        uint256 amount;     // How many LP tokens the user has provided.\n        uint256 rewardDebt; // Reward debt. See explanation below.\n        //\n        // We do some fancy math here. Basically, any point in time, the amount of XSGTs\n        // entitled to a user but is pending to be distributed is:\n        //\n        //   pending reward = (user.amount * pool.accXSGTPerShare) - user.rewardDebt\n        //\n        // Whenever a user deposits or withdraws LP tokens to a pool. Here's what happens:\n        //   1. The pool's `accXSGTPerShare` (and `lastRewardBlock`) gets updated.\n        //   2. User receives the pending reward sent to his/her address.\n        //   3. User's `amount` gets updated.\n        //   4. User's `rewardDebt` gets updated.\n    }\n\n    // Info of each pool.\n    struct PoolInfo {\n        IERC20 lpToken;           // Address of LP token contract.\n        uint256 lpTokenAmount;\n        uint256 allocPoint;       // How many allocation points assigned to this pool. XSGTs to distribute per block.\n        uint256 lastRewardBlock;  // Last block number that XSGTs distribution occurs.\n        uint256 accXSGTPerShare; // Accumulated XSGTs per share, times 1e12. See below.\n    }\n\n    // The XSGT TOKEN!\n    XStableGovernanceToken public xsgt;\n    // The XSDT TOKEN!\n    IERC20 public xsdt;\n    // Dev address.\n    address public devaddr;\n    // Block number when bonus XSGT period ends.\n    uint256 public bonusEndBlock;\n    // XSGT tokens created per block.\n    uint256 public xsgtPerBlock;\n    // Bonus muliplier for early xsgt makers.\n    uint256 public constant BONUS_MULTIPLIER = 10;\n    // Info of each pool.\n    PoolInfo[] public poolInfo;\n    // Info of each user that stakes LP tokens.\n    mapping (uint256 => mapping (address => UserInfo)) public userInfo;\n    // Total allocation poitns. Must be the sum of all allocation points in all pools.\n    uint256 public totalAllocPoint = 0;\n    // The block number when XSGT mining starts.\n    uint256 public startBlock;\n\n    event Deposit(address indexed user, uint256 indexed pid, uint256 amount);\n    event Withdraw(address indexed user, uint256 indexed pid, uint256 amount);\n    event EmergencyWithdraw(address indexed user, uint256 indexed pid, uint256 amount);\n\n    constructor(\n        IERC20 _xsdt,\n        XStableGovernanceToken _xsgt,\n        address _devaddr,\n        uint256 _xsgtPerBlock,\n        uint256 _startBlock,\n        uint256 _bonusEndBlock\n    ) public {\n        xsdt = _xsdt;\n        xsgt = _xsgt;\n        devaddr = _devaddr;\n        xsgtPerBlock = _xsgtPerBlock;\n        bonusEndBlock = _bonusEndBlock;\n        startBlock = _startBlock;\n    }\n\n    function setXSDTAddress(IERC20 _xsdt) public onlyOwner {\n        xsdt = _xsdt;\n    }\n\n    function setXSGTAddress(XStableGovernanceToken _xsgt) public onlyOwner {\n        xsgt = _xsgt;\n    }\n\n    function setBonusPerBlock(uint256 _xsgtPerBlock) public onlyOwner {\n        xsgtPerBlock = _xsgtPerBlock;\n    }\n\n    function setBonusStartBlock(uint256 _startBlock) public onlyOwner {\n        startBlock = _startBlock;\n    }\n\n    function setBonusEndBlock(uint256 _bonusEndBlock) public onlyOwner {\n        bonusEndBlock = _bonusEndBlock;\n    }\n\n    function setDevAddr(address _devaddr) public onlyOwner {\n        devaddr = _devaddr;\n    }\n\n    function poolLength() external view returns (uint256) {\n        return poolInfo.length;\n    }\n\n    // Add a new lp to the pool. Can only be called by the owner.\n    // XXX DO NOT add the same LP token more than once. Rewards will be messed up if you do.\n    function add(uint256 _allocPoint, IERC20 _lpToken, bool _withUpdate) public onlyOwner {\n        if (_withUpdate) {\n            massUpdatePools();\n        }\n        uint256 lastRewardBlock = block.number > startBlock ? block.number : startBlock;\n        totalAllocPoint = totalAllocPoint.add(_allocPoint);\n        poolInfo.push(PoolInfo({\n            lpToken: _lpToken,\n            lpTokenAmount: 0,\n            allocPoint: _allocPoint,\n            lastRewardBlock: lastRewardBlock,\n            accXSGTPerShare: 0\n        }));\n    }\n\n    // Update the given pool's XSGT allocation point. Can only be called by the owner.\n    function set(uint256 _pid, uint256 _allocPoint, bool _withUpdate) public onlyOwner {\n        if (_withUpdate) {\n            massUpdatePools();\n        }\n        totalAllocPoint = totalAllocPoint.sub(poolInfo[_pid].allocPoint).add(_allocPoint);\n        poolInfo[_pid].allocPoint = _allocPoint;\n    }\n\n    // Return reward multiplier over the given _from to _to block.\n    function getMultiplier(uint256 _from, uint256 _to) public view returns (uint256) {\n        if (_to <= bonusEndBlock) {\n            return _to.sub(_from).mul(BONUS_MULTIPLIER);\n        } else if (_from >= bonusEndBlock) {\n            return _to.sub(_from);\n        } else {\n            return bonusEndBlock.sub(_from).mul(BONUS_MULTIPLIER).add(\n                _to.sub(bonusEndBlock)\n            );\n        }\n    }\n\n    // View function to see pending XSGTs on frontend.\n    function pendingReward(address _user) external view returns (uint256) {\n        uint256 _pid = 0;\n        PoolInfo storage pool = poolInfo[_pid];\n        UserInfo storage user = userInfo[_pid][_user];\n        uint256 accXSGTPerShare = pool.accXSGTPerShare;\n        // uint256 lpSupply = pool.lpToken.balanceOf(address(this));\n        uint256 lpSupply = pool.lpTokenAmount;\n        if (block.number > pool.lastRewardBlock && lpSupply != 0) {\n            uint256 multiplier = getMultiplier(pool.lastRewardBlock, block.number);\n            uint256 xsgtReward = multiplier.mul(xsgtPerBlock).mul(pool.allocPoint).div(totalAllocPoint);\n            accXSGTPerShare = accXSGTPerShare.add(xsgtReward.mul(1e12).div(lpSupply));\n        }\n        return user.amount.mul(accXSGTPerShare).div(1e12).sub(user.rewardDebt);\n    }\n\n    // Update reward vairables for all pools. Be careful of gas spending!\n    function massUpdatePools() public {\n        uint256 length = poolInfo.length;\n        for (uint256 pid = 0; pid < length; ++pid) {\n            updatePool(pid);\n        }\n    }\n\n    // Update reward variables of the given pool to be up-to-date.\n    function updatePool(uint256 _pid) public {\n        PoolInfo storage pool = poolInfo[_pid];\n        if (block.number <= pool.lastRewardBlock) {\n            return;\n        }\n        // uint256 lpSupply = pool.lpToken.balanceOf(address(this));\n        uint256 lpSupply = pool.lpTokenAmount;\n        if (lpSupply == 0) {\n            pool.lastRewardBlock = block.number;\n            return;\n        }\n        uint256 multiplier = getMultiplier(pool.lastRewardBlock, block.number);\n        uint256 xsgtReward = multiplier.mul(xsgtPerBlock).mul(pool.allocPoint).div(totalAllocPoint);\n        xsgt.mint(devaddr, xsgtReward.div(10));\n        xsgt.mint(address(this), xsgtReward);\n        pool.accXSGTPerShare = pool.accXSGTPerShare.add(xsgtReward.mul(1e12).div(lpSupply));\n        pool.lastRewardBlock = block.number;\n    }\n\n    // Deposit LP tokens to XSGTReward for XSGT allocation.\n    function deposit(address _account, uint256 _amount) public onlyXSDT {\n        uint256 _pid = 0;\n        PoolInfo storage pool = poolInfo[_pid];\n        UserInfo storage user = userInfo[_pid][_account];\n        // we do not need to transfer the real XSDT\n        // pool.lpToken.safeTransferFrom(address(_account), address(this), _amount);\n        pool.lpTokenAmount = pool.lpTokenAmount.add(_amount);\n        updatePool(_pid);\n        if (user.amount > 0) {\n            uint256 pending = user.amount.mul(pool.accXSGTPerShare).div(1e12).sub(user.rewardDebt);\n            safeXSGTTransfer(_account, pending);\n        }\n        user.amount = user.amount.add(_amount);\n        user.rewardDebt = user.amount.mul(pool.accXSGTPerShare).div(1e12);\n        emit Deposit(_account, _pid, _amount);\n    }\n\n    // Withdraw LP tokens from XSGTReward.\n    function withdraw() public {\n        uint256 _pid = 0;\n        PoolInfo storage pool = poolInfo[_pid];\n        UserInfo storage user = userInfo[_pid][msg.sender];\n        updatePool(_pid);\n        uint256 pending = user.amount.mul(pool.accXSGTPerShare).div(1e12).sub(user.rewardDebt);\n        safeXSGTTransfer(msg.sender, pending);\n        // user.amount = user.amount.sub(_amount);\n        user.rewardDebt = user.amount.mul(pool.accXSGTPerShare).div(1e12);\n        // pool.lpToken.safeTransfer(address(msg.sender), _amount);\n        // pool.lpTokenAmount = pool.lpTokenAmount.sub(_amount);\n        emit Withdraw(msg.sender, _pid, pending);\n    }\n\n    // Withdraw LP tokens from XSGTReward.\n    function burn(address _account, uint256 _amount) public onlyXSDT {\n        uint256 _pid = 0;\n        PoolInfo storage pool = poolInfo[_pid];\n        UserInfo storage user = userInfo[_pid][_account];\n        require(user.amount >= _amount, \"burn: not good\");\n        updatePool(_pid);\n        uint256 pending = user.amount.mul(pool.accXSGTPerShare).div(1e12).sub(user.rewardDebt);\n        safeXSGTTransfer(_account, pending);\n        user.amount = user.amount.sub(_amount);\n        user.rewardDebt = user.amount.mul(pool.accXSGTPerShare).div(1e12);\n        // pool.lpToken.safeTransfer(address(_account), _amount);\n        pool.lpTokenAmount = pool.lpTokenAmount.sub(_amount);\n        emit Withdraw(_account, _pid, _amount);\n    }\n\n    // Withdraw without caring about rewards. EMERGENCY ONLY.\n    function emergencyWithdraw(uint256 _pid) public onlyXSDT {\n        PoolInfo storage pool = poolInfo[_pid];\n        UserInfo storage user = userInfo[_pid][msg.sender];\n        // pool.lpToken.safeTransfer(address(msg.sender), user.amount);\n        pool.lpTokenAmount = 0;\n        emit EmergencyWithdraw(msg.sender, _pid, user.amount);\n        user.amount = 0;\n        user.rewardDebt = 0;\n    }\n\n    // Safe xsgt transfer function, just in case if rounding error causes pool to not have enough XSGTs.\n    function safeXSGTTransfer(address _to, uint256 _amount) internal {\n        uint256 xsgtBal = xsgt.balanceOf(address(this));\n        if (_amount > xsgtBal) {\n            xsgt.transfer(_to, xsgtBal);\n        } else {\n            xsgt.transfer(_to, _amount);\n        }\n    }\n\n    // Update dev address by the previous dev.\n    function dev(address _devaddr) public {\n        require(msg.sender == devaddr, \"dev: wut?\");\n        devaddr = _devaddr;\n    }\n\n    modifier onlyXSDT {\n        require(msg.sender == address(xsdt));\n        _;\n    }\n}",
  "sourcePath": "/Users/zhangxuesong/mysoft/defi/XStableDollar-contracts/stabledollar/contracts/XSGTReward.sol",
  "compiler": {
    "name": "solc",
    "version": "0.6.12+commit.27d51765.Emscripten.clang"
  },
  "schemaVersion": "3.3.2",
  "updatedAt": "2020-11-14T07:52:41.842Z",
  "devdoc": {
    "kind": "dev",
    "methods": {
      "owner()": {
        "details": "Returns the address of the current owner."
      },
      "renounceOwnership()": {
        "details": "Leaves the contract without owner. It will not be possible to call `onlyOwner` functions anymore. Can only be called by the current owner. NOTE: Renouncing ownership will leave the contract without an owner, thereby removing any functionality that is only available to the owner."
      },
      "transferOwnership(address)": {
        "details": "Transfers ownership of the contract to a new account (`newOwner`). Can only be called by the current owner."
      }
    },
    "version": 1
  },
  "userdoc": {
    "kind": "user",
    "methods": {},
    "version": 1
  }
}