{
  "contractName": "XStableDollar",
  "abi": [
    {
      "inputs": [
        {
          "internalType": "address",
          "name": "_devAddress",
          "type": "address"
        }
      ],
      "stateMutability": "nonpayable",
      "type": "constructor"
    },
    {
      "anonymous": false,
      "inputs": [
        {
          "indexed": true,
          "internalType": "address",
          "name": "user",
          "type": "address"
        },
        {
          "indexed": true,
          "internalType": "uint256",
          "name": "gridId",
          "type": "uint256"
        },
        {
          "indexed": false,
          "internalType": "uint256",
          "name": "paid",
          "type": "uint256"
        },
        {
          "indexed": false,
          "internalType": "uint256",
          "name": "remain",
          "type": "uint256"
        }
      ],
      "name": "Pass",
      "type": "event"
    },
    {
      "anonymous": false,
      "inputs": [
        {
          "indexed": true,
          "internalType": "address",
          "name": "user",
          "type": "address"
        },
        {
          "indexed": true,
          "internalType": "uint256",
          "name": "gridId",
          "type": "uint256"
        },
        {
          "indexed": false,
          "internalType": "uint256",
          "name": "paid",
          "type": "uint256"
        },
        {
          "indexed": false,
          "internalType": "uint256",
          "name": "remain",
          "type": "uint256"
        }
      ],
      "name": "PayHouse",
      "type": "event"
    },
    {
      "inputs": [],
      "name": "DEV_RATE",
      "outputs": [
        {
          "internalType": "uint256",
          "name": "",
          "type": "uint256"
        }
      ],
      "stateMutability": "view",
      "type": "function"
    },
    {
      "inputs": [],
      "name": "DIV_RATE",
      "outputs": [
        {
          "internalType": "uint256",
          "name": "",
          "type": "uint256"
        }
      ],
      "stateMutability": "view",
      "type": "function"
    },
    {
      "inputs": [],
      "name": "GROW_MULTIPLIER",
      "outputs": [
        {
          "internalType": "uint256",
          "name": "",
          "type": "uint256"
        }
      ],
      "stateMutability": "view",
      "type": "function"
    },
    {
      "inputs": [],
      "name": "POOL_RATE",
      "outputs": [
        {
          "internalType": "uint256",
          "name": "",
          "type": "uint256"
        }
      ],
      "stateMutability": "view",
      "type": "function"
    },
    {
      "inputs": [
        {
          "internalType": "uint256",
          "name": "",
          "type": "uint256"
        }
      ],
      "name": "allVersion",
      "outputs": [
        {
          "internalType": "uint256",
          "name": "roadFee",
          "type": "uint256"
        },
        {
          "internalType": "uint256",
          "name": "basePrice",
          "type": "uint256"
        },
        {
          "internalType": "uint256",
          "name": "gridSize",
          "type": "uint256"
        },
        {
          "internalType": "uint256",
          "name": "timeOutBlockSize",
          "type": "uint256"
        },
        {
          "internalType": "uint256",
          "name": "recentBlockNumber",
          "type": "uint256"
        },
        {
          "internalType": "bool",
          "name": "close",
          "type": "bool"
        }
      ],
      "stateMutability": "view",
      "type": "function"
    },
    {
      "inputs": [],
      "name": "currentVersion",
      "outputs": [
        {
          "internalType": "uint256",
          "name": "",
          "type": "uint256"
        }
      ],
      "stateMutability": "view",
      "type": "function"
    },
    {
      "inputs": [],
      "name": "devAddress",
      "outputs": [
        {
          "internalType": "address",
          "name": "",
          "type": "address"
        }
      ],
      "stateMutability": "view",
      "type": "function"
    },
    {
      "inputs": [],
      "name": "devTotalFee",
      "outputs": [
        {
          "internalType": "uint256",
          "name": "",
          "type": "uint256"
        }
      ],
      "stateMutability": "view",
      "type": "function"
    },
    {
      "inputs": [],
      "name": "poolTotalFee",
      "outputs": [
        {
          "internalType": "uint256",
          "name": "",
          "type": "uint256"
        }
      ],
      "stateMutability": "view",
      "type": "function"
    },
    {
      "inputs": [],
      "name": "fly",
      "outputs": [],
      "stateMutability": "payable",
      "type": "function"
    },
    {
      "inputs": [],
      "name": "genRandNumber",
      "outputs": [
        {
          "internalType": "uint256",
          "name": "",
          "type": "uint256"
        }
      ],
      "stateMutability": "view",
      "type": "function"
    }
  ],
  "bytecode": "0x608060405234801561001057600080fd5b50604051610bc7380380610bc78339818101604052602081101561003357600080fd5b810190808051906020019092919050505080600360006101000a81548173ffffffffffffffffffffffffffffffffffffffff021916908373ffffffffffffffffffffffffffffffffffffffff160217905550600060028190555060008081905550600060018190555050610b1b806100ac6000396000f3fe60806040526004361061009c5760003560e01c80636f495d1d116100645780636f495d1d146101b657806370125671146101e157806388e33c661461020c5780638d0029fc146102375780639d888e8614610262578063a952d9c51461028d5761009c565b806306c0e7d9146100a157806307913441146100cc5780632c2e3abf146100f75780633ad10ef61461010157806362b5e83f14610142575b600080fd5b3480156100ad57600080fd5b506100b66102b8565b6040518082815260200191505060405180910390f35b3480156100d857600080fd5b506100e16102be565b6040518082815260200191505060405180910390f35b6100ff6102c4565b005b34801561010d57600080fd5b506101166105cc565b604051808273ffffffffffffffffffffffffffffffffffffffff16815260200191505060405180910390f35b34801561014e57600080fd5b5061017b6004803603602081101561016557600080fd5b81019080803590602001909291905050506105f2565b604051808781526020018681526020018581526020018481526020018381526020018215158152602001965050505050505060405180910390f35b3480156101c257600080fd5b506101cb61063b565b6040518082815260200191505060405180910390f35b3480156101ed57600080fd5b506101f6610641565b6040518082815260200191505060405180910390f35b34801561021857600080fd5b5061022161067a565b6040518082815260200191505060405180910390f35b34801561024357600080fd5b5061024c610680565b6040518082815260200191505060405180910390f35b34801561026e57600080fd5b50610277610685565b6040518082815260200191505060405180910390f35b34801561029957600080fd5b506102a261068b565b6040518082815260200191505060405180910390f35b61271081565b60015481565b600060046000600254815260200190815260200160002090503481600101541115610357576040517f08c379a000000000000000000000000000000000000000000000000000000000815260040180806020018281038252601c8152602001807f47616d653a204558434553534956455f494e5055545f414d4f554e540000000081525060200191505060405180910390fd5b6000610361610641565b9050600061037c83600201548361069190919063ffffffff16565b90506000601482116104035760006001905060006103a382346106db90919063ffffffff16565b9050833373ffffffffffffffffffffffffffffffffffffffff167f62a0d6bddffe99eab1fa994ee55214211b4b0467a7eab172c7f8ace86e605c228484604051808381526020018281526020019250505060405180910390a350506105c6565b600084600001549050600061042182346106db90919063ffffffff16565b9050600061044e6127106104406107d08661072590919063ffffffff16565b6107ab90919063ffffffff16565b9050600061047a61271061046c60328761072590919063ffffffff16565b6107ab90919063ffffffff16565b905060006104a361049483856107f590919063ffffffff16565b866106db90919063ffffffff16565b90506104ba836000546107f590919063ffffffff16565b6000819055506104d5826001546107f590919063ffffffff16565b6001819055508573ffffffffffffffffffffffffffffffffffffffff166108fc829081150290604051600060405180830381858888f19350505050158015610521573d6000803e3d6000fd5b503373ffffffffffffffffffffffffffffffffffffffff166108fc859081150290604051600060405180830381858888f19350505050158015610568573d6000803e3d6000fd5b50863373ffffffffffffffffffffffffffffffffffffffff167f2f6e1f2a9341794791a1a7944b55f64cffa162d4d73745b7e50887fbed9761728787604051808381526020018281526020019250505060405180910390a350505050505b50505050565b600360009054906101000a900473ffffffffffffffffffffffffffffffffffffffff1681565b60046020528060005260406000206000915090508060000154908060010154908060020154908060040154908060050154908060060160009054906101000a900460ff16905086565b6107d081565b6000434460405160200180838152602001828152602001925050506040516020818303038152906040528051906020012060001c905090565b60005481565b603281565b60025481565b612af881565b60006106d383836040518060400160405280601881526020017f536166654d6174683a206d6f64756c6f206279207a65726f000000000000000081525061087d565b905092915050565b600061071d83836040518060400160405280601e81526020017f536166654d6174683a207375627472616374696f6e206f766572666c6f77000081525061093e565b905092915050565b60008083141561073857600090506107a5565b600082840290508284828161074957fe5b04146107a0576040517f08c379a0000000000000000000000000000000000000000000000000000000008152600401808060200182810382526021815260200180610ac56021913960400191505060405180910390fd5b809150505b92915050565b60006107ed83836040518060400160405280601a81526020017f536166654d6174683a206469766973696f6e206279207a65726f0000000000008152506109fe565b905092915050565b600080828401905083811015610873576040517f08c379a000000000000000000000000000000000000000000000000000000000815260040180806020018281038252601b8152602001807f536166654d6174683a206164646974696f6e206f766572666c6f77000000000081525060200191505060405180910390fd5b8091505092915050565b600080831415829061092a576040517f08c379a00000000000000000000000000000000000000000000000000000000081526004018080602001828103825283818151815260200191508051906020019080838360005b838110156108ef5780820151818401526020810190506108d4565b50505050905090810190601f16801561091c5780820380516001836020036101000a031916815260200191505b509250505060405180910390fd5b5082848161093457fe5b0690509392505050565b60008383111582906109eb576040517f08c379a00000000000000000000000000000000000000000000000000000000081526004018080602001828103825283818151815260200191508051906020019080838360005b838110156109b0578082015181840152602081019050610995565b50505050905090810190601f1680156109dd5780820380516001836020036101000a031916815260200191505b509250505060405180910390fd5b5060008385039050809150509392505050565b60008083118290610aaa576040517f08c379a00000000000000000000000000000000000000000000000000000000081526004018080602001828103825283818151815260200191508051906020019080838360005b83811015610a6f578082015181840152602081019050610a54565b50505050905090810190601f168015610a9c5780820380516001836020036101000a031916815260200191505b509250505060405180910390fd5b506000838581610ab657fe5b04905080915050939250505056fe536166654d6174683a206d756c7469706c69636174696f6e206f766572666c6f77a2646970667358221220e421af36ff60ca118684969f14b1d79468bd9d73bc17ac3dc9de2f0d4fbb252d64736f6c634300060c0033",
  "immutableReferences": {},
  "source": "// SPDX-License-Identifier: SimPL-2.0\npragma solidity 0.6.12;\n\nimport \"@openzeppelin/contracts/math/SafeMath.sol\";\n\n/// @title\n/// @author\n/// @notice\ncontract XStableDollar {\n    using SafeMath for uint256;\n\n    // 每一块格子信息\n    struct GridInfo {\n        uint256 rank;       // 格子等级\n        uint256 nftTokenId; // 游戏道具nft资产TokenId\n        address nftOwner;   // nft资产拥有者\n    }\n\n    // 赛季信息\n    struct VersionInfo {\n        uint256 roadFee;           // 过路费\n        uint256 basePrice;         // 一级房子价格\n        uint256 gridSize;          // 栅格数量\n        GridInfo[] gridInfos;      // 本赛季的所有栅格，数组index为格子编号\n        uint256 timeOutBlockSize;  // 过去多少区块执行结算\n        uint256 recentBlockNumber; // 最后一次交易的区块编号，用户结算倒计时\n        bool close;                // 赛季是否结束，true 已结束，false 未结束\n    }\n\n    uint256 public constant DIV_RATE = 10000;\n    // 土地等级增长系数：万分之11000\n    uint256 public constant GROW_MULTIPLIER = 11000;\n    // 奖池收取比例：万2000\n    uint256 public constant POOL_RATE = 2000;\n    // 奖池收取比例：万50\n    uint256 public constant DEV_RATE = 50;\n    // 总奖池\n    uint256 public poolTotalFee;\n    uint256 public devTotalFee;\n    // 当前游戏赛季\n    uint256 public currentVersion;\n\n    // 开发者地址\n    address public devAddress;\n\n    // 所有的赛季信息\n    mapping(uint256 => VersionInfo) public allVersion;\n\n    // 事件1\n    event PayHouse(address indexed user, uint256 indexed gridId, uint256 paid, uint256 remain);\n    // 事件2\n    event Pass(address indexed user, uint256 indexed gridId, uint256 paid, uint256 remain);\n\n    constructor(address _devAddress) public {\n        devAddress = _devAddress;\n        currentVersion = 0;\n        poolTotalFee = 0;\n        devTotalFee = 0;\n    }\n\n    // 跳到自己的地，不做处理退还所有资金\n    function fly() public payable {\n        // 校验支付的金额至少大于一级地\n        VersionInfo storage version = allVersion[currentVersion];\n        require(version.basePrice <= msg.value, 'Game: EXCESSIVE_INPUT_AMOUNT');\n\n        uint256 rand = genRandNumber();\n        uint256 index = rand.mod(version.gridSize);\n\n        address gridOwner;\n\n        if (index <= 20) {\n            // 支付\n            uint256 paid = 1;\n            uint256 remain = msg.value.sub(paid);\n\n            emit PayHouse(msg.sender, index, paid, remain);\n        } else {\n            // 过路\n            uint256 paid = version.roadFee;\n            uint256 remain = msg.value.sub(paid);\n            uint256 poolFee = paid.mul(POOL_RATE).div(DIV_RATE);\n            uint256 devFee = paid.mul(DEV_RATE).div(DIV_RATE);\n            uint256 gridOwnerFee = paid.sub(poolFee.add(devFee));\n\n            poolTotalFee = poolTotalFee.add(poolFee);\n            devTotalFee = devTotalFee.add(devFee);\n            // 给原来土地owner\n            address(uint160(gridOwner)).transfer(gridOwnerFee);\n            msg.sender.transfer(remain);\n            emit Pass(msg.sender, index, paid, remain);\n        }\n    }\n\n    function genRandNumber() public view returns (uint256) {\n        return uint256(keccak256(abi.encodePacked(block.number, block.difficulty)));\n    }\n}\n",
  "sourcePath": "/Users/flora/workspace/eth/stable-coin/taowa/XStableDollar-contracts/stabledollar/contracts/XStableDollar.sol",
  "compiler": {
    "name": "solc",
    "version": "0.6.12+commit.27d51765.Emscripten.clang"
  },
  "schemaVersion": "3.3.2",
  "updatedAt": "2020-11-14T16:57:58.076Z",
  "devdoc": {
    "kind": "dev",
    "methods": {},
    "title": "@author",
    "version": 1
  },
  "userdoc": {
    "kind": "user",
    "methods": {},
    "version": 1
  }
}