{
  "contractName": "XStableDollar",
  "abi": [
    {
      "inputs": [
        {
          "internalType": "address",
          "name": "_devAddress",
          "type": "address"
        }
      ],
      "stateMutability": "nonpayable",
      "type": "constructor"
    },
    {
      "anonymous": false,
      "inputs": [
        {
          "indexed": true,
          "internalType": "address",
          "name": "previousOwner",
          "type": "address"
        },
        {
          "indexed": true,
          "internalType": "address",
          "name": "newOwner",
          "type": "address"
        }
      ],
      "name": "OwnershipTransferred",
      "type": "event"
    },
    {
      "anonymous": false,
      "inputs": [
        {
          "indexed": true,
          "internalType": "address",
          "name": "user",
          "type": "address"
        },
        {
          "indexed": true,
          "internalType": "uint256",
          "name": "gridId",
          "type": "uint256"
        },
        {
          "indexed": false,
          "internalType": "uint256",
          "name": "paid",
          "type": "uint256"
        },
        {
          "indexed": false,
          "internalType": "uint256",
          "name": "remain",
          "type": "uint256"
        }
      ],
      "name": "Pass",
      "type": "event"
    },
    {
      "anonymous": false,
      "inputs": [
        {
          "indexed": true,
          "internalType": "address",
          "name": "user",
          "type": "address"
        },
        {
          "indexed": true,
          "internalType": "uint256",
          "name": "gridId",
          "type": "uint256"
        },
        {
          "indexed": false,
          "internalType": "uint256",
          "name": "paid",
          "type": "uint256"
        },
        {
          "indexed": false,
          "internalType": "uint256",
          "name": "remain",
          "type": "uint256"
        }
      ],
      "name": "PayHouse",
      "type": "event"
    },
    {
      "inputs": [],
      "name": "DEV_RATE",
      "outputs": [
        {
          "internalType": "uint256",
          "name": "",
          "type": "uint256"
        }
      ],
      "stateMutability": "view",
      "type": "function",
      "constant": true
    },
    {
      "inputs": [],
      "name": "DIV_RATE",
      "outputs": [
        {
          "internalType": "uint256",
          "name": "",
          "type": "uint256"
        }
      ],
      "stateMutability": "view",
      "type": "function",
      "constant": true
    },
    {
      "inputs": [],
      "name": "GROW_MULTIPLIER",
      "outputs": [
        {
          "internalType": "uint256",
          "name": "",
          "type": "uint256"
        }
      ],
      "stateMutability": "view",
      "type": "function",
      "constant": true
    },
    {
      "inputs": [],
      "name": "POOL_RATE",
      "outputs": [
        {
          "internalType": "uint256",
          "name": "",
          "type": "uint256"
        }
      ],
      "stateMutability": "view",
      "type": "function",
      "constant": true
    },
    {
      "inputs": [
        {
          "internalType": "uint256",
          "name": "",
          "type": "uint256"
        }
      ],
      "name": "allVersion",
      "outputs": [
        {
          "internalType": "uint256",
          "name": "roadFee",
          "type": "uint256"
        },
        {
          "internalType": "uint256",
          "name": "basePrice",
          "type": "uint256"
        },
        {
          "internalType": "uint256",
          "name": "gridSize",
          "type": "uint256"
        },
        {
          "internalType": "uint256",
          "name": "timeOutBlockSize",
          "type": "uint256"
        },
        {
          "internalType": "uint256",
          "name": "recentBlockNumber",
          "type": "uint256"
        },
        {
          "internalType": "bool",
          "name": "close",
          "type": "bool"
        }
      ],
      "stateMutability": "view",
      "type": "function",
      "constant": true
    },
    {
      "inputs": [],
      "name": "currentVersion",
      "outputs": [
        {
          "internalType": "uint256",
          "name": "",
          "type": "uint256"
        }
      ],
      "stateMutability": "view",
      "type": "function",
      "constant": true
    },
    {
      "inputs": [],
      "name": "devAddress",
      "outputs": [
        {
          "internalType": "address",
          "name": "",
          "type": "address"
        }
      ],
      "stateMutability": "view",
      "type": "function",
      "constant": true
    },
    {
      "inputs": [],
      "name": "devTotalFee",
      "outputs": [
        {
          "internalType": "uint256",
          "name": "",
          "type": "uint256"
        }
      ],
      "stateMutability": "view",
      "type": "function",
      "constant": true
    },
    {
      "inputs": [],
      "name": "owner",
      "outputs": [
        {
          "internalType": "address",
          "name": "",
          "type": "address"
        }
      ],
      "stateMutability": "view",
      "type": "function",
      "constant": true
    },
    {
      "inputs": [],
      "name": "poolTotalFee",
      "outputs": [
        {
          "internalType": "uint256",
          "name": "",
          "type": "uint256"
        }
      ],
      "stateMutability": "view",
      "type": "function",
      "constant": true
    },
    {
      "inputs": [],
      "name": "renounceOwnership",
      "outputs": [],
      "stateMutability": "nonpayable",
      "type": "function"
    },
    {
      "inputs": [
        {
          "internalType": "address",
          "name": "newOwner",
          "type": "address"
        }
      ],
      "name": "transferOwnership",
      "outputs": [],
      "stateMutability": "nonpayable",
      "type": "function"
    },
    {
      "inputs": [],
      "name": "fly",
      "outputs": [],
      "stateMutability": "payable",
      "type": "function",
      "payable": true
    },
    {
      "inputs": [],
      "name": "genRandNumber",
      "outputs": [
        {
          "internalType": "uint256",
          "name": "",
          "type": "uint256"
        }
      ],
      "stateMutability": "view",
      "type": "function",
      "constant": true
    }
  ],
  "bytecode": "0x608060405234801561001057600080fd5b506040516111553803806111558339818101604052602081101561003357600080fd5b8101908080519060200190929190505050600061005461015160201b60201c565b9050806000806101000a81548173ffffffffffffffffffffffffffffffffffffffff021916908373ffffffffffffffffffffffffffffffffffffffff1602179055508073ffffffffffffffffffffffffffffffffffffffff16600073ffffffffffffffffffffffffffffffffffffffff167f8be0079c531659141344cd1fd0a4f28419497f9722a3daafe3b4186f6b6457e060405160405180910390a35080600460006101000a81548173ffffffffffffffffffffffffffffffffffffffff021916908373ffffffffffffffffffffffffffffffffffffffff16021790555060006003819055506000600181905550600060028190555050610159565b600033905090565b610fed806101686000396000f3fe6080604052600436106100dd5760003560e01c8063715018a61161007f5780638da5cb5b116100595780638da5cb5b146102ba5780639d888e86146102fb578063a952d9c514610326578063f2fde38b14610351576100dd565b8063715018a61461024d57806388e33c66146102645780638d0029fc1461028f576100dd565b80633ad10ef6116100bb5780633ad10ef61461014257806362b5e83f146101835780636f495d1d146101f75780637012567114610222576100dd565b806306c0e7d9146100e2578063079134411461010d5780632c2e3abf14610138575b600080fd5b3480156100ee57600080fd5b506100f76103a2565b6040518082815260200191505060405180910390f35b34801561011957600080fd5b506101226103a8565b6040518082815260200191505060405180910390f35b6101406103ae565b005b34801561014e57600080fd5b506101576106b6565b604051808273ffffffffffffffffffffffffffffffffffffffff16815260200191505060405180910390f35b34801561018f57600080fd5b506101bc600480360360208110156101a657600080fd5b81019080803590602001909291905050506106dc565b604051808781526020018681526020018581526020018481526020018381526020018215158152602001965050505050505060405180910390f35b34801561020357600080fd5b5061020c610725565b6040518082815260200191505060405180910390f35b34801561022e57600080fd5b5061023761072b565b6040518082815260200191505060405180910390f35b34801561025957600080fd5b50610262610764565b005b34801561027057600080fd5b506102796108ea565b6040518082815260200191505060405180910390f35b34801561029b57600080fd5b506102a46108f0565b6040518082815260200191505060405180910390f35b3480156102c657600080fd5b506102cf6108f5565b604051808273ffffffffffffffffffffffffffffffffffffffff16815260200191505060405180910390f35b34801561030757600080fd5b5061031061091e565b6040518082815260200191505060405180910390f35b34801561033257600080fd5b5061033b610924565b6040518082815260200191505060405180910390f35b34801561035d57600080fd5b506103a06004803603602081101561037457600080fd5b81019080803573ffffffffffffffffffffffffffffffffffffffff16906020019092919050505061092a565b005b61271081565b60025481565b600060056000600354815260200190815260200160002090503481600101541115610441576040517f08c379a000000000000000000000000000000000000000000000000000000000815260040180806020018281038252601c8152602001807f47616d653a204558434553534956455f494e5055545f414d4f554e540000000081525060200191505060405180910390fd5b600061044b61072b565b90506000610466836002015483610b3590919063ffffffff16565b90506000601482116104ed57600060019050600061048d8234610b7f90919063ffffffff16565b9050833373ffffffffffffffffffffffffffffffffffffffff167f62a0d6bddffe99eab1fa994ee55214211b4b0467a7eab172c7f8ace86e605c228484604051808381526020018281526020019250505060405180910390a350506106b0565b600084600001549050600061050b8234610b7f90919063ffffffff16565b9050600061053861271061052a6107d086610bc990919063ffffffff16565b610c4f90919063ffffffff16565b90506000610564612710610556603287610bc990919063ffffffff16565b610c4f90919063ffffffff16565b9050600061058d61057e8385610c9990919063ffffffff16565b86610b7f90919063ffffffff16565b90506105a483600154610c9990919063ffffffff16565b6001819055506105bf82600254610c9990919063ffffffff16565b6002819055508573ffffffffffffffffffffffffffffffffffffffff166108fc829081150290604051600060405180830381858888f1935050505015801561060b573d6000803e3d6000fd5b503373ffffffffffffffffffffffffffffffffffffffff166108fc859081150290604051600060405180830381858888f19350505050158015610652573d6000803e3d6000fd5b50863373ffffffffffffffffffffffffffffffffffffffff167f2f6e1f2a9341794791a1a7944b55f64cffa162d4d73745b7e50887fbed9761728787604051808381526020018281526020019250505060405180910390a350505050505b50505050565b600460009054906101000a900473ffffffffffffffffffffffffffffffffffffffff1681565b60056020528060005260406000206000915090508060000154908060010154908060020154908060040154908060050154908060060160009054906101000a900460ff16905086565b6107d081565b6000434460405160200180838152602001828152602001925050506040516020818303038152906040528051906020012060001c905090565b61076c610d21565b73ffffffffffffffffffffffffffffffffffffffff1660008054906101000a900473ffffffffffffffffffffffffffffffffffffffff1673ffffffffffffffffffffffffffffffffffffffff161461082c576040517f08c379a00000000000000000000000000000000000000000000000000000000081526004018080602001828103825260208152602001807f4f776e61626c653a2063616c6c6572206973206e6f7420746865206f776e657281525060200191505060405180910390fd5b600073ffffffffffffffffffffffffffffffffffffffff1660008054906101000a900473ffffffffffffffffffffffffffffffffffffffff1673ffffffffffffffffffffffffffffffffffffffff167f8be0079c531659141344cd1fd0a4f28419497f9722a3daafe3b4186f6b6457e060405160405180910390a360008060006101000a81548173ffffffffffffffffffffffffffffffffffffffff021916908373ffffffffffffffffffffffffffffffffffffffff160217905550565b60015481565b603281565b60008060009054906101000a900473ffffffffffffffffffffffffffffffffffffffff16905090565b60035481565b612af881565b610932610d21565b73ffffffffffffffffffffffffffffffffffffffff1660008054906101000a900473ffffffffffffffffffffffffffffffffffffffff1673ffffffffffffffffffffffffffffffffffffffff16146109f2576040517f08c379a00000000000000000000000000000000000000000000000000000000081526004018080602001828103825260208152602001807f4f776e61626c653a2063616c6c6572206973206e6f7420746865206f776e657281525060200191505060405180910390fd5b600073ffffffffffffffffffffffffffffffffffffffff168173ffffffffffffffffffffffffffffffffffffffff161415610a78576040517f08c379a0000000000000000000000000000000000000000000000000000000008152600401808060200182810382526026815260200180610f716026913960400191505060405180910390fd5b8073ffffffffffffffffffffffffffffffffffffffff1660008054906101000a900473ffffffffffffffffffffffffffffffffffffffff1673ffffffffffffffffffffffffffffffffffffffff167f8be0079c531659141344cd1fd0a4f28419497f9722a3daafe3b4186f6b6457e060405160405180910390a3806000806101000a81548173ffffffffffffffffffffffffffffffffffffffff021916908373ffffffffffffffffffffffffffffffffffffffff16021790555050565b6000610b7783836040518060400160405280601881526020017f536166654d6174683a206d6f64756c6f206279207a65726f0000000000000000815250610d29565b905092915050565b6000610bc183836040518060400160405280601e81526020017f536166654d6174683a207375627472616374696f6e206f766572666c6f770000815250610dea565b905092915050565b600080831415610bdc5760009050610c49565b6000828402905082848281610bed57fe5b0414610c44576040517f08c379a0000000000000000000000000000000000000000000000000000000008152600401808060200182810382526021815260200180610f976021913960400191505060405180910390fd5b809150505b92915050565b6000610c9183836040518060400160405280601a81526020017f536166654d6174683a206469766973696f6e206279207a65726f000000000000815250610eaa565b905092915050565b600080828401905083811015610d17576040517f08c379a000000000000000000000000000000000000000000000000000000000815260040180806020018281038252601b8152602001807f536166654d6174683a206164646974696f6e206f766572666c6f77000000000081525060200191505060405180910390fd5b8091505092915050565b600033905090565b6000808314158290610dd6576040517f08c379a00000000000000000000000000000000000000000000000000000000081526004018080602001828103825283818151815260200191508051906020019080838360005b83811015610d9b578082015181840152602081019050610d80565b50505050905090810190601f168015610dc85780820380516001836020036101000a031916815260200191505b509250505060405180910390fd5b50828481610de057fe5b0690509392505050565b6000838311158290610e97576040517f08c379a00000000000000000000000000000000000000000000000000000000081526004018080602001828103825283818151815260200191508051906020019080838360005b83811015610e5c578082015181840152602081019050610e41565b50505050905090810190601f168015610e895780820380516001836020036101000a031916815260200191505b509250505060405180910390fd5b5060008385039050809150509392505050565b60008083118290610f56576040517f08c379a00000000000000000000000000000000000000000000000000000000081526004018080602001828103825283818151815260200191508051906020019080838360005b83811015610f1b578082015181840152602081019050610f00565b50505050905090810190601f168015610f485780820380516001836020036101000a031916815260200191505b509250505060405180910390fd5b506000838581610f6257fe5b04905080915050939250505056fe4f776e61626c653a206e6577206f776e657220697320746865207a65726f2061646472657373536166654d6174683a206d756c7469706c69636174696f6e206f766572666c6f77a2646970667358221220efbac7fc11a743ec154ff8cfda365a16723144fd501d0edc313d48aa2e1bf14764736f6c634300060c0033",
  "immutableReferences": {},
  "source": "// SPDX-License-Identifier: SimPL-2.0\npragma solidity 0.6.12;\n\nimport \"@openzeppelin/contracts/access/Ownable.sol\";\nimport \"@openzeppelin/contracts/math/SafeMath.sol\";\n\n/// @title\n/// @author\n/// @notice\ncontract XStableDollar is Ownable {\n    using SafeMath for uint256;\n\n    // 每一块格子信息\n    struct GridInfo {\n        uint256 rank;       // 格子等级\n        uint256 nftTokenId; // 游戏道具nft资产TokenId\n        address nftOwner;   // nft资产拥有者\n    }\n\n    // 赛季信息\n    struct VersionInfo {\n        uint256 roadFee;           // 过路费\n        uint256 basePrice;         // 一级房子价格\n        uint256 gridSize;          // 栅格数量\n        GridInfo[] gridInfos;      // 本赛季的所有栅格，数组index为格子编号\n        uint256 timeOutBlockSize;  // 过去多少区块执行结算\n        uint256 recentBlockNumber; // 最后一次交易的区块编号，用户结算倒计时\n        bool close;                // 赛季是否结束，true 已结束，false 未结束\n    }\n\n    uint256 public constant DIV_RATE = 10000;\n    // 土地等级增长系数：万分之11000\n    uint256 public constant GROW_MULTIPLIER = 11000;\n    // 奖池收取比例：万2000\n    uint256 public constant POOL_RATE = 2000;\n    // 奖池收取比例：万50\n    uint256 public constant DEV_RATE = 50;\n    // 总奖池\n    uint256 public poolTotalFee;\n    uint256 public devTotalFee;\n    // 当前游戏赛季\n    uint256 public currentVersion;\n\n    // 开发者地址\n    address public devAddress;\n\n    // 所有的赛季信息\n    mapping(uint256 => VersionInfo) public allVersion;\n\n    // 事件1\n    event PayHouse(address indexed user, uint256 indexed gridId, uint256 paid, uint256 remain);\n    // 事件2\n    event Pass(address indexed user, uint256 indexed gridId, uint256 paid, uint256 remain);\n\n    constructor(address _devAddress) public {\n        devAddress = _devAddress;\n        currentVersion = 0;\n        poolTotalFee = 0;\n        devTotalFee = 0;\n    }\n\n    // 跳到自己的地，不做处理退还所有资金\n    function fly() public payable {\n        // 校验支付的金额至少大于一级地\n        VersionInfo storage version = allVersion[currentVersion];\n        require(version.basePrice <= msg.value, 'Game: EXCESSIVE_INPUT_AMOUNT');\n\n        uint256 rand = genRandNumber();\n        uint256 index = rand.mod(version.gridSize);\n\n        address gridOwner;\n\n        if (index <= 20) {\n            // 支付\n            uint256 paid = 1;\n            uint256 remain = msg.value.sub(paid);\n\n            emit PayHouse(msg.sender, index, paid, remain);\n        } else {\n            // 过路\n            uint256 paid = version.roadFee;\n            uint256 remain = msg.value.sub(paid);\n            uint256 poolFee = paid.mul(POOL_RATE).div(DIV_RATE);\n            uint256 devFee = paid.mul(DEV_RATE).div(DIV_RATE);\n            uint256 gridOwnerFee = paid.sub(poolFee.add(devFee));\n\n            poolTotalFee = poolTotalFee.add(poolFee);\n            devTotalFee = devTotalFee.add(devFee);\n            // 给原来土地owner\n            address(uint160(gridOwner)).transfer(gridOwnerFee);\n            msg.sender.transfer(remain);\n            emit Pass(msg.sender, index, paid, remain);\n        }\n    }\n\n    function genRandNumber() public view returns (uint256) {\n        return uint256(keccak256(abi.encodePacked(block.number, block.difficulty)));\n    }\n}\n",
  "sourcePath": "/Users/flora/workspace/eth/stable-coin/XStableDollar/XStableDollar-contracts/stabledollar/contracts/XStableDollar.sol",
  "compiler": {
    "name": "solc",
    "version": "0.6.12+commit.27d51765.Emscripten.clang"
  },
  "schemaVersion": "3.3.1",
  "updatedAt": "2020-11-12T15:16:51.000Z",
  "networkType": "ethereum",
  "devdoc": {
    "kind": "dev",
    "methods": {
      "owner()": {
        "details": "Returns the address of the current owner."
      },
      "renounceOwnership()": {
        "details": "Leaves the contract without owner. It will not be possible to call `onlyOwner` functions anymore. Can only be called by the current owner. NOTE: Renouncing ownership will leave the contract without an owner, thereby removing any functionality that is only available to the owner."
      },
      "transferOwnership(address)": {
        "details": "Transfers ownership of the contract to a new account (`newOwner`). Can only be called by the current owner."
      }
    },
    "title": "@author",
    "version": 1
  },
  "userdoc": {
    "kind": "user",
    "methods": {},
    "version": 1
  }
}